{
  "abi": [
    {
      "inputs": [],
      "stateMutability": "nonpayable",
      "type": "constructor"
    },
    {
      "inputs": [
        {
          "internalType": "address",
          "name": "owner",
          "type": "address"
        }
      ],
      "name": "OwnableInvalidOwner",
      "type": "error"
    },
    {
      "inputs": [
        {
          "internalType": "address",
          "name": "account",
          "type": "address"
        }
      ],
      "name": "OwnableUnauthorizedAccount",
      "type": "error"
    },
    {
      "anonymous": false,
      "inputs": [
        {
          "indexed": true,
          "internalType": "address",
          "name": "loanAddress",
          "type": "address"
        },
        {
          "indexed": true,
          "internalType": "address",
          "name": "borrower",
          "type": "address"
        }
      ],
      "name": "LoanCreated",
      "type": "event"
    },
    {
      "anonymous": false,
      "inputs": [
        {
          "indexed": true,
          "internalType": "address",
          "name": "previousOwner",
          "type": "address"
        },
        {
          "indexed": true,
          "internalType": "address",
          "name": "newOwner",
          "type": "address"
        }
      ],
      "name": "OwnershipTransferred",
      "type": "event"
    },
    {
      "inputs": [
        {
          "internalType": "address",
          "name": "",
          "type": "address"
        },
        {
          "internalType": "uint256",
          "name": "",
          "type": "uint256"
        }
      ],
      "name": "borrowerLoans",
      "outputs": [
        {
          "internalType": "address",
          "name": "",
          "type": "address"
        }
      ],
      "stateMutability": "view",
      "type": "function"
    },
    {
      "inputs": [
        {
          "internalType": "uint256",
          "name": "_loanAmount",
          "type": "uint256"
        },
        {
          "internalType": "uint256",
          "name": "_interestRate",
          "type": "uint256"
        },
        {
          "internalType": "uint256",
          "name": "_duration",
          "type": "uint256"
        },
        {
          "internalType": "uint256",
          "name": "_fundingPeriod",
          "type": "uint256"
        },
        {
          "internalType": "string",
          "name": "_description",
          "type": "string"
        },
        {
          "internalType": "string",
          "name": "_imageURI",
          "type": "string"
        }
      ],
      "name": "createLoan",
      "outputs": [
        {
          "internalType": "address",
          "name": "",
          "type": "address"
        }
      ],
      "stateMutability": "nonpayable",
      "type": "function"
    },
    {
      "inputs": [],
      "name": "getAllLoans",
      "outputs": [
        {
          "internalType": "address[]",
          "name": "",
          "type": "address[]"
        }
      ],
      "stateMutability": "view",
      "type": "function"
    },
    {
      "inputs": [],
      "name": "getLoanCount",
      "outputs": [
        {
          "internalType": "uint256",
          "name": "",
          "type": "uint256"
        }
      ],
      "stateMutability": "view",
      "type": "function"
    },
    {
      "inputs": [
        {
          "internalType": "address",
          "name": "_borrower",
          "type": "address"
        }
      ],
      "name": "getLoansByBorrower",
      "outputs": [
        {
          "internalType": "address[]",
          "name": "",
          "type": "address[]"
        }
      ],
      "stateMutability": "view",
      "type": "function"
    },
    {
      "inputs": [
        {
          "internalType": "uint256",
          "name": "",
          "type": "uint256"
        }
      ],
      "name": "loans",
      "outputs": [
        {
          "internalType": "address",
          "name": "",
          "type": "address"
        }
      ],
      "stateMutability": "view",
      "type": "function"
    },
    {
      "inputs": [],
      "name": "owner",
      "outputs": [
        {
          "internalType": "address",
          "name": "",
          "type": "address"
        }
      ],
      "stateMutability": "view",
      "type": "function"
    },
    {
      "inputs": [],
      "name": "renounceOwnership",
      "outputs": [],
      "stateMutability": "nonpayable",
      "type": "function"
    },
    {
      "inputs": [
        {
          "internalType": "address",
          "name": "newOwner",
          "type": "address"
        }
      ],
      "name": "transferOwnership",
      "outputs": [],
      "stateMutability": "nonpayable",
      "type": "function"
    }
  ],
  "devdoc": {
    "details": "Factory contract that creates new LndyLoan instances",
    "errors": {
      "OwnableInvalidOwner(address)": [
        {
          "details": "The owner is not a valid owner account. (eg. `address(0)`)"
        }
      ],
      "OwnableUnauthorizedAccount(address)": [
        {
          "details": "The caller account is not authorized to perform an operation."
        }
      ]
    },
    "kind": "dev",
    "methods": {
      "createLoan(uint256,uint256,uint256,uint256,string,string)": {
        "details": "Create a new loan",
        "params": {
          "_description": "Description of the loan purpose",
          "_duration": "Duration of the loan in seconds",
          "_fundingPeriod": "Period in seconds during which the loan can be funded",
          "_imageURI": "IPFS URI for the loan NFT image",
          "_interestRate": "Interest rate in basis points (e.g., 1000 = 10%)",
          "_loanAmount": "Total amount requested for the loan"
        }
      },
      "getAllLoans()": {
        "details": "Get all loans",
        "returns": {
          "_0": "Array of loan addresses"
        }
      },
      "getLoanCount()": {
        "details": "Get the total number of loans",
        "returns": {
          "_0": "Number of loans"
        }
      },
      "getLoansByBorrower(address)": {
        "details": "Get loans created by a specific borrower",
        "params": {
          "_borrower": "Address of the borrower"
        },
        "returns": {
          "_0": "Array of loan addresses"
        }
      },
      "owner()": {
        "details": "Returns the address of the current owner."
      },
      "renounceOwnership()": {
        "details": "Leaves the contract without owner. It will not be possible to call `onlyOwner` functions. Can only be called by the current owner. NOTE: Renouncing ownership will leave the contract without an owner, thereby disabling any functionality that is only available to the owner."
      },
      "transferOwnership(address)": {
        "details": "Transfers ownership of the contract to a new account (`newOwner`). Can only be called by the current owner."
      }
    },
    "title": "LndyLauncher",
    "version": 1
  },
  "evm": {
    "assembly": "    /* \"LndyLauncher.sol\":228:2506  contract LndyLauncher is Ownable {... */\n  mstore(0x40, 0x80)\n    /* \"LndyLauncher.sol\":542:578  constructor() Ownable(msg.sender) {} */\n  callvalue\n  dup1\n  iszero\n  tag_1\n  jumpi\n  0x00\n  dup1\n  revert\ntag_1:\n  pop\n    /* \"LndyLauncher.sol\":564:574  msg.sender */\n  caller\n  dup1\n    /* \"@openzeppelin/contracts/access/Ownable.sol\":1269:1364   */\n  tag_5\n  jumpi\n    /* \"@openzeppelin/contracts/access/Ownable.sol\":1322:1353   */\n  mload(0x40)\n  shl(0xe0, 0x1e4fbdf7)\n  dup2\n  mstore\n    /* \"@openzeppelin/contracts/access/Ownable.sol\":1350:1351   */\n  0x00\n    /* \"@openzeppelin/contracts/access/Ownable.sol\":1322:1353   */\n  0x04\n  dup3\n  add\n    /* \"#utility.yul\":160:211   */\n  mstore\n    /* \"#utility.yul\":133:151   */\n  0x24\n  add\n    /* \"@openzeppelin/contracts/access/Ownable.sol\":1322:1353   */\n  mload(0x40)\n  dup1\n  swap2\n  sub\n  swap1\n  revert\n    /* \"@openzeppelin/contracts/access/Ownable.sol\":1269:1364   */\ntag_5:\n    /* \"@openzeppelin/contracts/access/Ownable.sol\":1373:1405   */\n  tag_8\n    /* \"@openzeppelin/contracts/access/Ownable.sol\":1392:1404   */\n  dup2\n    /* \"@openzeppelin/contracts/access/Ownable.sol\":1373:1391   */\n  tag_9\n    /* \"@openzeppelin/contracts/access/Ownable.sol\":1373:1405   */\n  jump\t// in\ntag_8:\n    /* \"@openzeppelin/contracts/access/Ownable.sol\":1225:1412   */\n  pop\n    /* \"LndyLauncher.sol\":228:2506  contract LndyLauncher is Ownable {... */\n  jump(tag_13)\n    /* \"@openzeppelin/contracts/access/Ownable.sol\":2912:3099   */\ntag_9:\n    /* \"@openzeppelin/contracts/access/Ownable.sol\":2985:3001   */\n  0x00\n    /* \"@openzeppelin/contracts/access/Ownable.sol\":3004:3010   */\n  dup1\n  sload\n  sub(shl(0xa0, 0x01), 0x01)\n    /* \"@openzeppelin/contracts/access/Ownable.sol\":3020:3037   */\n  dup4\n  dup2\n  and\n  not(sub(shl(0xa0, 0x01), 0x01))\n  dup4\n  and\n  dup2\n  or\n  dup5\n  sstore\n    /* \"@openzeppelin/contracts/access/Ownable.sol\":3052:3092   */\n  mload(0x40)\n    /* \"@openzeppelin/contracts/access/Ownable.sol\":3004:3010   */\n  swap2\n  swap1\n  swap3\n  and\n  swap3\n  dup4\n  swap2\n    /* \"@openzeppelin/contracts/access/Ownable.sol\":3052:3092   */\n  0x8be0079c531659141344cd1fd0a4f28419497f9722a3daafe3b4186f6b6457e0\n  swap2\n    /* \"@openzeppelin/contracts/access/Ownable.sol\":2985:3001   */\n  swap1\n    /* \"@openzeppelin/contracts/access/Ownable.sol\":3052:3092   */\n  log3\n    /* \"@openzeppelin/contracts/access/Ownable.sol\":2975:3099   */\n  pop\n    /* \"@openzeppelin/contracts/access/Ownable.sol\":2912:3099   */\n  pop\n  jump\t// out\n    /* \"#utility.yul\":14:217   */\ntag_13:\n    /* \"LndyLauncher.sol\":228:2506  contract LndyLauncher is Ownable {... */\n  dataSize(sub_0)\n  dup1\n  dataOffset(sub_0)\n  0x00\n  codecopy\n  0x00\n  return\nstop\n\nsub_0: assembly {\n        /* \"LndyLauncher.sol\":228:2506  contract LndyLauncher is Ownable {... */\n      mstore(0x40, 0x80)\n      callvalue\n      dup1\n      iszero\n      tag_1\n      jumpi\n      0x00\n      dup1\n      revert\n    tag_1:\n      pop\n      jumpi(tag_2, lt(calldatasize, 0x04))\n      shr(0xe0, calldataload(0x00))\n      dup1\n      0xa5bfd16a\n      gt\n      tag_12\n      jumpi\n      dup1\n      0xe1ec3c68\n      gt\n      tag_13\n      jumpi\n      dup1\n      0xe1ec3c68\n      eq\n      tag_9\n      jumpi\n      dup1\n      0xe3ed1902\n      eq\n      tag_10\n      jumpi\n      dup1\n      0xf2fde38b\n      eq\n      tag_11\n      jumpi\n      0x00\n      dup1\n      revert\n    tag_13:\n      dup1\n      0xa5bfd16a\n      eq\n      tag_7\n      jumpi\n      dup1\n      0xc828da9b\n      eq\n      tag_8\n      jumpi\n      0x00\n      dup1\n      revert\n    tag_12:\n      dup1\n      0x52196812\n      eq\n      tag_3\n      jumpi\n      dup1\n      0x715018a6\n      eq\n      tag_4\n      jumpi\n      dup1\n      0x86a2a438\n      eq\n      tag_5\n      jumpi\n      dup1\n      0x8da5cb5b\n      eq\n      tag_6\n      jumpi\n    tag_2:\n      0x00\n      dup1\n      revert\n        /* \"LndyLauncher.sol\":2412:2504  function getLoanCount() external view returns (uint256) {... */\n    tag_3:\n        /* \"LndyLauncher.sol\":2485:2490  loans */\n      0x01\n        /* \"LndyLauncher.sol\":2485:2497  loans.length */\n      sload\n        /* \"LndyLauncher.sol\":2412:2504  function getLoanCount() external view returns (uint256) {... */\n      mload(0x40)\n        /* \"#utility.yul\":160:185   */\n      swap1\n      dup2\n      mstore\n        /* \"#utility.yul\":148:150   */\n      0x20\n        /* \"#utility.yul\":133:151   */\n      add\n        /* \"LndyLauncher.sol\":2412:2504  function getLoanCount() external view returns (uint256) {... */\n    tag_16:\n      mload(0x40)\n      dup1\n      swap2\n      sub\n      swap1\n      return\n        /* \"@openzeppelin/contracts/access/Ownable.sol\":2293:2394   */\n    tag_4:\n      tag_18\n      tag_19\n      jump\t// in\n    tag_18:\n      stop\n        /* \"LndyLauncher.sol\":2177:2313  function getLoansByBorrower(address _borrower) external view returns (address[] memory) {... */\n    tag_5:\n      tag_20\n      tag_21\n      calldatasize\n      0x04\n      tag_22\n      jump\t// in\n    tag_21:\n      tag_23\n      jump\t// in\n    tag_20:\n      mload(0x40)\n      tag_16\n      swap2\n      swap1\n      tag_25\n      jump\t// in\n        /* \"@openzeppelin/contracts/access/Ownable.sol\":1638:1723   */\n    tag_6:\n        /* \"@openzeppelin/contracts/access/Ownable.sol\":1684:1691   */\n      0x00\n        /* \"@openzeppelin/contracts/access/Ownable.sol\":1710:1716   */\n      sload\n      sub(shl(0xa0, 0x01), 0x01)\n      and\n        /* \"@openzeppelin/contracts/access/Ownable.sol\":1638:1723   */\n    tag_26:\n      mload(0x40)\n      sub(shl(0xa0, 0x01), 0x01)\n        /* \"#utility.yul\":1438:1493   */\n      swap1\n      swap2\n      and\n        /* \"#utility.yul\":1420:1494   */\n      dup2\n      mstore\n        /* \"#utility.yul\":1408:1410   */\n      0x20\n        /* \"#utility.yul\":1393:1411   */\n      add\n        /* \"@openzeppelin/contracts/access/Ownable.sol\":1638:1723   */\n      tag_16\n        /* \"#utility.yul\":1274:1500   */\n      jump\n        /* \"LndyLauncher.sol\":1918:2011  function getAllLoans() external view returns (address[] memory) {... */\n    tag_7:\n      tag_20\n      tag_31\n      jump\t// in\n        /* \"LndyLauncher.sol\":1027:1827  function createLoan(... */\n    tag_8:\n      tag_26\n      tag_34\n      calldatasize\n      0x04\n      tag_35\n      jump\t// in\n    tag_34:\n      tag_36\n      jump\t// in\n        /* \"LndyLauncher.sol\":307:329  address[] public loans */\n    tag_9:\n      tag_26\n      tag_39\n      calldatasize\n      0x04\n      tag_40\n      jump\t// in\n    tag_39:\n      tag_41\n      jump\t// in\n        /* \"LndyLauncher.sol\":384:434  mapping(address => address[]) public borrowerLoans */\n    tag_10:\n      tag_26\n      tag_44\n      calldatasize\n      0x04\n      tag_45\n      jump\t// in\n    tag_44:\n      tag_46\n      jump\t// in\n        /* \"@openzeppelin/contracts/access/Ownable.sol\":2543:2758   */\n    tag_11:\n      tag_18\n      tag_49\n      calldatasize\n      0x04\n      tag_22\n      jump\t// in\n    tag_49:\n      tag_50\n      jump\t// in\n        /* \"@openzeppelin/contracts/access/Ownable.sol\":2293:2394   */\n    tag_19:\n        /* \"@openzeppelin/contracts/access/Ownable.sol\":1531:1544   */\n      tag_53\n        /* \"@openzeppelin/contracts/access/Ownable.sol\":1531:1542   */\n      tag_54\n        /* \"@openzeppelin/contracts/access/Ownable.sol\":1531:1544   */\n      jump\t// in\n    tag_53:\n        /* \"@openzeppelin/contracts/access/Ownable.sol\":2357:2387   */\n      tag_56\n        /* \"@openzeppelin/contracts/access/Ownable.sol\":2384:2385   */\n      0x00\n        /* \"@openzeppelin/contracts/access/Ownable.sol\":2357:2375   */\n      tag_57\n        /* \"@openzeppelin/contracts/access/Ownable.sol\":2357:2387   */\n      jump\t// in\n    tag_56:\n        /* \"@openzeppelin/contracts/access/Ownable.sol\":2293:2394   */\n      jump\t// out\n        /* \"LndyLauncher.sol\":2177:2313  function getLoansByBorrower(address _borrower) external view returns (address[] memory) {... */\n    tag_23:\n      sub(shl(0xa0, 0x01), 0x01)\n        /* \"LndyLauncher.sol\":2282:2306  borrowerLoans[_borrower] */\n      dup2\n      and\n      0x00\n      swap1\n      dup2\n      mstore\n        /* \"LndyLauncher.sol\":2282:2295  borrowerLoans */\n      0x02\n        /* \"LndyLauncher.sol\":2282:2306  borrowerLoans[_borrower] */\n      0x20\n      swap1\n      dup2\n      mstore\n      0x40\n      swap2\n      dup3\n      swap1\n      keccak256\n        /* \"LndyLauncher.sol\":2275:2306  return borrowerLoans[_borrower] */\n      dup1\n      sload\n      dup4\n      mload\n      dup2\n      dup5\n      mul\n      dup2\n      add\n      dup5\n      add\n      swap1\n      swap5\n      mstore\n      dup1\n      dup5\n      mstore\n        /* \"LndyLauncher.sol\":2247:2263  address[] memory */\n      0x60\n      swap4\n        /* \"LndyLauncher.sol\":2275:2306  return borrowerLoans[_borrower] */\n      swap3\n      dup4\n      add\n        /* \"LndyLauncher.sol\":2282:2306  borrowerLoans[_borrower] */\n      dup3\n        /* \"LndyLauncher.sol\":2275:2306  return borrowerLoans[_borrower] */\n      dup3\n      dup1\n      iszero\n      tag_59\n      jumpi\n      0x20\n      mul\n      dup3\n      add\n      swap2\n      swap1\n      0x00\n      mstore\n      keccak256(0x00, 0x20)\n      swap1\n    tag_60:\n      dup2\n      sload\n      sub(shl(0xa0, 0x01), 0x01)\n      and\n      dup2\n      mstore\n      0x01\n      swap1\n      swap2\n      add\n      swap1\n      0x20\n      add\n      dup1\n      dup4\n      gt\n      tag_60\n      jumpi\n    tag_59:\n      pop\n      pop\n      pop\n      pop\n      pop\n      swap1\n      pop\n        /* \"LndyLauncher.sol\":2177:2313  function getLoansByBorrower(address _borrower) external view returns (address[] memory) {... */\n      swap2\n      swap1\n      pop\n      jump\t// out\n        /* \"LndyLauncher.sol\":1918:2011  function getAllLoans() external view returns (address[] memory) {... */\n    tag_31:\n        /* \"LndyLauncher.sol\":1964:1980  address[] memory */\n      0x60\n        /* \"LndyLauncher.sol\":1999:2004  loans */\n      0x01\n        /* \"LndyLauncher.sol\":1992:2004  return loans */\n      dup1\n      sload\n      dup1\n      0x20\n      mul\n      0x20\n      add\n      mload(0x40)\n      swap1\n      dup2\n      add\n      0x40\n      mstore\n      dup1\n      swap3\n      swap2\n      swap1\n      dup2\n      dup2\n      mstore\n      0x20\n      add\n      dup3\n      dup1\n      sload\n      dup1\n      iszero\n      tag_63\n      jumpi\n      0x20\n      mul\n      dup3\n      add\n      swap2\n      swap1\n      0x00\n      mstore\n      keccak256(0x00, 0x20)\n      swap1\n    tag_64:\n      dup2\n      sload\n      sub(shl(0xa0, 0x01), 0x01)\n      and\n      dup2\n      mstore\n      0x01\n      swap1\n      swap2\n      add\n      swap1\n      0x20\n      add\n      dup1\n      dup4\n      gt\n      tag_64\n      jumpi\n    tag_63:\n      pop\n      pop\n      pop\n      pop\n      pop\n      swap1\n      pop\n        /* \"LndyLauncher.sol\":1918:2011  function getAllLoans() external view returns (address[] memory) {... */\n      swap1\n      jump\t// out\n        /* \"LndyLauncher.sol\":1027:1827  function createLoan(... */\n    tag_36:\n        /* \"LndyLauncher.sol\":1259:1266  address */\n      0x00\n        /* \"LndyLauncher.sol\":1320:1336  LndyLoan newLoan */\n      dup1\n        /* \"LndyLauncher.sol\":1365:1376  _loanAmount */\n      dup8\n        /* \"LndyLauncher.sol\":1390:1403  _interestRate */\n      dup8\n        /* \"LndyLauncher.sol\":1417:1426  _duration */\n      dup8\n        /* \"LndyLauncher.sol\":1440:1454  _fundingPeriod */\n      dup8\n        /* \"LndyLauncher.sol\":1468:1480  _description */\n      dup8\n        /* \"LndyLauncher.sol\":1494:1503  _imageURI */\n      dup8\n        /* \"LndyLauncher.sol\":1517:1527  msg.sender */\n      caller\n        /* \"LndyLauncher.sol\":1339:1537  new LndyLoan(... */\n      mload(0x40)\n      tag_66\n      swap1\n      tag_67\n      jump\t// in\n    tag_66:\n      tag_68\n      swap8\n      swap7\n      swap6\n      swap5\n      swap4\n      swap3\n      swap2\n      swap1\n      tag_69\n      jump\t// in\n    tag_68:\n      mload(0x40)\n      dup1\n      swap2\n      sub\n      swap1\n      0x00\n      create\n      dup1\n      iszero\n      dup1\n      iszero\n      tag_70\n      jumpi\n      returndatasize\n      0x00\n      dup1\n      returndatacopy\n      revert(0x00, returndatasize)\n    tag_70:\n      pop\n        /* \"LndyLauncher.sol\":1647:1652  loans */\n      0x01\n        /* \"LndyLauncher.sol\":1647:1670  loans.push(loanAddress) */\n      dup1\n      sload\n      dup1\n      dup3\n      add\n      dup3\n      sstore\n      0xb10e2d527612073b26eecdfd717e6a320cf44b4afac2b0732d9fcbe2b7fa0cf6\n      add\n      dup1\n      sload\n      sub(shl(0xa0, 0x01), 0x01)\n      dup5\n      and\n      not(0xffffffffffffffffffffffffffffffffffffffff)\n      swap2\n      dup3\n      and\n      dup2\n      or\n      swap1\n      swap3\n      sstore\n        /* \"LndyLauncher.sol\":1694:1704  msg.sender */\n      caller\n        /* \"LndyLauncher.sol\":1556:1575  address loanAddress */\n      0x00\n        /* \"LndyLauncher.sol\":1680:1705  borrowerLoans[msg.sender] */\n      dup2\n      dup2\n      mstore\n        /* \"LndyLauncher.sol\":1680:1693  borrowerLoans */\n      0x02\n        /* \"LndyLauncher.sol\":1647:1670  loans.push(loanAddress) */\n      0x20\n        /* \"LndyLauncher.sol\":1680:1705  borrowerLoans[msg.sender] */\n      swap1\n      dup2\n      mstore\n      0x40\n      dup1\n      dup4\n      keccak256\n        /* \"LndyLauncher.sol\":1680:1723  borrowerLoans[msg.sender].push(loanAddress) */\n      dup1\n      sload\n      swap8\n      dup9\n      add\n      dup2\n      sstore\n      dup4\n      mstore\n      swap1\n      dup3\n      keccak256\n      swap1\n      swap6\n      add\n      dup1\n      sload\n      swap1\n      swap4\n      and\n      dup5\n      or\n      swap1\n      swap3\n      sstore\n        /* \"LndyLauncher.sol\":1747:1783  LoanCreated(loanAddress, msg.sender) */\n      swap3\n      mload\n        /* \"LndyLauncher.sol\":1320:1537  LndyLoan newLoan = new LndyLoan(... */\n      swap4\n      swap5\n      pop\n      dup5\n      swap4\n        /* \"LndyLauncher.sol\":1747:1783  LoanCreated(loanAddress, msg.sender) */\n      0x89ccfc5e75642b3e017aea5b211bdfbb93e3a3d488f86df28801c48f3771a1d5\n      swap2\n        /* \"LndyLauncher.sol\":1556:1575  address loanAddress */\n      swap1\n        /* \"LndyLauncher.sol\":1747:1783  LoanCreated(loanAddress, msg.sender) */\n      log3\n        /* \"LndyLauncher.sol\":1809:1820  loanAddress */\n      swap9\n        /* \"LndyLauncher.sol\":1027:1827  function createLoan(... */\n      swap8\n      pop\n      pop\n      pop\n      pop\n      pop\n      pop\n      pop\n      pop\n      jump\t// out\n        /* \"LndyLauncher.sol\":307:329  address[] public loans */\n    tag_41:\n      0x01\n      dup2\n      dup2\n      sload\n      dup2\n      lt\n      tag_73\n      jumpi\n      0x00\n      dup1\n      revert\n    tag_73:\n      0x00\n      swap2\n      dup3\n      mstore\n      0x20\n      swap1\n      swap2\n      keccak256\n      add\n      sload\n      sub(shl(0xa0, 0x01), 0x01)\n      and\n      swap1\n      pop\n      dup2\n      jump\t// out\n        /* \"LndyLauncher.sol\":384:434  mapping(address => address[]) public borrowerLoans */\n    tag_46:\n      mstore(0x20, 0x02)\n      dup2\n      0x00\n      mstore\n      keccak256(0x00, 0x40)\n      dup2\n      dup2\n      sload\n      dup2\n      lt\n      tag_75\n      jumpi\n      0x00\n      dup1\n      revert\n    tag_75:\n      0x00\n      swap2\n      dup3\n      mstore\n      0x20\n      swap1\n      swap2\n      keccak256\n      add\n      sload\n      sub(shl(0xa0, 0x01), 0x01)\n      and\n      swap2\n      pop\n      dup3\n      swap1\n      pop\n      jump\t// out\n        /* \"@openzeppelin/contracts/access/Ownable.sol\":2543:2758   */\n    tag_50:\n        /* \"@openzeppelin/contracts/access/Ownable.sol\":1531:1544   */\n      tag_78\n        /* \"@openzeppelin/contracts/access/Ownable.sol\":1531:1542   */\n      tag_54\n        /* \"@openzeppelin/contracts/access/Ownable.sol\":1531:1544   */\n      jump\t// in\n    tag_78:\n      sub(shl(0xa0, 0x01), 0x01)\n        /* \"@openzeppelin/contracts/access/Ownable.sol\":2627:2649   */\n      dup2\n      and\n        /* \"@openzeppelin/contracts/access/Ownable.sol\":2623:2714   */\n      tag_80\n      jumpi\n        /* \"@openzeppelin/contracts/access/Ownable.sol\":2672:2703   */\n      mload(0x40)\n      shl(0xe0, 0x1e4fbdf7)\n      dup2\n      mstore\n        /* \"@openzeppelin/contracts/access/Ownable.sol\":2700:2701   */\n      0x00\n        /* \"@openzeppelin/contracts/access/Ownable.sol\":2672:2703   */\n      0x04\n      dup3\n      add\n        /* \"#utility.yul\":1420:1494   */\n      mstore\n        /* \"#utility.yul\":1393:1411   */\n      0x24\n      add\n        /* \"@openzeppelin/contracts/access/Ownable.sol\":2672:2703   */\n    tag_81:\n      mload(0x40)\n      dup1\n      swap2\n      sub\n      swap1\n      revert\n        /* \"@openzeppelin/contracts/access/Ownable.sol\":2623:2714   */\n    tag_80:\n        /* \"@openzeppelin/contracts/access/Ownable.sol\":2723:2751   */\n      tag_82\n        /* \"@openzeppelin/contracts/access/Ownable.sol\":2742:2750   */\n      dup2\n        /* \"@openzeppelin/contracts/access/Ownable.sol\":2723:2741   */\n      tag_57\n        /* \"@openzeppelin/contracts/access/Ownable.sol\":2723:2751   */\n      jump\t// in\n    tag_82:\n        /* \"@openzeppelin/contracts/access/Ownable.sol\":2543:2758   */\n      pop\n      jump\t// out\n        /* \"@openzeppelin/contracts/access/Ownable.sol\":1796:1958   */\n    tag_54:\n        /* \"@openzeppelin/contracts/access/Ownable.sol\":1684:1691   */\n      0x00\n        /* \"@openzeppelin/contracts/access/Ownable.sol\":1710:1716   */\n      sload\n      sub(shl(0xa0, 0x01), 0x01)\n      and\n        /* \"@openzeppelin/contracts/utils/Context.sol\":735:745   */\n      caller\n        /* \"@openzeppelin/contracts/access/Ownable.sol\":1855:1878   */\n      eq\n        /* \"@openzeppelin/contracts/access/Ownable.sol\":1851:1952   */\n      tag_56\n      jumpi\n        /* \"@openzeppelin/contracts/access/Ownable.sol\":1901:1941   */\n      mload(0x40)\n      shl(0xe0, 0x118cdaa7)\n      dup2\n      mstore\n        /* \"@openzeppelin/contracts/utils/Context.sol\":735:745   */\n      caller\n        /* \"@openzeppelin/contracts/access/Ownable.sol\":1901:1941   */\n      0x04\n      dup3\n      add\n        /* \"#utility.yul\":1420:1494   */\n      mstore\n        /* \"#utility.yul\":1393:1411   */\n      0x24\n      add\n        /* \"@openzeppelin/contracts/access/Ownable.sol\":1901:1941   */\n      tag_81\n        /* \"#utility.yul\":1274:1500   */\n      jump\n        /* \"@openzeppelin/contracts/access/Ownable.sol\":2912:3099   */\n    tag_57:\n        /* \"@openzeppelin/contracts/access/Ownable.sol\":2985:3001   */\n      0x00\n        /* \"@openzeppelin/contracts/access/Ownable.sol\":3004:3010   */\n      dup1\n      sload\n      sub(shl(0xa0, 0x01), 0x01)\n        /* \"@openzeppelin/contracts/access/Ownable.sol\":3020:3037   */\n      dup4\n      dup2\n      and\n      not(0xffffffffffffffffffffffffffffffffffffffff)\n      dup4\n      and\n      dup2\n      or\n      dup5\n      sstore\n        /* \"@openzeppelin/contracts/access/Ownable.sol\":3052:3092   */\n      mload(0x40)\n        /* \"@openzeppelin/contracts/access/Ownable.sol\":3004:3010   */\n      swap2\n      swap1\n      swap3\n      and\n      swap3\n      dup4\n      swap2\n        /* \"@openzeppelin/contracts/access/Ownable.sol\":3052:3092   */\n      0x8be0079c531659141344cd1fd0a4f28419497f9722a3daafe3b4186f6b6457e0\n      swap2\n        /* \"@openzeppelin/contracts/access/Ownable.sol\":2985:3001   */\n      swap1\n        /* \"@openzeppelin/contracts/access/Ownable.sol\":3052:3092   */\n      log3\n        /* \"@openzeppelin/contracts/access/Ownable.sol\":2975:3099   */\n      pop\n        /* \"@openzeppelin/contracts/access/Ownable.sol\":2912:3099   */\n      pop\n      jump\t// out\n    tag_67:\n      dataSize(sub_0)\n      dup1\n      dataOffset(sub_0)\n      dup4\n      codecopy\n      add\n      swap1\n      jump\t// out\n        /* \"#utility.yul\":196:392   */\n    tag_92:\n        /* \"#utility.yul\":264:284   */\n      dup1\n      calldataload\n      sub(shl(0xa0, 0x01), 0x01)\n        /* \"#utility.yul\":313:367   */\n      dup2\n      and\n        /* \"#utility.yul\":303:368   */\n      dup2\n      eq\n        /* \"#utility.yul\":293:386   */\n      tag_99\n      jumpi\n        /* \"#utility.yul\":382:383   */\n      0x00\n        /* \"#utility.yul\":379:380   */\n      dup1\n        /* \"#utility.yul\":372:384   */\n      revert\n        /* \"#utility.yul\":293:386   */\n    tag_99:\n        /* \"#utility.yul\":196:392   */\n      swap2\n      swap1\n      pop\n      jump\t// out\n        /* \"#utility.yul\":397:583   */\n    tag_22:\n        /* \"#utility.yul\":456:462   */\n      0x00\n        /* \"#utility.yul\":509:511   */\n      0x20\n        /* \"#utility.yul\":497:506   */\n      dup3\n        /* \"#utility.yul\":488:495   */\n      dup5\n        /* \"#utility.yul\":484:507   */\n      sub\n        /* \"#utility.yul\":480:512   */\n      slt\n        /* \"#utility.yul\":477:529   */\n      iszero\n      tag_101\n      jumpi\n        /* \"#utility.yul\":525:526   */\n      0x00\n        /* \"#utility.yul\":522:523   */\n      dup1\n        /* \"#utility.yul\":515:527   */\n      revert\n        /* \"#utility.yul\":477:529   */\n    tag_101:\n        /* \"#utility.yul\":548:577   */\n      tag_102\n        /* \"#utility.yul\":567:576   */\n      dup3\n        /* \"#utility.yul\":548:577   */\n      tag_92\n      jump\t// in\n    tag_102:\n        /* \"#utility.yul\":538:577   */\n      swap4\n        /* \"#utility.yul\":397:583   */\n      swap3\n      pop\n      pop\n      pop\n      jump\t// out\n        /* \"#utility.yul\":588:1269   */\n    tag_25:\n        /* \"#utility.yul\":759:761   */\n      0x20\n        /* \"#utility.yul\":811:832   */\n      dup1\n      dup3\n      mstore\n        /* \"#utility.yul\":881:894   */\n      dup3\n      mload\n        /* \"#utility.yul\":784:802   */\n      dup3\n      dup3\n      add\n        /* \"#utility.yul\":903:925   */\n      dup2\n      swap1\n      mstore\n        /* \"#utility.yul\":730:734   */\n      0x00\n      swap2\n        /* \"#utility.yul\":759:761   */\n      swap1\n        /* \"#utility.yul\":982:997   */\n      dup5\n      dup3\n      add\n      swap1\n        /* \"#utility.yul\":956:958   */\n      0x40\n        /* \"#utility.yul\":941:959   */\n      dup6\n      add\n      swap1\n        /* \"#utility.yul\":730:734   */\n      dup5\n        /* \"#utility.yul\":1025:1243   */\n    tag_104:\n        /* \"#utility.yul\":1039:1045   */\n      dup2\n        /* \"#utility.yul\":1036:1037   */\n      dup2\n        /* \"#utility.yul\":1033:1046   */\n      lt\n        /* \"#utility.yul\":1025:1243   */\n      iszero\n      tag_106\n      jumpi\n        /* \"#utility.yul\":1104:1117   */\n      dup4\n      mload\n      sub(shl(0xa0, 0x01), 0x01)\n        /* \"#utility.yul\":1100:1162   */\n      and\n        /* \"#utility.yul\":1088:1163   */\n      dup4\n      mstore\n        /* \"#utility.yul\":1218:1233   */\n      swap3\n      dup5\n      add\n      swap3\n        /* \"#utility.yul\":1183:1195   */\n      swap2\n      dup5\n      add\n      swap2\n        /* \"#utility.yul\":1061:1062   */\n      0x01\n        /* \"#utility.yul\":1054:1063   */\n      add\n        /* \"#utility.yul\":1025:1243   */\n      jump(tag_104)\n    tag_106:\n      pop\n        /* \"#utility.yul\":1260:1263   */\n      swap1\n      swap7\n        /* \"#utility.yul\":588:1269   */\n      swap6\n      pop\n      pop\n      pop\n      pop\n      pop\n      pop\n      jump\t// out\n        /* \"#utility.yul\":1505:1632   */\n    tag_93:\n        /* \"#utility.yul\":1566:1576   */\n      0x4e487b71\n        /* \"#utility.yul\":1561:1564   */\n      0xe0\n        /* \"#utility.yul\":1557:1577   */\n      shl\n        /* \"#utility.yul\":1554:1555   */\n      0x00\n        /* \"#utility.yul\":1547:1578   */\n      mstore\n        /* \"#utility.yul\":1597:1601   */\n      0x41\n        /* \"#utility.yul\":1594:1595   */\n      0x04\n        /* \"#utility.yul\":1587:1602   */\n      mstore\n        /* \"#utility.yul\":1621:1625   */\n      0x24\n        /* \"#utility.yul\":1618:1619   */\n      0x00\n        /* \"#utility.yul\":1611:1626   */\n      revert\n        /* \"#utility.yul\":1637:2356   */\n    tag_94:\n        /* \"#utility.yul\":1680:1685   */\n      0x00\n        /* \"#utility.yul\":1733:1736   */\n      dup3\n        /* \"#utility.yul\":1726:1730   */\n      0x1f\n        /* \"#utility.yul\":1718:1724   */\n      dup4\n        /* \"#utility.yul\":1714:1731   */\n      add\n        /* \"#utility.yul\":1710:1737   */\n      slt\n        /* \"#utility.yul\":1700:1755   */\n      tag_110\n      jumpi\n        /* \"#utility.yul\":1751:1752   */\n      0x00\n        /* \"#utility.yul\":1748:1749   */\n      dup1\n        /* \"#utility.yul\":1741:1753   */\n      revert\n        /* \"#utility.yul\":1700:1755   */\n    tag_110:\n        /* \"#utility.yul\":1787:1793   */\n      dup2\n        /* \"#utility.yul\":1774:1794   */\n      calldataload\n        /* \"#utility.yul\":1813:1831   */\n      0xffffffffffffffff\n        /* \"#utility.yul\":1850:1852   */\n      dup1\n        /* \"#utility.yul\":1846:1848   */\n      dup3\n        /* \"#utility.yul\":1843:1853   */\n      gt\n        /* \"#utility.yul\":1840:1876   */\n      iszero\n      tag_112\n      jumpi\n        /* \"#utility.yul\":1856:1874   */\n      tag_112\n      tag_93\n      jump\t// in\n    tag_112:\n        /* \"#utility.yul\":1931:1933   */\n      0x40\n        /* \"#utility.yul\":1925:1934   */\n      mload\n        /* \"#utility.yul\":1899:1901   */\n      0x1f\n        /* \"#utility.yul\":1985:1998   */\n      dup4\n      add\n      not(0x1f)\n        /* \"#utility.yul\":1981:2003   */\n      swap1\n      dup2\n      and\n        /* \"#utility.yul\":2005:2007   */\n      0x3f\n        /* \"#utility.yul\":1977:2008   */\n      add\n        /* \"#utility.yul\":1973:2013   */\n      and\n        /* \"#utility.yul\":1961:2014   */\n      dup2\n      add\n      swap1\n        /* \"#utility.yul\":2029:2047   */\n      dup3\n      dup3\n      gt\n        /* \"#utility.yul\":2049:2071   */\n      dup2\n      dup4\n      lt\n        /* \"#utility.yul\":2026:2072   */\n      or\n        /* \"#utility.yul\":2023:2095   */\n      iszero\n      tag_114\n      jumpi\n        /* \"#utility.yul\":2075:2093   */\n      tag_114\n      tag_93\n      jump\t// in\n    tag_114:\n        /* \"#utility.yul\":2115:2125   */\n      dup2\n        /* \"#utility.yul\":2111:2113   */\n      0x40\n        /* \"#utility.yul\":2104:2126   */\n      mstore\n        /* \"#utility.yul\":2150:2152   */\n      dup4\n        /* \"#utility.yul\":2142:2148   */\n      dup2\n        /* \"#utility.yul\":2135:2153   */\n      mstore\n        /* \"#utility.yul\":2196:2199   */\n      dup7\n        /* \"#utility.yul\":2189:2193   */\n      0x20\n        /* \"#utility.yul\":2184:2186   */\n      dup6\n        /* \"#utility.yul\":2176:2182   */\n      dup9\n        /* \"#utility.yul\":2172:2187   */\n      add\n        /* \"#utility.yul\":2168:2194   */\n      add\n        /* \"#utility.yul\":2165:2200   */\n      gt\n        /* \"#utility.yul\":2162:2217   */\n      iszero\n      tag_115\n      jumpi\n        /* \"#utility.yul\":2213:2214   */\n      0x00\n        /* \"#utility.yul\":2210:2211   */\n      dup1\n        /* \"#utility.yul\":2203:2215   */\n      revert\n        /* \"#utility.yul\":2162:2217   */\n    tag_115:\n        /* \"#utility.yul\":2277:2279   */\n      dup4\n        /* \"#utility.yul\":2270:2274   */\n      0x20\n        /* \"#utility.yul\":2262:2268   */\n      dup8\n        /* \"#utility.yul\":2258:2275   */\n      add\n        /* \"#utility.yul\":2251:2255   */\n      0x20\n        /* \"#utility.yul\":2243:2249   */\n      dup4\n        /* \"#utility.yul\":2239:2256   */\n      add\n        /* \"#utility.yul\":2226:2280   */\n      calldatacopy\n        /* \"#utility.yul\":2324:2325   */\n      0x00\n        /* \"#utility.yul\":2317:2321   */\n      0x20\n        /* \"#utility.yul\":2312:2314   */\n      dup6\n        /* \"#utility.yul\":2304:2310   */\n      dup4\n        /* \"#utility.yul\":2300:2315   */\n      add\n        /* \"#utility.yul\":2296:2322   */\n      add\n        /* \"#utility.yul\":2289:2326   */\n      mstore\n        /* \"#utility.yul\":2344:2350   */\n      dup1\n        /* \"#utility.yul\":2335:2350   */\n      swap5\n      pop\n      pop\n      pop\n      pop\n      pop\n        /* \"#utility.yul\":1637:2356   */\n      swap3\n      swap2\n      pop\n      pop\n      jump\t// out\n        /* \"#utility.yul\":2361:3179   */\n    tag_35:\n        /* \"#utility.yul\":2485:2491   */\n      0x00\n        /* \"#utility.yul\":2493:2499   */\n      dup1\n        /* \"#utility.yul\":2501:2507   */\n      0x00\n        /* \"#utility.yul\":2509:2515   */\n      dup1\n        /* \"#utility.yul\":2517:2523   */\n      0x00\n        /* \"#utility.yul\":2525:2531   */\n      dup1\n        /* \"#utility.yul\":2578:2581   */\n      0xc0\n        /* \"#utility.yul\":2566:2575   */\n      dup8\n        /* \"#utility.yul\":2557:2564   */\n      dup10\n        /* \"#utility.yul\":2553:2576   */\n      sub\n        /* \"#utility.yul\":2549:2582   */\n      slt\n        /* \"#utility.yul\":2546:2599   */\n      iszero\n      tag_117\n      jumpi\n        /* \"#utility.yul\":2595:2596   */\n      0x00\n        /* \"#utility.yul\":2592:2593   */\n      dup1\n        /* \"#utility.yul\":2585:2597   */\n      revert\n        /* \"#utility.yul\":2546:2599   */\n    tag_117:\n        /* \"#utility.yul\":2631:2640   */\n      dup7\n        /* \"#utility.yul\":2618:2641   */\n      calldataload\n        /* \"#utility.yul\":2608:2641   */\n      swap6\n      pop\n        /* \"#utility.yul\":2688:2690   */\n      0x20\n        /* \"#utility.yul\":2677:2686   */\n      dup8\n        /* \"#utility.yul\":2673:2691   */\n      add\n        /* \"#utility.yul\":2660:2692   */\n      calldataload\n        /* \"#utility.yul\":2650:2692   */\n      swap5\n      pop\n        /* \"#utility.yul\":2739:2741   */\n      0x40\n        /* \"#utility.yul\":2728:2737   */\n      dup8\n        /* \"#utility.yul\":2724:2742   */\n      add\n        /* \"#utility.yul\":2711:2743   */\n      calldataload\n        /* \"#utility.yul\":2701:2743   */\n      swap4\n      pop\n        /* \"#utility.yul\":2790:2792   */\n      0x60\n        /* \"#utility.yul\":2779:2788   */\n      dup8\n        /* \"#utility.yul\":2775:2793   */\n      add\n        /* \"#utility.yul\":2762:2794   */\n      calldataload\n        /* \"#utility.yul\":2752:2794   */\n      swap3\n      pop\n        /* \"#utility.yul\":2845:2848   */\n      0x80\n        /* \"#utility.yul\":2834:2843   */\n      dup8\n        /* \"#utility.yul\":2830:2849   */\n      add\n        /* \"#utility.yul\":2817:2850   */\n      calldataload\n        /* \"#utility.yul\":2869:2887   */\n      0xffffffffffffffff\n        /* \"#utility.yul\":2910:2912   */\n      dup1\n        /* \"#utility.yul\":2902:2908   */\n      dup3\n        /* \"#utility.yul\":2899:2913   */\n      gt\n        /* \"#utility.yul\":2896:2930   */\n      iszero\n      tag_118\n      jumpi\n        /* \"#utility.yul\":2926:2927   */\n      0x00\n        /* \"#utility.yul\":2923:2924   */\n      dup1\n        /* \"#utility.yul\":2916:2928   */\n      revert\n        /* \"#utility.yul\":2896:2930   */\n    tag_118:\n        /* \"#utility.yul\":2949:2999   */\n      tag_119\n        /* \"#utility.yul\":2991:2998   */\n      dup11\n        /* \"#utility.yul\":2982:2988   */\n      dup4\n        /* \"#utility.yul\":2971:2980   */\n      dup12\n        /* \"#utility.yul\":2967:2989   */\n      add\n        /* \"#utility.yul\":2949:2999   */\n      tag_94\n      jump\t// in\n    tag_119:\n        /* \"#utility.yul\":2939:2999   */\n      swap4\n      pop\n        /* \"#utility.yul\":3052:3055   */\n      0xa0\n        /* \"#utility.yul\":3041:3050   */\n      dup10\n        /* \"#utility.yul\":3037:3056   */\n      add\n        /* \"#utility.yul\":3024:3057   */\n      calldataload\n        /* \"#utility.yul\":3008:3057   */\n      swap2\n      pop\n        /* \"#utility.yul\":3082:3084   */\n      dup1\n        /* \"#utility.yul\":3072:3080   */\n      dup3\n        /* \"#utility.yul\":3069:3085   */\n      gt\n        /* \"#utility.yul\":3066:3102   */\n      iszero\n      tag_120\n      jumpi\n        /* \"#utility.yul\":3098:3099   */\n      0x00\n        /* \"#utility.yul\":3095:3096   */\n      dup1\n        /* \"#utility.yul\":3088:3100   */\n      revert\n        /* \"#utility.yul\":3066:3102   */\n    tag_120:\n      pop\n        /* \"#utility.yul\":3121:3173   */\n      tag_121\n        /* \"#utility.yul\":3165:3172   */\n      dup10\n        /* \"#utility.yul\":3154:3162   */\n      dup3\n        /* \"#utility.yul\":3143:3152   */\n      dup11\n        /* \"#utility.yul\":3139:3163   */\n      add\n        /* \"#utility.yul\":3121:3173   */\n      tag_94\n      jump\t// in\n    tag_121:\n        /* \"#utility.yul\":3111:3173   */\n      swap2\n      pop\n      pop\n        /* \"#utility.yul\":2361:3179   */\n      swap3\n      swap6\n      pop\n      swap3\n      swap6\n      pop\n      swap3\n      swap6\n      jump\t// out\n        /* \"#utility.yul\":3184:3364   */\n    tag_40:\n        /* \"#utility.yul\":3243:3249   */\n      0x00\n        /* \"#utility.yul\":3296:3298   */\n      0x20\n        /* \"#utility.yul\":3284:3293   */\n      dup3\n        /* \"#utility.yul\":3275:3282   */\n      dup5\n        /* \"#utility.yul\":3271:3294   */\n      sub\n        /* \"#utility.yul\":3267:3299   */\n      slt\n        /* \"#utility.yul\":3264:3316   */\n      iszero\n      tag_123\n      jumpi\n        /* \"#utility.yul\":3312:3313   */\n      0x00\n        /* \"#utility.yul\":3309:3310   */\n      dup1\n        /* \"#utility.yul\":3302:3314   */\n      revert\n        /* \"#utility.yul\":3264:3316   */\n    tag_123:\n      pop\n        /* \"#utility.yul\":3335:3358   */\n      calldataload\n      swap2\n        /* \"#utility.yul\":3184:3364   */\n      swap1\n      pop\n      jump\t// out\n        /* \"#utility.yul\":3369:3623   */\n    tag_45:\n        /* \"#utility.yul\":3437:3443   */\n      0x00\n        /* \"#utility.yul\":3445:3451   */\n      dup1\n        /* \"#utility.yul\":3498:3500   */\n      0x40\n        /* \"#utility.yul\":3486:3495   */\n      dup4\n        /* \"#utility.yul\":3477:3484   */\n      dup6\n        /* \"#utility.yul\":3473:3496   */\n      sub\n        /* \"#utility.yul\":3469:3501   */\n      slt\n        /* \"#utility.yul\":3466:3518   */\n      iszero\n      tag_125\n      jumpi\n        /* \"#utility.yul\":3514:3515   */\n      0x00\n        /* \"#utility.yul\":3511:3512   */\n      dup1\n        /* \"#utility.yul\":3504:3516   */\n      revert\n        /* \"#utility.yul\":3466:3518   */\n    tag_125:\n        /* \"#utility.yul\":3537:3566   */\n      tag_126\n        /* \"#utility.yul\":3556:3565   */\n      dup4\n        /* \"#utility.yul\":3537:3566   */\n      tag_92\n      jump\t// in\n    tag_126:\n        /* \"#utility.yul\":3527:3566   */\n      swap5\n        /* \"#utility.yul\":3613:3615   */\n      0x20\n        /* \"#utility.yul\":3598:3616   */\n      swap4\n      swap1\n      swap4\n      add\n        /* \"#utility.yul\":3585:3617   */\n      calldataload\n      swap4\n      pop\n      pop\n      pop\n        /* \"#utility.yul\":3369:3623   */\n      jump\t// out\n        /* \"#utility.yul\":3628:3917   */\n    tag_95:\n        /* \"#utility.yul\":3670:3673   */\n      0x00\n        /* \"#utility.yul\":3708:3713   */\n      dup2\n        /* \"#utility.yul\":3702:3714   */\n      mload\n        /* \"#utility.yul\":3735:3741   */\n      dup1\n        /* \"#utility.yul\":3730:3733   */\n      dup5\n        /* \"#utility.yul\":3723:3742   */\n      mstore\n        /* \"#utility.yul\":3791:3797   */\n      dup1\n        /* \"#utility.yul\":3784:3788   */\n      0x20\n        /* \"#utility.yul\":3777:3782   */\n      dup5\n        /* \"#utility.yul\":3773:3789   */\n      add\n        /* \"#utility.yul\":3766:3770   */\n      0x20\n        /* \"#utility.yul\":3761:3764   */\n      dup7\n        /* \"#utility.yul\":3757:3771   */\n      add\n        /* \"#utility.yul\":3751:3798   */\n      mcopy\n        /* \"#utility.yul\":3843:3844   */\n      0x00\n        /* \"#utility.yul\":3836:3840   */\n      0x20\n        /* \"#utility.yul\":3827:3833   */\n      dup3\n        /* \"#utility.yul\":3822:3825   */\n      dup7\n        /* \"#utility.yul\":3818:3834   */\n      add\n        /* \"#utility.yul\":3814:3841   */\n      add\n        /* \"#utility.yul\":3807:3845   */\n      mstore\n        /* \"#utility.yul\":3906:3910   */\n      0x20\n        /* \"#utility.yul\":3899:3901   */\n      0x1f\n        /* \"#utility.yul\":3895:3902   */\n      not\n        /* \"#utility.yul\":3890:3892   */\n      0x1f\n        /* \"#utility.yul\":3882:3888   */\n      dup4\n        /* \"#utility.yul\":3878:3893   */\n      add\n        /* \"#utility.yul\":3874:3903   */\n      and\n        /* \"#utility.yul\":3869:3872   */\n      dup6\n        /* \"#utility.yul\":3865:3904   */\n      add\n        /* \"#utility.yul\":3861:3911   */\n      add\n        /* \"#utility.yul\":3854:3911   */\n      swap2\n      pop\n      pop\n        /* \"#utility.yul\":3628:3917   */\n      swap3\n      swap2\n      pop\n      pop\n      jump\t// out\n        /* \"#utility.yul\":3922:4714   */\n    tag_69:\n        /* \"#utility.yul\":4259:4265   */\n      dup8\n        /* \"#utility.yul\":4248:4257   */\n      dup2\n        /* \"#utility.yul\":4241:4266   */\n      mstore\n        /* \"#utility.yul\":4302:4308   */\n      dup7\n        /* \"#utility.yul\":4297:4299   */\n      0x20\n        /* \"#utility.yul\":4286:4295   */\n      dup3\n        /* \"#utility.yul\":4282:4300   */\n      add\n        /* \"#utility.yul\":4275:4309   */\n      mstore\n        /* \"#utility.yul\":4345:4351   */\n      dup6\n        /* \"#utility.yul\":4340:4342   */\n      0x40\n        /* \"#utility.yul\":4329:4338   */\n      dup3\n        /* \"#utility.yul\":4325:4343   */\n      add\n        /* \"#utility.yul\":4318:4352   */\n      mstore\n        /* \"#utility.yul\":4388:4394   */\n      dup5\n        /* \"#utility.yul\":4383:4385   */\n      0x60\n        /* \"#utility.yul\":4372:4381   */\n      dup3\n        /* \"#utility.yul\":4368:4386   */\n      add\n        /* \"#utility.yul\":4361:4395   */\n      mstore\n        /* \"#utility.yul\":4432:4435   */\n      0xe0\n        /* \"#utility.yul\":4426:4429   */\n      0x80\n        /* \"#utility.yul\":4415:4424   */\n      dup3\n        /* \"#utility.yul\":4411:4430   */\n      add\n        /* \"#utility.yul\":4404:4436   */\n      mstore\n        /* \"#utility.yul\":4222:4226   */\n      0x00\n        /* \"#utility.yul\":4459:4505   */\n      tag_129\n        /* \"#utility.yul\":4500:4503   */\n      0xe0\n        /* \"#utility.yul\":4489:4498   */\n      dup4\n        /* \"#utility.yul\":4485:4504   */\n      add\n        /* \"#utility.yul\":4477:4483   */\n      dup7\n        /* \"#utility.yul\":4459:4505   */\n      tag_95\n      jump\t// in\n    tag_129:\n        /* \"#utility.yul\":4554:4563   */\n      dup3\n        /* \"#utility.yul\":4546:4552   */\n      dup2\n        /* \"#utility.yul\":4542:4564   */\n      sub\n        /* \"#utility.yul\":4536:4539   */\n      0xa0\n        /* \"#utility.yul\":4525:4534   */\n      dup5\n        /* \"#utility.yul\":4521:4540   */\n      add\n        /* \"#utility.yul\":4514:4565   */\n      mstore\n        /* \"#utility.yul\":4582:4615   */\n      tag_130\n        /* \"#utility.yul\":4608:4614   */\n      dup2\n        /* \"#utility.yul\":4600:4606   */\n      dup7\n        /* \"#utility.yul\":4582:4615   */\n      tag_95\n      jump\t// in\n    tag_130:\n        /* \"#utility.yul\":4574:4615   */\n      swap2\n      pop\n      pop\n      sub(shl(0xa0, 0x01), 0x01)\n        /* \"#utility.yul\":4656:4662   */\n      dup4\n        /* \"#utility.yul\":4652:4707   */\n      and\n        /* \"#utility.yul\":4646:4649   */\n      0xc0\n        /* \"#utility.yul\":4635:4644   */\n      dup4\n        /* \"#utility.yul\":4631:4650   */\n      add\n        /* \"#utility.yul\":4624:4708   */\n      mstore\n        /* \"#utility.yul\":3922:4714   */\n      swap9\n      swap8\n      pop\n      pop\n      pop\n      pop\n      pop\n      pop\n      pop\n      pop\n      jump\t// out\n    stop\n\n    sub_0: assembly {\n            /* \"LndyLoan.sol\":434:7965  contract LndyLoan is ERC1155, Ownable {... */\n          mstore(0x40, 0x80)\n            /* \"LndyLoan.sol\":1825:2450  constructor(... */\n          callvalue\n          dup1\n          iszero\n          tag_1\n          jumpi\n          0x00\n          dup1\n          revert\n        tag_1:\n          pop\n          mload(0x40)\n          sub(codesize, bytecodeSize)\n          dup1\n          bytecodeSize\n          dup4\n          codecopy\n          dup2\n          add\n          0x40\n          dup2\n          swap1\n          mstore\n          tag_2\n          swap2\n          tag_3\n          jump\t// in\n        tag_2:\n            /* \"@openzeppelin/contracts/token/ERC1155/ERC1155.sol\":1249:1311   */\n          0x40\n          dup1\n          mload\n          0x20\n          dup2\n          add\n          swap1\n          swap2\n          mstore\n          0x00\n          dup2\n          mstore\n            /* \"LndyLoan.sol\":2078:2087  _borrower */\n          dup2\n          swap1\n            /* \"@openzeppelin/contracts/token/ERC1155/ERC1155.sol\":1291:1304   */\n          tag_8\n            /* \"@openzeppelin/contracts/token/ERC1155/ERC1155.sol\":1249:1311   */\n          dup2\n            /* \"@openzeppelin/contracts/token/ERC1155/ERC1155.sol\":1291:1298   */\n          tag_9\n            /* \"@openzeppelin/contracts/token/ERC1155/ERC1155.sol\":1291:1304   */\n          jump\t// in\n        tag_8:\n          pop\n          sub(shl(0xa0, 0x01), 0x01)\n            /* \"@openzeppelin/contracts/access/Ownable.sol\":1273:1299   */\n          dup2\n          and\n            /* \"@openzeppelin/contracts/access/Ownable.sol\":1269:1364   */\n          tag_11\n          jumpi\n            /* \"@openzeppelin/contracts/access/Ownable.sol\":1322:1353   */\n          mload(0x40)\n          shl(0xe0, 0x1e4fbdf7)\n          dup2\n          mstore\n            /* \"@openzeppelin/contracts/access/Ownable.sol\":1350:1351   */\n          0x00\n            /* \"@openzeppelin/contracts/access/Ownable.sol\":1322:1353   */\n          0x04\n          dup3\n          add\n            /* \"#utility.yul\":1995:2046   */\n          mstore\n            /* \"#utility.yul\":1968:1986   */\n          0x24\n          add\n            /* \"@openzeppelin/contracts/access/Ownable.sol\":1322:1353   */\n          mload(0x40)\n          dup1\n          swap2\n          sub\n          swap1\n          revert\n            /* \"@openzeppelin/contracts/access/Ownable.sol\":1269:1364   */\n        tag_11:\n            /* \"@openzeppelin/contracts/access/Ownable.sol\":1373:1405   */\n          tag_14\n            /* \"@openzeppelin/contracts/access/Ownable.sol\":1392:1404   */\n          dup2\n            /* \"@openzeppelin/contracts/access/Ownable.sol\":1373:1391   */\n          tag_15\n            /* \"@openzeppelin/contracts/access/Ownable.sol\":1373:1405   */\n          jump\t// in\n        tag_14:\n          pop\n            /* \"LndyLoan.sol\":2099:2109  loanAmount */\n          0x04\n            /* \"LndyLoan.sol\":2099:2123  loanAmount = _loanAmount */\n          dup8\n          swap1\n          sstore\n            /* \"LndyLoan.sol\":2133:2145  interestRate */\n          0x05\n            /* \"LndyLoan.sol\":2133:2161  interestRate = _interestRate */\n          dup7\n          swap1\n          sstore\n            /* \"LndyLoan.sol\":2171:2179  duration */\n          0x06\n            /* \"LndyLoan.sol\":2171:2191  duration = _duration */\n          dup6\n          swap1\n          sstore\n            /* \"LndyLoan.sol\":2219:2251  block.timestamp + _fundingPeriod */\n          tag_17\n            /* \"LndyLoan.sol\":2237:2251  _fundingPeriod */\n          dup5\n            /* \"LndyLoan.sol\":2219:2234  block.timestamp */\n          timestamp\n            /* \"LndyLoan.sol\":2219:2251  block.timestamp + _fundingPeriod */\n          tag_18\n          jump\t// in\n        tag_17:\n            /* \"LndyLoan.sol\":2201:2216  fundingDeadline */\n          0x07\n            /* \"LndyLoan.sol\":2201:2251  fundingDeadline = block.timestamp + _fundingPeriod */\n          sstore\n            /* \"LndyLoan.sol\":2261:2272  description */\n          0x09\n            /* \"LndyLoan.sol\":2261:2287  description = _description */\n          tag_19\n            /* \"LndyLoan.sol\":2275:2287  _description */\n          dup5\n            /* \"LndyLoan.sol\":2261:2272  description */\n          dup3\n            /* \"LndyLoan.sol\":2261:2287  description = _description */\n          tag_20\n          jump\t// in\n        tag_19:\n          pop\n            /* \"LndyLoan.sol\":2297:2305  imageURI */\n          0x0a\n            /* \"LndyLoan.sol\":2297:2317  imageURI = _imageURI */\n          tag_21\n            /* \"LndyLoan.sol\":2308:2317  _imageURI */\n          dup4\n            /* \"LndyLoan.sol\":2297:2305  imageURI */\n          dup3\n            /* \"LndyLoan.sol\":2297:2317  imageURI = _imageURI */\n          tag_20\n          jump\t// in\n        tag_21:\n          pop\n            /* \"LndyLoan.sol\":2327:2335  borrower */\n          0x0b\n            /* \"LndyLoan.sol\":2327:2347  borrower = _borrower */\n          dup1\n          sload\n          not(sub(shl(0xa0, 0x01), 0x01))\n          and\n          sub(shl(0xa0, 0x01), 0x01)\n          dup4\n          and\n          or\n          swap1\n          sstore\n            /* \"LndyLoan.sol\":2371:2443  LoanCreated(_borrower, _loanAmount, _interestRate, _duration, _imageURI) */\n          mload(0x40)\n          0x2ba25040909320354099117cfe6b2b6237d005a8e33213718d3bc2784215898f\n          swap1\n          tag_22\n          swap1\n            /* \"LndyLoan.sol\":2327:2347  borrower = _borrower */\n          dup4\n          swap1\n            /* \"LndyLoan.sol\":2394:2405  _loanAmount */\n          dup11\n          swap1\n            /* \"LndyLoan.sol\":2407:2420  _interestRate */\n          dup11\n          swap1\n            /* \"LndyLoan.sol\":2422:2431  _duration */\n          dup11\n          swap1\n            /* \"LndyLoan.sol\":2433:2442  _imageURI */\n          dup9\n          swap1\n            /* \"LndyLoan.sol\":2371:2443  LoanCreated(_borrower, _loanAmount, _interestRate, _duration, _imageURI) */\n          tag_23\n          jump\t// in\n        tag_22:\n          mload(0x40)\n          dup1\n          swap2\n          sub\n          swap1\n          log1\n            /* \"LndyLoan.sol\":1825:2450  constructor(... */\n          pop\n          pop\n          pop\n          pop\n          pop\n          pop\n          pop\n            /* \"LndyLoan.sol\":434:7965  contract LndyLoan is ERC1155, Ownable {... */\n          jump(tag_34)\n            /* \"@openzeppelin/contracts/token/ERC1155/ERC1155.sol\":10290:10376   */\n        tag_9:\n            /* \"@openzeppelin/contracts/token/ERC1155/ERC1155.sol\":10356:10360   */\n          0x02\n            /* \"@openzeppelin/contracts/token/ERC1155/ERC1155.sol\":10356:10369   */\n          tag_26\n            /* \"@openzeppelin/contracts/token/ERC1155/ERC1155.sol\":10363:10369   */\n          dup3\n            /* \"@openzeppelin/contracts/token/ERC1155/ERC1155.sol\":10356:10360   */\n          dup3\n            /* \"@openzeppelin/contracts/token/ERC1155/ERC1155.sol\":10356:10369   */\n          tag_20\n          jump\t// in\n        tag_26:\n          pop\n            /* \"@openzeppelin/contracts/token/ERC1155/ERC1155.sol\":10290:10376   */\n          pop\n          jump\t// out\n            /* \"@openzeppelin/contracts/access/Ownable.sol\":2912:3099   */\n        tag_15:\n            /* \"@openzeppelin/contracts/access/Ownable.sol\":3004:3010   */\n          0x03\n          dup1\n          sload\n          sub(shl(0xa0, 0x01), 0x01)\n            /* \"@openzeppelin/contracts/access/Ownable.sol\":3020:3037   */\n          dup4\n          dup2\n          and\n          not(sub(shl(0xa0, 0x01), 0x01))\n          dup4\n          and\n          dup2\n          or\n          swap1\n          swap4\n          sstore\n            /* \"@openzeppelin/contracts/access/Ownable.sol\":3052:3092   */\n          mload(0x40)\n            /* \"@openzeppelin/contracts/access/Ownable.sol\":3004:3010   */\n          swap2\n          and\n          swap2\n            /* \"@openzeppelin/contracts/access/Ownable.sol\":3020:3037   */\n          swap1\n            /* \"@openzeppelin/contracts/access/Ownable.sol\":3004:3010   */\n          dup3\n          swap1\n            /* \"@openzeppelin/contracts/access/Ownable.sol\":3052:3092   */\n          0x8be0079c531659141344cd1fd0a4f28419497f9722a3daafe3b4186f6b6457e0\n          swap1\n            /* \"@openzeppelin/contracts/access/Ownable.sol\":2985:3001   */\n          0x00\n          swap1\n            /* \"@openzeppelin/contracts/access/Ownable.sol\":3052:3092   */\n          log3\n            /* \"@openzeppelin/contracts/access/Ownable.sol\":2975:3099   */\n          pop\n            /* \"@openzeppelin/contracts/access/Ownable.sol\":2912:3099   */\n          pop\n          jump\t// out\n            /* \"#utility.yul\":14:141   */\n        tag_28:\n            /* \"#utility.yul\":75:85   */\n          0x4e487b71\n            /* \"#utility.yul\":70:73   */\n          0xe0\n            /* \"#utility.yul\":66:86   */\n          shl\n            /* \"#utility.yul\":63:64   */\n          0x00\n            /* \"#utility.yul\":56:87   */\n          mstore\n            /* \"#utility.yul\":106:110   */\n          0x41\n            /* \"#utility.yul\":103:104   */\n          0x04\n            /* \"#utility.yul\":96:111   */\n          mstore\n            /* \"#utility.yul\":130:134   */\n          0x24\n            /* \"#utility.yul\":127:128   */\n          0x00\n            /* \"#utility.yul\":120:135   */\n          revert\n            /* \"#utility.yul\":146:862   */\n        tag_29:\n            /* \"#utility.yul\":200:205   */\n          0x00\n            /* \"#utility.yul\":253:256   */\n          dup3\n            /* \"#utility.yul\":246:250   */\n          0x1f\n            /* \"#utility.yul\":238:244   */\n          dup4\n            /* \"#utility.yul\":234:251   */\n          add\n            /* \"#utility.yul\":230:257   */\n          slt\n            /* \"#utility.yul\":220:275   */\n          tag_37\n          jumpi\n            /* \"#utility.yul\":271:272   */\n          0x00\n            /* \"#utility.yul\":268:269   */\n          dup1\n            /* \"#utility.yul\":261:273   */\n          revert\n            /* \"#utility.yul\":220:275   */\n        tag_37:\n            /* \"#utility.yul\":294:307   */\n          dup2\n          mload\n          sub(shl(0x40, 0x01), 0x01)\n            /* \"#utility.yul\":356:366   */\n          dup1\n          dup3\n          gt\n            /* \"#utility.yul\":353:389   */\n          iszero\n          tag_39\n          jumpi\n            /* \"#utility.yul\":369:387   */\n          tag_39\n          tag_28\n          jump\t// in\n        tag_39:\n            /* \"#utility.yul\":444:446   */\n          0x40\n            /* \"#utility.yul\":438:447   */\n          mload\n            /* \"#utility.yul\":412:414   */\n          0x1f\n            /* \"#utility.yul\":498:511   */\n          dup4\n          add\n          not(0x1f)\n            /* \"#utility.yul\":494:516   */\n          swap1\n          dup2\n          and\n            /* \"#utility.yul\":518:520   */\n          0x3f\n            /* \"#utility.yul\":490:521   */\n          add\n            /* \"#utility.yul\":486:526   */\n          and\n            /* \"#utility.yul\":474:527   */\n          dup2\n          add\n          swap1\n            /* \"#utility.yul\":542:560   */\n          dup3\n          dup3\n          gt\n            /* \"#utility.yul\":562:584   */\n          dup2\n          dup4\n          lt\n            /* \"#utility.yul\":539:585   */\n          or\n            /* \"#utility.yul\":536:608   */\n          iszero\n          tag_41\n          jumpi\n            /* \"#utility.yul\":588:606   */\n          tag_41\n          tag_28\n          jump\t// in\n        tag_41:\n            /* \"#utility.yul\":628:638   */\n          dup2\n            /* \"#utility.yul\":624:626   */\n          0x40\n            /* \"#utility.yul\":617:639   */\n          mstore\n            /* \"#utility.yul\":663:665   */\n          dup4\n            /* \"#utility.yul\":655:661   */\n          dup2\n            /* \"#utility.yul\":648:666   */\n          mstore\n            /* \"#utility.yul\":709:712   */\n          dup7\n            /* \"#utility.yul\":702:706   */\n          0x20\n            /* \"#utility.yul\":697:699   */\n          dup6\n            /* \"#utility.yul\":689:695   */\n          dup9\n            /* \"#utility.yul\":685:700   */\n          add\n            /* \"#utility.yul\":681:707   */\n          add\n            /* \"#utility.yul\":678:713   */\n          gt\n            /* \"#utility.yul\":675:730   */\n          iszero\n          tag_42\n          jumpi\n            /* \"#utility.yul\":726:727   */\n          0x00\n            /* \"#utility.yul\":723:724   */\n          dup1\n            /* \"#utility.yul\":716:728   */\n          revert\n            /* \"#utility.yul\":675:730   */\n        tag_42:\n            /* \"#utility.yul\":783:785   */\n          dup4\n            /* \"#utility.yul\":776:780   */\n          0x20\n            /* \"#utility.yul\":768:774   */\n          dup8\n            /* \"#utility.yul\":764:781   */\n          add\n            /* \"#utility.yul\":757:761   */\n          0x20\n            /* \"#utility.yul\":749:755   */\n          dup4\n            /* \"#utility.yul\":745:762   */\n          add\n            /* \"#utility.yul\":739:786   */\n          mcopy\n            /* \"#utility.yul\":830:831   */\n          0x00\n            /* \"#utility.yul\":823:827   */\n          0x20\n            /* \"#utility.yul\":818:820   */\n          dup6\n            /* \"#utility.yul\":810:816   */\n          dup4\n            /* \"#utility.yul\":806:821   */\n          add\n            /* \"#utility.yul\":802:828   */\n          add\n            /* \"#utility.yul\":795:832   */\n          mstore\n            /* \"#utility.yul\":850:856   */\n          dup1\n            /* \"#utility.yul\":841:856   */\n          swap5\n          pop\n          pop\n          pop\n          pop\n          pop\n            /* \"#utility.yul\":146:862   */\n          swap3\n          swap2\n          pop\n          pop\n          jump\t// out\n            /* \"#utility.yul\":867:1844   */\n        tag_3:\n            /* \"#utility.yul\":1011:1017   */\n          0x00\n            /* \"#utility.yul\":1019:1025   */\n          dup1\n            /* \"#utility.yul\":1027:1033   */\n          0x00\n            /* \"#utility.yul\":1035:1041   */\n          dup1\n            /* \"#utility.yul\":1043:1049   */\n          0x00\n            /* \"#utility.yul\":1051:1057   */\n          dup1\n            /* \"#utility.yul\":1059:1065   */\n          0x00\n            /* \"#utility.yul\":1112:1115   */\n          0xe0\n            /* \"#utility.yul\":1100:1109   */\n          dup9\n            /* \"#utility.yul\":1091:1098   */\n          dup11\n            /* \"#utility.yul\":1087:1110   */\n          sub\n            /* \"#utility.yul\":1083:1116   */\n          slt\n            /* \"#utility.yul\":1080:1133   */\n          iszero\n          tag_44\n          jumpi\n            /* \"#utility.yul\":1129:1130   */\n          0x00\n            /* \"#utility.yul\":1126:1127   */\n          dup1\n            /* \"#utility.yul\":1119:1131   */\n          revert\n            /* \"#utility.yul\":1080:1133   */\n        tag_44:\n            /* \"#utility.yul\":1152:1168   */\n          dup8\n          mload\n            /* \"#utility.yul\":1208:1210   */\n          0x20\n            /* \"#utility.yul\":1193:1211   */\n          dup10\n          add\n            /* \"#utility.yul\":1187:1212   */\n          mload\n            /* \"#utility.yul\":1252:1254   */\n          0x40\n            /* \"#utility.yul\":1237:1255   */\n          dup11\n          add\n            /* \"#utility.yul\":1231:1256   */\n          mload\n            /* \"#utility.yul\":1296:1298   */\n          0x60\n            /* \"#utility.yul\":1281:1299   */\n          dup12\n          add\n            /* \"#utility.yul\":1275:1300   */\n          mload\n            /* \"#utility.yul\":1344:1347   */\n          0x80\n            /* \"#utility.yul\":1329:1348   */\n          dup13\n          add\n            /* \"#utility.yul\":1323:1349   */\n          mload\n            /* \"#utility.yul\":1152:1168   */\n          swap4\n          swap11\n          pop\n            /* \"#utility.yul\":1187:1212   */\n          swap2\n          swap9\n          pop\n            /* \"#utility.yul\":1231:1256   */\n          swap7\n          pop\n            /* \"#utility.yul\":1275:1300   */\n          swap5\n          pop\n          sub(shl(0x40, 0x01), 0x01)\n            /* \"#utility.yul\":1398:1412   */\n          dup1\n          dup3\n          gt\n            /* \"#utility.yul\":1395:1429   */\n          iszero\n          tag_45\n          jumpi\n            /* \"#utility.yul\":1425:1426   */\n          0x00\n            /* \"#utility.yul\":1422:1423   */\n          dup1\n            /* \"#utility.yul\":1415:1427   */\n          revert\n            /* \"#utility.yul\":1395:1429   */\n        tag_45:\n            /* \"#utility.yul\":1448:1509   */\n          tag_46\n            /* \"#utility.yul\":1501:1508   */\n          dup12\n            /* \"#utility.yul\":1492:1498   */\n          dup4\n            /* \"#utility.yul\":1481:1490   */\n          dup13\n            /* \"#utility.yul\":1477:1499   */\n          add\n            /* \"#utility.yul\":1448:1509   */\n          tag_29\n          jump\t// in\n        tag_46:\n            /* \"#utility.yul\":1438:1509   */\n          swap5\n          pop\n            /* \"#utility.yul\":1555:1558   */\n          0xa0\n            /* \"#utility.yul\":1544:1553   */\n          dup11\n            /* \"#utility.yul\":1540:1559   */\n          add\n            /* \"#utility.yul\":1534:1560   */\n          mload\n            /* \"#utility.yul\":1518:1560   */\n          swap2\n          pop\n            /* \"#utility.yul\":1585:1587   */\n          dup1\n            /* \"#utility.yul\":1575:1583   */\n          dup3\n            /* \"#utility.yul\":1572:1588   */\n          gt\n            /* \"#utility.yul\":1569:1605   */\n          iszero\n          tag_47\n          jumpi\n            /* \"#utility.yul\":1601:1602   */\n          0x00\n            /* \"#utility.yul\":1598:1599   */\n          dup1\n            /* \"#utility.yul\":1591:1603   */\n          revert\n            /* \"#utility.yul\":1569:1605   */\n        tag_47:\n          pop\n            /* \"#utility.yul\":1624:1687   */\n          tag_48\n            /* \"#utility.yul\":1679:1686   */\n          dup11\n            /* \"#utility.yul\":1668:1676   */\n          dup3\n            /* \"#utility.yul\":1657:1666   */\n          dup12\n            /* \"#utility.yul\":1653:1677   */\n          add\n            /* \"#utility.yul\":1624:1687   */\n          tag_29\n          jump\t// in\n        tag_48:\n            /* \"#utility.yul\":1730:1733   */\n          0xc0\n            /* \"#utility.yul\":1715:1734   */\n          dup11\n          add\n            /* \"#utility.yul\":1709:1735   */\n          mload\n            /* \"#utility.yul\":1614:1687   */\n          swap1\n          swap4\n          pop\n            /* \"#utility.yul\":1709:1735   */\n          swap1\n          pop\n          sub(shl(0xa0, 0x01), 0x01)\n            /* \"#utility.yul\":1764:1795   */\n          dup2\n          and\n            /* \"#utility.yul\":1754:1796   */\n          dup2\n          eq\n            /* \"#utility.yul\":1744:1814   */\n          tag_49\n          jumpi\n            /* \"#utility.yul\":1810:1811   */\n          0x00\n            /* \"#utility.yul\":1807:1808   */\n          dup1\n            /* \"#utility.yul\":1800:1812   */\n          revert\n            /* \"#utility.yul\":1744:1814   */\n        tag_49:\n            /* \"#utility.yul\":1833:1838   */\n          dup1\n            /* \"#utility.yul\":1823:1838   */\n          swap2\n          pop\n          pop\n            /* \"#utility.yul\":867:1844   */\n          swap3\n          swap6\n          swap9\n          swap2\n          swap5\n          swap8\n          pop\n          swap3\n          swap6\n          pop\n          jump\t// out\n            /* \"#utility.yul\":2057:2279   */\n        tag_18:\n            /* \"#utility.yul\":2122:2131   */\n          dup1\n          dup3\n          add\n            /* \"#utility.yul\":2143:2153   */\n          dup1\n          dup3\n          gt\n            /* \"#utility.yul\":2140:2273   */\n          iszero\n          tag_52\n          jumpi\n            /* \"#utility.yul\":2195:2205   */\n          0x4e487b71\n            /* \"#utility.yul\":2190:2193   */\n          0xe0\n            /* \"#utility.yul\":2186:2206   */\n          shl\n            /* \"#utility.yul\":2183:2184   */\n          0x00\n            /* \"#utility.yul\":2176:2207   */\n          mstore\n            /* \"#utility.yul\":2230:2234   */\n          0x11\n            /* \"#utility.yul\":2227:2228   */\n          0x04\n            /* \"#utility.yul\":2220:2235   */\n          mstore\n            /* \"#utility.yul\":2258:2262   */\n          0x24\n            /* \"#utility.yul\":2255:2256   */\n          0x00\n            /* \"#utility.yul\":2248:2263   */\n          revert\n            /* \"#utility.yul\":2140:2273   */\n        tag_52:\n            /* \"#utility.yul\":2057:2279   */\n          swap3\n          swap2\n          pop\n          pop\n          jump\t// out\n            /* \"#utility.yul\":2284:2664   */\n        tag_30:\n            /* \"#utility.yul\":2363:2364   */\n          0x01\n            /* \"#utility.yul\":2359:2371   */\n          dup2\n          dup2\n          shr\n          swap1\n            /* \"#utility.yul\":2406:2418   */\n          dup3\n          and\n          dup1\n            /* \"#utility.yul\":2427:2488   */\n          tag_54\n          jumpi\n            /* \"#utility.yul\":2481:2485   */\n          0x7f\n            /* \"#utility.yul\":2473:2479   */\n          dup3\n            /* \"#utility.yul\":2469:2486   */\n          and\n            /* \"#utility.yul\":2459:2486   */\n          swap2\n          pop\n            /* \"#utility.yul\":2427:2488   */\n        tag_54:\n            /* \"#utility.yul\":2534:2536   */\n          0x20\n            /* \"#utility.yul\":2526:2532   */\n          dup3\n            /* \"#utility.yul\":2523:2537   */\n          lt\n            /* \"#utility.yul\":2503:2521   */\n          dup2\n            /* \"#utility.yul\":2500:2538   */\n          sub\n            /* \"#utility.yul\":2497:2658   */\n          tag_55\n          jumpi\n            /* \"#utility.yul\":2580:2590   */\n          0x4e487b71\n            /* \"#utility.yul\":2575:2578   */\n          0xe0\n            /* \"#utility.yul\":2571:2591   */\n          shl\n            /* \"#utility.yul\":2568:2569   */\n          0x00\n            /* \"#utility.yul\":2561:2592   */\n          mstore\n            /* \"#utility.yul\":2615:2619   */\n          0x22\n            /* \"#utility.yul\":2612:2613   */\n          0x04\n            /* \"#utility.yul\":2605:2620   */\n          mstore\n            /* \"#utility.yul\":2643:2647   */\n          0x24\n            /* \"#utility.yul\":2640:2641   */\n          0x00\n            /* \"#utility.yul\":2633:2648   */\n          revert\n            /* \"#utility.yul\":2497:2658   */\n        tag_55:\n          pop\n            /* \"#utility.yul\":2284:2664   */\n          swap2\n          swap1\n          pop\n          jump\t// out\n            /* \"#utility.yul\":2795:3313   */\n        tag_32:\n            /* \"#utility.yul\":2897:2899   */\n          0x1f\n            /* \"#utility.yul\":2892:2895   */\n          dup3\n            /* \"#utility.yul\":2889:2900   */\n          gt\n            /* \"#utility.yul\":2886:3307   */\n          iszero\n          tag_58\n          jumpi\n            /* \"#utility.yul\":2933:2938   */\n          dup1\n            /* \"#utility.yul\":2930:2931   */\n          0x00\n            /* \"#utility.yul\":2923:2939   */\n          mstore\n            /* \"#utility.yul\":2977:2981   */\n          0x20\n            /* \"#utility.yul\":2974:2975   */\n          0x00\n            /* \"#utility.yul\":2964:2982   */\n          keccak256\n            /* \"#utility.yul\":3047:3049   */\n          0x1f\n            /* \"#utility.yul\":3035:3045   */\n          dup5\n            /* \"#utility.yul\":3031:3050   */\n          add\n            /* \"#utility.yul\":3028:3029   */\n          0x05\n            /* \"#utility.yul\":3024:3051   */\n          shr\n            /* \"#utility.yul\":3018:3022   */\n          dup2\n            /* \"#utility.yul\":3014:3052   */\n          add\n            /* \"#utility.yul\":3083:3087   */\n          0x20\n            /* \"#utility.yul\":3071:3081   */\n          dup6\n            /* \"#utility.yul\":3068:3088   */\n          lt\n            /* \"#utility.yul\":3065:3112   */\n          iszero\n          tag_59\n          jumpi\n          pop\n            /* \"#utility.yul\":3106:3110   */\n          dup1\n            /* \"#utility.yul\":3065:3112   */\n        tag_59:\n            /* \"#utility.yul\":3161:3163   */\n          0x1f\n            /* \"#utility.yul\":3156:3159   */\n          dup5\n            /* \"#utility.yul\":3152:3164   */\n          add\n            /* \"#utility.yul\":3149:3150   */\n          0x05\n            /* \"#utility.yul\":3145:3165   */\n          shr\n            /* \"#utility.yul\":3139:3143   */\n          dup3\n            /* \"#utility.yul\":3135:3166   */\n          add\n            /* \"#utility.yul\":3125:3166   */\n          swap2\n          pop\n            /* \"#utility.yul\":3216:3297   */\n        tag_60:\n            /* \"#utility.yul\":3234:3236   */\n          dup2\n            /* \"#utility.yul\":3227:3232   */\n          dup2\n            /* \"#utility.yul\":3224:3237   */\n          lt\n            /* \"#utility.yul\":3216:3297   */\n          iszero\n          tag_62\n          jumpi\n            /* \"#utility.yul\":3293:3294   */\n          0x00\n            /* \"#utility.yul\":3279:3295   */\n          dup2\n          sstore\n            /* \"#utility.yul\":3260:3261   */\n          0x01\n            /* \"#utility.yul\":3249:3262   */\n          add\n            /* \"#utility.yul\":3216:3297   */\n          jump(tag_60)\n        tag_62:\n            /* \"#utility.yul\":3220:3223   */\n          pop\n          pop\n            /* \"#utility.yul\":2886:3307   */\n        tag_58:\n            /* \"#utility.yul\":2795:3313   */\n          pop\n          pop\n          pop\n          jump\t// out\n            /* \"#utility.yul\":3489:4834   */\n        tag_20:\n            /* \"#utility.yul\":3609:3619   */\n          dup2\n          mload\n          sub(shl(0x40, 0x01), 0x01)\n            /* \"#utility.yul\":3631:3661   */\n          dup2\n          gt\n            /* \"#utility.yul\":3628:3684   */\n          iszero\n          tag_66\n          jumpi\n            /* \"#utility.yul\":3664:3682   */\n          tag_66\n          tag_28\n          jump\t// in\n        tag_66:\n            /* \"#utility.yul\":3693:3790   */\n          tag_67\n            /* \"#utility.yul\":3783:3789   */\n          dup2\n            /* \"#utility.yul\":3743:3781   */\n          tag_68\n            /* \"#utility.yul\":3775:3779   */\n          dup5\n            /* \"#utility.yul\":3769:3780   */\n          sload\n            /* \"#utility.yul\":3743:3781   */\n          tag_30\n          jump\t// in\n        tag_68:\n            /* \"#utility.yul\":3737:3741   */\n          dup5\n            /* \"#utility.yul\":3693:3790   */\n          tag_32\n          jump\t// in\n        tag_67:\n            /* \"#utility.yul\":3845:3849   */\n          0x20\n          dup1\n            /* \"#utility.yul\":3902:3904   */\n          0x1f\n            /* \"#utility.yul\":3891:3905   */\n          dup4\n          gt\n            /* \"#utility.yul\":3919:3920   */\n          0x01\n            /* \"#utility.yul\":3914:4577   */\n          dup2\n          eq\n          tag_70\n          jumpi\n            /* \"#utility.yul\":4621:4622   */\n          0x00\n            /* \"#utility.yul\":4638:4644   */\n          dup5\n            /* \"#utility.yul\":4635:4724   */\n          iszero\n          tag_71\n          jumpi\n          pop\n            /* \"#utility.yul\":4690:4709   */\n          dup6\n          dup4\n          add\n            /* \"#utility.yul\":4684:4710   */\n          mload\n            /* \"#utility.yul\":4635:4724   */\n        tag_71:\n          not(0x00)\n            /* \"#utility.yul\":3446:3447   */\n          0x03\n            /* \"#utility.yul\":3442:3453   */\n          dup7\n          swap1\n          shl\n            /* \"#utility.yul\":3438:3462   */\n          shr\n            /* \"#utility.yul\":3434:3463   */\n          not\n            /* \"#utility.yul\":3424:3464   */\n          and\n            /* \"#utility.yul\":3470:3471   */\n          0x01\n            /* \"#utility.yul\":3466:3477   */\n          dup6\n          swap1\n          shl\n            /* \"#utility.yul\":3421:3478   */\n          or\n            /* \"#utility.yul\":4737:4818   */\n          dup6\n          sstore\n            /* \"#utility.yul\":3884:4828   */\n          jump(tag_69)\n            /* \"#utility.yul\":3914:4577   */\n        tag_70:\n            /* \"#utility.yul\":2742:2743   */\n          0x00\n            /* \"#utility.yul\":2735:2749   */\n          dup6\n          dup2\n          mstore\n            /* \"#utility.yul\":2779:2783   */\n          0x20\n            /* \"#utility.yul\":2766:2784   */\n          dup2\n          keccak256\n          not(0x1f)\n            /* \"#utility.yul\":3950:3970   */\n          dup7\n          and\n          swap2\n            /* \"#utility.yul\":4068:4304   */\n        tag_74:\n            /* \"#utility.yul\":4082:4089   */\n          dup3\n            /* \"#utility.yul\":4079:4080   */\n          dup2\n            /* \"#utility.yul\":4076:4090   */\n          lt\n            /* \"#utility.yul\":4068:4304   */\n          iszero\n          tag_76\n          jumpi\n            /* \"#utility.yul\":4171:4190   */\n          dup9\n          dup7\n          add\n            /* \"#utility.yul\":4165:4191   */\n          mload\n            /* \"#utility.yul\":4150:4192   */\n          dup3\n          sstore\n            /* \"#utility.yul\":4263:4290   */\n          swap5\n          dup5\n          add\n          swap5\n            /* \"#utility.yul\":4231:4232   */\n          0x01\n            /* \"#utility.yul\":4219:4233   */\n          swap1\n          swap2\n          add\n          swap1\n            /* \"#utility.yul\":4098:4117   */\n          dup5\n          add\n            /* \"#utility.yul\":4068:4304   */\n          jump(tag_74)\n        tag_76:\n            /* \"#utility.yul\":4072:4075   */\n          pop\n            /* \"#utility.yul\":4332:4338   */\n          dup6\n            /* \"#utility.yul\":4323:4330   */\n          dup3\n            /* \"#utility.yul\":4320:4339   */\n          lt\n            /* \"#utility.yul\":4317:4518   */\n          iszero\n          tag_77\n          jumpi\n            /* \"#utility.yul\":4393:4412   */\n          dup8\n          dup6\n          add\n            /* \"#utility.yul\":4387:4413   */\n          mload\n          not(0x00)\n            /* \"#utility.yul\":4476:4477   */\n          0x03\n            /* \"#utility.yul\":4472:4486   */\n          dup9\n          swap1\n          shl\n            /* \"#utility.yul\":4488:4491   */\n          0xf8\n            /* \"#utility.yul\":4468:4492   */\n          and\n            /* \"#utility.yul\":4464:4501   */\n          shr\n            /* \"#utility.yul\":4460:4502   */\n          not\n            /* \"#utility.yul\":4445:4503   */\n          and\n            /* \"#utility.yul\":4430:4504   */\n          dup2\n          sstore\n            /* \"#utility.yul\":4317:4518   */\n        tag_77:\n          pop\n          pop\n            /* \"#utility.yul\":4564:4565   */\n          0x01\n            /* \"#utility.yul\":4555:4561   */\n          dup5\n            /* \"#utility.yul\":4552:4553   */\n          0x01\n            /* \"#utility.yul\":4548:4562   */\n          shl\n            /* \"#utility.yul\":4544:4566   */\n          add\n            /* \"#utility.yul\":4538:4542   */\n          dup6\n            /* \"#utility.yul\":4531:4567   */\n          sstore\n            /* \"#utility.yul\":3884:4828   */\n        tag_69:\n          pop\n          pop\n          pop\n          pop\n            /* \"#utility.yul\":3489:4834   */\n          pop\n          pop\n          jump\t// out\n            /* \"#utility.yul\":4839:5573   */\n        tag_23:\n            /* \"#utility.yul\":5129:5130   */\n          0x01\n            /* \"#utility.yul\":5125:5126   */\n          dup1\n            /* \"#utility.yul\":5120:5123   */\n          0xa0\n            /* \"#utility.yul\":5116:5127   */\n          shl\n            /* \"#utility.yul\":5112:5131   */\n          sub\n            /* \"#utility.yul\":5104:5110   */\n          dup7\n            /* \"#utility.yul\":5100:5132   */\n          and\n            /* \"#utility.yul\":5089:5098   */\n          dup2\n            /* \"#utility.yul\":5082:5133   */\n          mstore\n            /* \"#utility.yul\":5169:5175   */\n          dup5\n            /* \"#utility.yul\":5164:5166   */\n          0x20\n            /* \"#utility.yul\":5153:5162   */\n          dup3\n            /* \"#utility.yul\":5149:5167   */\n          add\n            /* \"#utility.yul\":5142:5176   */\n          mstore\n            /* \"#utility.yul\":5212:5218   */\n          dup4\n            /* \"#utility.yul\":5207:5209   */\n          0x40\n            /* \"#utility.yul\":5196:5205   */\n          dup3\n            /* \"#utility.yul\":5192:5210   */\n          add\n            /* \"#utility.yul\":5185:5219   */\n          mstore\n            /* \"#utility.yul\":5255:5261   */\n          dup3\n            /* \"#utility.yul\":5250:5252   */\n          0x60\n            /* \"#utility.yul\":5239:5248   */\n          dup3\n            /* \"#utility.yul\":5235:5253   */\n          add\n            /* \"#utility.yul\":5228:5262   */\n          mstore\n            /* \"#utility.yul\":5299:5302   */\n          0xa0\n            /* \"#utility.yul\":5293:5296   */\n          0x80\n            /* \"#utility.yul\":5282:5291   */\n          dup3\n            /* \"#utility.yul\":5278:5297   */\n          add\n            /* \"#utility.yul\":5271:5303   */\n          mstore\n            /* \"#utility.yul\":5063:5067   */\n          0x00\n            /* \"#utility.yul\":5332:5338   */\n          dup3\n            /* \"#utility.yul\":5326:5339   */\n          mload\n            /* \"#utility.yul\":5376:5382   */\n          dup1\n            /* \"#utility.yul\":5370:5373   */\n          0xa0\n            /* \"#utility.yul\":5359:5368   */\n          dup5\n            /* \"#utility.yul\":5355:5374   */\n          add\n            /* \"#utility.yul\":5348:5383   */\n          mstore\n            /* \"#utility.yul\":5436:5442   */\n          dup1\n            /* \"#utility.yul\":5431:5433   */\n          0x20\n            /* \"#utility.yul\":5423:5429   */\n          dup6\n            /* \"#utility.yul\":5419:5434   */\n          add\n            /* \"#utility.yul\":5413:5416   */\n          0xc0\n            /* \"#utility.yul\":5402:5411   */\n          dup6\n            /* \"#utility.yul\":5398:5417   */\n          add\n            /* \"#utility.yul\":5392:5443   */\n          mcopy\n            /* \"#utility.yul\":5493:5494   */\n          0x00\n            /* \"#utility.yul\":5487:5490   */\n          0xc0\n            /* \"#utility.yul\":5478:5484   */\n          dup3\n            /* \"#utility.yul\":5467:5476   */\n          dup6\n            /* \"#utility.yul\":5463:5485   */\n          add\n            /* \"#utility.yul\":5459:5491   */\n          add\n            /* \"#utility.yul\":5452:5495   */\n          mstore\n            /* \"#utility.yul\":5563:5566   */\n          0xc0\n            /* \"#utility.yul\":5556:5558   */\n          0x1f\n            /* \"#utility.yul\":5552:5559   */\n          not\n            /* \"#utility.yul\":5547:5549   */\n          0x1f\n            /* \"#utility.yul\":5539:5545   */\n          dup4\n            /* \"#utility.yul\":5535:5550   */\n          add\n            /* \"#utility.yul\":5531:5560   */\n          and\n            /* \"#utility.yul\":5520:5529   */\n          dup5\n            /* \"#utility.yul\":5516:5561   */\n          add\n            /* \"#utility.yul\":5512:5567   */\n          add\n            /* \"#utility.yul\":5504:5567   */\n          swap2\n          pop\n          pop\n            /* \"#utility.yul\":4839:5573   */\n          swap7\n          swap6\n          pop\n          pop\n          pop\n          pop\n          pop\n          pop\n          jump\t// out\n        tag_34:\n            /* \"LndyLoan.sol\":434:7965  contract LndyLoan is ERC1155, Ownable {... */\n          dataSize(sub_0)\n          dup1\n          dataOffset(sub_0)\n          0x00\n          codecopy\n          0x00\n          return\n        stop\n\n        sub_0: assembly {\n                /* \"LndyLoan.sol\":434:7965  contract LndyLoan is ERC1155, Ownable {... */\n              mstore(0x40, 0x80)\n              jumpi(tag_1, lt(calldatasize, 0x04))\n              shr(0xe0, calldataload(0x00))\n              dup1\n              0x7c3a00fd\n              gt\n              tag_30\n              jumpi\n              dup1\n              0xa3b9e39d\n              gt\n              tag_31\n              jumpi\n              dup1\n              0xe985e9c5\n              gt\n              tag_32\n              jumpi\n              dup1\n              0xe985e9c5\n              eq\n              tag_26\n              jumpi\n              dup1\n              0xf242432a\n              eq\n              tag_27\n              jumpi\n              dup1\n              0xf2fde38b\n              eq\n              tag_28\n              jumpi\n              dup1\n              0xf966ade7\n              eq\n              tag_29\n              jumpi\n              0x00\n              dup1\n              revert\n            tag_32:\n              dup1\n              0xa3b9e39d\n              eq\n              tag_23\n              jumpi\n              dup1\n              0xad044f49\n              eq\n              tag_24\n              jumpi\n              dup1\n              0xb05f04d3\n              eq\n              tag_25\n              jumpi\n              0x00\n              dup1\n              revert\n            tag_31:\n              dup1\n              0x89376e40\n              gt\n              tag_33\n              jumpi\n              dup1\n              0x89376e40\n              eq\n              tag_19\n              jumpi\n              dup1\n              0x8da5cb5b\n              eq\n              tag_20\n              jumpi\n              dup1\n              0x9d585f7f\n              eq\n              tag_21\n              jumpi\n              dup1\n              0xa22cb465\n              eq\n              tag_22\n              jumpi\n              0x00\n              dup1\n              revert\n            tag_33:\n              dup1\n              0x7c3a00fd\n              eq\n              tag_16\n              jumpi\n              dup1\n              0x7df1f1b9\n              eq\n              tag_17\n              jumpi\n              dup1\n              0x846b909a\n              eq\n              tag_18\n              jumpi\n              0x00\n              dup1\n              revert\n            tag_30:\n              dup1\n              0x2cca0cde\n              gt\n              tag_34\n              jumpi\n              dup1\n              0x6164051a\n              gt\n              tag_35\n              jumpi\n              dup1\n              0x6164051a\n              eq\n              tag_12\n              jumpi\n              dup1\n              0x715018a6\n              eq\n              tag_13\n              jumpi\n              dup1\n              0x7284e416\n              eq\n              tag_14\n              jumpi\n              dup1\n              0x796b23bb\n              eq\n              tag_15\n              jumpi\n              0x00\n              dup1\n              revert\n            tag_35:\n              dup1\n              0x2cca0cde\n              eq\n              tag_9\n              jumpi\n              dup1\n              0x2eb2c2d6\n              eq\n              tag_10\n              jumpi\n              dup1\n              0x4e1273f4\n              eq\n              tag_11\n              jumpi\n              0x00\n              dup1\n              revert\n            tag_34:\n              dup1\n              0x0fb5a6b4\n              gt\n              tag_36\n              jumpi\n              dup1\n              0x0fb5a6b4\n              eq\n              tag_5\n              jumpi\n              dup1\n              0x135d088d\n              eq\n              tag_6\n              jumpi\n              dup1\n              0x22f3e2d4\n              eq\n              tag_7\n              jumpi\n              dup1\n              0x24600fc3\n              eq\n              tag_8\n              jumpi\n              0x00\n              dup1\n              revert\n            tag_36:\n              dup1\n              0xfdd58e\n              eq\n              tag_2\n              jumpi\n              dup1\n              0x01ffc9a7\n              eq\n              tag_3\n              jumpi\n              dup1\n              0x0e89341c\n              eq\n              tag_4\n              jumpi\n            tag_1:\n              0x00\n              dup1\n              revert\n                /* \"@openzeppelin/contracts/token/ERC1155/ERC1155.sol\":2245:2377   */\n            tag_2:\n              callvalue\n              dup1\n              iszero\n              tag_37\n              jumpi\n              0x00\n              dup1\n              revert\n            tag_37:\n              pop\n              tag_38\n              tag_39\n              calldatasize\n              0x04\n              tag_40\n              jump\t// in\n            tag_39:\n              tag_41\n              jump\t// in\n            tag_38:\n              mload(0x40)\n                /* \"#utility.yul\":620:645   */\n              swap1\n              dup2\n              mstore\n                /* \"#utility.yul\":608:610   */\n              0x20\n                /* \"#utility.yul\":593:611   */\n              add\n                /* \"@openzeppelin/contracts/token/ERC1155/ERC1155.sol\":2245:2377   */\n            tag_42:\n              mload(0x40)\n              dup1\n              swap2\n              sub\n              swap1\n              return\n                /* \"@openzeppelin/contracts/token/ERC1155/ERC1155.sol\":1378:1683   */\n            tag_3:\n              callvalue\n              dup1\n              iszero\n              tag_44\n              jumpi\n              0x00\n              dup1\n              revert\n            tag_44:\n              pop\n              tag_45\n              tag_46\n              calldatasize\n              0x04\n              tag_47\n              jump\t// in\n            tag_46:\n              tag_48\n              jump\t// in\n            tag_45:\n              mload(0x40)\n                /* \"#utility.yul\":1207:1221   */\n              swap1\n              iszero\n                /* \"#utility.yul\":1200:1222   */\n              iszero\n                /* \"#utility.yul\":1182:1223   */\n              dup2\n              mstore\n                /* \"#utility.yul\":1170:1172   */\n              0x20\n                /* \"#utility.yul\":1155:1173   */\n              add\n                /* \"@openzeppelin/contracts/token/ERC1155/ERC1155.sol\":1378:1683   */\n              tag_42\n                /* \"#utility.yul\":1042:1229   */\n              jump\n                /* \"LndyLoan.sol\":2621:2934  function uri(uint256 tokenId) public view override returns (string memory) {... */\n            tag_4:\n              callvalue\n              dup1\n              iszero\n              tag_51\n              jumpi\n              0x00\n              dup1\n              revert\n            tag_51:\n              pop\n              tag_52\n              tag_53\n              calldatasize\n              0x04\n              tag_54\n              jump\t// in\n            tag_53:\n              tag_55\n              jump\t// in\n            tag_52:\n              mload(0x40)\n              tag_42\n              swap2\n              swap1\n              tag_57\n              jump\t// in\n                /* \"LndyLoan.sol\":636:659  uint256 public duration */\n            tag_5:\n              callvalue\n              dup1\n              iszero\n              tag_58\n              jumpi\n              0x00\n              dup1\n              revert\n            tag_58:\n              pop\n              tag_38\n              sload(0x06)\n              dup2\n              jump\n                /* \"LndyLoan.sol\":780:802  string public imageURI */\n            tag_6:\n              callvalue\n              dup1\n              iszero\n              tag_62\n              jumpi\n              0x00\n              dup1\n              revert\n            tag_62:\n              pop\n              tag_52\n              tag_64\n              jump\t// in\n                /* \"LndyLoan.sol\":927:947  bool public isActive */\n            tag_7:\n              callvalue\n              dup1\n              iszero\n              tag_66\n              jumpi\n              0x00\n              dup1\n              revert\n            tag_66:\n              pop\n              sload(0x0d)\n              tag_45\n              swap1\n              0xff\n              and\n              dup2\n              jump\n                /* \"LndyLoan.sol\":4617:5151  function withdrawFunds() external {... */\n            tag_8:\n              callvalue\n              dup1\n              iszero\n              tag_70\n              jumpi\n              0x00\n              dup1\n              revert\n            tag_70:\n              pop\n              tag_71\n              tag_72\n              jump\t// in\n            tag_71:\n              stop\n                /* \"LndyLoan.sol\":1014:1055  uint256 public constant LOAN_TOKEN_ID = 1 */\n            tag_9:\n              callvalue\n              dup1\n              iszero\n              tag_73\n              jumpi\n              0x00\n              dup1\n              revert\n            tag_73:\n              pop\n              tag_38\n                /* \"LndyLoan.sol\":1054:1055  1 */\n              0x01\n                /* \"LndyLoan.sol\":1014:1055  uint256 public constant LOAN_TOKEN_ID = 1 */\n              dup2\n              jump\n                /* \"@openzeppelin/contracts/token/ERC1155/ERC1155.sol\":4012:4441   */\n            tag_10:\n              callvalue\n              dup1\n              iszero\n              tag_77\n              jumpi\n              0x00\n              dup1\n              revert\n            tag_77:\n              pop\n              tag_71\n              tag_79\n              calldatasize\n              0x04\n              tag_80\n              jump\t// in\n            tag_79:\n              tag_81\n              jump\t// in\n                /* \"@openzeppelin/contracts/token/ERC1155/ERC1155.sol\":2534:3086   */\n            tag_11:\n              callvalue\n              dup1\n              iszero\n              tag_82\n              jumpi\n              0x00\n              dup1\n              revert\n            tag_82:\n              pop\n              tag_83\n              tag_84\n              calldatasize\n              0x04\n              tag_85\n              jump\t// in\n            tag_84:\n              tag_86\n              jump\t// in\n            tag_83:\n              mload(0x40)\n              tag_42\n              swap2\n              swap1\n              tag_88\n              jump\t// in\n                /* \"LndyLoan.sol\":953:973  bool public isRepaid */\n            tag_12:\n              callvalue\n              dup1\n              iszero\n              tag_89\n              jumpi\n              0x00\n              dup1\n              revert\n            tag_89:\n              pop\n              sload(0x0d)\n              tag_45\n              swap1\n              0x0100\n              swap1\n              div\n              0xff\n              and\n              dup2\n              jump\n                /* \"@openzeppelin/contracts/access/Ownable.sol\":2293:2394   */\n            tag_13:\n              callvalue\n              dup1\n              iszero\n              tag_93\n              jumpi\n              0x00\n              dup1\n              revert\n            tag_93:\n              pop\n              tag_71\n              tag_95\n              jump\t// in\n                /* \"LndyLoan.sol\":749:774  string public description */\n            tag_14:\n              callvalue\n              dup1\n              iszero\n              tag_96\n              jumpi\n              0x00\n              dup1\n              revert\n            tag_96:\n              pop\n              tag_52\n              tag_98\n              jump\t// in\n                /* \"LndyLoan.sol\":679:709  uint256 public fundingDeadline */\n            tag_15:\n              callvalue\n              dup1\n              iszero\n              tag_100\n              jumpi\n              0x00\n              dup1\n              revert\n            tag_100:\n              pop\n              tag_38\n              sload(0x07)\n              dup2\n              jump\n                /* \"LndyLoan.sol\":565:592  uint256 public interestRate */\n            tag_16:\n              callvalue\n              dup1\n              iszero\n              tag_104\n              jumpi\n              0x00\n              dup1\n              revert\n            tag_104:\n              pop\n              tag_38\n              sload(0x05)\n              dup2\n              jump\n                /* \"LndyLoan.sol\":843:866  address public borrower */\n            tag_17:\n              callvalue\n              dup1\n              iszero\n              tag_108\n              jumpi\n              0x00\n              dup1\n              revert\n            tag_108:\n              pop\n              sload(0x0b)\n              tag_109\n              swap1\n              sub(shl(0xa0, 0x01), 0x01)\n              and\n              dup2\n              jump\n            tag_109:\n              mload(0x40)\n              sub(shl(0xa0, 0x01), 0x01)\n                /* \"#utility.yul\":6719:6774   */\n              swap1\n              swap2\n              and\n                /* \"#utility.yul\":6701:6775   */\n              dup2\n              mstore\n                /* \"#utility.yul\":6689:6691   */\n              0x20\n                /* \"#utility.yul\":6674:6692   */\n              add\n                /* \"LndyLoan.sol\":843:866  address public borrower */\n              tag_42\n                /* \"#utility.yul\":6555:6781   */\n              jump\n                /* \"LndyLoan.sol\":3075:3832  function fundLoan(uint256 _amount) external payable {... */\n            tag_18:\n              tag_71\n              tag_114\n              calldatasize\n              0x04\n              tag_54\n              jump\t// in\n            tag_114:\n              tag_115\n              jump\t// in\n                /* \"LndyLoan.sol\":5274:5996  function claimReturns() external {... */\n            tag_19:\n              callvalue\n              dup1\n              iszero\n              tag_116\n              jumpi\n              0x00\n              dup1\n              revert\n            tag_116:\n              pop\n              tag_71\n              tag_118\n              jump\t// in\n                /* \"@openzeppelin/contracts/access/Ownable.sol\":1638:1723   */\n            tag_20:\n              callvalue\n              dup1\n              iszero\n              tag_119\n              jumpi\n              0x00\n              dup1\n              revert\n            tag_119:\n              pop\n                /* \"@openzeppelin/contracts/access/Ownable.sol\":1710:1716   */\n              and(sub(shl(0xa0, 0x01), 0x01), sload(0x03))\n                /* \"@openzeppelin/contracts/access/Ownable.sol\":1638:1723   */\n              jump(tag_109)\n                /* \"LndyLoan.sol\":534:559  uint256 public loanAmount */\n            tag_21:\n              callvalue\n              dup1\n              iszero\n              tag_123\n              jumpi\n              0x00\n              dup1\n              revert\n            tag_123:\n              pop\n              tag_38\n              sload(0x04)\n              dup2\n              jump\n                /* \"@openzeppelin/contracts/token/ERC1155/ERC1155.sol\":3154:3298   */\n            tag_22:\n              callvalue\n              dup1\n              iszero\n              tag_127\n              jumpi\n              0x00\n              dup1\n              revert\n            tag_127:\n              pop\n              tag_71\n              tag_129\n              calldatasize\n              0x04\n              tag_130\n              jump\t// in\n            tag_129:\n              tag_131\n              jump\t// in\n                /* \"LndyLoan.sol\":6651:7333  function getLoanDetails() external view returns (... */\n            tag_23:\n              callvalue\n              dup1\n              iszero\n              tag_132\n              jumpi\n              0x00\n              dup1\n              revert\n            tag_132:\n              pop\n              tag_133\n              tag_134\n              jump\t// in\n            tag_133:\n              mload(0x40)\n              tag_42\n              swap12\n              swap11\n              swap10\n              swap9\n              swap8\n              swap7\n              swap6\n              swap5\n              swap4\n              swap3\n              swap2\n              swap1\n              tag_136\n              jump\t// in\n                /* \"LndyLoan.sol\":895:921  uint256 public totalFunded */\n            tag_24:\n              callvalue\n              dup1\n              iszero\n              tag_137\n              jumpi\n              0x00\n              dup1\n              revert\n            tag_137:\n              pop\n              tag_38\n              sload(0x0c)\n              dup2\n              jump\n                /* \"LndyLoan.sol\":715:743  uint256 public repaymentDate */\n            tag_25:\n              callvalue\n              dup1\n              iszero\n              tag_141\n              jumpi\n              0x00\n              dup1\n              revert\n            tag_141:\n              pop\n              tag_38\n              sload(0x08)\n              dup2\n              jump\n                /* \"@openzeppelin/contracts/token/ERC1155/ERC1155.sol\":3365:3522   */\n            tag_26:\n              callvalue\n              dup1\n              iszero\n              tag_145\n              jumpi\n              0x00\n              dup1\n              revert\n            tag_145:\n              pop\n              tag_45\n              tag_147\n              calldatasize\n              0x04\n              tag_148\n              jump\t// in\n            tag_147:\n              sub(shl(0xa0, 0x01), 0x01)\n                /* \"@openzeppelin/contracts/token/ERC1155/ERC1155.sol\":3478:3505   */\n              swap2\n              dup3\n              and\n                /* \"@openzeppelin/contracts/token/ERC1155/ERC1155.sol\":3455:3459   */\n              0x00\n                /* \"@openzeppelin/contracts/token/ERC1155/ERC1155.sol\":3478:3505   */\n              swap1\n              dup2\n              mstore\n                /* \"@openzeppelin/contracts/token/ERC1155/ERC1155.sol\":3478:3496   */\n              0x01\n                /* \"@openzeppelin/contracts/token/ERC1155/ERC1155.sol\":3478:3505   */\n              0x20\n              swap1\n              dup2\n              mstore\n              0x40\n              dup1\n              dup4\n              keccak256\n                /* \"@openzeppelin/contracts/token/ERC1155/ERC1155.sol\":3478:3515   */\n              swap4\n              swap1\n              swap5\n              and\n              dup3\n              mstore\n              swap2\n              swap1\n              swap2\n              mstore\n              keccak256\n              sload\n              0xff\n              and\n              swap1\n                /* \"@openzeppelin/contracts/token/ERC1155/ERC1155.sol\":3365:3522   */\n              jump\n                /* \"@openzeppelin/contracts/token/ERC1155/ERC1155.sol\":3589:3940   */\n            tag_27:\n              callvalue\n              dup1\n              iszero\n              tag_151\n              jumpi\n              0x00\n              dup1\n              revert\n            tag_151:\n              pop\n              tag_71\n              tag_153\n              calldatasize\n              0x04\n              tag_154\n              jump\t// in\n            tag_153:\n              tag_155\n              jump\t// in\n                /* \"@openzeppelin/contracts/access/Ownable.sol\":2543:2758   */\n            tag_28:\n              callvalue\n              dup1\n              iszero\n              tag_156\n              jumpi\n              0x00\n              dup1\n              revert\n            tag_156:\n              pop\n              tag_71\n              tag_158\n              calldatasize\n              0x04\n              tag_159\n              jump\t// in\n            tag_158:\n              tag_160\n              jump\t// in\n                /* \"LndyLoan.sol\":3913:4437  function repayLoan() external payable onlyOwner {... */\n            tag_29:\n              tag_71\n              tag_162\n              jump\t// in\n                /* \"@openzeppelin/contracts/token/ERC1155/ERC1155.sol\":2245:2377   */\n            tag_41:\n                /* \"@openzeppelin/contracts/token/ERC1155/ERC1155.sol\":2322:2329   */\n              0x00\n                /* \"@openzeppelin/contracts/token/ERC1155/ERC1155.sol\":2348:2361   */\n              dup2\n              dup2\n              mstore\n              0x20\n              dup2\n              dup2\n              mstore\n              0x40\n              dup1\n              dup4\n              keccak256\n              sub(shl(0xa0, 0x01), 0x01)\n                /* \"@openzeppelin/contracts/token/ERC1155/ERC1155.sol\":2348:2370   */\n              dup7\n              and\n              dup5\n              mstore\n              swap1\n              swap2\n              mstore\n              swap1\n              keccak256\n              sload\n                /* \"@openzeppelin/contracts/token/ERC1155/ERC1155.sol\":2245:2377   */\n            tag_163:\n              swap3\n              swap2\n              pop\n              pop\n              jump\t// out\n                /* \"@openzeppelin/contracts/token/ERC1155/ERC1155.sol\":1378:1683   */\n            tag_48:\n                /* \"@openzeppelin/contracts/token/ERC1155/ERC1155.sol\":1480:1484   */\n              0x00\n              not(sub(shl(0xe0, 0x01), 0x01))\n                /* \"@openzeppelin/contracts/token/ERC1155/ERC1155.sol\":1515:1556   */\n              dup3\n              and\n              shl(0xe1, 0x6cdb3d13)\n              eq\n              dup1\n                /* \"@openzeppelin/contracts/token/ERC1155/ERC1155.sol\":1515:1624   */\n              tag_165\n              jumpi\n              pop\n              not(sub(shl(0xe0, 0x01), 0x01))\n                /* \"@openzeppelin/contracts/token/ERC1155/ERC1155.sol\":1572:1624   */\n              dup3\n              and\n              shl(0xe2, 0x03a24d07)\n              eq\n                /* \"@openzeppelin/contracts/token/ERC1155/ERC1155.sol\":1515:1624   */\n            tag_165:\n                /* \"@openzeppelin/contracts/token/ERC1155/ERC1155.sol\":1515:1676   */\n              dup1\n              tag_163\n              jumpi\n              pop\n              shl(0xe0, 0x01ffc9a7)\n              not(sub(shl(0xe0, 0x01), 0x01))\n                /* \"@openzeppelin/contracts/utils/introspection/ERC165.sol\":862:902   */\n              dup4\n              and\n              eq\n                /* \"@openzeppelin/contracts/token/ERC1155/ERC1155.sol\":1640:1676   */\n              tag_163\n                /* \"@openzeppelin/contracts/utils/introspection/ERC165.sol\":763:909   */\n              jump\n                /* \"LndyLoan.sol\":2621:2934  function uri(uint256 tokenId) public view override returns (string memory) {... */\n            tag_55:\n                /* \"LndyLoan.sol\":2681:2694  string memory */\n              0x60\n                /* \"LndyLoan.sol\":1054:1055  1 */\n              0x01\n                /* \"LndyLoan.sol\":2714:2721  tokenId */\n              dup3\n                /* \"LndyLoan.sol\":2714:2738  tokenId == LOAN_TOKEN_ID */\n              eq\n                /* \"LndyLoan.sol\":2706:2766  require(tokenId == LOAN_TOKEN_ID, \"Token ID does not exist\") */\n              tag_170\n              jumpi\n              mload(0x40)\n              shl(0xe5, 0x461bcd)\n              dup2\n              mstore\n                /* \"#utility.yul\":9534:9536   */\n              0x20\n                /* \"LndyLoan.sol\":2706:2766  require(tokenId == LOAN_TOKEN_ID, \"Token ID does not exist\") */\n              0x04\n              dup3\n              add\n                /* \"#utility.yul\":9516:9537   */\n              mstore\n                /* \"#utility.yul\":9573:9575   */\n              0x17\n                /* \"#utility.yul\":9553:9571   */\n              0x24\n              dup3\n              add\n                /* \"#utility.yul\":9546:9576   */\n              mstore\n                /* \"#utility.yul\":9612:9637   */\n              0x546f6b656e20494420646f6573206e6f74206578697374000000000000000000\n                /* \"#utility.yul\":9592:9610   */\n              0x44\n              dup3\n              add\n                /* \"#utility.yul\":9585:9638   */\n              mstore\n                /* \"#utility.yul\":9655:9673   */\n              0x64\n              add\n                /* \"LndyLoan.sol\":2706:2766  require(tokenId == LOAN_TOKEN_ID, \"Token ID does not exist\") */\n            tag_171:\n              mload(0x40)\n              dup1\n              swap2\n              sub\n              swap1\n              revert\n            tag_170:\n                /* \"LndyLoan.sol\":2919:2927  imageURI */\n              0x0a\n                /* \"LndyLoan.sol\":2912:2927  return imageURI */\n              dup1\n              sload\n              tag_173\n              swap1\n              tag_174\n              jump\t// in\n            tag_173:\n              dup1\n              0x1f\n              add\n              0x20\n              dup1\n              swap2\n              div\n              mul\n              0x20\n              add\n              mload(0x40)\n              swap1\n              dup2\n              add\n              0x40\n              mstore\n              dup1\n              swap3\n              swap2\n              swap1\n              dup2\n              dup2\n              mstore\n              0x20\n              add\n              dup3\n              dup1\n              sload\n              tag_175\n              swap1\n              tag_174\n              jump\t// in\n            tag_175:\n              dup1\n              iszero\n              tag_176\n              jumpi\n              dup1\n              0x1f\n              lt\n              tag_177\n              jumpi\n              0x0100\n              dup1\n              dup4\n              sload\n              div\n              mul\n              dup4\n              mstore\n              swap2\n              0x20\n              add\n              swap2\n              jump(tag_176)\n            tag_177:\n              dup3\n              add\n              swap2\n              swap1\n              0x00\n              mstore\n              keccak256(0x00, 0x20)\n              swap1\n            tag_178:\n              dup2\n              sload\n              dup2\n              mstore\n              swap1\n              0x01\n              add\n              swap1\n              0x20\n              add\n              dup1\n              dup4\n              gt\n              tag_178\n              jumpi\n              dup3\n              swap1\n              sub\n              0x1f\n              and\n              dup3\n              add\n              swap2\n            tag_176:\n              pop\n              pop\n              pop\n              pop\n              pop\n              swap1\n              pop\n                /* \"LndyLoan.sol\":2621:2934  function uri(uint256 tokenId) public view override returns (string memory) {... */\n              swap2\n              swap1\n              pop\n              jump\t// out\n                /* \"LndyLoan.sol\":780:802  string public imageURI */\n            tag_64:\n              0x0a\n              dup1\n              sload\n              tag_179\n              swap1\n              tag_174\n              jump\t// in\n            tag_179:\n              dup1\n              0x1f\n              add\n              0x20\n              dup1\n              swap2\n              div\n              mul\n              0x20\n              add\n              mload(0x40)\n              swap1\n              dup2\n              add\n              0x40\n              mstore\n              dup1\n              swap3\n              swap2\n              swap1\n              dup2\n              dup2\n              mstore\n              0x20\n              add\n              dup3\n              dup1\n              sload\n              tag_180\n              swap1\n              tag_174\n              jump\t// in\n            tag_180:\n              dup1\n              iszero\n              tag_181\n              jumpi\n              dup1\n              0x1f\n              lt\n              tag_182\n              jumpi\n              0x0100\n              dup1\n              dup4\n              sload\n              div\n              mul\n              dup4\n              mstore\n              swap2\n              0x20\n              add\n              swap2\n              jump(tag_181)\n            tag_182:\n              dup3\n              add\n              swap2\n              swap1\n              0x00\n              mstore\n              keccak256(0x00, 0x20)\n              swap1\n            tag_183:\n              dup2\n              sload\n              dup2\n              mstore\n              swap1\n              0x01\n              add\n              swap1\n              0x20\n              add\n              dup1\n              dup4\n              gt\n              tag_183\n              jumpi\n              dup3\n              swap1\n              sub\n              0x1f\n              and\n              dup3\n              add\n              swap2\n            tag_181:\n              pop\n              pop\n              pop\n              pop\n              pop\n              dup2\n              jump\t// out\n                /* \"LndyLoan.sol\":4617:5151  function withdrawFunds() external {... */\n            tag_72:\n                /* \"LndyLoan.sol\":4687:4702  fundingDeadline */\n              sload(0x07)\n                /* \"LndyLoan.sol\":4669:4684  block.timestamp */\n              timestamp\n                /* \"LndyLoan.sol\":4669:4702  block.timestamp > fundingDeadline */\n              gt\n                /* \"LndyLoan.sol\":4661:4735  require(block.timestamp > fundingDeadline, \"Funding period has not ended\") */\n              tag_185\n              jumpi\n              mload(0x40)\n              shl(0xe5, 0x461bcd)\n              dup2\n              mstore\n                /* \"#utility.yul\":10271:10273   */\n              0x20\n                /* \"LndyLoan.sol\":4661:4735  require(block.timestamp > fundingDeadline, \"Funding period has not ended\") */\n              0x04\n              dup3\n              add\n                /* \"#utility.yul\":10253:10274   */\n              mstore\n                /* \"#utility.yul\":10310:10312   */\n              0x1c\n                /* \"#utility.yul\":10290:10308   */\n              0x24\n              dup3\n              add\n                /* \"#utility.yul\":10283:10313   */\n              mstore\n                /* \"#utility.yul\":10349:10379   */\n              0x46756e64696e6720706572696f6420686173206e6f7420656e64656400000000\n                /* \"#utility.yul\":10329:10347   */\n              0x44\n              dup3\n              add\n                /* \"#utility.yul\":10322:10380   */\n              mstore\n                /* \"#utility.yul\":10397:10415   */\n              0x64\n              add\n                /* \"LndyLoan.sol\":4661:4735  require(block.timestamp > fundingDeadline, \"Funding period has not ended\") */\n              tag_171\n                /* \"#utility.yul\":10069:10421   */\n              jump\n                /* \"LndyLoan.sol\":4661:4735  require(block.timestamp > fundingDeadline, \"Funding period has not ended\") */\n            tag_185:\n                /* \"LndyLoan.sol\":4754:4762  isActive */\n              and(0xff, sload(0x0d))\n                /* \"LndyLoan.sol\":4753:4762  !isActive */\n              iszero\n                /* \"LndyLoan.sol\":4745:4789  require(!isActive, \"Loan is already active\") */\n              tag_188\n              jumpi\n              mload(0x40)\n              shl(0xe5, 0x461bcd)\n              dup2\n              mstore\n                /* \"#utility.yul\":10628:10630   */\n              0x20\n                /* \"LndyLoan.sol\":4745:4789  require(!isActive, \"Loan is already active\") */\n              0x04\n              dup3\n              add\n                /* \"#utility.yul\":10610:10631   */\n              mstore\n                /* \"#utility.yul\":10667:10669   */\n              0x16\n                /* \"#utility.yul\":10647:10665   */\n              0x24\n              dup3\n              add\n                /* \"#utility.yul\":10640:10670   */\n              mstore\n                /* \"#utility.yul\":10706:10730   */\n              0x4c6f616e20697320616c72656164792061637469766500000000000000000000\n                /* \"#utility.yul\":10686:10704   */\n              0x44\n              dup3\n              add\n                /* \"#utility.yul\":10679:10731   */\n              mstore\n                /* \"#utility.yul\":10748:10766   */\n              0x64\n              add\n                /* \"LndyLoan.sol\":4745:4789  require(!isActive, \"Loan is already active\") */\n              tag_171\n                /* \"#utility.yul\":10426:10772   */\n              jump\n                /* \"LndyLoan.sol\":4745:4789  require(!isActive, \"Loan is already active\") */\n            tag_188:\n                /* \"LndyLoan.sol\":4808:4832  uint256 userContribution */\n              0x00\n                /* \"LndyLoan.sol\":4835:4871  balanceOf(msg.sender, LOAN_TOKEN_ID) */\n              tag_191\n                /* \"LndyLoan.sol\":4845:4855  msg.sender */\n              caller\n                /* \"LndyLoan.sol\":1054:1055  1 */\n              0x01\n                /* \"LndyLoan.sol\":4835:4844  balanceOf */\n              tag_41\n                /* \"LndyLoan.sol\":4835:4871  balanceOf(msg.sender, LOAN_TOKEN_ID) */\n              jump\t// in\n            tag_191:\n                /* \"LndyLoan.sol\":4808:4871  uint256 userContribution = balanceOf(msg.sender, LOAN_TOKEN_ID) */\n              swap1\n              pop\n                /* \"LndyLoan.sol\":4908:4909  0 */\n              0x00\n                /* \"LndyLoan.sol\":4889:4905  userContribution */\n              dup2\n                /* \"LndyLoan.sol\":4889:4909  userContribution > 0 */\n              gt\n                /* \"LndyLoan.sol\":4881:4934  require(userContribution > 0, \"No funds to withdraw\") */\n              tag_192\n              jumpi\n              mload(0x40)\n              shl(0xe5, 0x461bcd)\n              dup2\n              mstore\n                /* \"#utility.yul\":10979:10981   */\n              0x20\n                /* \"LndyLoan.sol\":4881:4934  require(userContribution > 0, \"No funds to withdraw\") */\n              0x04\n              dup3\n              add\n                /* \"#utility.yul\":10961:10982   */\n              mstore\n                /* \"#utility.yul\":11018:11020   */\n              0x14\n                /* \"#utility.yul\":10998:11016   */\n              0x24\n              dup3\n              add\n                /* \"#utility.yul\":10991:11021   */\n              mstore\n                /* \"#utility.yul\":11057:11079   */\n              0x4e6f2066756e647320746f207769746864726177000000000000000000000000\n                /* \"#utility.yul\":11037:11055   */\n              0x44\n              dup3\n              add\n                /* \"#utility.yul\":11030:11080   */\n              mstore\n                /* \"#utility.yul\":11097:11115   */\n              0x64\n              add\n                /* \"LndyLoan.sol\":4881:4934  require(userContribution > 0, \"No funds to withdraw\") */\n              tag_171\n                /* \"#utility.yul\":10777:11121   */\n              jump\n                /* \"LndyLoan.sol\":4881:4934  require(userContribution > 0, \"No funds to withdraw\") */\n            tag_192:\n                /* \"LndyLoan.sol\":4980:5030  _burn(msg.sender, LOAN_TOKEN_ID, userContribution) */\n              tag_195\n                /* \"LndyLoan.sol\":4986:4996  msg.sender */\n              caller\n                /* \"LndyLoan.sol\":1054:1055  1 */\n              0x01\n                /* \"LndyLoan.sol\":5013:5029  userContribution */\n              dup4\n                /* \"LndyLoan.sol\":4980:4985  _burn */\n              tag_196\n                /* \"LndyLoan.sol\":4980:5030  _burn(msg.sender, LOAN_TOKEN_ID, userContribution) */\n              jump\t// in\n            tag_195:\n                /* \"LndyLoan.sol\":5098:5144  payable(msg.sender).transfer(userContribution) */\n              mload(0x40)\n                /* \"LndyLoan.sol\":5106:5116  msg.sender */\n              caller\n              swap1\n                /* \"LndyLoan.sol\":5098:5144  payable(msg.sender).transfer(userContribution) */\n              dup3\n              iszero\n              0x08fc\n              mul\n              swap1\n                /* \"LndyLoan.sol\":5127:5143  userContribution */\n              dup4\n              swap1\n                /* \"LndyLoan.sol\":5098:5144  payable(msg.sender).transfer(userContribution) */\n              0x00\n              dup2\n              dup2\n              dup2\n                /* \"LndyLoan.sol\":5127:5143  userContribution */\n              dup6\n                /* \"LndyLoan.sol\":5106:5116  msg.sender */\n              dup9\n                /* \"LndyLoan.sol\":5098:5144  payable(msg.sender).transfer(userContribution) */\n              dup9\n              call\n              swap4\n              pop\n              pop\n              pop\n              pop\n              iszero\n              dup1\n              iszero\n              tag_198\n              jumpi\n              returndatasize\n              0x00\n              dup1\n              returndatacopy\n              revert(0x00, returndatasize)\n            tag_198:\n              pop\n                /* \"LndyLoan.sol\":4651:5151  {... */\n              pop\n                /* \"LndyLoan.sol\":4617:5151  function withdrawFunds() external {... */\n              jump\t// out\n                /* \"@openzeppelin/contracts/token/ERC1155/ERC1155.sol\":4012:4441   */\n            tag_81:\n                /* \"@openzeppelin/contracts/utils/Context.sol\":735:745   */\n              caller\n              sub(shl(0xa0, 0x01), 0x01)\n                /* \"@openzeppelin/contracts/token/ERC1155/ERC1155.sol\":4249:4263   */\n              dup7\n              and\n              dup2\n              eq\n              dup1\n              iszero\n              swap1\n                /* \"@openzeppelin/contracts/token/ERC1155/ERC1155.sol\":4249:4298   */\n              tag_202\n              jumpi\n              pop\n              sub(shl(0xa0, 0x01), 0x01)\n                /* \"@openzeppelin/contracts/token/ERC1155/ERC1155.sol\":3478:3505   */\n              dup1\n              dup8\n              and\n                /* \"@openzeppelin/contracts/token/ERC1155/ERC1155.sol\":3455:3459   */\n              0x00\n                /* \"@openzeppelin/contracts/token/ERC1155/ERC1155.sol\":3478:3505   */\n              swap1\n              dup2\n              mstore\n                /* \"@openzeppelin/contracts/token/ERC1155/ERC1155.sol\":3478:3496   */\n              0x01\n                /* \"@openzeppelin/contracts/token/ERC1155/ERC1155.sol\":3478:3505   */\n              0x20\n              swap1\n              dup2\n              mstore\n              0x40\n              dup1\n              dup4\n              keccak256\n                /* \"@openzeppelin/contracts/token/ERC1155/ERC1155.sol\":3478:3515   */\n              swap4\n              dup6\n              and\n              dup4\n              mstore\n              swap3\n              swap1\n              mstore\n              keccak256\n              sload\n              0xff\n              and\n                /* \"@openzeppelin/contracts/token/ERC1155/ERC1155.sol\":4267:4298   */\n              iszero\n                /* \"@openzeppelin/contracts/token/ERC1155/ERC1155.sol\":4249:4298   */\n            tag_202:\n                /* \"@openzeppelin/contracts/token/ERC1155/ERC1155.sol\":4245:4374   */\n              iszero\n              tag_204\n              jumpi\n                /* \"@openzeppelin/contracts/token/ERC1155/ERC1155.sol\":4321:4363   */\n              mload(0x40)\n              shl(0xe1, 0x711bec91)\n              dup2\n              mstore\n              sub(shl(0xa0, 0x01), 0x01)\n                /* \"#utility.yul\":11379:11394   */\n              dup1\n              dup4\n              and\n                /* \"@openzeppelin/contracts/token/ERC1155/ERC1155.sol\":4321:4363   */\n              0x04\n              dup4\n              add\n                /* \"#utility.yul\":11361:11395   */\n              mstore\n                /* \"#utility.yul\":11431:11446   */\n              dup8\n              and\n                /* \"#utility.yul\":11411:11429   */\n              0x24\n              dup3\n              add\n                /* \"#utility.yul\":11404:11447   */\n              mstore\n                /* \"#utility.yul\":11273:11291   */\n              0x44\n              add\n                /* \"@openzeppelin/contracts/token/ERC1155/ERC1155.sol\":4321:4363   */\n              tag_171\n                /* \"#utility.yul\":11126:11453   */\n              jump\n                /* \"@openzeppelin/contracts/token/ERC1155/ERC1155.sol\":4245:4374   */\n            tag_204:\n                /* \"@openzeppelin/contracts/token/ERC1155/ERC1155.sol\":4383:4434   */\n              tag_207\n                /* \"@openzeppelin/contracts/token/ERC1155/ERC1155.sol\":4406:4410   */\n              dup7\n                /* \"@openzeppelin/contracts/token/ERC1155/ERC1155.sol\":4412:4414   */\n              dup7\n                /* \"@openzeppelin/contracts/token/ERC1155/ERC1155.sol\":4416:4419   */\n              dup7\n                /* \"@openzeppelin/contracts/token/ERC1155/ERC1155.sol\":4421:4427   */\n              dup7\n                /* \"@openzeppelin/contracts/token/ERC1155/ERC1155.sol\":4429:4433   */\n              dup7\n                /* \"@openzeppelin/contracts/token/ERC1155/ERC1155.sol\":4383:4405   */\n              tag_208\n                /* \"@openzeppelin/contracts/token/ERC1155/ERC1155.sol\":4383:4434   */\n              jump\t// in\n            tag_207:\n                /* \"@openzeppelin/contracts/token/ERC1155/ERC1155.sol\":4196:4441   */\n              pop\n                /* \"@openzeppelin/contracts/token/ERC1155/ERC1155.sol\":4012:4441   */\n              pop\n              pop\n              pop\n              pop\n              pop\n              jump\t// out\n                /* \"@openzeppelin/contracts/token/ERC1155/ERC1155.sol\":2534:3086   */\n            tag_86:\n                /* \"@openzeppelin/contracts/token/ERC1155/ERC1155.sol\":2658:2674   */\n              0x60\n                /* \"@openzeppelin/contracts/token/ERC1155/ERC1155.sol\":2709:2712   */\n              dup2\n                /* \"@openzeppelin/contracts/token/ERC1155/ERC1155.sol\":2709:2719   */\n              mload\n                /* \"@openzeppelin/contracts/token/ERC1155/ERC1155.sol\":2690:2698   */\n              dup4\n                /* \"@openzeppelin/contracts/token/ERC1155/ERC1155.sol\":2690:2705   */\n              mload\n                /* \"@openzeppelin/contracts/token/ERC1155/ERC1155.sol\":2690:2719   */\n              eq\n                /* \"@openzeppelin/contracts/token/ERC1155/ERC1155.sol\":2686:2807   */\n              tag_210\n              jumpi\n                /* \"@openzeppelin/contracts/token/ERC1155/ERC1155.sol\":2768:2778   */\n              dup2\n              mload\n                /* \"@openzeppelin/contracts/token/ERC1155/ERC1155.sol\":2780:2795   */\n              dup4\n              mload\n                /* \"@openzeppelin/contracts/token/ERC1155/ERC1155.sol\":2742:2796   */\n              mload(0x40)\n              shl(0xe0, 0x5b059991)\n              dup2\n              mstore\n              0x04\n              dup2\n              add\n                /* \"#utility.yul\":11632:11657   */\n              swap3\n              swap1\n              swap3\n              mstore\n                /* \"#utility.yul\":11673:11691   */\n              0x24\n              dup3\n              add\n                /* \"#utility.yul\":11666:11700   */\n              mstore\n                /* \"#utility.yul\":11605:11623   */\n              0x44\n              add\n                /* \"@openzeppelin/contracts/token/ERC1155/ERC1155.sol\":2742:2796   */\n              tag_171\n                /* \"#utility.yul\":11458:11706   */\n              jump\n                /* \"@openzeppelin/contracts/token/ERC1155/ERC1155.sol\":2686:2807   */\n            tag_210:\n                /* \"@openzeppelin/contracts/token/ERC1155/ERC1155.sol\":2817:2847   */\n              0x00\n                /* \"@openzeppelin/contracts/token/ERC1155/ERC1155.sol\":2864:2872   */\n              dup4\n                /* \"@openzeppelin/contracts/token/ERC1155/ERC1155.sol\":2864:2879   */\n              mload\n                /* \"@openzeppelin/contracts/token/ERC1155/ERC1155.sol\":2850:2880   */\n              0xffffffffffffffff\n              dup2\n              gt\n              iszero\n              tag_214\n              jumpi\n              tag_214\n              tag_215\n              jump\t// in\n            tag_214:\n              mload(0x40)\n              swap1\n              dup1\n              dup3\n              mstore\n              dup1\n              0x20\n              mul\n              0x20\n              add\n              dup3\n              add\n              0x40\n              mstore\n              dup1\n              iszero\n              tag_216\n              jumpi\n              dup2\n              0x20\n              add\n              0x20\n              dup3\n              mul\n              dup1\n              calldatasize\n              dup4\n              calldatacopy\n              add\n              swap1\n              pop\n            tag_216:\n              pop\n                /* \"@openzeppelin/contracts/token/ERC1155/ERC1155.sol\":2817:2880   */\n              swap1\n              pop\n                /* \"@openzeppelin/contracts/token/ERC1155/ERC1155.sol\":2896:2905   */\n              0x00\n                /* \"@openzeppelin/contracts/token/ERC1155/ERC1155.sol\":2891:3049   */\n            tag_217:\n                /* \"@openzeppelin/contracts/token/ERC1155/ERC1155.sol\":2915:2923   */\n              dup5\n                /* \"@openzeppelin/contracts/token/ERC1155/ERC1155.sol\":2915:2930   */\n              mload\n                /* \"@openzeppelin/contracts/token/ERC1155/ERC1155.sol\":2911:2912   */\n              dup2\n                /* \"@openzeppelin/contracts/token/ERC1155/ERC1155.sol\":2911:2930   */\n              lt\n                /* \"@openzeppelin/contracts/token/ERC1155/ERC1155.sol\":2891:3049   */\n              iszero\n              tag_218\n              jumpi\n                /* \"@openzeppelin/contracts/utils/Arrays.sol\":16302:16306   */\n              0x20\n                /* \"@openzeppelin/contracts/utils/Arrays.sol\":16293:16307   */\n              dup1\n              dup3\n              mul\n                /* \"@openzeppelin/contracts/utils/Arrays.sol\":16273:16308   */\n              dup7\n              add\n              add\n                /* \"@openzeppelin/contracts/utils/Arrays.sol\":16267:16309   */\n              mload\n                /* \"@openzeppelin/contracts/token/ERC1155/ERC1155.sol\":2970:3038   */\n              tag_220\n              swap1\n                /* \"@openzeppelin/contracts/utils/Arrays.sol\":16302:16306   */\n              0x20\n                /* \"@openzeppelin/contracts/utils/Arrays.sol\":16293:16307   */\n              dup1\n              dup5\n              mul\n                /* \"@openzeppelin/contracts/utils/Arrays.sol\":16273:16308   */\n              dup8\n              add\n              add\n                /* \"@openzeppelin/contracts/utils/Arrays.sol\":16267:16309   */\n              mload\n                /* \"@openzeppelin/contracts/token/ERC1155/ERC1155.sol\":2245:2377   */\n              tag_41\n              jump\t// in\n                /* \"@openzeppelin/contracts/token/ERC1155/ERC1155.sol\":2970:3038   */\n            tag_220:\n                /* \"@openzeppelin/contracts/token/ERC1155/ERC1155.sol\":2951:2964   */\n              dup3\n                /* \"@openzeppelin/contracts/token/ERC1155/ERC1155.sol\":2965:2966   */\n              dup3\n                /* \"@openzeppelin/contracts/token/ERC1155/ERC1155.sol\":2951:2967   */\n              dup2\n              mload\n              dup2\n              lt\n              tag_226\n              jumpi\n              tag_226\n              tag_227\n              jump\t// in\n            tag_226:\n              0x20\n              swap1\n              dup2\n              mul\n              swap2\n              swap1\n              swap2\n              add\n              add\n                /* \"@openzeppelin/contracts/token/ERC1155/ERC1155.sol\":2951:3038   */\n              mstore\n                /* \"@openzeppelin/contracts/token/ERC1155/ERC1155.sol\":2932:2935   */\n              0x01\n              add\n                /* \"@openzeppelin/contracts/token/ERC1155/ERC1155.sol\":2891:3049   */\n              jump(tag_217)\n            tag_218:\n              pop\n                /* \"@openzeppelin/contracts/token/ERC1155/ERC1155.sol\":3066:3079   */\n              swap4\n                /* \"@openzeppelin/contracts/token/ERC1155/ERC1155.sol\":2534:3086   */\n              swap3\n              pop\n              pop\n              pop\n              jump\t// out\n                /* \"@openzeppelin/contracts/access/Ownable.sol\":2293:2394   */\n            tag_95:\n                /* \"@openzeppelin/contracts/access/Ownable.sol\":1531:1544   */\n              tag_229\n                /* \"@openzeppelin/contracts/access/Ownable.sol\":1531:1542   */\n              tag_230\n                /* \"@openzeppelin/contracts/access/Ownable.sol\":1531:1544   */\n              jump\t// in\n            tag_229:\n                /* \"@openzeppelin/contracts/access/Ownable.sol\":2357:2387   */\n              tag_232\n                /* \"@openzeppelin/contracts/access/Ownable.sol\":2384:2385   */\n              0x00\n                /* \"@openzeppelin/contracts/access/Ownable.sol\":2357:2375   */\n              tag_233\n                /* \"@openzeppelin/contracts/access/Ownable.sol\":2357:2387   */\n              jump\t// in\n            tag_232:\n                /* \"@openzeppelin/contracts/access/Ownable.sol\":2293:2394   */\n              jump\t// out\n                /* \"LndyLoan.sol\":749:774  string public description */\n            tag_98:\n              0x09\n              dup1\n              sload\n              tag_179\n              swap1\n              tag_174\n              jump\t// in\n                /* \"LndyLoan.sol\":3075:3832  function fundLoan(uint256 _amount) external payable {... */\n            tag_115:\n                /* \"LndyLoan.sol\":3163:3178  fundingDeadline */\n              sload(0x07)\n                /* \"LndyLoan.sol\":3145:3160  block.timestamp */\n              timestamp\n                /* \"LndyLoan.sol\":3145:3178  block.timestamp < fundingDeadline */\n              lt\n                /* \"LndyLoan.sol\":3137:3207  require(block.timestamp < fundingDeadline, \"Funding period has ended\") */\n              tag_240\n              jumpi\n              mload(0x40)\n              shl(0xe5, 0x461bcd)\n              dup2\n              mstore\n                /* \"#utility.yul\":12045:12047   */\n              0x20\n                /* \"LndyLoan.sol\":3137:3207  require(block.timestamp < fundingDeadline, \"Funding period has ended\") */\n              0x04\n              dup3\n              add\n                /* \"#utility.yul\":12027:12048   */\n              mstore\n                /* \"#utility.yul\":12084:12086   */\n              0x18\n                /* \"#utility.yul\":12064:12082   */\n              0x24\n              dup3\n              add\n                /* \"#utility.yul\":12057:12087   */\n              mstore\n                /* \"#utility.yul\":12123:12149   */\n              0x46756e64696e6720706572696f642068617320656e6465640000000000000000\n                /* \"#utility.yul\":12103:12121   */\n              0x44\n              dup3\n              add\n                /* \"#utility.yul\":12096:12150   */\n              mstore\n                /* \"#utility.yul\":12167:12185   */\n              0x64\n              add\n                /* \"LndyLoan.sol\":3137:3207  require(block.timestamp < fundingDeadline, \"Funding period has ended\") */\n              tag_171\n                /* \"#utility.yul\":11843:12191   */\n              jump\n                /* \"LndyLoan.sol\":3137:3207  require(block.timestamp < fundingDeadline, \"Funding period has ended\") */\n            tag_240:\n                /* \"LndyLoan.sol\":3226:3234  isActive */\n              and(0xff, sload(0x0d))\n                /* \"LndyLoan.sol\":3225:3234  !isActive */\n              iszero\n                /* \"LndyLoan.sol\":3217:3261  require(!isActive, \"Loan is already active\") */\n              tag_243\n              jumpi\n              mload(0x40)\n              shl(0xe5, 0x461bcd)\n              dup2\n              mstore\n                /* \"#utility.yul\":10628:10630   */\n              0x20\n                /* \"LndyLoan.sol\":3217:3261  require(!isActive, \"Loan is already active\") */\n              0x04\n              dup3\n              add\n                /* \"#utility.yul\":10610:10631   */\n              mstore\n                /* \"#utility.yul\":10667:10669   */\n              0x16\n                /* \"#utility.yul\":10647:10665   */\n              0x24\n              dup3\n              add\n                /* \"#utility.yul\":10640:10670   */\n              mstore\n                /* \"#utility.yul\":10706:10730   */\n              0x4c6f616e20697320616c72656164792061637469766500000000000000000000\n                /* \"#utility.yul\":10686:10704   */\n              0x44\n              dup3\n              add\n                /* \"#utility.yul\":10679:10731   */\n              mstore\n                /* \"#utility.yul\":10748:10766   */\n              0x64\n              add\n                /* \"LndyLoan.sol\":3217:3261  require(!isActive, \"Loan is already active\") */\n              tag_171\n                /* \"#utility.yul\":10426:10772   */\n              jump\n                /* \"LndyLoan.sol\":3217:3261  require(!isActive, \"Loan is already active\") */\n            tag_243:\n                /* \"LndyLoan.sol\":3304:3314  loanAmount */\n              sload(0x04)\n                /* \"LndyLoan.sol\":3293:3300  _amount */\n              dup2\n                /* \"LndyLoan.sol\":3279:3290  totalFunded */\n              sload(0x0c)\n                /* \"LndyLoan.sol\":3279:3300  totalFunded + _amount */\n              tag_245\n              swap2\n              swap1\n              tag_246\n              jump\t// in\n            tag_245:\n                /* \"LndyLoan.sol\":3279:3314  totalFunded + _amount <= loanAmount */\n              gt\n              iszero\n                /* \"LndyLoan.sol\":3271:3358  require(totalFunded + _amount <= loanAmount, \"Funding amount exceeds loan requirement\") */\n              tag_247\n              jumpi\n              mload(0x40)\n              shl(0xe5, 0x461bcd)\n              dup2\n              mstore\n                /* \"#utility.yul\":12660:12662   */\n              0x20\n                /* \"LndyLoan.sol\":3271:3358  require(totalFunded + _amount <= loanAmount, \"Funding amount exceeds loan requirement\") */\n              0x04\n              dup3\n              add\n                /* \"#utility.yul\":12642:12663   */\n              mstore\n                /* \"#utility.yul\":12699:12701   */\n              0x27\n                /* \"#utility.yul\":12679:12697   */\n              0x24\n              dup3\n              add\n                /* \"#utility.yul\":12672:12702   */\n              mstore\n                /* \"#utility.yul\":12738:12772   */\n              0x46756e64696e6720616d6f756e742065786365656473206c6f616e2072657175\n                /* \"#utility.yul\":12718:12736   */\n              0x44\n              dup3\n              add\n                /* \"#utility.yul\":12711:12773   */\n              mstore\n                /* \"#utility.yul\":12809:12818   */\n              0x6972656d656e7400000000000000000000000000000000000000000000000000\n                /* \"#utility.yul\":12789:12807   */\n              0x64\n              dup3\n              add\n                /* \"#utility.yul\":12782:12819   */\n              mstore\n                /* \"#utility.yul\":12836:12855   */\n              0x84\n              add\n                /* \"LndyLoan.sol\":3271:3358  require(totalFunded + _amount <= loanAmount, \"Funding amount exceeds loan requirement\") */\n              tag_171\n                /* \"#utility.yul\":12458:12861   */\n              jump\n                /* \"LndyLoan.sol\":3271:3358  require(totalFunded + _amount <= loanAmount, \"Funding amount exceeds loan requirement\") */\n            tag_247:\n                /* \"LndyLoan.sol\":3446:3491  _mint(msg.sender, LOAN_TOKEN_ID, _amount, \"\") */\n              tag_250\n                /* \"LndyLoan.sol\":3452:3462  msg.sender */\n              caller\n                /* \"LndyLoan.sol\":1054:1055  1 */\n              0x01\n                /* \"LndyLoan.sol\":3479:3486  _amount */\n              dup4\n                /* \"LndyLoan.sol\":3446:3491  _mint(msg.sender, LOAN_TOKEN_ID, _amount, \"\") */\n              mload(0x40)\n              dup1\n              0x20\n              add\n              0x40\n              mstore\n              dup1\n              0x00\n              dup2\n              mstore\n              pop\n                /* \"LndyLoan.sol\":3446:3451  _mint */\n              tag_251\n                /* \"LndyLoan.sol\":3446:3491  _mint(msg.sender, LOAN_TOKEN_ID, _amount, \"\") */\n              jump\t// in\n            tag_250:\n                /* \"LndyLoan.sol\":3525:3532  _amount */\n              dup1\n                /* \"LndyLoan.sol\":3510:3521  totalFunded */\n              0x0c\n              0x00\n                /* \"LndyLoan.sol\":3510:3532  totalFunded += _amount */\n              dup3\n              dup3\n              sload\n              tag_252\n              swap2\n              swap1\n              tag_246\n              jump\t// in\n            tag_252:\n              swap1\n              swap2\n              sstore\n              pop\n              pop\n                /* \"LndyLoan.sol\":3618:3628  loanAmount */\n              sload(0x04)\n                /* \"LndyLoan.sol\":3603:3614  totalFunded */\n              sload(0x0c)\n                /* \"LndyLoan.sol\":3603:3628  totalFunded == loanAmount */\n              sub\n                /* \"LndyLoan.sol\":3599:3771  if (totalFunded == loanAmount) {... */\n              tag_253\n              jumpi\n                /* \"LndyLoan.sol\":3644:3652  isActive */\n              0x0d\n                /* \"LndyLoan.sol\":3644:3659  isActive = true */\n              dup1\n              sload\n              not(0xff)\n              and\n                /* \"LndyLoan.sol\":3655:3659  true */\n              0x01\n                /* \"LndyLoan.sol\":3644:3659  isActive = true */\n              or\n              swap1\n              sstore\n                /* \"LndyLoan.sol\":3707:3715  duration */\n              sload(0x06)\n                /* \"LndyLoan.sol\":3689:3715  block.timestamp + duration */\n              tag_254\n              swap1\n                /* \"LndyLoan.sol\":3689:3704  block.timestamp */\n              timestamp\n                /* \"LndyLoan.sol\":3689:3715  block.timestamp + duration */\n              tag_246\n              jump\t// in\n            tag_254:\n                /* \"LndyLoan.sol\":3673:3686  repaymentDate */\n              0x08\n                /* \"LndyLoan.sol\":3673:3715  repaymentDate = block.timestamp + duration */\n              sstore\n                /* \"LndyLoan.sol\":3748:3759  totalFunded */\n              sload(0x0c)\n                /* \"LndyLoan.sol\":3734:3760  LoanActivated(totalFunded) */\n              mload(0x40)\n                /* \"#utility.yul\":620:645   */\n              swap1\n              dup2\n              mstore\n                /* \"LndyLoan.sol\":3734:3760  LoanActivated(totalFunded) */\n              0xcb4c701313b0db2ed5902d923d21b853d01e3a14cb2af2dce00e309eaa0e134c\n              swap1\n                /* \"#utility.yul\":608:610   */\n              0x20\n                /* \"#utility.yul\":593:611   */\n              add\n                /* \"LndyLoan.sol\":3734:3760  LoanActivated(totalFunded) */\n              mload(0x40)\n              dup1\n              swap2\n              sub\n              swap1\n              log1\n                /* \"LndyLoan.sol\":3599:3771  if (totalFunded == loanAmount) {... */\n            tag_253:\n                /* \"LndyLoan.sol\":3794:3825  LoanFunded(msg.sender, _amount) */\n              0x40\n              dup1\n              mload\n                /* \"LndyLoan.sol\":3805:3815  msg.sender */\n              caller\n                /* \"#utility.yul\":13040:13114   */\n              dup2\n              mstore\n                /* \"#utility.yul\":13145:13147   */\n              0x20\n                /* \"#utility.yul\":13130:13148   */\n              dup2\n              add\n                /* \"#utility.yul\":13123:13157   */\n              dup4\n              swap1\n              mstore\n                /* \"LndyLoan.sol\":3794:3825  LoanFunded(msg.sender, _amount) */\n              0x726d5f1a838fe31748f737fa3ae5539ccff95952adfc593a1299532b643ff7a8\n              swap2\n                /* \"#utility.yul\":13013:13031   */\n              add\n                /* \"LndyLoan.sol\":3794:3825  LoanFunded(msg.sender, _amount) */\n              mload(0x40)\n              dup1\n              swap2\n              sub\n              swap1\n              log1\n                /* \"LndyLoan.sol\":3075:3832  function fundLoan(uint256 _amount) external payable {... */\n              pop\n              jump\t// out\n                /* \"LndyLoan.sol\":5274:5996  function claimReturns() external {... */\n            tag_118:\n                /* \"LndyLoan.sol\":5325:5333  isRepaid */\n              sload(0x0d)\n              0x0100\n              swap1\n              div\n              0xff\n              and\n                /* \"LndyLoan.sol\":5317:5360  require(isRepaid, \"Loan is not repaid yet\") */\n              tag_259\n              jumpi\n              mload(0x40)\n              shl(0xe5, 0x461bcd)\n              dup2\n              mstore\n                /* \"#utility.yul\":13370:13372   */\n              0x20\n                /* \"LndyLoan.sol\":5317:5360  require(isRepaid, \"Loan is not repaid yet\") */\n              0x04\n              dup3\n              add\n                /* \"#utility.yul\":13352:13373   */\n              mstore\n                /* \"#utility.yul\":13409:13411   */\n              0x16\n                /* \"#utility.yul\":13389:13407   */\n              0x24\n              dup3\n              add\n                /* \"#utility.yul\":13382:13412   */\n              mstore\n                /* \"#utility.yul\":13448:13472   */\n              0x4c6f616e206973206e6f74207265706169642079657400000000000000000000\n                /* \"#utility.yul\":13428:13446   */\n              0x44\n              dup3\n              add\n                /* \"#utility.yul\":13421:13473   */\n              mstore\n                /* \"#utility.yul\":13490:13508   */\n              0x64\n              add\n                /* \"LndyLoan.sol\":5317:5360  require(isRepaid, \"Loan is not repaid yet\") */\n              tag_171\n                /* \"#utility.yul\":13168:13514   */\n              jump\n                /* \"LndyLoan.sol\":5317:5360  require(isRepaid, \"Loan is not repaid yet\") */\n            tag_259:\n                /* \"LndyLoan.sol\":5379:5403  uint256 userContribution */\n              0x00\n                /* \"LndyLoan.sol\":5406:5442  balanceOf(msg.sender, LOAN_TOKEN_ID) */\n              tag_262\n                /* \"LndyLoan.sol\":5416:5426  msg.sender */\n              caller\n                /* \"LndyLoan.sol\":1054:1055  1 */\n              0x01\n                /* \"LndyLoan.sol\":5406:5415  balanceOf */\n              tag_41\n                /* \"LndyLoan.sol\":5406:5442  balanceOf(msg.sender, LOAN_TOKEN_ID) */\n              jump\t// in\n            tag_262:\n                /* \"LndyLoan.sol\":5379:5442  uint256 userContribution = balanceOf(msg.sender, LOAN_TOKEN_ID) */\n              swap1\n              pop\n                /* \"LndyLoan.sol\":5479:5480  0 */\n              0x00\n                /* \"LndyLoan.sol\":5460:5476  userContribution */\n              dup2\n                /* \"LndyLoan.sol\":5460:5480  userContribution > 0 */\n              gt\n                /* \"LndyLoan.sol\":5452:5504  require(userContribution > 0, \"No returns to claim\") */\n              tag_263\n              jumpi\n              mload(0x40)\n              shl(0xe5, 0x461bcd)\n              dup2\n              mstore\n                /* \"#utility.yul\":13721:13723   */\n              0x20\n                /* \"LndyLoan.sol\":5452:5504  require(userContribution > 0, \"No returns to claim\") */\n              0x04\n              dup3\n              add\n                /* \"#utility.yul\":13703:13724   */\n              mstore\n                /* \"#utility.yul\":13760:13762   */\n              0x13\n                /* \"#utility.yul\":13740:13758   */\n              0x24\n              dup3\n              add\n                /* \"#utility.yul\":13733:13763   */\n              mstore\n                /* \"#utility.yul\":13799:13820   */\n              0x4e6f2072657475726e7320746f20636c61696d00000000000000000000000000\n                /* \"#utility.yul\":13779:13797   */\n              0x44\n              dup3\n              add\n                /* \"#utility.yul\":13772:13821   */\n              mstore\n                /* \"#utility.yul\":13838:13856   */\n              0x64\n              add\n                /* \"LndyLoan.sol\":5452:5504  require(userContribution > 0, \"No returns to claim\") */\n              tag_171\n                /* \"#utility.yul\":13519:13862   */\n              jump\n                /* \"LndyLoan.sol\":5452:5504  require(userContribution > 0, \"No returns to claim\") */\n            tag_263:\n                /* \"LndyLoan.sol\":5581:5603  uint256 interestAmount */\n              0x00\n                /* \"LndyLoan.sol\":5636:5641  10000 */\n              0x2710\n                /* \"LndyLoan.sol\":5620:5632  interestRate */\n              sload(0x05)\n                /* \"LndyLoan.sol\":5607:5617  loanAmount */\n              sload(0x04)\n                /* \"LndyLoan.sol\":5607:5632  loanAmount * interestRate */\n              tag_266\n              swap2\n              swap1\n              tag_267\n              jump\t// in\n            tag_266:\n                /* \"LndyLoan.sol\":5606:5641  (loanAmount * interestRate) / 10000 */\n              tag_268\n              swap2\n              swap1\n              tag_269\n              jump\t// in\n            tag_268:\n                /* \"LndyLoan.sol\":5581:5641  uint256 interestAmount = (loanAmount * interestRate) / 10000 */\n              swap1\n              pop\n                /* \"LndyLoan.sol\":5651:5671  uint256 userInterest */\n              0x00\n                /* \"LndyLoan.sol\":5712:5722  loanAmount */\n              sload(0x04)\n                /* \"LndyLoan.sol\":5694:5708  interestAmount */\n              dup3\n                /* \"LndyLoan.sol\":5675:5691  userContribution */\n              dup5\n                /* \"LndyLoan.sol\":5675:5708  userContribution * interestAmount */\n              tag_270\n              swap2\n              swap1\n              tag_267\n              jump\t// in\n            tag_270:\n                /* \"LndyLoan.sol\":5674:5722  (userContribution * interestAmount) / loanAmount */\n              tag_271\n              swap2\n              swap1\n              tag_269\n              jump\t// in\n            tag_271:\n                /* \"LndyLoan.sol\":5651:5722  uint256 userInterest = (userContribution * interestAmount) / loanAmount */\n              swap1\n              pop\n                /* \"LndyLoan.sol\":5732:5752  uint256 totalReturns */\n              0x00\n                /* \"LndyLoan.sol\":5755:5786  userContribution + userInterest */\n              tag_272\n                /* \"LndyLoan.sol\":5651:5722  uint256 userInterest = (userContribution * interestAmount) / loanAmount */\n              dup3\n                /* \"LndyLoan.sol\":5755:5771  userContribution */\n              dup6\n                /* \"LndyLoan.sol\":5755:5786  userContribution + userInterest */\n              tag_246\n              jump\t// in\n            tag_272:\n                /* \"LndyLoan.sol\":5732:5786  uint256 totalReturns = userContribution + userInterest */\n              swap1\n              pop\n                /* \"LndyLoan.sol\":5832:5882  _burn(msg.sender, LOAN_TOKEN_ID, userContribution) */\n              tag_273\n                /* \"LndyLoan.sol\":5838:5848  msg.sender */\n              caller\n                /* \"LndyLoan.sol\":1054:1055  1 */\n              0x01\n                /* \"LndyLoan.sol\":5865:5881  userContribution */\n              dup7\n                /* \"LndyLoan.sol\":5832:5837  _burn */\n              tag_196\n                /* \"LndyLoan.sol\":5832:5882  _burn(msg.sender, LOAN_TOKEN_ID, userContribution) */\n              jump\t// in\n            tag_273:\n                /* \"LndyLoan.sol\":5947:5989  payable(msg.sender).transfer(totalReturns) */\n              mload(0x40)\n                /* \"LndyLoan.sol\":5955:5965  msg.sender */\n              caller\n              swap1\n                /* \"LndyLoan.sol\":5947:5989  payable(msg.sender).transfer(totalReturns) */\n              dup3\n              iszero\n              0x08fc\n              mul\n              swap1\n                /* \"LndyLoan.sol\":5976:5988  totalReturns */\n              dup4\n              swap1\n                /* \"LndyLoan.sol\":5947:5989  payable(msg.sender).transfer(totalReturns) */\n              0x00\n              dup2\n              dup2\n              dup2\n                /* \"LndyLoan.sol\":5976:5988  totalReturns */\n              dup6\n                /* \"LndyLoan.sol\":5955:5965  msg.sender */\n              dup9\n                /* \"LndyLoan.sol\":5947:5989  payable(msg.sender).transfer(totalReturns) */\n              dup9\n              call\n              swap4\n              pop\n              pop\n              pop\n              pop\n              iszero\n              dup1\n              iszero\n              tag_275\n              jumpi\n              returndatasize\n              0x00\n              dup1\n              returndatacopy\n              revert(0x00, returndatasize)\n            tag_275:\n              pop\n                /* \"LndyLoan.sol\":5307:5996  {... */\n              pop\n              pop\n              pop\n              pop\n                /* \"LndyLoan.sol\":5274:5996  function claimReturns() external {... */\n              jump\t// out\n                /* \"@openzeppelin/contracts/token/ERC1155/ERC1155.sol\":3154:3298   */\n            tag_131:\n                /* \"@openzeppelin/contracts/token/ERC1155/ERC1155.sol\":3239:3291   */\n              tag_198\n                /* \"@openzeppelin/contracts/utils/Context.sol\":735:745   */\n              caller\n                /* \"@openzeppelin/contracts/token/ERC1155/ERC1155.sol\":3272:3280   */\n              dup4\n                /* \"@openzeppelin/contracts/token/ERC1155/ERC1155.sol\":3282:3290   */\n              dup4\n                /* \"@openzeppelin/contracts/token/ERC1155/ERC1155.sol\":3239:3257   */\n              tag_280\n                /* \"@openzeppelin/contracts/token/ERC1155/ERC1155.sol\":3239:3291   */\n              jump\t// in\n                /* \"LndyLoan.sol\":6651:7333  function getLoanDetails() external view returns (... */\n            tag_134:\n                /* \"LndyLoan.sol\":6709:6728  uint256 _loanAmount */\n              0x00\n                /* \"LndyLoan.sol\":6738:6759  uint256 _interestRate */\n              dup1\n                /* \"LndyLoan.sol\":6769:6786  uint256 _duration */\n              0x00\n                /* \"LndyLoan.sol\":6796:6820  uint256 _fundingDeadline */\n              dup1\n                /* \"LndyLoan.sol\":6830:6852  uint256 _repaymentDate */\n              0x00\n                /* \"LndyLoan.sol\":6862:6888  string memory _description */\n              0x60\n                /* \"LndyLoan.sol\":6898:6921  string memory _imageURI */\n              dup1\n                /* \"LndyLoan.sol\":6931:6948  address _borrower */\n              0x00\n                /* \"LndyLoan.sol\":6958:6978  uint256 _totalFunded */\n              dup1\n                /* \"LndyLoan.sol\":6988:7002  bool _isActive */\n              0x00\n                /* \"LndyLoan.sol\":7012:7026  bool _isRepaid */\n              dup1\n                /* \"LndyLoan.sol\":7064:7074  loanAmount */\n              sload(0x04)\n                /* \"LndyLoan.sol\":7088:7100  interestRate */\n              sload(0x05)\n                /* \"LndyLoan.sol\":7114:7122  duration */\n              sload(0x06)\n                /* \"LndyLoan.sol\":7136:7151  fundingDeadline */\n              sload(0x07)\n                /* \"LndyLoan.sol\":7165:7178  repaymentDate */\n              sload(0x08)\n                /* \"LndyLoan.sol\":7192:7203  description */\n              0x09\n                /* \"LndyLoan.sol\":7217:7225  imageURI */\n              0x0a\n                /* \"LndyLoan.sol\":7239:7247  borrower */\n              0x0b\n              0x00\n              swap1\n              sload\n              swap1\n              0x0100\n              exp\n              swap1\n              div\n              sub(shl(0xa0, 0x01), 0x01)\n              and\n                /* \"LndyLoan.sol\":7261:7272  totalFunded */\n              sload(0x0c)\n                /* \"LndyLoan.sol\":7286:7294  isActive */\n              0x0d\n              0x00\n              swap1\n              sload\n              swap1\n              0x0100\n              exp\n              swap1\n              div\n              0xff\n              and\n                /* \"LndyLoan.sol\":7308:7316  isRepaid */\n              0x0d\n              0x01\n              swap1\n              sload\n              swap1\n              0x0100\n              exp\n              swap1\n              div\n              0xff\n              and\n                /* \"LndyLoan.sol\":7043:7326  return (... */\n              dup6\n              dup1\n              sload\n              tag_282\n              swap1\n              tag_174\n              jump\t// in\n            tag_282:\n              dup1\n              0x1f\n              add\n              0x20\n              dup1\n              swap2\n              div\n              mul\n              0x20\n              add\n              mload(0x40)\n              swap1\n              dup2\n              add\n              0x40\n              mstore\n              dup1\n              swap3\n              swap2\n              swap1\n              dup2\n              dup2\n              mstore\n              0x20\n              add\n              dup3\n              dup1\n              sload\n              tag_283\n              swap1\n              tag_174\n              jump\t// in\n            tag_283:\n              dup1\n              iszero\n              tag_284\n              jumpi\n              dup1\n              0x1f\n              lt\n              tag_285\n              jumpi\n              0x0100\n              dup1\n              dup4\n              sload\n              div\n              mul\n              dup4\n              mstore\n              swap2\n              0x20\n              add\n              swap2\n              jump(tag_284)\n            tag_285:\n              dup3\n              add\n              swap2\n              swap1\n              0x00\n              mstore\n              keccak256(0x00, 0x20)\n              swap1\n            tag_286:\n              dup2\n              sload\n              dup2\n              mstore\n              swap1\n              0x01\n              add\n              swap1\n              0x20\n              add\n              dup1\n              dup4\n              gt\n              tag_286\n              jumpi\n              dup3\n              swap1\n              sub\n              0x1f\n              and\n              dup3\n              add\n              swap2\n            tag_284:\n              pop\n              pop\n              pop\n              pop\n              pop\n              swap6\n              pop\n              dup5\n              dup1\n              sload\n              tag_287\n              swap1\n              tag_174\n              jump\t// in\n            tag_287:\n              dup1\n              0x1f\n              add\n              0x20\n              dup1\n              swap2\n              div\n              mul\n              0x20\n              add\n              mload(0x40)\n              swap1\n              dup2\n              add\n              0x40\n              mstore\n              dup1\n              swap3\n              swap2\n              swap1\n              dup2\n              dup2\n              mstore\n              0x20\n              add\n              dup3\n              dup1\n              sload\n              tag_288\n              swap1\n              tag_174\n              jump\t// in\n            tag_288:\n              dup1\n              iszero\n              tag_289\n              jumpi\n              dup1\n              0x1f\n              lt\n              tag_290\n              jumpi\n              0x0100\n              dup1\n              dup4\n              sload\n              div\n              mul\n              dup4\n              mstore\n              swap2\n              0x20\n              add\n              swap2\n              jump(tag_289)\n            tag_290:\n              dup3\n              add\n              swap2\n              swap1\n              0x00\n              mstore\n              keccak256(0x00, 0x20)\n              swap1\n            tag_291:\n              dup2\n              sload\n              dup2\n              mstore\n              swap1\n              0x01\n              add\n              swap1\n              0x20\n              add\n              dup1\n              dup4\n              gt\n              tag_291\n              jumpi\n              dup3\n              swap1\n              sub\n              0x1f\n              and\n              dup3\n              add\n              swap2\n            tag_289:\n              pop\n              pop\n              pop\n              pop\n              pop\n              swap5\n              pop\n              swap11\n              pop\n              swap11\n              pop\n              swap11\n              pop\n              swap11\n              pop\n              swap11\n              pop\n              swap11\n              pop\n              swap11\n              pop\n              swap11\n              pop\n              swap11\n              pop\n              swap11\n              pop\n              swap11\n              pop\n                /* \"LndyLoan.sol\":6651:7333  function getLoanDetails() external view returns (... */\n              swap1\n              swap2\n              swap3\n              swap4\n              swap5\n              swap6\n              swap7\n              swap8\n              swap9\n              swap10\n              swap11\n              jump\t// out\n                /* \"@openzeppelin/contracts/token/ERC1155/ERC1155.sol\":3589:3940   */\n            tag_155:\n                /* \"@openzeppelin/contracts/utils/Context.sol\":735:745   */\n              caller\n              sub(shl(0xa0, 0x01), 0x01)\n                /* \"@openzeppelin/contracts/token/ERC1155/ERC1155.sol\":3755:3769   */\n              dup7\n              and\n              dup2\n              eq\n              dup1\n              iszero\n              swap1\n                /* \"@openzeppelin/contracts/token/ERC1155/ERC1155.sol\":3755:3804   */\n              tag_295\n              jumpi\n              pop\n              sub(shl(0xa0, 0x01), 0x01)\n                /* \"@openzeppelin/contracts/token/ERC1155/ERC1155.sol\":3478:3505   */\n              dup1\n              dup8\n              and\n                /* \"@openzeppelin/contracts/token/ERC1155/ERC1155.sol\":3455:3459   */\n              0x00\n                /* \"@openzeppelin/contracts/token/ERC1155/ERC1155.sol\":3478:3505   */\n              swap1\n              dup2\n              mstore\n                /* \"@openzeppelin/contracts/token/ERC1155/ERC1155.sol\":3478:3496   */\n              0x01\n                /* \"@openzeppelin/contracts/token/ERC1155/ERC1155.sol\":3478:3505   */\n              0x20\n              swap1\n              dup2\n              mstore\n              0x40\n              dup1\n              dup4\n              keccak256\n                /* \"@openzeppelin/contracts/token/ERC1155/ERC1155.sol\":3478:3515   */\n              swap4\n              dup6\n              and\n              dup4\n              mstore\n              swap3\n              swap1\n              mstore\n              keccak256\n              sload\n              0xff\n              and\n                /* \"@openzeppelin/contracts/token/ERC1155/ERC1155.sol\":3773:3804   */\n              iszero\n                /* \"@openzeppelin/contracts/token/ERC1155/ERC1155.sol\":3755:3804   */\n            tag_295:\n                /* \"@openzeppelin/contracts/token/ERC1155/ERC1155.sol\":3751:3880   */\n              iszero\n              tag_297\n              jumpi\n                /* \"@openzeppelin/contracts/token/ERC1155/ERC1155.sol\":3827:3869   */\n              mload(0x40)\n              shl(0xe1, 0x711bec91)\n              dup2\n              mstore\n              sub(shl(0xa0, 0x01), 0x01)\n                /* \"#utility.yul\":11379:11394   */\n              dup1\n              dup4\n              and\n                /* \"@openzeppelin/contracts/token/ERC1155/ERC1155.sol\":3827:3869   */\n              0x04\n              dup4\n              add\n                /* \"#utility.yul\":11361:11395   */\n              mstore\n                /* \"#utility.yul\":11431:11446   */\n              dup8\n              and\n                /* \"#utility.yul\":11411:11429   */\n              0x24\n              dup3\n              add\n                /* \"#utility.yul\":11404:11447   */\n              mstore\n                /* \"#utility.yul\":11273:11291   */\n              0x44\n              add\n                /* \"@openzeppelin/contracts/token/ERC1155/ERC1155.sol\":3827:3869   */\n              tag_171\n                /* \"#utility.yul\":11126:11453   */\n              jump\n                /* \"@openzeppelin/contracts/token/ERC1155/ERC1155.sol\":3751:3880   */\n            tag_297:\n                /* \"@openzeppelin/contracts/token/ERC1155/ERC1155.sol\":3889:3933   */\n              tag_207\n                /* \"@openzeppelin/contracts/token/ERC1155/ERC1155.sol\":3907:3911   */\n              dup7\n                /* \"@openzeppelin/contracts/token/ERC1155/ERC1155.sol\":3913:3915   */\n              dup7\n                /* \"@openzeppelin/contracts/token/ERC1155/ERC1155.sol\":3917:3919   */\n              dup7\n                /* \"@openzeppelin/contracts/token/ERC1155/ERC1155.sol\":3921:3926   */\n              dup7\n                /* \"@openzeppelin/contracts/token/ERC1155/ERC1155.sol\":3928:3932   */\n              dup7\n                /* \"@openzeppelin/contracts/token/ERC1155/ERC1155.sol\":3889:3906   */\n              tag_300\n                /* \"@openzeppelin/contracts/token/ERC1155/ERC1155.sol\":3889:3933   */\n              jump\t// in\n                /* \"@openzeppelin/contracts/access/Ownable.sol\":2543:2758   */\n            tag_160:\n                /* \"@openzeppelin/contracts/access/Ownable.sol\":1531:1544   */\n              tag_302\n                /* \"@openzeppelin/contracts/access/Ownable.sol\":1531:1542   */\n              tag_230\n                /* \"@openzeppelin/contracts/access/Ownable.sol\":1531:1544   */\n              jump\t// in\n            tag_302:\n              sub(shl(0xa0, 0x01), 0x01)\n                /* \"@openzeppelin/contracts/access/Ownable.sol\":2627:2649   */\n              dup2\n              and\n                /* \"@openzeppelin/contracts/access/Ownable.sol\":2623:2714   */\n              tag_304\n              jumpi\n                /* \"@openzeppelin/contracts/access/Ownable.sol\":2672:2703   */\n              mload(0x40)\n              shl(0xe0, 0x1e4fbdf7)\n              dup2\n              mstore\n                /* \"@openzeppelin/contracts/access/Ownable.sol\":2700:2701   */\n              0x00\n                /* \"@openzeppelin/contracts/access/Ownable.sol\":2672:2703   */\n              0x04\n              dup3\n              add\n                /* \"#utility.yul\":6701:6775   */\n              mstore\n                /* \"#utility.yul\":6674:6692   */\n              0x24\n              add\n                /* \"@openzeppelin/contracts/access/Ownable.sol\":2672:2703   */\n              tag_171\n                /* \"#utility.yul\":6555:6781   */\n              jump\n                /* \"@openzeppelin/contracts/access/Ownable.sol\":2623:2714   */\n            tag_304:\n                /* \"@openzeppelin/contracts/access/Ownable.sol\":2723:2751   */\n              tag_306\n                /* \"@openzeppelin/contracts/access/Ownable.sol\":2742:2750   */\n              dup2\n                /* \"@openzeppelin/contracts/access/Ownable.sol\":2723:2741   */\n              tag_233\n                /* \"@openzeppelin/contracts/access/Ownable.sol\":2723:2751   */\n              jump\t// in\n            tag_306:\n                /* \"@openzeppelin/contracts/access/Ownable.sol\":2543:2758   */\n              pop\n              jump\t// out\n                /* \"LndyLoan.sol\":3913:4437  function repayLoan() external payable onlyOwner {... */\n            tag_162:\n                /* \"@openzeppelin/contracts/access/Ownable.sol\":1531:1544   */\n              tag_308\n                /* \"@openzeppelin/contracts/access/Ownable.sol\":1531:1542   */\n              tag_230\n                /* \"@openzeppelin/contracts/access/Ownable.sol\":1531:1544   */\n              jump\t// in\n            tag_308:\n                /* \"LndyLoan.sol\":3979:3987  isActive */\n              and(0xff, sload(0x0d))\n                /* \"LndyLoan.sol\":3971:4010  require(isActive, \"Loan is not active\") */\n              tag_310\n              jumpi\n              mload(0x40)\n              shl(0xe5, 0x461bcd)\n              dup2\n              mstore\n                /* \"#utility.yul\":14464:14466   */\n              0x20\n                /* \"LndyLoan.sol\":3971:4010  require(isActive, \"Loan is not active\") */\n              0x04\n              dup3\n              add\n                /* \"#utility.yul\":14446:14467   */\n              mstore\n                /* \"#utility.yul\":14503:14505   */\n              0x12\n                /* \"#utility.yul\":14483:14501   */\n              0x24\n              dup3\n              add\n                /* \"#utility.yul\":14476:14506   */\n              mstore\n                /* \"#utility.yul\":14542:14562   */\n              0x4c6f616e206973206e6f74206163746976650000000000000000000000000000\n                /* \"#utility.yul\":14522:14540   */\n              0x44\n              dup3\n              add\n                /* \"#utility.yul\":14515:14563   */\n              mstore\n                /* \"#utility.yul\":14580:14598   */\n              0x64\n              add\n                /* \"LndyLoan.sol\":3971:4010  require(isActive, \"Loan is not active\") */\n              tag_171\n                /* \"#utility.yul\":14262:14604   */\n              jump\n                /* \"LndyLoan.sol\":3971:4010  require(isActive, \"Loan is not active\") */\n            tag_310:\n                /* \"LndyLoan.sol\":4029:4037  isRepaid */\n              sload(0x0d)\n              0x0100\n              swap1\n              div\n              0xff\n              and\n                /* \"LndyLoan.sol\":4028:4037  !isRepaid */\n              iszero\n                /* \"LndyLoan.sol\":4020:4064  require(!isRepaid, \"Loan is already repaid\") */\n              tag_313\n              jumpi\n              mload(0x40)\n              shl(0xe5, 0x461bcd)\n              dup2\n              mstore\n                /* \"#utility.yul\":14811:14813   */\n              0x20\n                /* \"LndyLoan.sol\":4020:4064  require(!isRepaid, \"Loan is already repaid\") */\n              0x04\n              dup3\n              add\n                /* \"#utility.yul\":14793:14814   */\n              mstore\n                /* \"#utility.yul\":14850:14852   */\n              0x16\n                /* \"#utility.yul\":14830:14848   */\n              0x24\n              dup3\n              add\n                /* \"#utility.yul\":14823:14853   */\n              mstore\n                /* \"#utility.yul\":14889:14913   */\n              0x4c6f616e20697320616c72656164792072657061696400000000000000000000\n                /* \"#utility.yul\":14869:14887   */\n              0x44\n              dup3\n              add\n                /* \"#utility.yul\":14862:14914   */\n              mstore\n                /* \"#utility.yul\":14931:14949   */\n              0x64\n              add\n                /* \"LndyLoan.sol\":4020:4064  require(!isRepaid, \"Loan is already repaid\") */\n              tag_171\n                /* \"#utility.yul\":14609:14955   */\n              jump\n                /* \"LndyLoan.sol\":4020:4064  require(!isRepaid, \"Loan is already repaid\") */\n            tag_313:\n                /* \"LndyLoan.sol\":4150:4172  uint256 interestAmount */\n              0x00\n                /* \"LndyLoan.sol\":4205:4210  10000 */\n              0x2710\n                /* \"LndyLoan.sol\":4189:4201  interestRate */\n              sload(0x05)\n                /* \"LndyLoan.sol\":4176:4186  loanAmount */\n              sload(0x04)\n                /* \"LndyLoan.sol\":4176:4201  loanAmount * interestRate */\n              tag_316\n              swap2\n              swap1\n              tag_267\n              jump\t// in\n            tag_316:\n                /* \"LndyLoan.sol\":4175:4210  (loanAmount * interestRate) / 10000 */\n              tag_317\n              swap2\n              swap1\n              tag_269\n              jump\t// in\n            tag_317:\n                /* \"LndyLoan.sol\":4150:4210  uint256 interestAmount = (loanAmount * interestRate) / 10000 */\n              swap1\n              pop\n                /* \"LndyLoan.sol\":4220:4242  uint256 totalRepayment */\n              0x00\n                /* \"LndyLoan.sol\":4258:4272  interestAmount */\n              dup2\n                /* \"LndyLoan.sol\":4245:4255  loanAmount */\n              sload(0x04)\n                /* \"LndyLoan.sol\":4245:4272  loanAmount + interestAmount */\n              tag_318\n              swap2\n              swap1\n              tag_246\n              jump\t// in\n            tag_318:\n                /* \"LndyLoan.sol\":4220:4272  uint256 totalRepayment = loanAmount + interestAmount */\n              swap1\n              pop\n                /* \"LndyLoan.sol\":4312:4326  totalRepayment */\n              dup1\n                /* \"LndyLoan.sol\":4299:4308  msg.value */\n              callvalue\n                /* \"LndyLoan.sol\":4299:4326  msg.value >= totalRepayment */\n              lt\n              iszero\n                /* \"LndyLoan.sol\":4291:4360  require(msg.value >= totalRepayment, \"Insufficient repayment amount\") */\n              tag_319\n              jumpi\n              mload(0x40)\n              shl(0xe5, 0x461bcd)\n              dup2\n              mstore\n                /* \"#utility.yul\":15162:15164   */\n              0x20\n                /* \"LndyLoan.sol\":4291:4360  require(msg.value >= totalRepayment, \"Insufficient repayment amount\") */\n              0x04\n              dup3\n              add\n                /* \"#utility.yul\":15144:15165   */\n              mstore\n                /* \"#utility.yul\":15201:15203   */\n              0x1d\n                /* \"#utility.yul\":15181:15199   */\n              0x24\n              dup3\n              add\n                /* \"#utility.yul\":15174:15204   */\n              mstore\n                /* \"#utility.yul\":15240:15271   */\n              0x496e73756666696369656e742072657061796d656e7420616d6f756e74000000\n                /* \"#utility.yul\":15220:15238   */\n              0x44\n              dup3\n              add\n                /* \"#utility.yul\":15213:15272   */\n              mstore\n                /* \"#utility.yul\":15289:15307   */\n              0x64\n              add\n                /* \"LndyLoan.sol\":4291:4360  require(msg.value >= totalRepayment, \"Insufficient repayment amount\") */\n              tag_171\n                /* \"#utility.yul\":14960:15313   */\n              jump\n                /* \"LndyLoan.sol\":4291:4360  require(msg.value >= totalRepayment, \"Insufficient repayment amount\") */\n            tag_319:\n                /* \"LndyLoan.sol\":4379:4387  isRepaid */\n              0x0d\n                /* \"LndyLoan.sol\":4379:4394  isRepaid = true */\n              dup1\n              sload\n              not(0xff00)\n              and\n              0x0100\n              or\n              swap1\n              sstore\n                /* \"LndyLoan.sol\":4418:4430  LoanRepaid() */\n              mload(0x40)\n              0x1062e18f9d21decf38f145fc9b437cd2c70e09252a729f9830b75ffdaaf37894\n              swap1\n                /* \"LndyLoan.sol\":4379:4394  isRepaid = true */\n              0x00\n              swap1\n                /* \"LndyLoan.sol\":4418:4430  LoanRepaid() */\n              log1\n                /* \"LndyLoan.sol\":3961:4437  {... */\n              pop\n              pop\n                /* \"LndyLoan.sol\":3913:4437  function repayLoan() external payable onlyOwner {... */\n              jump\t// out\n                /* \"@openzeppelin/contracts/token/ERC1155/ERC1155.sol\":12107:12436   */\n            tag_196:\n              sub(shl(0xa0, 0x01), 0x01)\n                /* \"@openzeppelin/contracts/token/ERC1155/ERC1155.sol\":12186:12204   */\n              dup4\n              and\n                /* \"@openzeppelin/contracts/token/ERC1155/ERC1155.sol\":12182:12270   */\n              tag_324\n              jumpi\n                /* \"@openzeppelin/contracts/token/ERC1155/ERC1155.sol\":12227:12259   */\n              mload(0x40)\n              shl(0xe2, 0x6a0d45)\n              dup2\n              mstore\n                /* \"@openzeppelin/contracts/token/ERC1155/ERC1155.sol\":12256:12257   */\n              0x00\n                /* \"@openzeppelin/contracts/token/ERC1155/ERC1155.sol\":12227:12259   */\n              0x04\n              dup3\n              add\n                /* \"#utility.yul\":6701:6775   */\n              mstore\n                /* \"#utility.yul\":6674:6692   */\n              0x24\n              add\n                /* \"@openzeppelin/contracts/token/ERC1155/ERC1155.sol\":12227:12259   */\n              tag_171\n                /* \"#utility.yul\":6555:6781   */\n              jump\n                /* \"@openzeppelin/contracts/token/ERC1155/ERC1155.sol\":12182:12270   */\n            tag_324:\n                /* \"@openzeppelin/contracts/token/ERC1155/ERC1155.sol\":13974:13978   */\n              0x40\n                /* \"@openzeppelin/contracts/token/ERC1155/ERC1155.sol\":13968:13979   */\n              dup1\n              mload\n                /* \"@openzeppelin/contracts/token/ERC1155/ERC1155.sol\":14044:14045   */\n              0x01\n                /* \"@openzeppelin/contracts/token/ERC1155/ERC1155.sol\":14029:14046   */\n              dup1\n              dup3\n              mstore\n                /* \"@openzeppelin/contracts/token/ERC1155/ERC1155.sol\":14175:14179   */\n              0x20\n                /* \"@openzeppelin/contracts/token/ERC1155/ERC1155.sol\":14163:14180   */\n              dup3\n              add\n                /* \"@openzeppelin/contracts/token/ERC1155/ERC1155.sol\":14156:14191   */\n              dup6\n              swap1\n              mstore\n                /* \"@openzeppelin/contracts/token/ERC1155/ERC1155.sol\":14292:14309   */\n              dup2\n              dup4\n              add\n                /* \"@openzeppelin/contracts/token/ERC1155/ERC1155.sol\":14322:14339   */\n              swap1\n              dup2\n              mstore\n                /* \"@openzeppelin/contracts/token/ERC1155/ERC1155.sol\":13815:13838   */\n              0x60\n                /* \"@openzeppelin/contracts/token/ERC1155/ERC1155.sol\":14359:14376   */\n              dup3\n              add\n                /* \"@openzeppelin/contracts/token/ERC1155/ERC1155.sol\":14352:14387   */\n              dup5\n              swap1\n              mstore\n                /* \"@openzeppelin/contracts/token/ERC1155/ERC1155.sol\":12368:12429   */\n              0xa0\n              dup3\n              add\n              swap1\n              swap3\n              mstore\n              0x00\n                /* \"@openzeppelin/contracts/token/ERC1155/ERC1155.sol\":14495:14512   */\n              0x80\n              dup3\n              add\n                /* \"@openzeppelin/contracts/token/ERC1155/ERC1155.sol\":12368:12429   */\n              dup2\n              dup2\n              mstore\n                /* \"@openzeppelin/contracts/token/ERC1155/ERC1155.sol\":13968:13979   */\n              swap2\n              swap3\n                /* \"@openzeppelin/contracts/token/ERC1155/ERC1155.sol\":14292:14309   */\n              swap2\n                /* \"@openzeppelin/contracts/token/ERC1155/ERC1155.sol\":12368:12429   */\n              tag_275\n              swap2\n                /* \"@openzeppelin/contracts/token/ERC1155/ERC1155.sol\":12395:12399   */\n              dup8\n              swap2\n                /* \"@openzeppelin/contracts/token/ERC1155/ERC1155.sol\":13968:13979   */\n              dup6\n              swap1\n                /* \"@openzeppelin/contracts/token/ERC1155/ERC1155.sol\":14292:14309   */\n              dup6\n              swap1\n                /* \"@openzeppelin/contracts/token/ERC1155/ERC1155.sol\":12368:12394   */\n              tag_329\n                /* \"@openzeppelin/contracts/token/ERC1155/ERC1155.sol\":12368:12429   */\n              jump\t// in\n                /* \"@openzeppelin/contracts/token/ERC1155/ERC1155.sol\":9023:9468   */\n            tag_208:\n              sub(shl(0xa0, 0x01), 0x01)\n                /* \"@openzeppelin/contracts/token/ERC1155/ERC1155.sol\":9216:9232   */\n              dup5\n              and\n                /* \"@openzeppelin/contracts/token/ERC1155/ERC1155.sol\":9212:9300   */\n              tag_332\n              jumpi\n                /* \"@openzeppelin/contracts/token/ERC1155/ERC1155.sol\":9255:9289   */\n              mload(0x40)\n              shl(0xe1, 0x2bfa23e7)\n              dup2\n              mstore\n                /* \"@openzeppelin/contracts/token/ERC1155/ERC1155.sol\":9286:9287   */\n              0x00\n                /* \"@openzeppelin/contracts/token/ERC1155/ERC1155.sol\":9255:9289   */\n              0x04\n              dup3\n              add\n                /* \"#utility.yul\":6701:6775   */\n              mstore\n                /* \"#utility.yul\":6674:6692   */\n              0x24\n              add\n                /* \"@openzeppelin/contracts/token/ERC1155/ERC1155.sol\":9255:9289   */\n              tag_171\n                /* \"#utility.yul\":6555:6781   */\n              jump\n                /* \"@openzeppelin/contracts/token/ERC1155/ERC1155.sol\":9212:9300   */\n            tag_332:\n              sub(shl(0xa0, 0x01), 0x01)\n                /* \"@openzeppelin/contracts/token/ERC1155/ERC1155.sol\":9313:9331   */\n              dup6\n              and\n                /* \"@openzeppelin/contracts/token/ERC1155/ERC1155.sol\":9309:9397   */\n              tag_334\n              jumpi\n                /* \"@openzeppelin/contracts/token/ERC1155/ERC1155.sol\":9354:9386   */\n              mload(0x40)\n              shl(0xe2, 0x6a0d45)\n              dup2\n              mstore\n                /* \"@openzeppelin/contracts/token/ERC1155/ERC1155.sol\":9383:9384   */\n              0x00\n                /* \"@openzeppelin/contracts/token/ERC1155/ERC1155.sol\":9354:9386   */\n              0x04\n              dup3\n              add\n                /* \"#utility.yul\":6701:6775   */\n              mstore\n                /* \"#utility.yul\":6674:6692   */\n              0x24\n              add\n                /* \"@openzeppelin/contracts/token/ERC1155/ERC1155.sol\":9354:9386   */\n              tag_171\n                /* \"#utility.yul\":6555:6781   */\n              jump\n                /* \"@openzeppelin/contracts/token/ERC1155/ERC1155.sol\":9309:9397   */\n            tag_334:\n                /* \"@openzeppelin/contracts/token/ERC1155/ERC1155.sol\":9406:9461   */\n              tag_275\n                /* \"@openzeppelin/contracts/token/ERC1155/ERC1155.sol\":9433:9437   */\n              dup6\n                /* \"@openzeppelin/contracts/token/ERC1155/ERC1155.sol\":9439:9441   */\n              dup6\n                /* \"@openzeppelin/contracts/token/ERC1155/ERC1155.sol\":9443:9446   */\n              dup6\n                /* \"@openzeppelin/contracts/token/ERC1155/ERC1155.sol\":9448:9454   */\n              dup6\n                /* \"@openzeppelin/contracts/token/ERC1155/ERC1155.sol\":9456:9460   */\n              dup6\n                /* \"@openzeppelin/contracts/token/ERC1155/ERC1155.sol\":9406:9432   */\n              tag_329\n                /* \"@openzeppelin/contracts/token/ERC1155/ERC1155.sol\":9406:9461   */\n              jump\t// in\n                /* \"@openzeppelin/contracts/access/Ownable.sol\":1796:1958   */\n            tag_230:\n                /* \"@openzeppelin/contracts/access/Ownable.sol\":1710:1716   */\n              and(sub(shl(0xa0, 0x01), 0x01), sload(0x03))\n                /* \"@openzeppelin/contracts/utils/Context.sol\":735:745   */\n              caller\n                /* \"@openzeppelin/contracts/access/Ownable.sol\":1855:1878   */\n              eq\n                /* \"@openzeppelin/contracts/access/Ownable.sol\":1851:1952   */\n              tag_232\n              jumpi\n                /* \"@openzeppelin/contracts/access/Ownable.sol\":1901:1941   */\n              mload(0x40)\n              shl(0xe0, 0x118cdaa7)\n              dup2\n              mstore\n                /* \"@openzeppelin/contracts/utils/Context.sol\":735:745   */\n              caller\n                /* \"@openzeppelin/contracts/access/Ownable.sol\":1901:1941   */\n              0x04\n              dup3\n              add\n                /* \"#utility.yul\":6701:6775   */\n              mstore\n                /* \"#utility.yul\":6674:6692   */\n              0x24\n              add\n                /* \"@openzeppelin/contracts/access/Ownable.sol\":1901:1941   */\n              tag_171\n                /* \"#utility.yul\":6555:6781   */\n              jump\n                /* \"@openzeppelin/contracts/access/Ownable.sol\":2912:3099   */\n            tag_233:\n                /* \"@openzeppelin/contracts/access/Ownable.sol\":3004:3010   */\n              0x03\n              dup1\n              sload\n              sub(shl(0xa0, 0x01), 0x01)\n                /* \"@openzeppelin/contracts/access/Ownable.sol\":3020:3037   */\n              dup4\n              dup2\n              and\n              0xffffffffffffffffffffffff0000000000000000000000000000000000000000\n              dup4\n              and\n              dup2\n              or\n              swap1\n              swap4\n              sstore\n                /* \"@openzeppelin/contracts/access/Ownable.sol\":3052:3092   */\n              mload(0x40)\n                /* \"@openzeppelin/contracts/access/Ownable.sol\":3004:3010   */\n              swap2\n              and\n              swap2\n                /* \"@openzeppelin/contracts/access/Ownable.sol\":3020:3037   */\n              swap1\n                /* \"@openzeppelin/contracts/access/Ownable.sol\":3004:3010   */\n              dup3\n              swap1\n                /* \"@openzeppelin/contracts/access/Ownable.sol\":3052:3092   */\n              0x8be0079c531659141344cd1fd0a4f28419497f9722a3daafe3b4186f6b6457e0\n              swap1\n                /* \"@openzeppelin/contracts/access/Ownable.sol\":2985:3001   */\n              0x00\n              swap1\n                /* \"@openzeppelin/contracts/access/Ownable.sol\":3052:3092   */\n              log3\n                /* \"@openzeppelin/contracts/access/Ownable.sol\":2975:3099   */\n              pop\n                /* \"@openzeppelin/contracts/access/Ownable.sol\":2912:3099   */\n              pop\n              jump\t// out\n                /* \"@openzeppelin/contracts/token/ERC1155/ERC1155.sol\":10754:11100   */\n            tag_251:\n              sub(shl(0xa0, 0x01), 0x01)\n                /* \"@openzeppelin/contracts/token/ERC1155/ERC1155.sol\":10850:10866   */\n              dup5\n              and\n                /* \"@openzeppelin/contracts/token/ERC1155/ERC1155.sol\":10846:10934   */\n              tag_347\n              jumpi\n                /* \"@openzeppelin/contracts/token/ERC1155/ERC1155.sol\":10889:10923   */\n              mload(0x40)\n              shl(0xe1, 0x2bfa23e7)\n              dup2\n              mstore\n                /* \"@openzeppelin/contracts/token/ERC1155/ERC1155.sol\":10920:10921   */\n              0x00\n                /* \"@openzeppelin/contracts/token/ERC1155/ERC1155.sol\":10889:10923   */\n              0x04\n              dup3\n              add\n                /* \"#utility.yul\":6701:6775   */\n              mstore\n                /* \"#utility.yul\":6674:6692   */\n              0x24\n              add\n                /* \"@openzeppelin/contracts/token/ERC1155/ERC1155.sol\":10889:10923   */\n              tag_171\n                /* \"#utility.yul\":6555:6781   */\n              jump\n                /* \"@openzeppelin/contracts/token/ERC1155/ERC1155.sol\":10846:10934   */\n            tag_347:\n                /* \"@openzeppelin/contracts/token/ERC1155/ERC1155.sol\":13974:13978   */\n              0x40\n                /* \"@openzeppelin/contracts/token/ERC1155/ERC1155.sol\":13968:13979   */\n              dup1\n              mload\n                /* \"@openzeppelin/contracts/token/ERC1155/ERC1155.sol\":14044:14045   */\n              0x01\n                /* \"@openzeppelin/contracts/token/ERC1155/ERC1155.sol\":14029:14046   */\n              dup1\n              dup3\n              mstore\n                /* \"@openzeppelin/contracts/token/ERC1155/ERC1155.sol\":14175:14179   */\n              0x20\n                /* \"@openzeppelin/contracts/token/ERC1155/ERC1155.sol\":14163:14180   */\n              dup3\n              add\n                /* \"@openzeppelin/contracts/token/ERC1155/ERC1155.sol\":14156:14191   */\n              dup7\n              swap1\n              mstore\n                /* \"@openzeppelin/contracts/token/ERC1155/ERC1155.sol\":14292:14309   */\n              dup2\n              dup4\n              add\n                /* \"@openzeppelin/contracts/token/ERC1155/ERC1155.sol\":14322:14339   */\n              swap1\n              dup2\n              mstore\n                /* \"@openzeppelin/contracts/token/ERC1155/ERC1155.sol\":13815:13838   */\n              0x60\n                /* \"@openzeppelin/contracts/token/ERC1155/ERC1155.sol\":14359:14376   */\n              dup3\n              add\n                /* \"@openzeppelin/contracts/token/ERC1155/ERC1155.sol\":14352:14387   */\n              dup6\n              swap1\n              mstore\n                /* \"@openzeppelin/contracts/token/ERC1155/ERC1155.sol\":14495:14512   */\n              0x80\n              dup3\n              add\n                /* \"@openzeppelin/contracts/token/ERC1155/ERC1155.sol\":14482:14513   */\n              swap1\n              swap3\n              mstore\n                /* \"@openzeppelin/contracts/token/ERC1155/ERC1155.sol\":13968:13979   */\n              swap1\n                /* \"@openzeppelin/contracts/token/ERC1155/ERC1155.sol\":11032:11093   */\n              tag_207\n              0x00\n                /* \"@openzeppelin/contracts/token/ERC1155/ERC1155.sol\":11071:11073   */\n              dup8\n                /* \"@openzeppelin/contracts/token/ERC1155/ERC1155.sol\":13968:13979   */\n              dup5\n                /* \"@openzeppelin/contracts/token/ERC1155/ERC1155.sol\":14292:14309   */\n              dup5\n                /* \"@openzeppelin/contracts/token/ERC1155/ERC1155.sol\":11088:11092   */\n              dup8\n                /* \"@openzeppelin/contracts/token/ERC1155/ERC1155.sol\":11032:11058   */\n              tag_329\n                /* \"@openzeppelin/contracts/token/ERC1155/ERC1155.sol\":11032:11093   */\n              jump\t// in\n                /* \"@openzeppelin/contracts/token/ERC1155/ERC1155.sol\":13276:13591   */\n            tag_280:\n              sub(shl(0xa0, 0x01), 0x01)\n                /* \"@openzeppelin/contracts/token/ERC1155/ERC1155.sol\":13383:13405   */\n              dup3\n              and\n                /* \"@openzeppelin/contracts/token/ERC1155/ERC1155.sol\":13379:13473   */\n              tag_352\n              jumpi\n                /* \"@openzeppelin/contracts/token/ERC1155/ERC1155.sol\":13428:13462   */\n              mload(0x40)\n              shl(0xe8, 0xced3e1)\n              dup2\n              mstore\n                /* \"@openzeppelin/contracts/token/ERC1155/ERC1155.sol\":13459:13460   */\n              0x00\n                /* \"@openzeppelin/contracts/token/ERC1155/ERC1155.sol\":13428:13462   */\n              0x04\n              dup3\n              add\n                /* \"#utility.yul\":6701:6775   */\n              mstore\n                /* \"#utility.yul\":6674:6692   */\n              0x24\n              add\n                /* \"@openzeppelin/contracts/token/ERC1155/ERC1155.sol\":13428:13462   */\n              tag_171\n                /* \"#utility.yul\":6555:6781   */\n              jump\n                /* \"@openzeppelin/contracts/token/ERC1155/ERC1155.sol\":13379:13473   */\n            tag_352:\n              sub(shl(0xa0, 0x01), 0x01)\n                /* \"@openzeppelin/contracts/token/ERC1155/ERC1155.sol\":13482:13507   */\n              dup4\n              dup2\n              and\n              0x00\n              dup2\n              dup2\n              mstore\n                /* \"@openzeppelin/contracts/token/ERC1155/ERC1155.sol\":13482:13500   */\n              0x01\n                /* \"@openzeppelin/contracts/token/ERC1155/ERC1155.sol\":13482:13507   */\n              0x20\n              swap1\n              dup2\n              mstore\n              0x40\n              dup1\n              dup4\n              keccak256\n                /* \"@openzeppelin/contracts/token/ERC1155/ERC1155.sol\":13482:13517   */\n              swap5\n              dup8\n              and\n              dup1\n              dup5\n              mstore\n              swap5\n              dup3\n              mstore\n              swap2\n              dup3\n              swap1\n              keccak256\n                /* \"@openzeppelin/contracts/token/ERC1155/ERC1155.sol\":13482:13528   */\n              dup1\n              sload\n              not(0xff)\n              and\n              dup7\n              iszero\n              iszero\n              swap1\n              dup2\n              or\n              swap1\n              swap2\n              sstore\n                /* \"@openzeppelin/contracts/token/ERC1155/ERC1155.sol\":13543:13584   */\n              swap2\n              mload\n                /* \"#utility.yul\":1182:1223   */\n              swap2\n              dup3\n              mstore\n                /* \"@openzeppelin/contracts/token/ERC1155/ERC1155.sol\":13543:13584   */\n              0x17307eab39ab6107e8899845ad3d59bd9653f200f220920489ca2b5937696c31\n              swap2\n                /* \"#utility.yul\":1155:1173   */\n              add\n                /* \"@openzeppelin/contracts/token/ERC1155/ERC1155.sol\":13543:13584   */\n              mload(0x40)\n              dup1\n              swap2\n              sub\n              swap1\n              log3\n                /* \"@openzeppelin/contracts/token/ERC1155/ERC1155.sol\":13276:13591   */\n              pop\n              pop\n              pop\n              jump\t// out\n                /* \"@openzeppelin/contracts/token/ERC1155/ERC1155.sol\":8159:8622   */\n            tag_300:\n              sub(shl(0xa0, 0x01), 0x01)\n                /* \"@openzeppelin/contracts/token/ERC1155/ERC1155.sol\":8281:8297   */\n              dup5\n              and\n                /* \"@openzeppelin/contracts/token/ERC1155/ERC1155.sol\":8277:8365   */\n              tag_356\n              jumpi\n                /* \"@openzeppelin/contracts/token/ERC1155/ERC1155.sol\":8320:8354   */\n              mload(0x40)\n              shl(0xe1, 0x2bfa23e7)\n              dup2\n              mstore\n                /* \"@openzeppelin/contracts/token/ERC1155/ERC1155.sol\":8351:8352   */\n              0x00\n                /* \"@openzeppelin/contracts/token/ERC1155/ERC1155.sol\":8320:8354   */\n              0x04\n              dup3\n              add\n                /* \"#utility.yul\":6701:6775   */\n              mstore\n                /* \"#utility.yul\":6674:6692   */\n              0x24\n              add\n                /* \"@openzeppelin/contracts/token/ERC1155/ERC1155.sol\":8320:8354   */\n              tag_171\n                /* \"#utility.yul\":6555:6781   */\n              jump\n                /* \"@openzeppelin/contracts/token/ERC1155/ERC1155.sol\":8277:8365   */\n            tag_356:\n              sub(shl(0xa0, 0x01), 0x01)\n                /* \"@openzeppelin/contracts/token/ERC1155/ERC1155.sol\":8378:8396   */\n              dup6\n              and\n                /* \"@openzeppelin/contracts/token/ERC1155/ERC1155.sol\":8374:8462   */\n              tag_358\n              jumpi\n                /* \"@openzeppelin/contracts/token/ERC1155/ERC1155.sol\":8419:8451   */\n              mload(0x40)\n              shl(0xe2, 0x6a0d45)\n              dup2\n              mstore\n                /* \"@openzeppelin/contracts/token/ERC1155/ERC1155.sol\":8448:8449   */\n              0x00\n                /* \"@openzeppelin/contracts/token/ERC1155/ERC1155.sol\":8419:8451   */\n              0x04\n              dup3\n              add\n                /* \"#utility.yul\":6701:6775   */\n              mstore\n                /* \"#utility.yul\":6674:6692   */\n              0x24\n              add\n                /* \"@openzeppelin/contracts/token/ERC1155/ERC1155.sol\":8419:8451   */\n              tag_171\n                /* \"#utility.yul\":6555:6781   */\n              jump\n                /* \"@openzeppelin/contracts/token/ERC1155/ERC1155.sol\":8374:8462   */\n            tag_358:\n                /* \"@openzeppelin/contracts/token/ERC1155/ERC1155.sol\":13974:13978   */\n              0x40\n                /* \"@openzeppelin/contracts/token/ERC1155/ERC1155.sol\":13968:13979   */\n              dup1\n              mload\n                /* \"@openzeppelin/contracts/token/ERC1155/ERC1155.sol\":14044:14045   */\n              0x01\n                /* \"@openzeppelin/contracts/token/ERC1155/ERC1155.sol\":14029:14046   */\n              dup1\n              dup3\n              mstore\n                /* \"@openzeppelin/contracts/token/ERC1155/ERC1155.sol\":14175:14179   */\n              0x20\n                /* \"@openzeppelin/contracts/token/ERC1155/ERC1155.sol\":14163:14180   */\n              dup3\n              add\n                /* \"@openzeppelin/contracts/token/ERC1155/ERC1155.sol\":14156:14191   */\n              dup7\n              swap1\n              mstore\n                /* \"@openzeppelin/contracts/token/ERC1155/ERC1155.sol\":14292:14309   */\n              dup2\n              dup4\n              add\n                /* \"@openzeppelin/contracts/token/ERC1155/ERC1155.sol\":14322:14339   */\n              swap1\n              dup2\n              mstore\n                /* \"@openzeppelin/contracts/token/ERC1155/ERC1155.sol\":13815:13838   */\n              0x60\n                /* \"@openzeppelin/contracts/token/ERC1155/ERC1155.sol\":14359:14376   */\n              dup3\n              add\n                /* \"@openzeppelin/contracts/token/ERC1155/ERC1155.sol\":14352:14387   */\n              dup6\n              swap1\n              mstore\n                /* \"@openzeppelin/contracts/token/ERC1155/ERC1155.sol\":14495:14512   */\n              0x80\n              dup3\n              add\n                /* \"@openzeppelin/contracts/token/ERC1155/ERC1155.sol\":14482:14513   */\n              swap1\n              swap3\n              mstore\n                /* \"@openzeppelin/contracts/token/ERC1155/ERC1155.sol\":13968:13979   */\n              swap1\n                /* \"@openzeppelin/contracts/token/ERC1155/ERC1155.sol\":8560:8615   */\n              tag_361\n                /* \"@openzeppelin/contracts/token/ERC1155/ERC1155.sol\":8587:8591   */\n              dup8\n                /* \"@openzeppelin/contracts/token/ERC1155/ERC1155.sol\":8593:8595   */\n              dup8\n                /* \"@openzeppelin/contracts/token/ERC1155/ERC1155.sol\":13968:13979   */\n              dup5\n                /* \"@openzeppelin/contracts/token/ERC1155/ERC1155.sol\":14292:14309   */\n              dup5\n                /* \"@openzeppelin/contracts/token/ERC1155/ERC1155.sol\":8610:8614   */\n              dup8\n                /* \"@openzeppelin/contracts/token/ERC1155/ERC1155.sol\":8560:8586   */\n              tag_329\n                /* \"@openzeppelin/contracts/token/ERC1155/ERC1155.sol\":8560:8615   */\n              jump\t// in\n            tag_361:\n                /* \"@openzeppelin/contracts/token/ERC1155/ERC1155.sol\":8267:8622   */\n              pop\n              pop\n                /* \"@openzeppelin/contracts/token/ERC1155/ERC1155.sol\":8159:8622   */\n              pop\n              pop\n              pop\n              pop\n              pop\n              jump\t// out\n                /* \"@openzeppelin/contracts/token/ERC1155/ERC1155.sol\":7002:7702   */\n            tag_329:\n                /* \"@openzeppelin/contracts/token/ERC1155/ERC1155.sol\":7203:7233   */\n              tag_364\n                /* \"@openzeppelin/contracts/token/ERC1155/ERC1155.sol\":7211:7215   */\n              dup6\n                /* \"@openzeppelin/contracts/token/ERC1155/ERC1155.sol\":7217:7219   */\n              dup6\n                /* \"@openzeppelin/contracts/token/ERC1155/ERC1155.sol\":7221:7224   */\n              dup6\n                /* \"@openzeppelin/contracts/token/ERC1155/ERC1155.sol\":7226:7232   */\n              dup6\n                /* \"@openzeppelin/contracts/token/ERC1155/ERC1155.sol\":7203:7210   */\n              tag_365\n                /* \"@openzeppelin/contracts/token/ERC1155/ERC1155.sol\":7203:7233   */\n              jump\t// in\n            tag_364:\n              sub(shl(0xa0, 0x01), 0x01)\n                /* \"@openzeppelin/contracts/token/ERC1155/ERC1155.sol\":7247:7263   */\n              dup5\n              and\n              iszero\n                /* \"@openzeppelin/contracts/token/ERC1155/ERC1155.sol\":7243:7696   */\n              tag_275\n              jumpi\n                /* \"@openzeppelin/contracts/token/ERC1155/ERC1155.sol\":7328:7338   */\n              dup3\n              mload\n                /* \"@openzeppelin/contracts/utils/Context.sol\":735:745   */\n              caller\n              swap1\n                /* \"@openzeppelin/contracts/token/ERC1155/ERC1155.sol\":7342:7343   */\n              0x01\n                /* \"@openzeppelin/contracts/token/ERC1155/ERC1155.sol\":7328:7343   */\n              sub\n                /* \"@openzeppelin/contracts/token/ERC1155/ERC1155.sol\":7324:7686   */\n              tag_368\n              jumpi\n                /* \"@openzeppelin/contracts/utils/Arrays.sol\":16302:16306   */\n              0x20\n                /* \"@openzeppelin/contracts/utils/Arrays.sol\":16273:16308   */\n              dup5\n              dup2\n              add\n                /* \"@openzeppelin/contracts/utils/Arrays.sol\":16267:16309   */\n              mload\n                /* \"@openzeppelin/contracts/utils/Arrays.sol\":16273:16308   */\n              swap1\n              dup5\n              add\n                /* \"@openzeppelin/contracts/utils/Arrays.sol\":16267:16309   */\n              mload\n                /* \"@openzeppelin/contracts/token/ERC1155/ERC1155.sol\":7481:7553   */\n              tag_371\n                /* \"@openzeppelin/contracts/token/ERC1155/ERC1155.sol\":7517:7525   */\n              dup4\n                /* \"@openzeppelin/contracts/token/ERC1155/ERC1155.sol\":7527:7531   */\n              dup10\n                /* \"@openzeppelin/contracts/token/ERC1155/ERC1155.sol\":7533:7535   */\n              dup10\n                /* \"@openzeppelin/contracts/utils/Arrays.sol\":16267:16309   */\n              dup6\n              dup6\n                /* \"@openzeppelin/contracts/token/ERC1155/ERC1155.sol\":7548:7552   */\n              dup10\n                /* \"@openzeppelin/contracts/token/ERC1155/ERC1155.sol\":7481:7516   */\n              tag_372\n                /* \"@openzeppelin/contracts/token/ERC1155/ERC1155.sol\":7481:7553   */\n              jump\t// in\n            tag_371:\n                /* \"@openzeppelin/contracts/token/ERC1155/ERC1155.sol\":7345:7568   */\n              pop\n              pop\n                /* \"@openzeppelin/contracts/token/ERC1155/ERC1155.sol\":7324:7686   */\n              jump(tag_207)\n            tag_368:\n                /* \"@openzeppelin/contracts/token/ERC1155/ERC1155.sol\":7592:7671   */\n              tag_207\n                /* \"@openzeppelin/contracts/token/ERC1155/ERC1155.sol\":7633:7641   */\n              dup2\n                /* \"@openzeppelin/contracts/token/ERC1155/ERC1155.sol\":7643:7647   */\n              dup8\n                /* \"@openzeppelin/contracts/token/ERC1155/ERC1155.sol\":7649:7651   */\n              dup8\n                /* \"@openzeppelin/contracts/token/ERC1155/ERC1155.sol\":7653:7656   */\n              dup8\n                /* \"@openzeppelin/contracts/token/ERC1155/ERC1155.sol\":7658:7664   */\n              dup8\n                /* \"@openzeppelin/contracts/token/ERC1155/ERC1155.sol\":7666:7670   */\n              dup8\n                /* \"@openzeppelin/contracts/token/ERC1155/ERC1155.sol\":7592:7632   */\n              tag_375\n                /* \"@openzeppelin/contracts/token/ERC1155/ERC1155.sol\":7592:7671   */\n              jump\t// in\n                /* \"LndyLoan.sol\":7468:7963  function _update(... */\n            tag_365:\n                /* \"LndyLoan.sol\":7624:7660  super._update(from, to, ids, values) */\n              tag_377\n                /* \"LndyLoan.sol\":7638:7642  from */\n              dup5\n                /* \"LndyLoan.sol\":7644:7646  to */\n              dup5\n                /* \"LndyLoan.sol\":7648:7651  ids */\n              dup5\n                /* \"LndyLoan.sol\":7653:7659  values */\n              dup5\n                /* \"LndyLoan.sol\":7624:7637  super._update */\n              tag_378\n                /* \"LndyLoan.sol\":7624:7660  super._update(from, to, ids, values) */\n              jump\t// in\n            tag_377:\n              sub(shl(0xa0, 0x01), 0x01)\n                /* \"LndyLoan.sol\":7730:7748  from == address(0) */\n              dup5\n              and\n              iszero\n              dup1\n                /* \"LndyLoan.sol\":7730:7768  from == address(0) || to == address(0) */\n              tag_379\n              jumpi\n              pop\n              sub(shl(0xa0, 0x01), 0x01)\n                /* \"LndyLoan.sol\":7752:7768  to == address(0) */\n              dup4\n              and\n              iszero\n                /* \"LndyLoan.sol\":7730:7768  from == address(0) || to == address(0) */\n            tag_379:\n                /* \"LndyLoan.sol\":7784:7791  return; */\n              tag_381\n                /* \"LndyLoan.sol\":7726:7801  if (from == address(0) || to == address(0)) {... */\n              jumpi\n                /* \"LndyLoan.sol\":7892:7900  isActive */\n              and(0xff, sload(0x0d))\n                /* \"LndyLoan.sol\":7884:7956  require(isActive, \"Tokens are not transferable until loan is activated\") */\n              tag_381\n              jumpi\n              mload(0x40)\n              shl(0xe5, 0x461bcd)\n              dup2\n              mstore\n                /* \"#utility.yul\":15520:15522   */\n              0x20\n                /* \"LndyLoan.sol\":7884:7956  require(isActive, \"Tokens are not transferable until loan is activated\") */\n              0x04\n              dup3\n              add\n                /* \"#utility.yul\":15502:15523   */\n              mstore\n                /* \"#utility.yul\":15559:15561   */\n              0x33\n                /* \"#utility.yul\":15539:15557   */\n              0x24\n              dup3\n              add\n                /* \"#utility.yul\":15532:15562   */\n              mstore\n                /* \"#utility.yul\":15598:15632   */\n              0x546f6b656e7320617265206e6f74207472616e7366657261626c6520756e7469\n                /* \"#utility.yul\":15578:15596   */\n              0x44\n              dup3\n              add\n                /* \"#utility.yul\":15571:15633   */\n              mstore\n                /* \"#utility.yul\":15669:15690   */\n              0x6c206c6f616e2069732061637469766174656400000000000000000000000000\n                /* \"#utility.yul\":15649:15667   */\n              0x64\n              dup3\n              add\n                /* \"#utility.yul\":15642:15691   */\n              mstore\n                /* \"#utility.yul\":15708:15727   */\n              0x84\n              add\n                /* \"LndyLoan.sol\":7884:7956  require(isActive, \"Tokens are not transferable until loan is activated\") */\n              tag_171\n                /* \"#utility.yul\":15318:15733   */\n              jump\n                /* \"LndyLoan.sol\":7884:7956  require(isActive, \"Tokens are not transferable until loan is activated\") */\n            tag_381:\n                /* \"LndyLoan.sol\":7468:7963  function _update(... */\n              pop\n              pop\n              pop\n              pop\n              jump\t// out\n                /* \"@openzeppelin/contracts/token/ERC1155/utils/ERC1155Utils.sol\":1006:1965   */\n            tag_372:\n              sub(shl(0xa0, 0x01), 0x01)\n                /* \"@openzeppelin/contracts/token/ERC1155/utils/ERC1155Utils.sol\":1205:1219   */\n              dup5\n              and\n              extcodesize\n                /* \"@openzeppelin/contracts/token/ERC1155/utils/ERC1155Utils.sol\":1205:1223   */\n              iszero\n                /* \"@openzeppelin/contracts/token/ERC1155/utils/ERC1155Utils.sol\":1201:1959   */\n              tag_207\n              jumpi\n                /* \"@openzeppelin/contracts/token/ERC1155/utils/ERC1155Utils.sol\":1243:1314   */\n              mload(0x40)\n              shl(0xe0, 0xf23a6e61)\n              dup2\n              mstore\n              sub(shl(0xa0, 0x01), 0x01)\n                /* \"@openzeppelin/contracts/token/ERC1155/utils/ERC1155Utils.sol\":1243:1281   */\n              dup6\n              and\n              swap1\n              0xf23a6e61\n              swap1\n                /* \"@openzeppelin/contracts/token/ERC1155/utils/ERC1155Utils.sol\":1243:1314   */\n              tag_386\n              swap1\n                /* \"@openzeppelin/contracts/token/ERC1155/utils/ERC1155Utils.sol\":1282:1290   */\n              dup10\n              swap1\n                /* \"@openzeppelin/contracts/token/ERC1155/utils/ERC1155Utils.sol\":1292:1296   */\n              dup10\n              swap1\n                /* \"@openzeppelin/contracts/token/ERC1155/utils/ERC1155Utils.sol\":1298:1300   */\n              dup9\n              swap1\n                /* \"@openzeppelin/contracts/token/ERC1155/utils/ERC1155Utils.sol\":1302:1307   */\n              dup9\n              swap1\n                /* \"@openzeppelin/contracts/token/ERC1155/utils/ERC1155Utils.sol\":1309:1313   */\n              dup9\n              swap1\n                /* \"@openzeppelin/contracts/token/ERC1155/utils/ERC1155Utils.sol\":1243:1314   */\n              0x04\n              add\n              tag_387\n              jump\t// in\n            tag_386:\n              0x20\n              mload(0x40)\n              dup1\n              dup4\n              sub\n              dup2\n              0x00\n              dup8\n              gas\n              call\n              swap3\n              pop\n              pop\n              pop\n              dup1\n              iszero\n              tag_388\n              jumpi\n              pop\n              0x40\n              dup1\n              mload\n              0x1f\n              returndatasize\n              swap1\n              dup2\n              add\n              not(0x1f)\n              and\n              dup3\n              add\n              swap1\n              swap3\n              mstore\n              tag_389\n              swap2\n              dup2\n              add\n              swap1\n              tag_390\n              jump\t// in\n            tag_389:\n              0x01\n            tag_388:\n                /* \"@openzeppelin/contracts/token/ERC1155/utils/ERC1155Utils.sol\":1239:1949   */\n              tag_391\n              jumpi\n              returndatasize\n              dup1\n              dup1\n              iszero\n              tag_396\n              jumpi\n              mload(0x40)\n              swap2\n              pop\n              and(add(returndatasize, 0x3f), not(0x1f))\n              dup3\n              add\n              0x40\n              mstore\n              returndatasize\n              dup3\n              mstore\n              returndatasize\n              0x00\n              0x20\n              dup5\n              add\n              returndatacopy\n              jump(tag_395)\n            tag_396:\n              0x60\n              swap2\n              pop\n            tag_395:\n              pop\n                /* \"@openzeppelin/contracts/token/ERC1155/utils/ERC1155Utils.sol\":1613:1619   */\n              dup1\n                /* \"@openzeppelin/contracts/token/ERC1155/utils/ERC1155Utils.sol\":1613:1626   */\n              mload\n                /* \"@openzeppelin/contracts/token/ERC1155/utils/ERC1155Utils.sol\":1630:1631   */\n              0x00\n                /* \"@openzeppelin/contracts/token/ERC1155/utils/ERC1155Utils.sol\":1613:1631   */\n              sub\n                /* \"@openzeppelin/contracts/token/ERC1155/utils/ERC1155Utils.sol\":1609:1935   */\n              tag_397\n              jumpi\n                /* \"@openzeppelin/contracts/token/ERC1155/utils/ERC1155Utils.sol\":1718:1759   */\n              mload(0x40)\n              shl(0xe1, 0x2bfa23e7)\n              dup2\n              mstore\n              sub(shl(0xa0, 0x01), 0x01)\n                /* \"#utility.yul\":6719:6774   */\n              dup7\n              and\n                /* \"@openzeppelin/contracts/token/ERC1155/utils/ERC1155Utils.sol\":1718:1759   */\n              0x04\n              dup3\n              add\n                /* \"#utility.yul\":6701:6775   */\n              mstore\n                /* \"#utility.yul\":6674:6692   */\n              0x24\n              add\n                /* \"@openzeppelin/contracts/token/ERC1155/utils/ERC1155Utils.sol\":1718:1759   */\n              tag_171\n                /* \"#utility.yul\":6555:6781   */\n              jump\n                /* \"@openzeppelin/contracts/token/ERC1155/utils/ERC1155Utils.sol\":1609:1935   */\n            tag_397:\n                /* \"@openzeppelin/contracts/token/ERC1155/utils/ERC1155Utils.sol\":1887:1893   */\n              dup1\n                /* \"@openzeppelin/contracts/token/ERC1155/utils/ERC1155Utils.sol\":1881:1894   */\n              mload\n                /* \"@openzeppelin/contracts/token/ERC1155/utils/ERC1155Utils.sol\":1872:1878   */\n              dup2\n                /* \"@openzeppelin/contracts/token/ERC1155/utils/ERC1155Utils.sol\":1868:1870   */\n              0x20\n                /* \"@openzeppelin/contracts/token/ERC1155/utils/ERC1155Utils.sol\":1864:1879   */\n              add\n                /* \"@openzeppelin/contracts/token/ERC1155/utils/ERC1155Utils.sol\":1857:1895   */\n              revert\n                /* \"@openzeppelin/contracts/token/ERC1155/utils/ERC1155Utils.sol\":1239:1949   */\n            tag_391:\n              not(sub(shl(0xe0, 0x01), 0x01))\n                /* \"@openzeppelin/contracts/token/ERC1155/utils/ERC1155Utils.sol\":1363:1418   */\n              dup2\n              and\n              shl(0xe0, 0xf23a6e61)\n              eq\n                /* \"@openzeppelin/contracts/token/ERC1155/utils/ERC1155Utils.sol\":1359:1548   */\n              tag_361\n              jumpi\n                /* \"@openzeppelin/contracts/token/ERC1155/utils/ERC1155Utils.sol\":1488:1529   */\n              mload(0x40)\n              shl(0xe1, 0x2bfa23e7)\n              dup2\n              mstore\n              sub(shl(0xa0, 0x01), 0x01)\n                /* \"#utility.yul\":6719:6774   */\n              dup7\n              and\n                /* \"@openzeppelin/contracts/token/ERC1155/utils/ERC1155Utils.sol\":1488:1529   */\n              0x04\n              dup3\n              add\n                /* \"#utility.yul\":6701:6775   */\n              mstore\n                /* \"#utility.yul\":6674:6692   */\n              0x24\n              add\n                /* \"@openzeppelin/contracts/token/ERC1155/utils/ERC1155Utils.sol\":1488:1529   */\n              tag_171\n                /* \"#utility.yul\":6555:6781   */\n              jump\n                /* \"@openzeppelin/contracts/token/ERC1155/utils/ERC1155Utils.sol\":2521:3547   */\n            tag_375:\n              sub(shl(0xa0, 0x01), 0x01)\n                /* \"@openzeppelin/contracts/token/ERC1155/utils/ERC1155Utils.sol\":2745:2759   */\n              dup5\n              and\n              extcodesize\n                /* \"@openzeppelin/contracts/token/ERC1155/utils/ERC1155Utils.sol\":2745:2763   */\n              iszero\n                /* \"@openzeppelin/contracts/token/ERC1155/utils/ERC1155Utils.sol\":2741:3541   */\n              tag_207\n              jumpi\n                /* \"@openzeppelin/contracts/token/ERC1155/utils/ERC1155Utils.sol\":2783:2861   */\n              mload(0x40)\n              shl(0xe0, 0xbc197c81)\n              dup2\n              mstore\n              sub(shl(0xa0, 0x01), 0x01)\n                /* \"@openzeppelin/contracts/token/ERC1155/utils/ERC1155Utils.sol\":2783:2826   */\n              dup6\n              and\n              swap1\n              0xbc197c81\n              swap1\n                /* \"@openzeppelin/contracts/token/ERC1155/utils/ERC1155Utils.sol\":2783:2861   */\n              tag_405\n              swap1\n                /* \"@openzeppelin/contracts/token/ERC1155/utils/ERC1155Utils.sol\":2827:2835   */\n              dup10\n              swap1\n                /* \"@openzeppelin/contracts/token/ERC1155/utils/ERC1155Utils.sol\":2837:2841   */\n              dup10\n              swap1\n                /* \"@openzeppelin/contracts/token/ERC1155/utils/ERC1155Utils.sol\":2843:2846   */\n              dup9\n              swap1\n                /* \"@openzeppelin/contracts/token/ERC1155/utils/ERC1155Utils.sol\":2848:2854   */\n              dup9\n              swap1\n                /* \"@openzeppelin/contracts/token/ERC1155/utils/ERC1155Utils.sol\":2856:2860   */\n              dup9\n              swap1\n                /* \"@openzeppelin/contracts/token/ERC1155/utils/ERC1155Utils.sol\":2783:2861   */\n              0x04\n              add\n              tag_406\n              jump\t// in\n            tag_405:\n              0x20\n              mload(0x40)\n              dup1\n              dup4\n              sub\n              dup2\n              0x00\n              dup8\n              gas\n              call\n              swap3\n              pop\n              pop\n              pop\n              dup1\n              iszero\n              tag_407\n              jumpi\n              pop\n              0x40\n              dup1\n              mload\n              0x1f\n              returndatasize\n              swap1\n              dup2\n              add\n              not(0x1f)\n              and\n              dup3\n              add\n              swap1\n              swap3\n              mstore\n              tag_408\n              swap2\n              dup2\n              add\n              swap1\n              tag_390\n              jump\t// in\n            tag_408:\n              0x01\n            tag_407:\n                /* \"@openzeppelin/contracts/token/ERC1155/utils/ERC1155Utils.sol\":2779:3531   */\n              tag_409\n              jumpi\n              returndatasize\n              dup1\n              dup1\n              iszero\n              tag_396\n              jumpi\n              mload(0x40)\n              swap2\n              pop\n              and(add(returndatasize, 0x3f), not(0x1f))\n              dup3\n              add\n              0x40\n              mstore\n              returndatasize\n              dup3\n              mstore\n              returndatasize\n              0x00\n              0x20\n              dup5\n              add\n              returndatacopy\n              jump(tag_395)\n            tag_409:\n              not(sub(shl(0xe0, 0x01), 0x01))\n                /* \"@openzeppelin/contracts/token/ERC1155/utils/ERC1155Utils.sol\":2940:3000   */\n              dup2\n              and\n              shl(0xe0, 0xbc197c81)\n              eq\n                /* \"@openzeppelin/contracts/token/ERC1155/utils/ERC1155Utils.sol\":2936:3130   */\n              tag_361\n              jumpi\n                /* \"@openzeppelin/contracts/token/ERC1155/utils/ERC1155Utils.sol\":3070:3111   */\n              mload(0x40)\n              shl(0xe1, 0x2bfa23e7)\n              dup2\n              mstore\n              sub(shl(0xa0, 0x01), 0x01)\n                /* \"#utility.yul\":6719:6774   */\n              dup7\n              and\n                /* \"@openzeppelin/contracts/token/ERC1155/utils/ERC1155Utils.sol\":3070:3111   */\n              0x04\n              dup3\n              add\n                /* \"#utility.yul\":6701:6775   */\n              mstore\n                /* \"#utility.yul\":6674:6692   */\n              0x24\n              add\n                /* \"@openzeppelin/contracts/token/ERC1155/utils/ERC1155Utils.sol\":3070:3111   */\n              tag_171\n                /* \"#utility.yul\":6555:6781   */\n              jump\n                /* \"@openzeppelin/contracts/token/ERC1155/ERC1155.sol\":5142:6423   */\n            tag_378:\n                /* \"@openzeppelin/contracts/token/ERC1155/ERC1155.sol\":5277:5283   */\n              dup1\n                /* \"@openzeppelin/contracts/token/ERC1155/ERC1155.sol\":5277:5290   */\n              mload\n                /* \"@openzeppelin/contracts/token/ERC1155/ERC1155.sol\":5263:5266   */\n              dup3\n                /* \"@openzeppelin/contracts/token/ERC1155/ERC1155.sol\":5263:5273   */\n              mload\n                /* \"@openzeppelin/contracts/token/ERC1155/ERC1155.sol\":5263:5290   */\n              eq\n                /* \"@openzeppelin/contracts/token/ERC1155/ERC1155.sol\":5259:5376   */\n              tag_422\n              jumpi\n                /* \"@openzeppelin/contracts/token/ERC1155/ERC1155.sol\":5339:5349   */\n              dup2\n              mload\n                /* \"@openzeppelin/contracts/token/ERC1155/ERC1155.sol\":5351:5364   */\n              dup2\n              mload\n                /* \"@openzeppelin/contracts/token/ERC1155/ERC1155.sol\":5313:5365   */\n              mload(0x40)\n              shl(0xe0, 0x5b059991)\n              dup2\n              mstore\n              0x04\n              dup2\n              add\n                /* \"#utility.yul\":11632:11657   */\n              swap3\n              swap1\n              swap3\n              mstore\n                /* \"#utility.yul\":11673:11691   */\n              0x24\n              dup3\n              add\n                /* \"#utility.yul\":11666:11700   */\n              mstore\n                /* \"#utility.yul\":11605:11623   */\n              0x44\n              add\n                /* \"@openzeppelin/contracts/token/ERC1155/ERC1155.sol\":5313:5365   */\n              tag_171\n                /* \"#utility.yul\":11458:11706   */\n              jump\n                /* \"@openzeppelin/contracts/token/ERC1155/ERC1155.sol\":5259:5376   */\n            tag_422:\n                /* \"@openzeppelin/contracts/utils/Context.sol\":735:745   */\n              caller\n                /* \"@openzeppelin/contracts/token/ERC1155/ERC1155.sol\":5386:5402   */\n              0x00\n                /* \"@openzeppelin/contracts/token/ERC1155/ERC1155.sol\":5428:6119   */\n            tag_425:\n                /* \"@openzeppelin/contracts/token/ERC1155/ERC1155.sol\":5452:5455   */\n              dup4\n                /* \"@openzeppelin/contracts/token/ERC1155/ERC1155.sol\":5452:5462   */\n              mload\n                /* \"@openzeppelin/contracts/token/ERC1155/ERC1155.sol\":5448:5449   */\n              dup2\n                /* \"@openzeppelin/contracts/token/ERC1155/ERC1155.sol\":5448:5462   */\n              lt\n                /* \"@openzeppelin/contracts/token/ERC1155/ERC1155.sol\":5428:6119   */\n              iszero\n              tag_426\n              jumpi\n                /* \"@openzeppelin/contracts/utils/Arrays.sol\":16302:16306   */\n              0x20\n                /* \"@openzeppelin/contracts/utils/Arrays.sol\":16293:16307   */\n              dup2\n              dup2\n              mul\n                /* \"@openzeppelin/contracts/utils/Arrays.sol\":16273:16308   */\n              dup6\n              dup2\n              add\n              dup3\n              add\n                /* \"@openzeppelin/contracts/utils/Arrays.sol\":16267:16309   */\n              mload\n                /* \"@openzeppelin/contracts/utils/Arrays.sol\":16273:16308   */\n              swap1\n              dup6\n              add\n              swap1\n              swap2\n              add\n                /* \"@openzeppelin/contracts/utils/Arrays.sol\":16267:16309   */\n              mload\n              sub(shl(0xa0, 0x01), 0x01)\n                /* \"@openzeppelin/contracts/token/ERC1155/ERC1155.sol\":5598:5616   */\n              dup9\n              and\n              iszero\n                /* \"@openzeppelin/contracts/token/ERC1155/ERC1155.sol\":5594:6014   */\n              tag_430\n              jumpi\n                /* \"@openzeppelin/contracts/token/ERC1155/ERC1155.sol\":5636:5655   */\n              0x00\n                /* \"@openzeppelin/contracts/token/ERC1155/ERC1155.sol\":5658:5671   */\n              dup3\n              dup2\n              mstore\n              0x20\n              dup2\n              dup2\n              mstore\n              0x40\n              dup1\n              dup4\n              keccak256\n              sub(shl(0xa0, 0x01), 0x01)\n                /* \"@openzeppelin/contracts/token/ERC1155/ERC1155.sol\":5658:5677   */\n              dup13\n              and\n              dup5\n              mstore\n              swap1\n              swap2\n              mstore\n              swap1\n              keccak256\n              sload\n                /* \"@openzeppelin/contracts/token/ERC1155/ERC1155.sol\":5699:5718   */\n              dup2\n              dup2\n              lt\n                /* \"@openzeppelin/contracts/token/ERC1155/ERC1155.sol\":5695:5824   */\n              iszero\n              tag_431\n              jumpi\n                /* \"@openzeppelin/contracts/token/ERC1155/ERC1155.sol\":5749:5805   */\n              mload(0x40)\n              shl(0xe0, 0x03dee4c5)\n              dup2\n              mstore\n              sub(shl(0xa0, 0x01), 0x01)\n                /* \"#utility.yul\":17685:17740   */\n              dup11\n              and\n                /* \"@openzeppelin/contracts/token/ERC1155/ERC1155.sol\":5749:5805   */\n              0x04\n              dup3\n              add\n                /* \"#utility.yul\":17667:17741   */\n              mstore\n                /* \"#utility.yul\":17757:17775   */\n              0x24\n              dup2\n              add\n                /* \"#utility.yul\":17750:17784   */\n              dup3\n              swap1\n              mstore\n                /* \"#utility.yul\":17800:17818   */\n              0x44\n              dup2\n              add\n                /* \"#utility.yul\":17793:17827   */\n              dup4\n              swap1\n              mstore\n                /* \"#utility.yul\":17843:17861   */\n              0x64\n              dup2\n              add\n                /* \"#utility.yul\":17836:17870   */\n              dup5\n              swap1\n              mstore\n                /* \"#utility.yul\":17639:17658   */\n              0x84\n              add\n                /* \"@openzeppelin/contracts/token/ERC1155/ERC1155.sol\":5749:5805   */\n              tag_171\n                /* \"#utility.yul\":17436:17876   */\n              jump\n                /* \"@openzeppelin/contracts/token/ERC1155/ERC1155.sol\":5695:5824   */\n            tag_431:\n                /* \"@openzeppelin/contracts/token/ERC1155/ERC1155.sol\":5940:5949   */\n              0x00\n                /* \"@openzeppelin/contracts/token/ERC1155/ERC1155.sol\":5940:5953   */\n              dup4\n              dup2\n              mstore\n              0x20\n              dup2\n              dup2\n              mstore\n              0x40\n              dup1\n              dup4\n              keccak256\n              sub(shl(0xa0, 0x01), 0x01)\n                /* \"@openzeppelin/contracts/token/ERC1155/ERC1155.sol\":5940:5959   */\n              dup14\n              and\n              dup5\n              mstore\n              swap1\n              swap2\n              mstore\n              swap1\n              keccak256\n                /* \"@openzeppelin/contracts/token/ERC1155/ERC1155.sol\":5962:5981   */\n              swap1\n              dup3\n              swap1\n              sub\n                /* \"@openzeppelin/contracts/token/ERC1155/ERC1155.sol\":5940:5981   */\n              swap1\n              sstore\n                /* \"@openzeppelin/contracts/token/ERC1155/ERC1155.sol\":5594:6014   */\n            tag_430:\n              sub(shl(0xa0, 0x01), 0x01)\n                /* \"@openzeppelin/contracts/token/ERC1155/ERC1155.sol\":6032:6048   */\n              dup8\n              and\n              iszero\n                /* \"@openzeppelin/contracts/token/ERC1155/ERC1155.sol\":6028:6109   */\n              tag_434\n              jumpi\n                /* \"@openzeppelin/contracts/token/ERC1155/ERC1155.sol\":6068:6077   */\n              0x00\n                /* \"@openzeppelin/contracts/token/ERC1155/ERC1155.sol\":6068:6081   */\n              dup3\n              dup2\n              mstore\n              0x20\n              dup2\n              dup2\n              mstore\n              0x40\n              dup1\n              dup4\n              keccak256\n              sub(shl(0xa0, 0x01), 0x01)\n                /* \"@openzeppelin/contracts/token/ERC1155/ERC1155.sol\":6068:6085   */\n              dup12\n              and\n              dup5\n              mstore\n              swap1\n              swap2\n              mstore\n              dup2\n              keccak256\n                /* \"@openzeppelin/contracts/token/ERC1155/ERC1155.sol\":6068:6094   */\n              dup1\n              sload\n                /* \"@openzeppelin/contracts/token/ERC1155/ERC1155.sol\":6089:6094   */\n              dup4\n              swap3\n                /* \"@openzeppelin/contracts/token/ERC1155/ERC1155.sol\":6068:6077   */\n              swap1\n                /* \"@openzeppelin/contracts/token/ERC1155/ERC1155.sol\":6068:6094   */\n              tag_435\n              swap1\n                /* \"@openzeppelin/contracts/token/ERC1155/ERC1155.sol\":6089:6094   */\n              dup5\n              swap1\n                /* \"@openzeppelin/contracts/token/ERC1155/ERC1155.sol\":6068:6094   */\n              tag_246\n              jump\t// in\n            tag_435:\n              swap1\n              swap2\n              sstore\n              pop\n              pop\n                /* \"@openzeppelin/contracts/token/ERC1155/ERC1155.sol\":6028:6109   */\n            tag_434:\n              pop\n              pop\n                /* \"@openzeppelin/contracts/token/ERC1155/ERC1155.sol\":5464:5467   */\n              0x01\n              add\n                /* \"@openzeppelin/contracts/token/ERC1155/ERC1155.sol\":5428:6119   */\n              jump(tag_425)\n            tag_426:\n              pop\n                /* \"@openzeppelin/contracts/token/ERC1155/ERC1155.sol\":6133:6136   */\n              dup3\n                /* \"@openzeppelin/contracts/token/ERC1155/ERC1155.sol\":6133:6143   */\n              mload\n                /* \"@openzeppelin/contracts/token/ERC1155/ERC1155.sol\":6147:6148   */\n              0x01\n                /* \"@openzeppelin/contracts/token/ERC1155/ERC1155.sol\":6133:6148   */\n              sub\n                /* \"@openzeppelin/contracts/token/ERC1155/ERC1155.sol\":6129:6417   */\n              tag_436\n              jumpi\n                /* \"@openzeppelin/contracts/utils/Arrays.sol\":16302:16306   */\n              0x20\n                /* \"@openzeppelin/contracts/utils/Arrays.sol\":16273:16308   */\n              dup4\n              add\n                /* \"@openzeppelin/contracts/utils/Arrays.sol\":16267:16309   */\n              mload\n                /* \"@openzeppelin/contracts/token/ERC1155/ERC1155.sol\":6164:6174   */\n              0x00\n              swap1\n                /* \"@openzeppelin/contracts/utils/Arrays.sol\":16302:16306   */\n              0x20\n                /* \"@openzeppelin/contracts/utils/Arrays.sol\":16273:16308   */\n              dup5\n              add\n                /* \"@openzeppelin/contracts/utils/Arrays.sol\":16267:16309   */\n              mload\n                /* \"@openzeppelin/contracts/token/ERC1155/ERC1155.sol\":6164:6202   */\n              swap1\n              swap2\n              pop\n                /* \"@openzeppelin/contracts/token/ERC1155/ERC1155.sol\":6310:6312   */\n              dup6\n              sub(shl(0xa0, 0x01), 0x01)\n                /* \"@openzeppelin/contracts/token/ERC1155/ERC1155.sol\":6279:6324   */\n              and\n                /* \"@openzeppelin/contracts/token/ERC1155/ERC1155.sol\":6304:6308   */\n              dup8\n              sub(shl(0xa0, 0x01), 0x01)\n                /* \"@openzeppelin/contracts/token/ERC1155/ERC1155.sol\":6279:6324   */\n              and\n                /* \"@openzeppelin/contracts/token/ERC1155/ERC1155.sol\":6294:6302   */\n              dup5\n              sub(shl(0xa0, 0x01), 0x01)\n                /* \"@openzeppelin/contracts/token/ERC1155/ERC1155.sol\":6279:6324   */\n              and\n              0xc3d58168c5ae7397731d063d5bbf3d657854427343f4c083240f7aacaa2d0f62\n                /* \"@openzeppelin/contracts/token/ERC1155/ERC1155.sol\":6314:6316   */\n              dup6\n                /* \"@openzeppelin/contracts/token/ERC1155/ERC1155.sol\":6318:6323   */\n              dup6\n                /* \"@openzeppelin/contracts/token/ERC1155/ERC1155.sol\":6279:6324   */\n              mload(0x40)\n              tag_439\n              swap3\n              swap2\n              swap1\n                /* \"#utility.yul\":11632:11657   */\n              swap2\n              dup3\n              mstore\n                /* \"#utility.yul\":11688:11690   */\n              0x20\n                /* \"#utility.yul\":11673:11691   */\n              dup3\n              add\n                /* \"#utility.yul\":11666:11700   */\n              mstore\n                /* \"#utility.yul\":11620:11622   */\n              0x40\n                /* \"#utility.yul\":11605:11623   */\n              add\n              swap1\n                /* \"#utility.yul\":11458:11706   */\n              jump\n                /* \"@openzeppelin/contracts/token/ERC1155/ERC1155.sol\":6279:6324   */\n            tag_439:\n              mload(0x40)\n              dup1\n              swap2\n              sub\n              swap1\n              log4\n                /* \"@openzeppelin/contracts/token/ERC1155/ERC1155.sol\":6150:6335   */\n              pop\n              pop\n                /* \"@openzeppelin/contracts/token/ERC1155/ERC1155.sol\":6129:6417   */\n              jump(tag_275)\n            tag_436:\n                /* \"@openzeppelin/contracts/token/ERC1155/ERC1155.sol\":6390:6392   */\n              dup4\n              sub(shl(0xa0, 0x01), 0x01)\n                /* \"@openzeppelin/contracts/token/ERC1155/ERC1155.sol\":6360:6406   */\n              and\n                /* \"@openzeppelin/contracts/token/ERC1155/ERC1155.sol\":6384:6388   */\n              dup6\n              sub(shl(0xa0, 0x01), 0x01)\n                /* \"@openzeppelin/contracts/token/ERC1155/ERC1155.sol\":6360:6406   */\n              and\n                /* \"@openzeppelin/contracts/token/ERC1155/ERC1155.sol\":6374:6382   */\n              dup3\n              sub(shl(0xa0, 0x01), 0x01)\n                /* \"@openzeppelin/contracts/token/ERC1155/ERC1155.sol\":6360:6406   */\n              and\n              0x4a39dc06d4c0dbc64b70af90fd698a233a518aa5d07e595d983b8c0526c8f7fb\n                /* \"@openzeppelin/contracts/token/ERC1155/ERC1155.sol\":6394:6397   */\n              dup7\n                /* \"@openzeppelin/contracts/token/ERC1155/ERC1155.sol\":6399:6405   */\n              dup7\n                /* \"@openzeppelin/contracts/token/ERC1155/ERC1155.sol\":6360:6406   */\n              mload(0x40)\n              tag_441\n              swap3\n              swap2\n              swap1\n              tag_442\n              jump\t// in\n            tag_441:\n              mload(0x40)\n              dup1\n              swap2\n              sub\n              swap1\n              log4\n                /* \"@openzeppelin/contracts/token/ERC1155/ERC1155.sol\":5249:6423   */\n              pop\n                /* \"@openzeppelin/contracts/token/ERC1155/ERC1155.sol\":5142:6423   */\n              pop\n              pop\n              pop\n              pop\n              jump\t// out\n                /* \"#utility.yul\":14:210   */\n            tag_443:\n                /* \"#utility.yul\":82:102   */\n              dup1\n              calldataload\n              sub(shl(0xa0, 0x01), 0x01)\n                /* \"#utility.yul\":131:185   */\n              dup2\n              and\n                /* \"#utility.yul\":121:186   */\n              dup2\n              eq\n                /* \"#utility.yul\":111:204   */\n              tag_454\n              jumpi\n                /* \"#utility.yul\":200:201   */\n              0x00\n                /* \"#utility.yul\":197:198   */\n              dup1\n                /* \"#utility.yul\":190:202   */\n              revert\n                /* \"#utility.yul\":111:204   */\n            tag_454:\n                /* \"#utility.yul\":14:210   */\n              swap2\n              swap1\n              pop\n              jump\t// out\n                /* \"#utility.yul\":215:469   */\n            tag_40:\n                /* \"#utility.yul\":283:289   */\n              0x00\n                /* \"#utility.yul\":291:297   */\n              dup1\n                /* \"#utility.yul\":344:346   */\n              0x40\n                /* \"#utility.yul\":332:341   */\n              dup4\n                /* \"#utility.yul\":323:330   */\n              dup6\n                /* \"#utility.yul\":319:342   */\n              sub\n                /* \"#utility.yul\":315:347   */\n              slt\n                /* \"#utility.yul\":312:364   */\n              iszero\n              tag_456\n              jumpi\n                /* \"#utility.yul\":360:361   */\n              0x00\n                /* \"#utility.yul\":357:358   */\n              dup1\n                /* \"#utility.yul\":350:362   */\n              revert\n                /* \"#utility.yul\":312:364   */\n            tag_456:\n                /* \"#utility.yul\":383:412   */\n              tag_457\n                /* \"#utility.yul\":402:411   */\n              dup4\n                /* \"#utility.yul\":383:412   */\n              tag_443\n              jump\t// in\n            tag_457:\n                /* \"#utility.yul\":373:412   */\n              swap5\n                /* \"#utility.yul\":459:461   */\n              0x20\n                /* \"#utility.yul\":444:462   */\n              swap4\n              swap1\n              swap4\n              add\n                /* \"#utility.yul\":431:463   */\n              calldataload\n              swap4\n              pop\n              pop\n              pop\n                /* \"#utility.yul\":215:469   */\n              jump\t// out\n                /* \"#utility.yul\":656:787   */\n            tag_444:\n              not(sub(shl(0xe0, 0x01), 0x01))\n                /* \"#utility.yul\":730:762   */\n              dup2\n              and\n                /* \"#utility.yul\":720:763   */\n              dup2\n              eq\n                /* \"#utility.yul\":710:781   */\n              tag_306\n              jumpi\n                /* \"#utility.yul\":777:778   */\n              0x00\n                /* \"#utility.yul\":774:775   */\n              dup1\n                /* \"#utility.yul\":767:779   */\n              revert\n                /* \"#utility.yul\":792:1037   */\n            tag_47:\n                /* \"#utility.yul\":850:856   */\n              0x00\n                /* \"#utility.yul\":903:905   */\n              0x20\n                /* \"#utility.yul\":891:900   */\n              dup3\n                /* \"#utility.yul\":882:889   */\n              dup5\n                /* \"#utility.yul\":878:901   */\n              sub\n                /* \"#utility.yul\":874:906   */\n              slt\n                /* \"#utility.yul\":871:923   */\n              iszero\n              tag_462\n              jumpi\n                /* \"#utility.yul\":919:920   */\n              0x00\n                /* \"#utility.yul\":916:917   */\n              dup1\n                /* \"#utility.yul\":909:921   */\n              revert\n                /* \"#utility.yul\":871:923   */\n            tag_462:\n                /* \"#utility.yul\":958:967   */\n              dup2\n                /* \"#utility.yul\":945:968   */\n              calldataload\n                /* \"#utility.yul\":977:1007   */\n              tag_463\n                /* \"#utility.yul\":1001:1006   */\n              dup2\n                /* \"#utility.yul\":977:1007   */\n              tag_444\n              jump\t// in\n            tag_463:\n                /* \"#utility.yul\":1026:1031   */\n              swap4\n                /* \"#utility.yul\":792:1037   */\n              swap3\n              pop\n              pop\n              pop\n              jump\t// out\n                /* \"#utility.yul\":1234:1414   */\n            tag_54:\n                /* \"#utility.yul\":1293:1299   */\n              0x00\n                /* \"#utility.yul\":1346:1348   */\n              0x20\n                /* \"#utility.yul\":1334:1343   */\n              dup3\n                /* \"#utility.yul\":1325:1332   */\n              dup5\n                /* \"#utility.yul\":1321:1344   */\n              sub\n                /* \"#utility.yul\":1317:1349   */\n              slt\n                /* \"#utility.yul\":1314:1366   */\n              iszero\n              tag_466\n              jumpi\n                /* \"#utility.yul\":1362:1363   */\n              0x00\n                /* \"#utility.yul\":1359:1360   */\n              dup1\n                /* \"#utility.yul\":1352:1364   */\n              revert\n                /* \"#utility.yul\":1314:1366   */\n            tag_466:\n              pop\n                /* \"#utility.yul\":1385:1408   */\n              calldataload\n              swap2\n                /* \"#utility.yul\":1234:1414   */\n              swap1\n              pop\n              jump\t// out\n                /* \"#utility.yul\":1419:1708   */\n            tag_445:\n                /* \"#utility.yul\":1461:1464   */\n              0x00\n                /* \"#utility.yul\":1499:1504   */\n              dup2\n                /* \"#utility.yul\":1493:1505   */\n              mload\n                /* \"#utility.yul\":1526:1532   */\n              dup1\n                /* \"#utility.yul\":1521:1524   */\n              dup5\n                /* \"#utility.yul\":1514:1533   */\n              mstore\n                /* \"#utility.yul\":1582:1588   */\n              dup1\n                /* \"#utility.yul\":1575:1579   */\n              0x20\n                /* \"#utility.yul\":1568:1573   */\n              dup5\n                /* \"#utility.yul\":1564:1580   */\n              add\n                /* \"#utility.yul\":1557:1561   */\n              0x20\n                /* \"#utility.yul\":1552:1555   */\n              dup7\n                /* \"#utility.yul\":1548:1562   */\n              add\n                /* \"#utility.yul\":1542:1589   */\n              mcopy\n                /* \"#utility.yul\":1634:1635   */\n              0x00\n                /* \"#utility.yul\":1627:1631   */\n              0x20\n                /* \"#utility.yul\":1618:1624   */\n              dup3\n                /* \"#utility.yul\":1613:1616   */\n              dup7\n                /* \"#utility.yul\":1609:1625   */\n              add\n                /* \"#utility.yul\":1605:1632   */\n              add\n                /* \"#utility.yul\":1598:1636   */\n              mstore\n                /* \"#utility.yul\":1697:1701   */\n              0x20\n                /* \"#utility.yul\":1690:1692   */\n              0x1f\n                /* \"#utility.yul\":1686:1693   */\n              not\n                /* \"#utility.yul\":1681:1683   */\n              0x1f\n                /* \"#utility.yul\":1673:1679   */\n              dup4\n                /* \"#utility.yul\":1669:1684   */\n              add\n                /* \"#utility.yul\":1665:1694   */\n              and\n                /* \"#utility.yul\":1660:1663   */\n              dup6\n                /* \"#utility.yul\":1656:1695   */\n              add\n                /* \"#utility.yul\":1652:1702   */\n              add\n                /* \"#utility.yul\":1645:1702   */\n              swap2\n              pop\n              pop\n                /* \"#utility.yul\":1419:1708   */\n              swap3\n              swap2\n              pop\n              pop\n              jump\t// out\n                /* \"#utility.yul\":1713:1933   */\n            tag_57:\n                /* \"#utility.yul\":1862:1864   */\n              0x20\n                /* \"#utility.yul\":1851:1860   */\n              dup2\n                /* \"#utility.yul\":1844:1865   */\n              mstore\n                /* \"#utility.yul\":1825:1829   */\n              0x00\n                /* \"#utility.yul\":1882:1927   */\n              tag_463\n                /* \"#utility.yul\":1923:1925   */\n              0x20\n                /* \"#utility.yul\":1912:1921   */\n              dup4\n                /* \"#utility.yul\":1908:1926   */\n              add\n                /* \"#utility.yul\":1900:1906   */\n              dup5\n                /* \"#utility.yul\":1882:1927   */\n              tag_445\n              jump\t// in\n                /* \"#utility.yul\":1938:2065   */\n            tag_215:\n                /* \"#utility.yul\":1999:2009   */\n              0x4e487b71\n                /* \"#utility.yul\":1994:1997   */\n              0xe0\n                /* \"#utility.yul\":1990:2010   */\n              shl\n                /* \"#utility.yul\":1987:1988   */\n              0x00\n                /* \"#utility.yul\":1980:2011   */\n              mstore\n                /* \"#utility.yul\":2030:2034   */\n              0x41\n                /* \"#utility.yul\":2027:2028   */\n              0x04\n                /* \"#utility.yul\":2020:2035   */\n              mstore\n                /* \"#utility.yul\":2054:2058   */\n              0x24\n                /* \"#utility.yul\":2051:2052   */\n              0x00\n                /* \"#utility.yul\":2044:2059   */\n              revert\n                /* \"#utility.yul\":2070:2345   */\n            tag_446:\n                /* \"#utility.yul\":2141:2143   */\n              0x40\n                /* \"#utility.yul\":2135:2144   */\n              mload\n                /* \"#utility.yul\":2206:2208   */\n              0x1f\n                /* \"#utility.yul\":2187:2200   */\n              dup3\n              add\n              not(0x1f)\n                /* \"#utility.yul\":2183:2210   */\n              and\n                /* \"#utility.yul\":2171:2211   */\n              dup2\n              add\n                /* \"#utility.yul\":2241:2259   */\n              0xffffffffffffffff\n                /* \"#utility.yul\":2226:2260   */\n              dup2\n              gt\n                /* \"#utility.yul\":2262:2284   */\n              dup3\n              dup3\n              lt\n                /* \"#utility.yul\":2223:2285   */\n              or\n                /* \"#utility.yul\":2220:2308   */\n              iszero\n              tag_473\n              jumpi\n                /* \"#utility.yul\":2288:2306   */\n              tag_473\n              tag_215\n              jump\t// in\n            tag_473:\n                /* \"#utility.yul\":2324:2326   */\n              0x40\n                /* \"#utility.yul\":2317:2339   */\n              mstore\n                /* \"#utility.yul\":2070:2345   */\n              swap2\n              swap1\n              pop\n              jump\t// out\n                /* \"#utility.yul\":2350:2533   */\n            tag_447:\n                /* \"#utility.yul\":2410:2414   */\n              0x00\n                /* \"#utility.yul\":2443:2461   */\n              0xffffffffffffffff\n                /* \"#utility.yul\":2435:2441   */\n              dup3\n                /* \"#utility.yul\":2432:2462   */\n              gt\n                /* \"#utility.yul\":2429:2485   */\n              iszero\n              tag_476\n              jumpi\n                /* \"#utility.yul\":2465:2483   */\n              tag_476\n              tag_215\n              jump\t// in\n            tag_476:\n              pop\n                /* \"#utility.yul\":2510:2511   */\n              0x05\n                /* \"#utility.yul\":2506:2520   */\n              shl\n                /* \"#utility.yul\":2522:2526   */\n              0x20\n                /* \"#utility.yul\":2502:2527   */\n              add\n              swap1\n                /* \"#utility.yul\":2350:2533   */\n              jump\t// out\n                /* \"#utility.yul\":2538:3206   */\n            tag_448:\n                /* \"#utility.yul\":2592:2597   */\n              0x00\n                /* \"#utility.yul\":2645:2648   */\n              dup3\n                /* \"#utility.yul\":2638:2642   */\n              0x1f\n                /* \"#utility.yul\":2630:2636   */\n              dup4\n                /* \"#utility.yul\":2626:2643   */\n              add\n                /* \"#utility.yul\":2622:2649   */\n              slt\n                /* \"#utility.yul\":2612:2667   */\n              tag_478\n              jumpi\n                /* \"#utility.yul\":2663:2664   */\n              0x00\n                /* \"#utility.yul\":2660:2661   */\n              dup1\n                /* \"#utility.yul\":2653:2665   */\n              revert\n                /* \"#utility.yul\":2612:2667   */\n            tag_478:\n                /* \"#utility.yul\":2699:2705   */\n              dup2\n                /* \"#utility.yul\":2686:2706   */\n              calldataload\n                /* \"#utility.yul\":2725:2729   */\n              0x20\n                /* \"#utility.yul\":2749:2809   */\n              tag_479\n                /* \"#utility.yul\":2765:2808   */\n              tag_480\n                /* \"#utility.yul\":2805:2807   */\n              dup4\n                /* \"#utility.yul\":2765:2808   */\n              tag_447\n              jump\t// in\n            tag_480:\n                /* \"#utility.yul\":2749:2809   */\n              tag_446\n              jump\t// in\n            tag_479:\n                /* \"#utility.yul\":2831:2834   */\n              dup1\n                /* \"#utility.yul\":2855:2857   */\n              dup4\n                /* \"#utility.yul\":2850:2853   */\n              dup3\n                /* \"#utility.yul\":2843:2858   */\n              mstore\n                /* \"#utility.yul\":2883:2887   */\n              0x20\n                /* \"#utility.yul\":2878:2881   */\n              dup3\n                /* \"#utility.yul\":2874:2888   */\n              add\n                /* \"#utility.yul\":2867:2888   */\n              swap2\n              pop\n                /* \"#utility.yul\":2940:2944   */\n              0x20\n                /* \"#utility.yul\":2934:2936   */\n              dup5\n                /* \"#utility.yul\":2931:2932   */\n              0x05\n                /* \"#utility.yul\":2927:2937   */\n              shl\n                /* \"#utility.yul\":2919:2925   */\n              dup8\n                /* \"#utility.yul\":2915:2938   */\n              add\n                /* \"#utility.yul\":2911:2945   */\n              add\n                /* \"#utility.yul\":2897:2945   */\n              swap4\n              pop\n                /* \"#utility.yul\":2968:2971   */\n              dup7\n                /* \"#utility.yul\":2960:2966   */\n              dup5\n                /* \"#utility.yul\":2957:2972   */\n              gt\n                /* \"#utility.yul\":2954:2989   */\n              iszero\n              tag_481\n              jumpi\n                /* \"#utility.yul\":2985:2986   */\n              0x00\n                /* \"#utility.yul\":2982:2983   */\n              dup1\n                /* \"#utility.yul\":2975:2987   */\n              revert\n                /* \"#utility.yul\":2954:2989   */\n            tag_481:\n                /* \"#utility.yul\":3021:3025   */\n              0x20\n                /* \"#utility.yul\":3013:3019   */\n              dup7\n                /* \"#utility.yul\":3009:3026   */\n              add\n                /* \"#utility.yul\":3035:3177   */\n            tag_482:\n                /* \"#utility.yul\":3051:3057   */\n              dup5\n                /* \"#utility.yul\":3046:3049   */\n              dup2\n                /* \"#utility.yul\":3043:3058   */\n              lt\n                /* \"#utility.yul\":3035:3177   */\n              iszero\n              tag_484\n              jumpi\n                /* \"#utility.yul\":3117:3134   */\n              dup1\n              calldataload\n                /* \"#utility.yul\":3105:3135   */\n              dup4\n              mstore\n                /* \"#utility.yul\":3155:3167   */\n              swap2\n              dup4\n              add\n              swap2\n                /* \"#utility.yul\":3068:3080   */\n              dup4\n              add\n                /* \"#utility.yul\":3035:3177   */\n              jump(tag_482)\n            tag_484:\n              pop\n                /* \"#utility.yul\":3195:3200   */\n              swap7\n                /* \"#utility.yul\":2538:3206   */\n              swap6\n              pop\n              pop\n              pop\n              pop\n              pop\n              pop\n              jump\t// out\n                /* \"#utility.yul\":3211:3741   */\n            tag_449:\n                /* \"#utility.yul\":3253:3258   */\n              0x00\n                /* \"#utility.yul\":3306:3309   */\n              dup3\n                /* \"#utility.yul\":3299:3303   */\n              0x1f\n                /* \"#utility.yul\":3291:3297   */\n              dup4\n                /* \"#utility.yul\":3287:3304   */\n              add\n                /* \"#utility.yul\":3283:3310   */\n              slt\n                /* \"#utility.yul\":3273:3328   */\n              tag_486\n              jumpi\n                /* \"#utility.yul\":3324:3325   */\n              0x00\n                /* \"#utility.yul\":3321:3322   */\n              dup1\n                /* \"#utility.yul\":3314:3326   */\n              revert\n                /* \"#utility.yul\":3273:3328   */\n            tag_486:\n                /* \"#utility.yul\":3360:3366   */\n              dup2\n                /* \"#utility.yul\":3347:3367   */\n              calldataload\n                /* \"#utility.yul\":3386:3404   */\n              0xffffffffffffffff\n                /* \"#utility.yul\":3382:3384   */\n              dup2\n                /* \"#utility.yul\":3379:3405   */\n              gt\n                /* \"#utility.yul\":3376:3428   */\n              iszero\n              tag_488\n              jumpi\n                /* \"#utility.yul\":3408:3426   */\n              tag_488\n              tag_215\n              jump\t// in\n            tag_488:\n                /* \"#utility.yul\":3452:3507   */\n              tag_489\n                /* \"#utility.yul\":3495:3497   */\n              0x1f\n                /* \"#utility.yul\":3476:3489   */\n              dup3\n              add\n              not(0x1f)\n                /* \"#utility.yul\":3472:3499   */\n              and\n                /* \"#utility.yul\":3501:3505   */\n              0x20\n                /* \"#utility.yul\":3468:3506   */\n              add\n                /* \"#utility.yul\":3452:3507   */\n              tag_446\n              jump\t// in\n            tag_489:\n                /* \"#utility.yul\":3532:3534   */\n              dup2\n                /* \"#utility.yul\":3523:3530   */\n              dup2\n                /* \"#utility.yul\":3516:3535   */\n              mstore\n                /* \"#utility.yul\":3578:3581   */\n              dup5\n                /* \"#utility.yul\":3571:3575   */\n              0x20\n                /* \"#utility.yul\":3566:3568   */\n              dup4\n                /* \"#utility.yul\":3558:3564   */\n              dup7\n                /* \"#utility.yul\":3554:3569   */\n              add\n                /* \"#utility.yul\":3550:3576   */\n              add\n                /* \"#utility.yul\":3547:3582   */\n              gt\n                /* \"#utility.yul\":3544:3599   */\n              iszero\n              tag_490\n              jumpi\n                /* \"#utility.yul\":3595:3596   */\n              0x00\n                /* \"#utility.yul\":3592:3593   */\n              dup1\n                /* \"#utility.yul\":3585:3597   */\n              revert\n                /* \"#utility.yul\":3544:3599   */\n            tag_490:\n                /* \"#utility.yul\":3660:3662   */\n              dup2\n                /* \"#utility.yul\":3653:3657   */\n              0x20\n                /* \"#utility.yul\":3645:3651   */\n              dup6\n                /* \"#utility.yul\":3641:3658   */\n              add\n                /* \"#utility.yul\":3634:3638   */\n              0x20\n                /* \"#utility.yul\":3625:3632   */\n              dup4\n                /* \"#utility.yul\":3621:3639   */\n              add\n                /* \"#utility.yul\":3608:3663   */\n              calldatacopy\n                /* \"#utility.yul\":3708:3709   */\n              0x00\n                /* \"#utility.yul\":3683:3699   */\n              swap2\n              dup2\n              add\n                /* \"#utility.yul\":3701:3705   */\n              0x20\n                /* \"#utility.yul\":3679:3706   */\n              add\n                /* \"#utility.yul\":3672:3710   */\n              swap2\n              swap1\n              swap2\n              mstore\n                /* \"#utility.yul\":3687:3694   */\n              swap4\n                /* \"#utility.yul\":3211:3741   */\n              swap3\n              pop\n              pop\n              pop\n              jump\t// out\n                /* \"#utility.yul\":3746:4689   */\n            tag_80:\n                /* \"#utility.yul\":3900:3906   */\n              0x00\n                /* \"#utility.yul\":3908:3914   */\n              dup1\n                /* \"#utility.yul\":3916:3922   */\n              0x00\n                /* \"#utility.yul\":3924:3930   */\n              dup1\n                /* \"#utility.yul\":3932:3938   */\n              0x00\n                /* \"#utility.yul\":3985:3988   */\n              0xa0\n                /* \"#utility.yul\":3973:3982   */\n              dup7\n                /* \"#utility.yul\":3964:3971   */\n              dup9\n                /* \"#utility.yul\":3960:3983   */\n              sub\n                /* \"#utility.yul\":3956:3989   */\n              slt\n                /* \"#utility.yul\":3953:4006   */\n              iszero\n              tag_492\n              jumpi\n                /* \"#utility.yul\":4002:4003   */\n              0x00\n                /* \"#utility.yul\":3999:4000   */\n              dup1\n                /* \"#utility.yul\":3992:4004   */\n              revert\n                /* \"#utility.yul\":3953:4006   */\n            tag_492:\n                /* \"#utility.yul\":4025:4054   */\n              tag_493\n                /* \"#utility.yul\":4044:4053   */\n              dup7\n                /* \"#utility.yul\":4025:4054   */\n              tag_443\n              jump\t// in\n            tag_493:\n                /* \"#utility.yul\":4015:4054   */\n              swap5\n              pop\n                /* \"#utility.yul\":4073:4111   */\n              tag_494\n                /* \"#utility.yul\":4107:4109   */\n              0x20\n                /* \"#utility.yul\":4096:4105   */\n              dup8\n                /* \"#utility.yul\":4092:4110   */\n              add\n                /* \"#utility.yul\":4073:4111   */\n              tag_443\n              jump\t// in\n            tag_494:\n                /* \"#utility.yul\":4063:4111   */\n              swap4\n              pop\n                /* \"#utility.yul\":4162:4164   */\n              0x40\n                /* \"#utility.yul\":4151:4160   */\n              dup7\n                /* \"#utility.yul\":4147:4165   */\n              add\n                /* \"#utility.yul\":4134:4166   */\n              calldataload\n                /* \"#utility.yul\":4185:4203   */\n              0xffffffffffffffff\n                /* \"#utility.yul\":4226:4228   */\n              dup1\n                /* \"#utility.yul\":4218:4224   */\n              dup3\n                /* \"#utility.yul\":4215:4229   */\n              gt\n                /* \"#utility.yul\":4212:4246   */\n              iszero\n              tag_495\n              jumpi\n                /* \"#utility.yul\":4242:4243   */\n              0x00\n                /* \"#utility.yul\":4239:4240   */\n              dup1\n                /* \"#utility.yul\":4232:4244   */\n              revert\n                /* \"#utility.yul\":4212:4246   */\n            tag_495:\n                /* \"#utility.yul\":4265:4326   */\n              tag_496\n                /* \"#utility.yul\":4318:4325   */\n              dup10\n                /* \"#utility.yul\":4309:4315   */\n              dup4\n                /* \"#utility.yul\":4298:4307   */\n              dup11\n                /* \"#utility.yul\":4294:4316   */\n              add\n                /* \"#utility.yul\":4265:4326   */\n              tag_448\n              jump\t// in\n            tag_496:\n                /* \"#utility.yul\":4255:4326   */\n              swap5\n              pop\n                /* \"#utility.yul\":4379:4381   */\n              0x60\n                /* \"#utility.yul\":4368:4377   */\n              dup9\n                /* \"#utility.yul\":4364:4382   */\n              add\n                /* \"#utility.yul\":4351:4383   */\n              calldataload\n                /* \"#utility.yul\":4335:4383   */\n              swap2\n              pop\n                /* \"#utility.yul\":4408:4410   */\n              dup1\n                /* \"#utility.yul\":4398:4406   */\n              dup3\n                /* \"#utility.yul\":4395:4411   */\n              gt\n                /* \"#utility.yul\":4392:4428   */\n              iszero\n              tag_497\n              jumpi\n                /* \"#utility.yul\":4424:4425   */\n              0x00\n                /* \"#utility.yul\":4421:4422   */\n              dup1\n                /* \"#utility.yul\":4414:4426   */\n              revert\n                /* \"#utility.yul\":4392:4428   */\n            tag_497:\n                /* \"#utility.yul\":4447:4510   */\n              tag_498\n                /* \"#utility.yul\":4502:4509   */\n              dup10\n                /* \"#utility.yul\":4491:4499   */\n              dup4\n                /* \"#utility.yul\":4480:4489   */\n              dup11\n                /* \"#utility.yul\":4476:4500   */\n              add\n                /* \"#utility.yul\":4447:4510   */\n              tag_448\n              jump\t// in\n            tag_498:\n                /* \"#utility.yul\":4437:4510   */\n              swap4\n              pop\n                /* \"#utility.yul\":4563:4566   */\n              0x80\n                /* \"#utility.yul\":4552:4561   */\n              dup9\n                /* \"#utility.yul\":4548:4567   */\n              add\n                /* \"#utility.yul\":4535:4568   */\n              calldataload\n                /* \"#utility.yul\":4519:4568   */\n              swap2\n              pop\n                /* \"#utility.yul\":4593:4595   */\n              dup1\n                /* \"#utility.yul\":4583:4591   */\n              dup3\n                /* \"#utility.yul\":4580:4596   */\n              gt\n                /* \"#utility.yul\":4577:4613   */\n              iszero\n              tag_499\n              jumpi\n                /* \"#utility.yul\":4609:4610   */\n              0x00\n                /* \"#utility.yul\":4606:4607   */\n              dup1\n                /* \"#utility.yul\":4599:4611   */\n              revert\n                /* \"#utility.yul\":4577:4613   */\n            tag_499:\n              pop\n                /* \"#utility.yul\":4632:4683   */\n              tag_500\n                /* \"#utility.yul\":4675:4682   */\n              dup9\n                /* \"#utility.yul\":4664:4672   */\n              dup3\n                /* \"#utility.yul\":4653:4662   */\n              dup10\n                /* \"#utility.yul\":4649:4673   */\n              add\n                /* \"#utility.yul\":4632:4683   */\n              tag_449\n              jump\t// in\n            tag_500:\n                /* \"#utility.yul\":4622:4683   */\n              swap2\n              pop\n              pop\n                /* \"#utility.yul\":3746:4689   */\n              swap3\n              swap6\n              pop\n              swap3\n              swap6\n              swap1\n              swap4\n              pop\n              jump\t// out\n                /* \"#utility.yul\":4694:5840   */\n            tag_85:\n                /* \"#utility.yul\":4812:4818   */\n              0x00\n                /* \"#utility.yul\":4820:4826   */\n              dup1\n                /* \"#utility.yul\":4873:4875   */\n              0x40\n                /* \"#utility.yul\":4861:4870   */\n              dup4\n                /* \"#utility.yul\":4852:4859   */\n              dup6\n                /* \"#utility.yul\":4848:4871   */\n              sub\n                /* \"#utility.yul\":4844:4876   */\n              slt\n                /* \"#utility.yul\":4841:4893   */\n              iszero\n              tag_502\n              jumpi\n                /* \"#utility.yul\":4889:4890   */\n              0x00\n                /* \"#utility.yul\":4886:4887   */\n              dup1\n                /* \"#utility.yul\":4879:4891   */\n              revert\n                /* \"#utility.yul\":4841:4893   */\n            tag_502:\n                /* \"#utility.yul\":4929:4938   */\n              dup3\n                /* \"#utility.yul\":4916:4939   */\n              calldataload\n                /* \"#utility.yul\":4958:4976   */\n              0xffffffffffffffff\n                /* \"#utility.yul\":4999:5001   */\n              dup1\n                /* \"#utility.yul\":4991:4997   */\n              dup3\n                /* \"#utility.yul\":4988:5002   */\n              gt\n                /* \"#utility.yul\":4985:5019   */\n              iszero\n              tag_503\n              jumpi\n                /* \"#utility.yul\":5015:5016   */\n              0x00\n                /* \"#utility.yul\":5012:5013   */\n              dup1\n                /* \"#utility.yul\":5005:5017   */\n              revert\n                /* \"#utility.yul\":4985:5019   */\n            tag_503:\n                /* \"#utility.yul\":5053:5059   */\n              dup2\n                /* \"#utility.yul\":5042:5051   */\n              dup6\n                /* \"#utility.yul\":5038:5060   */\n              add\n                /* \"#utility.yul\":5028:5060   */\n              swap2\n              pop\n                /* \"#utility.yul\":5098:5105   */\n              dup6\n                /* \"#utility.yul\":5091:5095   */\n              0x1f\n                /* \"#utility.yul\":5087:5089   */\n              dup4\n                /* \"#utility.yul\":5083:5096   */\n              add\n                /* \"#utility.yul\":5079:5106   */\n              slt\n                /* \"#utility.yul\":5069:5124   */\n              tag_504\n              jumpi\n                /* \"#utility.yul\":5120:5121   */\n              0x00\n                /* \"#utility.yul\":5117:5118   */\n              dup1\n                /* \"#utility.yul\":5110:5122   */\n              revert\n                /* \"#utility.yul\":5069:5124   */\n            tag_504:\n                /* \"#utility.yul\":5156:5158   */\n              dup2\n                /* \"#utility.yul\":5143:5159   */\n              calldataload\n                /* \"#utility.yul\":5178:5182   */\n              0x20\n                /* \"#utility.yul\":5202:5262   */\n              tag_505\n                /* \"#utility.yul\":5218:5261   */\n              tag_480\n                /* \"#utility.yul\":5258:5260   */\n              dup4\n                /* \"#utility.yul\":5218:5261   */\n              tag_447\n              jump\t// in\n                /* \"#utility.yul\":5202:5262   */\n            tag_505:\n                /* \"#utility.yul\":5296:5311   */\n              dup3\n              dup2\n              mstore\n                /* \"#utility.yul\":5378:5379   */\n              0x05\n                /* \"#utility.yul\":5374:5384   */\n              swap3\n              swap1\n              swap3\n              shl\n                /* \"#utility.yul\":5366:5385   */\n              dup5\n              add\n                /* \"#utility.yul\":5362:5390   */\n              dup2\n              add\n              swap2\n                /* \"#utility.yul\":5327:5339   */\n              dup2\n              dup2\n              add\n              swap1\n                /* \"#utility.yul\":5402:5421   */\n              dup10\n              dup5\n              gt\n                /* \"#utility.yul\":5399:5438   */\n              iszero\n              tag_507\n              jumpi\n                /* \"#utility.yul\":5434:5435   */\n              0x00\n                /* \"#utility.yul\":5431:5432   */\n              dup1\n                /* \"#utility.yul\":5424:5436   */\n              revert\n                /* \"#utility.yul\":5399:5438   */\n            tag_507:\n                /* \"#utility.yul\":5458:5469   */\n              swap5\n              dup3\n              add\n              swap5\n                /* \"#utility.yul\":5478:5626   */\n            tag_508:\n                /* \"#utility.yul\":5494:5500   */\n              dup4\n                /* \"#utility.yul\":5489:5492   */\n              dup7\n                /* \"#utility.yul\":5486:5501   */\n              lt\n                /* \"#utility.yul\":5478:5626   */\n              iszero\n              tag_510\n              jumpi\n                /* \"#utility.yul\":5560:5583   */\n              tag_511\n                /* \"#utility.yul\":5579:5582   */\n              dup7\n                /* \"#utility.yul\":5560:5583   */\n              tag_443\n              jump\t// in\n            tag_511:\n                /* \"#utility.yul\":5548:5584   */\n              dup3\n              mstore\n                /* \"#utility.yul\":5511:5523   */\n              swap5\n              dup3\n              add\n              swap5\n                /* \"#utility.yul\":5604:5616   */\n              swap1\n              dup3\n              add\n              swap1\n                /* \"#utility.yul\":5478:5626   */\n              jump(tag_508)\n            tag_510:\n                /* \"#utility.yul\":5645:5650   */\n              swap7\n              pop\n              pop\n                /* \"#utility.yul\":5688:5706   */\n              dup7\n              add\n                /* \"#utility.yul\":5675:5707   */\n              calldataload\n              swap3\n              pop\n              pop\n                /* \"#utility.yul\":5719:5735   */\n              dup1\n              dup3\n              gt\n                /* \"#utility.yul\":5716:5752   */\n              iszero\n              tag_512\n              jumpi\n                /* \"#utility.yul\":5748:5749   */\n              0x00\n                /* \"#utility.yul\":5745:5746   */\n              dup1\n                /* \"#utility.yul\":5738:5750   */\n              revert\n                /* \"#utility.yul\":5716:5752   */\n            tag_512:\n              pop\n                /* \"#utility.yul\":5771:5834   */\n              tag_513\n                /* \"#utility.yul\":5826:5833   */\n              dup6\n                /* \"#utility.yul\":5815:5823   */\n              dup3\n                /* \"#utility.yul\":5804:5813   */\n              dup7\n                /* \"#utility.yul\":5800:5824   */\n              add\n                /* \"#utility.yul\":5771:5834   */\n              tag_448\n              jump\t// in\n            tag_513:\n                /* \"#utility.yul\":5761:5834   */\n              swap2\n              pop\n              pop\n                /* \"#utility.yul\":4694:5840   */\n              swap3\n              pop\n              swap3\n              swap1\n              pop\n              jump\t// out\n                /* \"#utility.yul\":5845:6284   */\n            tag_450:\n                /* \"#utility.yul\":5898:5901   */\n              0x00\n                /* \"#utility.yul\":5936:5941   */\n              dup2\n                /* \"#utility.yul\":5930:5942   */\n              mload\n                /* \"#utility.yul\":5963:5969   */\n              dup1\n                /* \"#utility.yul\":5958:5961   */\n              dup5\n                /* \"#utility.yul\":5951:5970   */\n              mstore\n                /* \"#utility.yul\":5989:5993   */\n              0x20\n                /* \"#utility.yul\":6018:6022   */\n              dup1\n                /* \"#utility.yul\":6013:6016   */\n              dup6\n                /* \"#utility.yul\":6009:6023   */\n              add\n                /* \"#utility.yul\":6002:6023   */\n              swap5\n              pop\n                /* \"#utility.yul\":6057:6061   */\n              0x20\n                /* \"#utility.yul\":6050:6055   */\n              dup5\n                /* \"#utility.yul\":6046:6062   */\n              add\n                /* \"#utility.yul\":6080:6081   */\n              0x00\n                /* \"#utility.yul\":6090:6259   */\n            tag_515:\n                /* \"#utility.yul\":6104:6110   */\n              dup4\n                /* \"#utility.yul\":6101:6102   */\n              dup2\n                /* \"#utility.yul\":6098:6111   */\n              lt\n                /* \"#utility.yul\":6090:6259   */\n              iszero\n              tag_517\n              jumpi\n                /* \"#utility.yul\":6165:6178   */\n              dup2\n              mload\n                /* \"#utility.yul\":6153:6179   */\n              dup8\n              mstore\n                /* \"#utility.yul\":6199:6211   */\n              swap6\n              dup3\n              add\n              swap6\n                /* \"#utility.yul\":6234:6249   */\n              swap1\n              dup3\n              add\n              swap1\n                /* \"#utility.yul\":6126:6127   */\n              0x01\n                /* \"#utility.yul\":6119:6128   */\n              add\n                /* \"#utility.yul\":6090:6259   */\n              jump(tag_515)\n            tag_517:\n              pop\n                /* \"#utility.yul\":6275:6278   */\n              swap5\n              swap6\n                /* \"#utility.yul\":5845:6284   */\n              swap5\n              pop\n              pop\n              pop\n              pop\n              pop\n              jump\t// out\n                /* \"#utility.yul\":6289:6550   */\n            tag_88:\n                /* \"#utility.yul\":6468:6470   */\n              0x20\n                /* \"#utility.yul\":6457:6466   */\n              dup2\n                /* \"#utility.yul\":6450:6471   */\n              mstore\n                /* \"#utility.yul\":6431:6435   */\n              0x00\n                /* \"#utility.yul\":6488:6544   */\n              tag_463\n                /* \"#utility.yul\":6540:6542   */\n              0x20\n                /* \"#utility.yul\":6529:6538   */\n              dup4\n                /* \"#utility.yul\":6525:6543   */\n              add\n                /* \"#utility.yul\":6517:6523   */\n              dup5\n                /* \"#utility.yul\":6488:6544   */\n              tag_450\n              jump\t// in\n                /* \"#utility.yul\":6786:7133   */\n            tag_130:\n                /* \"#utility.yul\":6851:6857   */\n              0x00\n                /* \"#utility.yul\":6859:6865   */\n              dup1\n                /* \"#utility.yul\":6912:6914   */\n              0x40\n                /* \"#utility.yul\":6900:6909   */\n              dup4\n                /* \"#utility.yul\":6891:6898   */\n              dup6\n                /* \"#utility.yul\":6887:6910   */\n              sub\n                /* \"#utility.yul\":6883:6915   */\n              slt\n                /* \"#utility.yul\":6880:6932   */\n              iszero\n              tag_522\n              jumpi\n                /* \"#utility.yul\":6928:6929   */\n              0x00\n                /* \"#utility.yul\":6925:6926   */\n              dup1\n                /* \"#utility.yul\":6918:6930   */\n              revert\n                /* \"#utility.yul\":6880:6932   */\n            tag_522:\n                /* \"#utility.yul\":6951:6980   */\n              tag_523\n                /* \"#utility.yul\":6970:6979   */\n              dup4\n                /* \"#utility.yul\":6951:6980   */\n              tag_443\n              jump\t// in\n            tag_523:\n                /* \"#utility.yul\":6941:6980   */\n              swap2\n              pop\n                /* \"#utility.yul\":7030:7032   */\n              0x20\n                /* \"#utility.yul\":7019:7028   */\n              dup4\n                /* \"#utility.yul\":7015:7033   */\n              add\n                /* \"#utility.yul\":7002:7034   */\n              calldataload\n                /* \"#utility.yul\":7077:7082   */\n              dup1\n                /* \"#utility.yul\":7070:7083   */\n              iszero\n                /* \"#utility.yul\":7063:7084   */\n              iszero\n                /* \"#utility.yul\":7056:7061   */\n              dup2\n                /* \"#utility.yul\":7053:7085   */\n              eq\n                /* \"#utility.yul\":7043:7103   */\n              tag_524\n              jumpi\n                /* \"#utility.yul\":7099:7100   */\n              0x00\n                /* \"#utility.yul\":7096:7097   */\n              dup1\n                /* \"#utility.yul\":7089:7101   */\n              revert\n                /* \"#utility.yul\":7043:7103   */\n            tag_524:\n                /* \"#utility.yul\":7122:7127   */\n              dup1\n                /* \"#utility.yul\":7112:7127   */\n              swap2\n              pop\n              pop\n                /* \"#utility.yul\":6786:7133   */\n              swap3\n              pop\n              swap3\n              swap1\n              pop\n              jump\t// out\n                /* \"#utility.yul\":7138:8260   */\n            tag_136:\n                /* \"#utility.yul\":7539:7543   */\n              0x00\n                /* \"#utility.yul\":7568:7571   */\n              0x0160\n                /* \"#utility.yul\":7598:7604   */\n              dup14\n                /* \"#utility.yul\":7587:7596   */\n              dup4\n                /* \"#utility.yul\":7580:7605   */\n              mstore\n                /* \"#utility.yul\":7641:7647   */\n              dup13\n                /* \"#utility.yul\":7636:7638   */\n              0x20\n                /* \"#utility.yul\":7625:7634   */\n              dup5\n                /* \"#utility.yul\":7621:7639   */\n              add\n                /* \"#utility.yul\":7614:7648   */\n              mstore\n                /* \"#utility.yul\":7684:7690   */\n              dup12\n                /* \"#utility.yul\":7679:7681   */\n              0x40\n                /* \"#utility.yul\":7668:7677   */\n              dup5\n                /* \"#utility.yul\":7664:7682   */\n              add\n                /* \"#utility.yul\":7657:7691   */\n              mstore\n                /* \"#utility.yul\":7727:7733   */\n              dup11\n                /* \"#utility.yul\":7722:7724   */\n              0x60\n                /* \"#utility.yul\":7711:7720   */\n              dup5\n                /* \"#utility.yul\":7707:7725   */\n              add\n                /* \"#utility.yul\":7700:7734   */\n              mstore\n                /* \"#utility.yul\":7771:7777   */\n              dup10\n                /* \"#utility.yul\":7765:7768   */\n              0x80\n                /* \"#utility.yul\":7754:7763   */\n              dup5\n                /* \"#utility.yul\":7750:7769   */\n              add\n                /* \"#utility.yul\":7743:7778   */\n              mstore\n                /* \"#utility.yul\":7815:7817   */\n              dup1\n                /* \"#utility.yul\":7809:7812   */\n              0xa0\n                /* \"#utility.yul\":7798:7807   */\n              dup5\n                /* \"#utility.yul\":7794:7813   */\n              add\n                /* \"#utility.yul\":7787:7818   */\n              mstore\n                /* \"#utility.yul\":7841:7886   */\n              tag_526\n                /* \"#utility.yul\":7882:7884   */\n              dup2\n                /* \"#utility.yul\":7871:7880   */\n              dup5\n                /* \"#utility.yul\":7867:7885   */\n              add\n                /* \"#utility.yul\":7859:7865   */\n              dup11\n                /* \"#utility.yul\":7841:7886   */\n              tag_445\n              jump\t// in\n            tag_526:\n                /* \"#utility.yul\":7827:7886   */\n              swap1\n              pop\n                /* \"#utility.yul\":7935:7944   */\n              dup3\n                /* \"#utility.yul\":7927:7933   */\n              dup2\n                /* \"#utility.yul\":7923:7945   */\n              sub\n                /* \"#utility.yul\":7917:7920   */\n              0xc0\n                /* \"#utility.yul\":7906:7915   */\n              dup5\n                /* \"#utility.yul\":7902:7921   */\n              add\n                /* \"#utility.yul\":7895:7946   */\n              mstore\n                /* \"#utility.yul\":7963:7996   */\n              tag_527\n                /* \"#utility.yul\":7989:7995   */\n              dup2\n                /* \"#utility.yul\":7981:7987   */\n              dup10\n                /* \"#utility.yul\":7963:7996   */\n              tag_445\n              jump\t// in\n            tag_527:\n              sub(shl(0xa0, 0x01), 0x01)\n                /* \"#utility.yul\":8033:8088   */\n              swap8\n              swap1\n              swap8\n              and\n                /* \"#utility.yul\":8027:8030   */\n              0xe0\n                /* \"#utility.yul\":8012:8031   */\n              dup5\n              add\n                /* \"#utility.yul\":8005:8089   */\n              mstore\n              pop\n              pop\n                /* \"#utility.yul\":8120:8123   */\n              0x0100\n                /* \"#utility.yul\":8105:8124   */\n              dup2\n              add\n                /* \"#utility.yul\":8098:8133   */\n              swap4\n              swap1\n              swap4\n              mstore\n                /* \"#utility.yul\":8177:8191   */\n              swap1\n              iszero\n                /* \"#utility.yul\":8170:8192   */\n              iszero\n                /* \"#utility.yul\":8164:8167   */\n              0x0120\n                /* \"#utility.yul\":8149:8168   */\n              dup4\n              add\n                /* \"#utility.yul\":8142:8193   */\n              mstore\n                /* \"#utility.yul\":8237:8252   */\n              iszero\n                /* \"#utility.yul\":8230:8253   */\n              iszero\n                /* \"#utility.yul\":8224:8227   */\n              0x0140\n                /* \"#utility.yul\":8209:8228   */\n              swap1\n              swap2\n              add\n                /* \"#utility.yul\":8202:8254   */\n              mstore\n                /* \"#utility.yul\":7955:7996   */\n              swap8\n                /* \"#utility.yul\":7138:8260   */\n              swap7\n              pop\n              pop\n              pop\n              pop\n              pop\n              pop\n              pop\n              jump\t// out\n                /* \"#utility.yul\":8265:8525   */\n            tag_148:\n                /* \"#utility.yul\":8333:8339   */\n              0x00\n                /* \"#utility.yul\":8341:8347   */\n              dup1\n                /* \"#utility.yul\":8394:8396   */\n              0x40\n                /* \"#utility.yul\":8382:8391   */\n              dup4\n                /* \"#utility.yul\":8373:8380   */\n              dup6\n                /* \"#utility.yul\":8369:8392   */\n              sub\n                /* \"#utility.yul\":8365:8397   */\n              slt\n                /* \"#utility.yul\":8362:8414   */\n              iszero\n              tag_529\n              jumpi\n                /* \"#utility.yul\":8410:8411   */\n              0x00\n                /* \"#utility.yul\":8407:8408   */\n              dup1\n                /* \"#utility.yul\":8400:8412   */\n              revert\n                /* \"#utility.yul\":8362:8414   */\n            tag_529:\n                /* \"#utility.yul\":8433:8462   */\n              tag_530\n                /* \"#utility.yul\":8452:8461   */\n              dup4\n                /* \"#utility.yul\":8433:8462   */\n              tag_443\n              jump\t// in\n            tag_530:\n                /* \"#utility.yul\":8423:8462   */\n              swap2\n              pop\n                /* \"#utility.yul\":8481:8519   */\n              tag_531\n                /* \"#utility.yul\":8515:8517   */\n              0x20\n                /* \"#utility.yul\":8504:8513   */\n              dup5\n                /* \"#utility.yul\":8500:8518   */\n              add\n                /* \"#utility.yul\":8481:8519   */\n              tag_443\n              jump\t// in\n            tag_531:\n                /* \"#utility.yul\":8471:8519   */\n              swap1\n              pop\n                /* \"#utility.yul\":8265:8525   */\n              swap3\n              pop\n              swap3\n              swap1\n              pop\n              jump\t// out\n                /* \"#utility.yul\":8530:9136   */\n            tag_154:\n                /* \"#utility.yul\":8634:8640   */\n              0x00\n                /* \"#utility.yul\":8642:8648   */\n              dup1\n                /* \"#utility.yul\":8650:8656   */\n              0x00\n                /* \"#utility.yul\":8658:8664   */\n              dup1\n                /* \"#utility.yul\":8666:8672   */\n              0x00\n                /* \"#utility.yul\":8719:8722   */\n              0xa0\n                /* \"#utility.yul\":8707:8716   */\n              dup7\n                /* \"#utility.yul\":8698:8705   */\n              dup9\n                /* \"#utility.yul\":8694:8717   */\n              sub\n                /* \"#utility.yul\":8690:8723   */\n              slt\n                /* \"#utility.yul\":8687:8740   */\n              iszero\n              tag_533\n              jumpi\n                /* \"#utility.yul\":8736:8737   */\n              0x00\n                /* \"#utility.yul\":8733:8734   */\n              dup1\n                /* \"#utility.yul\":8726:8738   */\n              revert\n                /* \"#utility.yul\":8687:8740   */\n            tag_533:\n                /* \"#utility.yul\":8759:8788   */\n              tag_534\n                /* \"#utility.yul\":8778:8787   */\n              dup7\n                /* \"#utility.yul\":8759:8788   */\n              tag_443\n              jump\t// in\n            tag_534:\n                /* \"#utility.yul\":8749:8788   */\n              swap5\n              pop\n                /* \"#utility.yul\":8807:8845   */\n              tag_535\n                /* \"#utility.yul\":8841:8843   */\n              0x20\n                /* \"#utility.yul\":8830:8839   */\n              dup8\n                /* \"#utility.yul\":8826:8844   */\n              add\n                /* \"#utility.yul\":8807:8845   */\n              tag_443\n              jump\t// in\n            tag_535:\n                /* \"#utility.yul\":8797:8845   */\n              swap4\n              pop\n                /* \"#utility.yul\":8892:8894   */\n              0x40\n                /* \"#utility.yul\":8881:8890   */\n              dup7\n                /* \"#utility.yul\":8877:8895   */\n              add\n                /* \"#utility.yul\":8864:8896   */\n              calldataload\n                /* \"#utility.yul\":8854:8896   */\n              swap3\n              pop\n                /* \"#utility.yul\":8943:8945   */\n              0x60\n                /* \"#utility.yul\":8932:8941   */\n              dup7\n                /* \"#utility.yul\":8928:8946   */\n              add\n                /* \"#utility.yul\":8915:8947   */\n              calldataload\n                /* \"#utility.yul\":8905:8947   */\n              swap2\n              pop\n                /* \"#utility.yul\":8998:9001   */\n              0x80\n                /* \"#utility.yul\":8987:8996   */\n              dup7\n                /* \"#utility.yul\":8983:9002   */\n              add\n                /* \"#utility.yul\":8970:9003   */\n              calldataload\n                /* \"#utility.yul\":9026:9044   */\n              0xffffffffffffffff\n                /* \"#utility.yul\":9018:9024   */\n              dup2\n                /* \"#utility.yul\":9015:9045   */\n              gt\n                /* \"#utility.yul\":9012:9062   */\n              iszero\n              tag_536\n              jumpi\n                /* \"#utility.yul\":9058:9059   */\n              0x00\n                /* \"#utility.yul\":9055:9056   */\n              dup1\n                /* \"#utility.yul\":9048:9060   */\n              revert\n                /* \"#utility.yul\":9012:9062   */\n            tag_536:\n                /* \"#utility.yul\":9081:9130   */\n              tag_500\n                /* \"#utility.yul\":9122:9129   */\n              dup9\n                /* \"#utility.yul\":9113:9119   */\n              dup3\n                /* \"#utility.yul\":9102:9111   */\n              dup10\n                /* \"#utility.yul\":9098:9120   */\n              add\n                /* \"#utility.yul\":9081:9130   */\n              tag_449\n              jump\t// in\n                /* \"#utility.yul\":9141:9327   */\n            tag_159:\n                /* \"#utility.yul\":9200:9206   */\n              0x00\n                /* \"#utility.yul\":9253:9255   */\n              0x20\n                /* \"#utility.yul\":9241:9250   */\n              dup3\n                /* \"#utility.yul\":9232:9239   */\n              dup5\n                /* \"#utility.yul\":9228:9251   */\n              sub\n                /* \"#utility.yul\":9224:9256   */\n              slt\n                /* \"#utility.yul\":9221:9273   */\n              iszero\n              tag_539\n              jumpi\n                /* \"#utility.yul\":9269:9270   */\n              0x00\n                /* \"#utility.yul\":9266:9267   */\n              dup1\n                /* \"#utility.yul\":9259:9271   */\n              revert\n                /* \"#utility.yul\":9221:9273   */\n            tag_539:\n                /* \"#utility.yul\":9292:9321   */\n              tag_463\n                /* \"#utility.yul\":9311:9320   */\n              dup3\n                /* \"#utility.yul\":9292:9321   */\n              tag_443\n              jump\t// in\n                /* \"#utility.yul\":9684:10064   */\n            tag_174:\n                /* \"#utility.yul\":9763:9764   */\n              0x01\n                /* \"#utility.yul\":9759:9771   */\n              dup2\n              dup2\n              shr\n              swap1\n                /* \"#utility.yul\":9806:9818   */\n              dup3\n              and\n              dup1\n                /* \"#utility.yul\":9827:9888   */\n              tag_543\n              jumpi\n                /* \"#utility.yul\":9881:9885   */\n              0x7f\n                /* \"#utility.yul\":9873:9879   */\n              dup3\n                /* \"#utility.yul\":9869:9886   */\n              and\n                /* \"#utility.yul\":9859:9886   */\n              swap2\n              pop\n                /* \"#utility.yul\":9827:9888   */\n            tag_543:\n                /* \"#utility.yul\":9934:9936   */\n              0x20\n                /* \"#utility.yul\":9926:9932   */\n              dup3\n                /* \"#utility.yul\":9923:9937   */\n              lt\n                /* \"#utility.yul\":9903:9921   */\n              dup2\n                /* \"#utility.yul\":9900:9938   */\n              sub\n                /* \"#utility.yul\":9897:10058   */\n              tag_544\n              jumpi\n                /* \"#utility.yul\":9980:9990   */\n              0x4e487b71\n                /* \"#utility.yul\":9975:9978   */\n              0xe0\n                /* \"#utility.yul\":9971:9991   */\n              shl\n                /* \"#utility.yul\":9968:9969   */\n              0x00\n                /* \"#utility.yul\":9961:9992   */\n              mstore\n                /* \"#utility.yul\":10015:10019   */\n              0x22\n                /* \"#utility.yul\":10012:10013   */\n              0x04\n                /* \"#utility.yul\":10005:10020   */\n              mstore\n                /* \"#utility.yul\":10043:10047   */\n              0x24\n                /* \"#utility.yul\":10040:10041   */\n              0x00\n                /* \"#utility.yul\":10033:10048   */\n              revert\n                /* \"#utility.yul\":9897:10058   */\n            tag_544:\n              pop\n                /* \"#utility.yul\":9684:10064   */\n              swap2\n              swap1\n              pop\n              jump\t// out\n                /* \"#utility.yul\":11711:11838   */\n            tag_227:\n                /* \"#utility.yul\":11772:11782   */\n              0x4e487b71\n                /* \"#utility.yul\":11767:11770   */\n              0xe0\n                /* \"#utility.yul\":11763:11783   */\n              shl\n                /* \"#utility.yul\":11760:11761   */\n              0x00\n                /* \"#utility.yul\":11753:11784   */\n              mstore\n                /* \"#utility.yul\":11803:11807   */\n              0x32\n                /* \"#utility.yul\":11800:11801   */\n              0x04\n                /* \"#utility.yul\":11793:11808   */\n              mstore\n                /* \"#utility.yul\":11827:11831   */\n              0x24\n                /* \"#utility.yul\":11824:11825   */\n              0x00\n                /* \"#utility.yul\":11817:11832   */\n              revert\n                /* \"#utility.yul\":12196:12323   */\n            tag_451:\n                /* \"#utility.yul\":12257:12267   */\n              0x4e487b71\n                /* \"#utility.yul\":12252:12255   */\n              0xe0\n                /* \"#utility.yul\":12248:12268   */\n              shl\n                /* \"#utility.yul\":12245:12246   */\n              0x00\n                /* \"#utility.yul\":12238:12269   */\n              mstore\n                /* \"#utility.yul\":12288:12292   */\n              0x11\n                /* \"#utility.yul\":12285:12286   */\n              0x04\n                /* \"#utility.yul\":12278:12293   */\n              mstore\n                /* \"#utility.yul\":12312:12316   */\n              0x24\n                /* \"#utility.yul\":12309:12310   */\n              0x00\n                /* \"#utility.yul\":12302:12317   */\n              revert\n                /* \"#utility.yul\":12328:12453   */\n            tag_246:\n                /* \"#utility.yul\":12393:12402   */\n              dup1\n              dup3\n              add\n                /* \"#utility.yul\":12414:12424   */\n              dup1\n              dup3\n              gt\n                /* \"#utility.yul\":12411:12447   */\n              iszero\n              tag_163\n              jumpi\n                /* \"#utility.yul\":12427:12445   */\n              tag_163\n              tag_451\n              jump\t// in\n                /* \"#utility.yul\":13867:14035   */\n            tag_267:\n                /* \"#utility.yul\":13940:13949   */\n              dup1\n              dup3\n              mul\n                /* \"#utility.yul\":13971:13980   */\n              dup2\n              iszero\n                /* \"#utility.yul\":13988:14003   */\n              dup3\n              dup3\n              div\n                /* \"#utility.yul\":13982:14004   */\n              dup5\n              eq\n                /* \"#utility.yul\":13968:14005   */\n              or\n                /* \"#utility.yul\":13958:14029   */\n              tag_163\n              jumpi\n                /* \"#utility.yul\":14009:14027   */\n              tag_163\n              tag_451\n              jump\t// in\n                /* \"#utility.yul\":14040:14257   */\n            tag_269:\n                /* \"#utility.yul\":14080:14081   */\n              0x00\n                /* \"#utility.yul\":14106:14107   */\n              dup3\n                /* \"#utility.yul\":14096:14228   */\n              tag_564\n              jumpi\n                /* \"#utility.yul\":14150:14160   */\n              0x4e487b71\n                /* \"#utility.yul\":14145:14148   */\n              0xe0\n                /* \"#utility.yul\":14141:14161   */\n              shl\n                /* \"#utility.yul\":14138:14139   */\n              0x00\n                /* \"#utility.yul\":14131:14162   */\n              mstore\n                /* \"#utility.yul\":14185:14189   */\n              0x12\n                /* \"#utility.yul\":14182:14183   */\n              0x04\n                /* \"#utility.yul\":14175:14190   */\n              mstore\n                /* \"#utility.yul\":14213:14217   */\n              0x24\n                /* \"#utility.yul\":14210:14211   */\n              0x00\n                /* \"#utility.yul\":14203:14218   */\n              revert\n                /* \"#utility.yul\":14096:14228   */\n            tag_564:\n              pop\n                /* \"#utility.yul\":14242:14251   */\n              div\n              swap1\n                /* \"#utility.yul\":14040:14257   */\n              jump\t// out\n                /* \"#utility.yul\":15738:16322   */\n            tag_387:\n                /* \"#utility.yul\":15960:15964   */\n              0x00\n              sub(shl(0xa0, 0x01), 0x01)\n                /* \"#utility.yul\":16070:16072   */\n              dup1\n                /* \"#utility.yul\":16062:16068   */\n              dup9\n                /* \"#utility.yul\":16058:16073   */\n              and\n                /* \"#utility.yul\":16047:16056   */\n              dup4\n                /* \"#utility.yul\":16040:16074   */\n              mstore\n                /* \"#utility.yul\":16122:16124   */\n              dup1\n                /* \"#utility.yul\":16114:16120   */\n              dup8\n                /* \"#utility.yul\":16110:16125   */\n              and\n                /* \"#utility.yul\":16105:16107   */\n              0x20\n                /* \"#utility.yul\":16094:16103   */\n              dup5\n                /* \"#utility.yul\":16090:16108   */\n              add\n                /* \"#utility.yul\":16083:16126   */\n              mstore\n              pop\n                /* \"#utility.yul\":16162:16168   */\n              dup5\n                /* \"#utility.yul\":16157:16159   */\n              0x40\n                /* \"#utility.yul\":16146:16155   */\n              dup4\n                /* \"#utility.yul\":16142:16160   */\n              add\n                /* \"#utility.yul\":16135:16169   */\n              mstore\n                /* \"#utility.yul\":16205:16211   */\n              dup4\n                /* \"#utility.yul\":16200:16202   */\n              0x60\n                /* \"#utility.yul\":16189:16198   */\n              dup4\n                /* \"#utility.yul\":16185:16203   */\n              add\n                /* \"#utility.yul\":16178:16212   */\n              mstore\n                /* \"#utility.yul\":16249:16252   */\n              0xa0\n                /* \"#utility.yul\":16243:16246   */\n              0x80\n                /* \"#utility.yul\":16232:16241   */\n              dup4\n                /* \"#utility.yul\":16228:16247   */\n              add\n                /* \"#utility.yul\":16221:16253   */\n              mstore\n                /* \"#utility.yul\":16270:16316   */\n              tag_570\n                /* \"#utility.yul\":16311:16314   */\n              0xa0\n                /* \"#utility.yul\":16300:16309   */\n              dup4\n                /* \"#utility.yul\":16296:16315   */\n              add\n                /* \"#utility.yul\":16288:16294   */\n              dup5\n                /* \"#utility.yul\":16270:16316   */\n              tag_445\n              jump\t// in\n            tag_570:\n                /* \"#utility.yul\":16262:16316   */\n              swap8\n                /* \"#utility.yul\":15738:16322   */\n              swap7\n              pop\n              pop\n              pop\n              pop\n              pop\n              pop\n              pop\n              jump\t// out\n                /* \"#utility.yul\":16327:16576   */\n            tag_390:\n                /* \"#utility.yul\":16396:16402   */\n              0x00\n                /* \"#utility.yul\":16449:16451   */\n              0x20\n                /* \"#utility.yul\":16437:16446   */\n              dup3\n                /* \"#utility.yul\":16428:16435   */\n              dup5\n                /* \"#utility.yul\":16424:16447   */\n              sub\n                /* \"#utility.yul\":16420:16452   */\n              slt\n                /* \"#utility.yul\":16417:16469   */\n              iszero\n              tag_572\n              jumpi\n                /* \"#utility.yul\":16465:16466   */\n              0x00\n                /* \"#utility.yul\":16462:16463   */\n              dup1\n                /* \"#utility.yul\":16455:16467   */\n              revert\n                /* \"#utility.yul\":16417:16469   */\n            tag_572:\n                /* \"#utility.yul\":16497:16506   */\n              dup2\n                /* \"#utility.yul\":16491:16507   */\n              mload\n                /* \"#utility.yul\":16516:16546   */\n              tag_463\n                /* \"#utility.yul\":16540:16545   */\n              dup2\n                /* \"#utility.yul\":16516:16546   */\n              tag_444\n              jump\t// in\n                /* \"#utility.yul\":16581:17431   */\n            tag_406:\n                /* \"#utility.yul\":16903:16907   */\n              0x00\n              sub(shl(0xa0, 0x01), 0x01)\n                /* \"#utility.yul\":17013:17015   */\n              dup1\n                /* \"#utility.yul\":17005:17011   */\n              dup9\n                /* \"#utility.yul\":17001:17016   */\n              and\n                /* \"#utility.yul\":16990:16999   */\n              dup4\n                /* \"#utility.yul\":16983:17017   */\n              mstore\n                /* \"#utility.yul\":17065:17067   */\n              dup1\n                /* \"#utility.yul\":17057:17063   */\n              dup8\n                /* \"#utility.yul\":17053:17068   */\n              and\n                /* \"#utility.yul\":17048:17050   */\n              0x20\n                /* \"#utility.yul\":17037:17046   */\n              dup5\n                /* \"#utility.yul\":17033:17051   */\n              add\n                /* \"#utility.yul\":17026:17069   */\n              mstore\n              pop\n                /* \"#utility.yul\":17105:17108   */\n              0xa0\n                /* \"#utility.yul\":17100:17102   */\n              0x40\n                /* \"#utility.yul\":17089:17098   */\n              dup4\n                /* \"#utility.yul\":17085:17103   */\n              add\n                /* \"#utility.yul\":17078:17109   */\n              mstore\n                /* \"#utility.yul\":17132:17189   */\n              tag_575\n                /* \"#utility.yul\":17184:17187   */\n              0xa0\n                /* \"#utility.yul\":17173:17182   */\n              dup4\n                /* \"#utility.yul\":17169:17188   */\n              add\n                /* \"#utility.yul\":17161:17167   */\n              dup7\n                /* \"#utility.yul\":17132:17189   */\n              tag_450\n              jump\t// in\n            tag_575:\n                /* \"#utility.yul\":17237:17246   */\n              dup3\n                /* \"#utility.yul\":17229:17235   */\n              dup2\n                /* \"#utility.yul\":17225:17247   */\n              sub\n                /* \"#utility.yul\":17220:17222   */\n              0x60\n                /* \"#utility.yul\":17209:17218   */\n              dup5\n                /* \"#utility.yul\":17205:17223   */\n              add\n                /* \"#utility.yul\":17198:17248   */\n              mstore\n                /* \"#utility.yul\":17271:17315   */\n              tag_576\n                /* \"#utility.yul\":17308:17314   */\n              dup2\n                /* \"#utility.yul\":17300:17306   */\n              dup7\n                /* \"#utility.yul\":17271:17315   */\n              tag_450\n              jump\t// in\n            tag_576:\n                /* \"#utility.yul\":17257:17315   */\n              swap1\n              pop\n                /* \"#utility.yul\":17364:17373   */\n              dup3\n                /* \"#utility.yul\":17356:17362   */\n              dup2\n                /* \"#utility.yul\":17352:17374   */\n              sub\n                /* \"#utility.yul\":17346:17349   */\n              0x80\n                /* \"#utility.yul\":17335:17344   */\n              dup5\n                /* \"#utility.yul\":17331:17350   */\n              add\n                /* \"#utility.yul\":17324:17375   */\n              mstore\n                /* \"#utility.yul\":17392:17425   */\n              tag_577\n                /* \"#utility.yul\":17418:17424   */\n              dup2\n                /* \"#utility.yul\":17410:17416   */\n              dup6\n                /* \"#utility.yul\":17392:17425   */\n              tag_445\n              jump\t// in\n            tag_577:\n                /* \"#utility.yul\":17384:17425   */\n              swap9\n                /* \"#utility.yul\":16581:17431   */\n              swap8\n              pop\n              pop\n              pop\n              pop\n              pop\n              pop\n              pop\n              pop\n              jump\t// out\n                /* \"#utility.yul\":17881:18346   */\n            tag_442:\n                /* \"#utility.yul\":18138:18140   */\n              0x40\n                /* \"#utility.yul\":18127:18136   */\n              dup2\n                /* \"#utility.yul\":18120:18141   */\n              mstore\n                /* \"#utility.yul\":18101:18105   */\n              0x00\n                /* \"#utility.yul\":18164:18220   */\n              tag_580\n                /* \"#utility.yul\":18216:18218   */\n              0x40\n                /* \"#utility.yul\":18205:18214   */\n              dup4\n                /* \"#utility.yul\":18201:18219   */\n              add\n                /* \"#utility.yul\":18193:18199   */\n              dup6\n                /* \"#utility.yul\":18164:18220   */\n              tag_450\n              jump\t// in\n            tag_580:\n                /* \"#utility.yul\":18268:18277   */\n              dup3\n                /* \"#utility.yul\":18260:18266   */\n              dup2\n                /* \"#utility.yul\":18256:18278   */\n              sub\n                /* \"#utility.yul\":18251:18253   */\n              0x20\n                /* \"#utility.yul\":18240:18249   */\n              dup5\n                /* \"#utility.yul\":18236:18254   */\n              add\n                /* \"#utility.yul\":18229:18279   */\n              mstore\n                /* \"#utility.yul\":18296:18340   */\n              tag_581\n                /* \"#utility.yul\":18333:18339   */\n              dup2\n                /* \"#utility.yul\":18325:18331   */\n              dup6\n                /* \"#utility.yul\":18296:18340   */\n              tag_450\n              jump\t// in\n            tag_581:\n                /* \"#utility.yul\":18288:18340   */\n              swap6\n                /* \"#utility.yul\":17881:18346   */\n              swap5\n              pop\n              pop\n              pop\n              pop\n              pop\n              jump\t// out\n\n            auxdata: 0xa264697066735822122052a74e63487804ac2c1862ff28ed06afa4f9b7c86b5de6d4a1012c6a5b26fb5664736f6c63430008190033\n        }\n    }\n\n    auxdata: 0xa26469706673582212204669b2f7e98661830a93a9624f641c21a6cabd53936df2ff8df6d2a5fae0d6b864736f6c63430008190033\n}\n",
    "bytecode": {
      "linkReferences": {},
      "object": "6080604052348015600e575f80fd5b503380603357604051631e4fbdf760e01b81525f600482015260240160405180910390fd5b603a81603f565b50608e565b5f80546001600160a01b038381166001600160a01b0319831681178455604051919092169283917f8be0079c531659141344cd1fd0a4f28419497f9722a3daafe3b4186f6b6457e09190a35050565b612adf8061009b5f395ff3fe608060405234801561000f575f80fd5b506004361061009f575f3560e01c8063a5bfd16a11610072578063e1ec3c6811610058578063e1ec3c6814610122578063e3ed190214610135578063f2fde38b14610148575f80fd5b8063a5bfd16a14610107578063c828da9b1461010f575f80fd5b806352196812146100a3578063715018a6146100b957806386a2a438146100c35780638da5cb5b146100e3575b5f80fd5b6001546040519081526020015b60405180910390f35b6100c161015b565b005b6100d66100d1366004610484565b61016e565b6040516100b091906104a4565b5f546001600160a01b03165b6040516001600160a01b0390911681526020016100b0565b6100d66101e1565b6100ef61011d36600461058d565b610241565b6100ef610130366004610610565b610336565b6100ef610143366004610627565b61035e565b6100c1610156366004610484565b610392565b6101636103d4565b61016c5f610400565b565b6001600160a01b0381165f908152600260209081526040918290208054835181840281018401909452808452606093928301828280156101d557602002820191905f5260205f20905b81546001600160a01b031681526001909101906020018083116101b7575b50505050509050919050565b6060600180548060200260200160405190810160405280929190818152602001828054801561023757602002820191905f5260205f20905b81546001600160a01b03168152600190910190602001808311610219575b5050505050905090565b5f80878787878787336040516102569061045c565b610266979695949392919061067d565b604051809103905ff08015801561027f573d5f803e3d5ffd5b506001805480820182557fb10e2d527612073b26eecdfd717e6a320cf44b4afac2b0732d9fcbe2b7fa0cf60180546001600160a01b03841673ffffffffffffffffffffffffffffffffffffffff199182168117909255335f81815260026020908152604080832080549788018155835290822090950180549093168417909255925193945084937f89ccfc5e75642b3e017aea5b211bdfbb93e3a3d488f86df28801c48f3771a1d59190a398975050505050505050565b60018181548110610345575f80fd5b5f918252602090912001546001600160a01b0316905081565b6002602052815f5260405f208181548110610377575f80fd5b5f918252602090912001546001600160a01b03169150829050565b61039a6103d4565b6001600160a01b0381166103c857604051631e4fbdf760e01b81525f60048201526024015b60405180910390fd5b6103d181610400565b50565b5f546001600160a01b0316331461016c5760405163118cdaa760e01b81523360048201526024016103bf565b5f80546001600160a01b0383811673ffffffffffffffffffffffffffffffffffffffff19831681178455604051919092169283917f8be0079c531659141344cd1fd0a4f28419497f9722a3daafe3b4186f6b6457e09190a35050565b6123d2806106d883390190565b80356001600160a01b038116811461047f575f80fd5b919050565b5f60208284031215610494575f80fd5b61049d82610469565b9392505050565b602080825282518282018190525f9190848201906040850190845b818110156104e45783516001600160a01b0316835292840192918401916001016104bf565b50909695505050505050565b634e487b7160e01b5f52604160045260245ffd5b5f82601f830112610513575f80fd5b813567ffffffffffffffff8082111561052e5761052e6104f0565b604051601f8301601f19908116603f01168101908282118183101715610556576105566104f0565b8160405283815286602085880101111561056e575f80fd5b836020870160208301375f602085830101528094505050505092915050565b5f805f805f8060c087890312156105a2575f80fd5b86359550602087013594506040870135935060608701359250608087013567ffffffffffffffff808211156105d5575f80fd5b6105e18a838b01610504565b935060a08901359150808211156105f6575f80fd5b5061060389828a01610504565b9150509295509295509295565b5f60208284031215610620575f80fd5b5035919050565b5f8060408385031215610638575f80fd5b61064183610469565b946020939093013593505050565b5f81518084528060208401602086015e5f602082860101526020601f19601f83011685010191505092915050565b87815286602082015285604082015284606082015260e060808201525f6106a760e083018661064f565b82810360a08401526106b9818661064f565b9150506001600160a01b03831660c08301529897505050505050505056fe608060405234801561000f575f80fd5b506040516123d23803806123d283398101604081905261002e91610219565b60408051602081019091525f815281906100478161011c565b506001600160a01b03811661007557604051631e4fbdf760e01b81525f600482015260240160405180910390fd5b61007e8161012c565b5060048790556005869055600685905561009884426102bf565b60075560096100a78482610368565b50600a6100b48382610368565b50600b80546001600160a01b0319166001600160a01b0383161790556040517f2ba25040909320354099117cfe6b2b6237d005a8e33213718d3bc2784215898f906101089083908a908a908a908890610427565b60405180910390a150505050505050610480565b60026101288282610368565b5050565b600380546001600160a01b038381166001600160a01b0319831681179093556040519116919082907f8be0079c531659141344cd1fd0a4f28419497f9722a3daafe3b4186f6b6457e0905f90a35050565b634e487b7160e01b5f52604160045260245ffd5b5f82601f8301126101a0575f80fd5b81516001600160401b03808211156101ba576101ba61017d565b604051601f8301601f19908116603f011681019082821181831017156101e2576101e261017d565b816040528381528660208588010111156101fa575f80fd5b8360208701602083015e5f602085830101528094505050505092915050565b5f805f805f805f60e0888a03121561022f575f80fd5b8751602089015160408a015160608b015160808c0151939a50919850965094506001600160401b0380821115610263575f80fd5b61026f8b838c01610191565b945060a08a0151915080821115610284575f80fd5b506102918a828b01610191565b60c08a015190935090506001600160a01b03811681146102af575f80fd5b8091505092959891949750929550565b808201808211156102de57634e487b7160e01b5f52601160045260245ffd5b92915050565b600181811c908216806102f857607f821691505b60208210810361031657634e487b7160e01b5f52602260045260245ffd5b50919050565b601f82111561036357805f5260205f20601f840160051c810160208510156103415750805b601f840160051c820191505b81811015610360575f815560010161034d565b50505b505050565b81516001600160401b038111156103815761038161017d565b6103958161038f84546102e4565b8461031c565b602080601f8311600181146103c8575f84156103b15750858301515b5f19600386901b1c1916600185901b17855561041f565b5f85815260208120601f198616915b828110156103f6578886015182559484019460019091019084016103d7565b508582101561041357878501515f19600388901b60f8161c191681555b505060018460011b0185555b505050505050565b60018060a01b038616815284602082015283604082015282606082015260a060808201525f82518060a0840152806020850160c085015e5f60c0828501015260c0601f19601f8301168401019150509695505050505050565b611f458061048d5f395ff3fe6080604052600436106101ae575f3560e01c80637c3a00fd116100e7578063a3b9e39d11610087578063e985e9c511610062578063e985e9c51461046a578063f242432a146104b1578063f2fde38b146104d0578063f966ade7146104ef575f80fd5b8063a3b9e39d14610415578063ad044f4914610440578063b05f04d314610455575f80fd5b806389376e40116100c257806389376e40146103b05780638da5cb5b146103c45780639d585f7f146103e1578063a22cb465146103f6575f80fd5b80637c3a00fd146103515780637df1f1b914610366578063846b909a1461039d575f80fd5b80632cca0cde116101525780636164051a1161012d5780636164051a146102f6578063715018a6146103145780637284e41614610328578063796b23bb1461033c575f80fd5b80632cca0cde146102975780632eb2c2d6146102ab5780634e1273f4146102ca575f80fd5b80630fb5a6b41161018d5780630fb5a6b41461023f578063135d088d1461025457806322f3e2d41461026857806324600fc314610281575f80fd5b8062fdd58e146101b257806301ffc9a7146101e45780630e89341c14610213575b5f80fd5b3480156101bd575f80fd5b506101d16101cc36600461187f565b6104f7565b6040519081526020015b60405180910390f35b3480156101ef575f80fd5b506102036101fe3660046118bc565b61051e565b60405190151581526020016101db565b34801561021e575f80fd5b5061023261022d3660046118de565b61056d565b6040516101db9190611923565b34801561024a575f80fd5b506101d160065481565b34801561025f575f80fd5b50610232610654565b348015610273575f80fd5b50600d546102039060ff1681565b34801561028c575f80fd5b506102956106e0565b005b3480156102a2575f80fd5b506101d1600181565b3480156102b6575f80fd5b506102956102c5366004611a75565b61081b565b3480156102d5575f80fd5b506102e96102e4366004611b18565b6108a0565b6040516101db9190611c0c565b348015610301575f80fd5b50600d5461020390610100900460ff1681565b34801561031f575f80fd5b5061029561096b565b348015610333575f80fd5b5061023261097e565b348015610347575f80fd5b506101d160075481565b34801561035c575f80fd5b506101d160055481565b348015610371575f80fd5b50600b54610385906001600160a01b031681565b6040516001600160a01b0390911681526020016101db565b6102956103ab3660046118de565b61098b565b3480156103bb575f80fd5b50610295610b80565b3480156103cf575f80fd5b506003546001600160a01b0316610385565b3480156103ec575f80fd5b506101d160045481565b348015610401575f80fd5b50610295610410366004611c1e565b610cba565b348015610420575f80fd5b50610429610cc5565b6040516101db9b9a99989796959493929190611c57565b34801561044b575f80fd5b506101d1600c5481565b348015610460575f80fd5b506101d160085481565b348015610475575f80fd5b50610203610484366004611cd5565b6001600160a01b039182165f90815260016020908152604080832093909416825291909152205460ff1690565b3480156104bc575f80fd5b506102956104cb366004611d06565b610e52565b3480156104db575f80fd5b506102956104ea366004611d66565b610ecf565b610295610f0c565b5f818152602081815260408083206001600160a01b03861684529091529020545b92915050565b5f6001600160e01b03198216636cdb3d1360e11b148061054e57506001600160e01b031982166303a24d0760e21b145b8061051857506301ffc9a760e01b6001600160e01b0319831614610518565b6060600182146105c45760405162461bcd60e51b815260206004820152601760248201527f546f6b656e20494420646f6573206e6f7420657869737400000000000000000060448201526064015b60405180910390fd5b600a80546105d190611d7f565b80601f01602080910402602001604051908101604052809291908181526020018280546105fd90611d7f565b80156106485780601f1061061f57610100808354040283529160200191610648565b820191905f5260205f20905b81548152906001019060200180831161062b57829003601f168201915b50505050509050919050565b600a805461066190611d7f565b80601f016020809104026020016040519081016040528092919081815260200182805461068d90611d7f565b80156106d85780601f106106af576101008083540402835291602001916106d8565b820191905f5260205f20905b8154815290600101906020018083116106bb57829003601f168201915b505050505081565b60075442116107315760405162461bcd60e51b815260206004820152601c60248201527f46756e64696e6720706572696f6420686173206e6f7420656e6465640000000060448201526064016105bb565b600d5460ff16156107845760405162461bcd60e51b815260206004820152601660248201527f4c6f616e20697320616c7265616479206163746976650000000000000000000060448201526064016105bb565b5f6107903360016104f7565b90505f81116107e15760405162461bcd60e51b815260206004820152601460248201527f4e6f2066756e647320746f20776974686472617700000000000000000000000060448201526064016105bb565b6107ed3360018361107a565b604051339082156108fc029083905f818181858888f19350505050158015610817573d5f803e3d5ffd5b5050565b336001600160a01b038616811480159061085a57506001600160a01b038087165f9081526001602090815260408083209385168352929052205460ff16155b1561088b5760405163711bec9160e11b81526001600160a01b038083166004830152871660248201526044016105bb565b61089886868686866110e0565b505050505050565b606081518351146108d15781518351604051635b05999160e01b8152600481019290925260248201526044016105bb565b5f835167ffffffffffffffff8111156108ec576108ec611935565b604051908082528060200260200182016040528015610915578160200160208202803683370190505b5090505f5b84518110156109635760208082028601015161093e906020808402870101516104f7565b82828151811061095057610950611db7565b602090810291909101015260010161091a565b509392505050565b61097361113e565b61097c5f61116b565b565b6009805461066190611d7f565b60075442106109dc5760405162461bcd60e51b815260206004820152601860248201527f46756e64696e6720706572696f642068617320656e646564000000000000000060448201526064016105bb565b600d5460ff1615610a2f5760405162461bcd60e51b815260206004820152601660248201527f4c6f616e20697320616c7265616479206163746976650000000000000000000060448201526064016105bb565b60045481600c54610a409190611ddf565b1115610ab45760405162461bcd60e51b815260206004820152602760248201527f46756e64696e6720616d6f756e742065786365656473206c6f616e207265717560448201527f6972656d656e740000000000000000000000000000000000000000000000000060648201526084016105bb565b610acf3360018360405180602001604052805f8152506111d4565b80600c5f828254610ae09190611ddf565b9091555050600454600c5403610b4457600d805460ff19166001179055600654610b0a9042611ddf565b600855600c546040519081527fcb4c701313b0db2ed5902d923d21b853d01e3a14cb2af2dce00e309eaa0e134c9060200160405180910390a15b60408051338152602081018390527f726d5f1a838fe31748f737fa3ae5539ccff95952adfc593a1299532b643ff7a8910160405180910390a150565b600d54610100900460ff16610bd75760405162461bcd60e51b815260206004820152601660248201527f4c6f616e206973206e6f7420726570616964207965740000000000000000000060448201526064016105bb565b5f610be33360016104f7565b90505f8111610c345760405162461bcd60e51b815260206004820152601360248201527f4e6f2072657475726e7320746f20636c61696d0000000000000000000000000060448201526064016105bb565b5f612710600554600454610c489190611df2565b610c529190611e09565b90505f6004548284610c649190611df2565b610c6e9190611e09565b90505f610c7b8285611ddf565b9050610c893360018661107a565b604051339082156108fc029083905f818181858888f19350505050158015610cb3573d5f803e3d5ffd5b5050505050565b61081733838361122f565b5f805f805f6060805f805f806004546005546006546007546008546009600a600b5f9054906101000a90046001600160a01b0316600c54600d5f9054906101000a900460ff16600d60019054906101000a900460ff16858054610d2790611d7f565b80601f0160208091040260200160405190810160405280929190818152602001828054610d5390611d7f565b8015610d9e5780601f10610d7557610100808354040283529160200191610d9e565b820191905f5260205f20905b815481529060010190602001808311610d8157829003601f168201915b50505050509550848054610db190611d7f565b80601f0160208091040260200160405190810160405280929190818152602001828054610ddd90611d7f565b8015610e285780601f10610dff57610100808354040283529160200191610e28565b820191905f5260205f20905b815481529060010190602001808311610e0b57829003601f168201915b505050505094509a509a509a509a509a509a509a509a509a509a509a50909192939495969798999a565b336001600160a01b0386168114801590610e9157506001600160a01b038087165f9081526001602090815260408083209385168352929052205460ff16155b15610ec25760405163711bec9160e11b81526001600160a01b038083166004830152871660248201526044016105bb565b61089886868686866112c3565b610ed761113e565b6001600160a01b038116610f0057604051631e4fbdf760e01b81525f60048201526024016105bb565b610f098161116b565b50565b610f1461113e565b600d5460ff16610f665760405162461bcd60e51b815260206004820152601260248201527f4c6f616e206973206e6f7420616374697665000000000000000000000000000060448201526064016105bb565b600d54610100900460ff1615610fbe5760405162461bcd60e51b815260206004820152601660248201527f4c6f616e20697320616c7265616479207265706169640000000000000000000060448201526064016105bb565b5f612710600554600454610fd29190611df2565b610fdc9190611e09565b90505f81600454610fed9190611ddf565b90508034101561103f5760405162461bcd60e51b815260206004820152601d60248201527f496e73756666696369656e742072657061796d656e7420616d6f756e7400000060448201526064016105bb565b600d805461ff0019166101001790556040517f1062e18f9d21decf38f145fc9b437cd2c70e09252a729f9830b75ffdaaf37894905f90a15050565b6001600160a01b0383166110a257604051626a0d4560e21b81525f60048201526024016105bb565b604080516001808252602082018590528183019081526060820184905260a082019092525f60808201818152919291610cb39187918590859061134f565b6001600160a01b03841661110957604051632bfa23e760e11b81525f60048201526024016105bb565b6001600160a01b03851661113157604051626a0d4560e21b81525f60048201526024016105bb565b610cb3858585858561134f565b6003546001600160a01b0316331461097c5760405163118cdaa760e01b81523360048201526024016105bb565b600380546001600160a01b038381167fffffffffffffffffffffffff0000000000000000000000000000000000000000831681179093556040519116919082907f8be0079c531659141344cd1fd0a4f28419497f9722a3daafe3b4186f6b6457e0905f90a35050565b6001600160a01b0384166111fd57604051632bfa23e760e11b81525f60048201526024016105bb565b604080516001808252602082018690528183019081526060820185905260808201909252906108985f8784848761134f565b6001600160a01b0382166112575760405162ced3e160e81b81525f60048201526024016105bb565b6001600160a01b038381165f81815260016020908152604080832094871680845294825291829020805460ff191686151590811790915591519182527f17307eab39ab6107e8899845ad3d59bd9653f200f220920489ca2b5937696c31910160405180910390a3505050565b6001600160a01b0384166112ec57604051632bfa23e760e11b81525f60048201526024016105bb565b6001600160a01b03851661131457604051626a0d4560e21b81525f60048201526024016105bb565b60408051600180825260208201869052818301908152606082018590526080820190925290611346878784848761134f565b50505050505050565b61135b858585856113a2565b6001600160a01b03841615610cb35782513390600103611394576020848101519084015161138d83898985858961144d565b5050610898565b61089881878787878761156e565b6113ae84848484611655565b6001600160a01b03841615806113cb57506001600160a01b038316155b61144757600d5460ff166114475760405162461bcd60e51b815260206004820152603360248201527f546f6b656e7320617265206e6f74207472616e7366657261626c6520756e746960448201527f6c206c6f616e206973206163746976617465640000000000000000000000000060648201526084016105bb565b50505050565b6001600160a01b0384163b156108985760405163f23a6e6160e01b81526001600160a01b0385169063f23a6e61906114919089908990889088908890600401611e28565b6020604051808303815f875af19250505080156114cb575060408051601f3d908101601f191682019092526114c891810190611e6a565b60015b611532573d8080156114f8576040519150601f19603f3d011682016040523d82523d5f602084013e6114fd565b606091505b5080515f0361152a57604051632bfa23e760e11b81526001600160a01b03861660048201526024016105bb565b805181602001fd5b6001600160e01b0319811663f23a6e6160e01b1461134657604051632bfa23e760e11b81526001600160a01b03861660048201526024016105bb565b6001600160a01b0384163b156108985760405163bc197c8160e01b81526001600160a01b0385169063bc197c81906115b29089908990889088908890600401611e85565b6020604051808303815f875af19250505080156115ec575060408051601f3d908101601f191682019092526115e991810190611e6a565b60015b611619573d8080156114f8576040519150601f19603f3d011682016040523d82523d5f602084013e6114fd565b6001600160e01b0319811663bc197c8160e01b1461134657604051632bfa23e760e11b81526001600160a01b03861660048201526024016105bb565b80518251146116845781518151604051635b05999160e01b8152600481019290925260248201526044016105bb565b335f5b8351811015611786576020818102858101820151908501909101516001600160a01b03881615611738575f828152602081815260408083206001600160a01b038c16845290915290205481811015611712576040516303dee4c560e01b81526001600160a01b038a1660048201526024810182905260448101839052606481018490526084016105bb565b5f838152602081815260408083206001600160a01b038d16845290915290209082900390555b6001600160a01b0387161561177c575f828152602081815260408083206001600160a01b038b16845290915281208054839290611776908490611ddf565b90915550505b5050600101611687565b5082516001036118065760208301515f906020840151909150856001600160a01b0316876001600160a01b0316846001600160a01b03167fc3d58168c5ae7397731d063d5bbf3d657854427343f4c083240f7aacaa2d0f6285856040516117f7929190918252602082015260400190565b60405180910390a45050610cb3565b836001600160a01b0316856001600160a01b0316826001600160a01b03167f4a39dc06d4c0dbc64b70af90fd698a233a518aa5d07e595d983b8c0526c8f7fb8686604051611855929190611ee2565b60405180910390a45050505050565b80356001600160a01b038116811461187a575f80fd5b919050565b5f8060408385031215611890575f80fd5b61189983611864565b946020939093013593505050565b6001600160e01b031981168114610f09575f80fd5b5f602082840312156118cc575f80fd5b81356118d7816118a7565b9392505050565b5f602082840312156118ee575f80fd5b5035919050565b5f81518084528060208401602086015e5f602082860101526020601f19601f83011685010191505092915050565b602081525f6118d760208301846118f5565b634e487b7160e01b5f52604160045260245ffd5b604051601f8201601f1916810167ffffffffffffffff8111828210171561197257611972611935565b604052919050565b5f67ffffffffffffffff82111561199357611993611935565b5060051b60200190565b5f82601f8301126119ac575f80fd5b813560206119c16119bc8361197a565b611949565b8083825260208201915060208460051b8701019350868411156119e2575f80fd5b602086015b848110156119fe57803583529183019183016119e7565b509695505050505050565b5f82601f830112611a18575f80fd5b813567ffffffffffffffff811115611a3257611a32611935565b611a45601f8201601f1916602001611949565b818152846020838601011115611a59575f80fd5b816020850160208301375f918101602001919091529392505050565b5f805f805f60a08688031215611a89575f80fd5b611a9286611864565b9450611aa060208701611864565b9350604086013567ffffffffffffffff80821115611abc575f80fd5b611ac889838a0161199d565b94506060880135915080821115611add575f80fd5b611ae989838a0161199d565b93506080880135915080821115611afe575f80fd5b50611b0b88828901611a09565b9150509295509295909350565b5f8060408385031215611b29575f80fd5b823567ffffffffffffffff80821115611b40575f80fd5b818501915085601f830112611b53575f80fd5b81356020611b636119bc8361197a565b82815260059290921b84018101918181019089841115611b81575f80fd5b948201945b83861015611ba657611b9786611864565b82529482019490820190611b86565b96505086013592505080821115611bbb575f80fd5b50611bc88582860161199d565b9150509250929050565b5f815180845260208085019450602084015f5b83811015611c0157815187529582019590820190600101611be5565b509495945050505050565b602081525f6118d76020830184611bd2565b5f8060408385031215611c2f575f80fd5b611c3883611864565b915060208301358015158114611c4c575f80fd5b809150509250929050565b5f6101608d83528c60208401528b60408401528a60608401528960808401528060a0840152611c888184018a6118f5565b905082810360c0840152611c9c81896118f5565b6001600160a01b039790971660e08401525050610100810193909352901515610120830152151561014090910152979650505050505050565b5f8060408385031215611ce6575f80fd5b611cef83611864565b9150611cfd60208401611864565b90509250929050565b5f805f805f60a08688031215611d1a575f80fd5b611d2386611864565b9450611d3160208701611864565b93506040860135925060608601359150608086013567ffffffffffffffff811115611d5a575f80fd5b611b0b88828901611a09565b5f60208284031215611d76575f80fd5b6118d782611864565b600181811c90821680611d9357607f821691505b602082108103611db157634e487b7160e01b5f52602260045260245ffd5b50919050565b634e487b7160e01b5f52603260045260245ffd5b634e487b7160e01b5f52601160045260245ffd5b8082018082111561051857610518611dcb565b808202811582820484141761051857610518611dcb565b5f82611e2357634e487b7160e01b5f52601260045260245ffd5b500490565b5f6001600160a01b03808816835280871660208401525084604083015283606083015260a06080830152611e5f60a08301846118f5565b979650505050505050565b5f60208284031215611e7a575f80fd5b81516118d7816118a7565b5f6001600160a01b03808816835280871660208401525060a06040830152611eb060a0830186611bd2565b8281036060840152611ec28186611bd2565b90508281036080840152611ed681856118f5565b98975050505050505050565b604081525f611ef46040830185611bd2565b8281036020840152611f068185611bd2565b9594505050505056fea264697066735822122052a74e63487804ac2c1862ff28ed06afa4f9b7c86b5de6d4a1012c6a5b26fb5664736f6c63430008190033a26469706673582212204669b2f7e98661830a93a9624f641c21a6cabd53936df2ff8df6d2a5fae0d6b864736f6c63430008190033",
      "opcodes": "PUSH1 0x80 PUSH1 0x40 MSTORE CALLVALUE DUP1 ISZERO PUSH1 0xE JUMPI PUSH0 DUP1 REVERT JUMPDEST POP CALLER DUP1 PUSH1 0x33 JUMPI PUSH1 0x40 MLOAD PUSH4 0x1E4FBDF7 PUSH1 0xE0 SHL DUP2 MSTORE PUSH0 PUSH1 0x4 DUP3 ADD MSTORE PUSH1 0x24 ADD PUSH1 0x40 MLOAD DUP1 SWAP2 SUB SWAP1 REVERT JUMPDEST PUSH1 0x3A DUP2 PUSH1 0x3F JUMP JUMPDEST POP PUSH1 0x8E JUMP JUMPDEST PUSH0 DUP1 SLOAD PUSH1 0x1 PUSH1 0x1 PUSH1 0xA0 SHL SUB DUP4 DUP2 AND PUSH1 0x1 PUSH1 0x1 PUSH1 0xA0 SHL SUB NOT DUP4 AND DUP2 OR DUP5 SSTORE PUSH1 0x40 MLOAD SWAP2 SWAP1 SWAP3 AND SWAP3 DUP4 SWAP2 PUSH32 0x8BE0079C531659141344CD1FD0A4F28419497F9722A3DAAFE3B4186F6B6457E0 SWAP2 SWAP1 LOG3 POP POP JUMP JUMPDEST PUSH2 0x2ADF DUP1 PUSH2 0x9B PUSH0 CODECOPY PUSH0 RETURN INVALID PUSH1 0x80 PUSH1 0x40 MSTORE CALLVALUE DUP1 ISZERO PUSH2 0xF JUMPI PUSH0 DUP1 REVERT JUMPDEST POP PUSH1 0x4 CALLDATASIZE LT PUSH2 0x9F JUMPI PUSH0 CALLDATALOAD PUSH1 0xE0 SHR DUP1 PUSH4 0xA5BFD16A GT PUSH2 0x72 JUMPI DUP1 PUSH4 0xE1EC3C68 GT PUSH2 0x58 JUMPI DUP1 PUSH4 0xE1EC3C68 EQ PUSH2 0x122 JUMPI DUP1 PUSH4 0xE3ED1902 EQ PUSH2 0x135 JUMPI DUP1 PUSH4 0xF2FDE38B EQ PUSH2 0x148 JUMPI PUSH0 DUP1 REVERT JUMPDEST DUP1 PUSH4 0xA5BFD16A EQ PUSH2 0x107 JUMPI DUP1 PUSH4 0xC828DA9B EQ PUSH2 0x10F JUMPI PUSH0 DUP1 REVERT JUMPDEST DUP1 PUSH4 0x52196812 EQ PUSH2 0xA3 JUMPI DUP1 PUSH4 0x715018A6 EQ PUSH2 0xB9 JUMPI DUP1 PUSH4 0x86A2A438 EQ PUSH2 0xC3 JUMPI DUP1 PUSH4 0x8DA5CB5B EQ PUSH2 0xE3 JUMPI JUMPDEST PUSH0 DUP1 REVERT JUMPDEST PUSH1 0x1 SLOAD PUSH1 0x40 MLOAD SWAP1 DUP2 MSTORE PUSH1 0x20 ADD JUMPDEST PUSH1 0x40 MLOAD DUP1 SWAP2 SUB SWAP1 RETURN JUMPDEST PUSH2 0xC1 PUSH2 0x15B JUMP JUMPDEST STOP JUMPDEST PUSH2 0xD6 PUSH2 0xD1 CALLDATASIZE PUSH1 0x4 PUSH2 0x484 JUMP JUMPDEST PUSH2 0x16E JUMP JUMPDEST PUSH1 0x40 MLOAD PUSH2 0xB0 SWAP2 SWAP1 PUSH2 0x4A4 JUMP JUMPDEST PUSH0 SLOAD PUSH1 0x1 PUSH1 0x1 PUSH1 0xA0 SHL SUB AND JUMPDEST PUSH1 0x40 MLOAD PUSH1 0x1 PUSH1 0x1 PUSH1 0xA0 SHL SUB SWAP1 SWAP2 AND DUP2 MSTORE PUSH1 0x20 ADD PUSH2 0xB0 JUMP JUMPDEST PUSH2 0xD6 PUSH2 0x1E1 JUMP JUMPDEST PUSH2 0xEF PUSH2 0x11D CALLDATASIZE PUSH1 0x4 PUSH2 0x58D JUMP JUMPDEST PUSH2 0x241 JUMP JUMPDEST PUSH2 0xEF PUSH2 0x130 CALLDATASIZE PUSH1 0x4 PUSH2 0x610 JUMP JUMPDEST PUSH2 0x336 JUMP JUMPDEST PUSH2 0xEF PUSH2 0x143 CALLDATASIZE PUSH1 0x4 PUSH2 0x627 JUMP JUMPDEST PUSH2 0x35E JUMP JUMPDEST PUSH2 0xC1 PUSH2 0x156 CALLDATASIZE PUSH1 0x4 PUSH2 0x484 JUMP JUMPDEST PUSH2 0x392 JUMP JUMPDEST PUSH2 0x163 PUSH2 0x3D4 JUMP JUMPDEST PUSH2 0x16C PUSH0 PUSH2 0x400 JUMP JUMPDEST JUMP JUMPDEST PUSH1 0x1 PUSH1 0x1 PUSH1 0xA0 SHL SUB DUP2 AND PUSH0 SWAP1 DUP2 MSTORE PUSH1 0x2 PUSH1 0x20 SWAP1 DUP2 MSTORE PUSH1 0x40 SWAP2 DUP3 SWAP1 KECCAK256 DUP1 SLOAD DUP4 MLOAD DUP2 DUP5 MUL DUP2 ADD DUP5 ADD SWAP1 SWAP5 MSTORE DUP1 DUP5 MSTORE PUSH1 0x60 SWAP4 SWAP3 DUP4 ADD DUP3 DUP3 DUP1 ISZERO PUSH2 0x1D5 JUMPI PUSH1 0x20 MUL DUP3 ADD SWAP2 SWAP1 PUSH0 MSTORE PUSH1 0x20 PUSH0 KECCAK256 SWAP1 JUMPDEST DUP2 SLOAD PUSH1 0x1 PUSH1 0x1 PUSH1 0xA0 SHL SUB AND DUP2 MSTORE PUSH1 0x1 SWAP1 SWAP2 ADD SWAP1 PUSH1 0x20 ADD DUP1 DUP4 GT PUSH2 0x1B7 JUMPI JUMPDEST POP POP POP POP POP SWAP1 POP SWAP2 SWAP1 POP JUMP JUMPDEST PUSH1 0x60 PUSH1 0x1 DUP1 SLOAD DUP1 PUSH1 0x20 MUL PUSH1 0x20 ADD PUSH1 0x40 MLOAD SWAP1 DUP2 ADD PUSH1 0x40 MSTORE DUP1 SWAP3 SWAP2 SWAP1 DUP2 DUP2 MSTORE PUSH1 0x20 ADD DUP3 DUP1 SLOAD DUP1 ISZERO PUSH2 0x237 JUMPI PUSH1 0x20 MUL DUP3 ADD SWAP2 SWAP1 PUSH0 MSTORE PUSH1 0x20 PUSH0 KECCAK256 SWAP1 JUMPDEST DUP2 SLOAD PUSH1 0x1 PUSH1 0x1 PUSH1 0xA0 SHL SUB AND DUP2 MSTORE PUSH1 0x1 SWAP1 SWAP2 ADD SWAP1 PUSH1 0x20 ADD DUP1 DUP4 GT PUSH2 0x219 JUMPI JUMPDEST POP POP POP POP POP SWAP1 POP SWAP1 JUMP JUMPDEST PUSH0 DUP1 DUP8 DUP8 DUP8 DUP8 DUP8 DUP8 CALLER PUSH1 0x40 MLOAD PUSH2 0x256 SWAP1 PUSH2 0x45C JUMP JUMPDEST PUSH2 0x266 SWAP8 SWAP7 SWAP6 SWAP5 SWAP4 SWAP3 SWAP2 SWAP1 PUSH2 0x67D JUMP JUMPDEST PUSH1 0x40 MLOAD DUP1 SWAP2 SUB SWAP1 PUSH0 CREATE DUP1 ISZERO DUP1 ISZERO PUSH2 0x27F JUMPI RETURNDATASIZE PUSH0 DUP1 RETURNDATACOPY RETURNDATASIZE PUSH0 REVERT JUMPDEST POP PUSH1 0x1 DUP1 SLOAD DUP1 DUP3 ADD DUP3 SSTORE PUSH32 0xB10E2D527612073B26EECDFD717E6A320CF44B4AFAC2B0732D9FCBE2B7FA0CF6 ADD DUP1 SLOAD PUSH1 0x1 PUSH1 0x1 PUSH1 0xA0 SHL SUB DUP5 AND PUSH20 0xFFFFFFFFFFFFFFFFFFFFFFFFFFFFFFFFFFFFFFFF NOT SWAP2 DUP3 AND DUP2 OR SWAP1 SWAP3 SSTORE CALLER PUSH0 DUP2 DUP2 MSTORE PUSH1 0x2 PUSH1 0x20 SWAP1 DUP2 MSTORE PUSH1 0x40 DUP1 DUP4 KECCAK256 DUP1 SLOAD SWAP8 DUP9 ADD DUP2 SSTORE DUP4 MSTORE SWAP1 DUP3 KECCAK256 SWAP1 SWAP6 ADD DUP1 SLOAD SWAP1 SWAP4 AND DUP5 OR SWAP1 SWAP3 SSTORE SWAP3 MLOAD SWAP4 SWAP5 POP DUP5 SWAP4 PUSH32 0x89CCFC5E75642B3E017AEA5B211BDFBB93E3A3D488F86DF28801C48F3771A1D5 SWAP2 SWAP1 LOG3 SWAP9 SWAP8 POP POP POP POP POP POP POP POP JUMP JUMPDEST PUSH1 0x1 DUP2 DUP2 SLOAD DUP2 LT PUSH2 0x345 JUMPI PUSH0 DUP1 REVERT JUMPDEST PUSH0 SWAP2 DUP3 MSTORE PUSH1 0x20 SWAP1 SWAP2 KECCAK256 ADD SLOAD PUSH1 0x1 PUSH1 0x1 PUSH1 0xA0 SHL SUB AND SWAP1 POP DUP2 JUMP JUMPDEST PUSH1 0x2 PUSH1 0x20 MSTORE DUP2 PUSH0 MSTORE PUSH1 0x40 PUSH0 KECCAK256 DUP2 DUP2 SLOAD DUP2 LT PUSH2 0x377 JUMPI PUSH0 DUP1 REVERT JUMPDEST PUSH0 SWAP2 DUP3 MSTORE PUSH1 0x20 SWAP1 SWAP2 KECCAK256 ADD SLOAD PUSH1 0x1 PUSH1 0x1 PUSH1 0xA0 SHL SUB AND SWAP2 POP DUP3 SWAP1 POP JUMP JUMPDEST PUSH2 0x39A PUSH2 0x3D4 JUMP JUMPDEST PUSH1 0x1 PUSH1 0x1 PUSH1 0xA0 SHL SUB DUP2 AND PUSH2 0x3C8 JUMPI PUSH1 0x40 MLOAD PUSH4 0x1E4FBDF7 PUSH1 0xE0 SHL DUP2 MSTORE PUSH0 PUSH1 0x4 DUP3 ADD MSTORE PUSH1 0x24 ADD JUMPDEST PUSH1 0x40 MLOAD DUP1 SWAP2 SUB SWAP1 REVERT JUMPDEST PUSH2 0x3D1 DUP2 PUSH2 0x400 JUMP JUMPDEST POP JUMP JUMPDEST PUSH0 SLOAD PUSH1 0x1 PUSH1 0x1 PUSH1 0xA0 SHL SUB AND CALLER EQ PUSH2 0x16C JUMPI PUSH1 0x40 MLOAD PUSH4 0x118CDAA7 PUSH1 0xE0 SHL DUP2 MSTORE CALLER PUSH1 0x4 DUP3 ADD MSTORE PUSH1 0x24 ADD PUSH2 0x3BF JUMP JUMPDEST PUSH0 DUP1 SLOAD PUSH1 0x1 PUSH1 0x1 PUSH1 0xA0 SHL SUB DUP4 DUP2 AND PUSH20 0xFFFFFFFFFFFFFFFFFFFFFFFFFFFFFFFFFFFFFFFF NOT DUP4 AND DUP2 OR DUP5 SSTORE PUSH1 0x40 MLOAD SWAP2 SWAP1 SWAP3 AND SWAP3 DUP4 SWAP2 PUSH32 0x8BE0079C531659141344CD1FD0A4F28419497F9722A3DAAFE3B4186F6B6457E0 SWAP2 SWAP1 LOG3 POP POP JUMP JUMPDEST PUSH2 0x23D2 DUP1 PUSH2 0x6D8 DUP4 CODECOPY ADD SWAP1 JUMP JUMPDEST DUP1 CALLDATALOAD PUSH1 0x1 PUSH1 0x1 PUSH1 0xA0 SHL SUB DUP2 AND DUP2 EQ PUSH2 0x47F JUMPI PUSH0 DUP1 REVERT JUMPDEST SWAP2 SWAP1 POP JUMP JUMPDEST PUSH0 PUSH1 0x20 DUP3 DUP5 SUB SLT ISZERO PUSH2 0x494 JUMPI PUSH0 DUP1 REVERT JUMPDEST PUSH2 0x49D DUP3 PUSH2 0x469 JUMP JUMPDEST SWAP4 SWAP3 POP POP POP JUMP JUMPDEST PUSH1 0x20 DUP1 DUP3 MSTORE DUP3 MLOAD DUP3 DUP3 ADD DUP2 SWAP1 MSTORE PUSH0 SWAP2 SWAP1 DUP5 DUP3 ADD SWAP1 PUSH1 0x40 DUP6 ADD SWAP1 DUP5 JUMPDEST DUP2 DUP2 LT ISZERO PUSH2 0x4E4 JUMPI DUP4 MLOAD PUSH1 0x1 PUSH1 0x1 PUSH1 0xA0 SHL SUB AND DUP4 MSTORE SWAP3 DUP5 ADD SWAP3 SWAP2 DUP5 ADD SWAP2 PUSH1 0x1 ADD PUSH2 0x4BF JUMP JUMPDEST POP SWAP1 SWAP7 SWAP6 POP POP POP POP POP POP JUMP JUMPDEST PUSH4 0x4E487B71 PUSH1 0xE0 SHL PUSH0 MSTORE PUSH1 0x41 PUSH1 0x4 MSTORE PUSH1 0x24 PUSH0 REVERT JUMPDEST PUSH0 DUP3 PUSH1 0x1F DUP4 ADD SLT PUSH2 0x513 JUMPI PUSH0 DUP1 REVERT JUMPDEST DUP2 CALLDATALOAD PUSH8 0xFFFFFFFFFFFFFFFF DUP1 DUP3 GT ISZERO PUSH2 0x52E JUMPI PUSH2 0x52E PUSH2 0x4F0 JUMP JUMPDEST PUSH1 0x40 MLOAD PUSH1 0x1F DUP4 ADD PUSH1 0x1F NOT SWAP1 DUP2 AND PUSH1 0x3F ADD AND DUP2 ADD SWAP1 DUP3 DUP3 GT DUP2 DUP4 LT OR ISZERO PUSH2 0x556 JUMPI PUSH2 0x556 PUSH2 0x4F0 JUMP JUMPDEST DUP2 PUSH1 0x40 MSTORE DUP4 DUP2 MSTORE DUP7 PUSH1 0x20 DUP6 DUP9 ADD ADD GT ISZERO PUSH2 0x56E JUMPI PUSH0 DUP1 REVERT JUMPDEST DUP4 PUSH1 0x20 DUP8 ADD PUSH1 0x20 DUP4 ADD CALLDATACOPY PUSH0 PUSH1 0x20 DUP6 DUP4 ADD ADD MSTORE DUP1 SWAP5 POP POP POP POP POP SWAP3 SWAP2 POP POP JUMP JUMPDEST PUSH0 DUP1 PUSH0 DUP1 PUSH0 DUP1 PUSH1 0xC0 DUP8 DUP10 SUB SLT ISZERO PUSH2 0x5A2 JUMPI PUSH0 DUP1 REVERT JUMPDEST DUP7 CALLDATALOAD SWAP6 POP PUSH1 0x20 DUP8 ADD CALLDATALOAD SWAP5 POP PUSH1 0x40 DUP8 ADD CALLDATALOAD SWAP4 POP PUSH1 0x60 DUP8 ADD CALLDATALOAD SWAP3 POP PUSH1 0x80 DUP8 ADD CALLDATALOAD PUSH8 0xFFFFFFFFFFFFFFFF DUP1 DUP3 GT ISZERO PUSH2 0x5D5 JUMPI PUSH0 DUP1 REVERT JUMPDEST PUSH2 0x5E1 DUP11 DUP4 DUP12 ADD PUSH2 0x504 JUMP JUMPDEST SWAP4 POP PUSH1 0xA0 DUP10 ADD CALLDATALOAD SWAP2 POP DUP1 DUP3 GT ISZERO PUSH2 0x5F6 JUMPI PUSH0 DUP1 REVERT JUMPDEST POP PUSH2 0x603 DUP10 DUP3 DUP11 ADD PUSH2 0x504 JUMP JUMPDEST SWAP2 POP POP SWAP3 SWAP6 POP SWAP3 SWAP6 POP SWAP3 SWAP6 JUMP JUMPDEST PUSH0 PUSH1 0x20 DUP3 DUP5 SUB SLT ISZERO PUSH2 0x620 JUMPI PUSH0 DUP1 REVERT JUMPDEST POP CALLDATALOAD SWAP2 SWAP1 POP JUMP JUMPDEST PUSH0 DUP1 PUSH1 0x40 DUP4 DUP6 SUB SLT ISZERO PUSH2 0x638 JUMPI PUSH0 DUP1 REVERT JUMPDEST PUSH2 0x641 DUP4 PUSH2 0x469 JUMP JUMPDEST SWAP5 PUSH1 0x20 SWAP4 SWAP1 SWAP4 ADD CALLDATALOAD SWAP4 POP POP POP JUMP JUMPDEST PUSH0 DUP2 MLOAD DUP1 DUP5 MSTORE DUP1 PUSH1 0x20 DUP5 ADD PUSH1 0x20 DUP7 ADD MCOPY PUSH0 PUSH1 0x20 DUP3 DUP7 ADD ADD MSTORE PUSH1 0x20 PUSH1 0x1F NOT PUSH1 0x1F DUP4 ADD AND DUP6 ADD ADD SWAP2 POP POP SWAP3 SWAP2 POP POP JUMP JUMPDEST DUP8 DUP2 MSTORE DUP7 PUSH1 0x20 DUP3 ADD MSTORE DUP6 PUSH1 0x40 DUP3 ADD MSTORE DUP5 PUSH1 0x60 DUP3 ADD MSTORE PUSH1 0xE0 PUSH1 0x80 DUP3 ADD MSTORE PUSH0 PUSH2 0x6A7 PUSH1 0xE0 DUP4 ADD DUP7 PUSH2 0x64F JUMP JUMPDEST DUP3 DUP2 SUB PUSH1 0xA0 DUP5 ADD MSTORE PUSH2 0x6B9 DUP2 DUP7 PUSH2 0x64F JUMP JUMPDEST SWAP2 POP POP PUSH1 0x1 PUSH1 0x1 PUSH1 0xA0 SHL SUB DUP4 AND PUSH1 0xC0 DUP4 ADD MSTORE SWAP9 SWAP8 POP POP POP POP POP POP POP POP JUMP INVALID PUSH1 0x80 PUSH1 0x40 MSTORE CALLVALUE DUP1 ISZERO PUSH2 0xF JUMPI PUSH0 DUP1 REVERT JUMPDEST POP PUSH1 0x40 MLOAD PUSH2 0x23D2 CODESIZE SUB DUP1 PUSH2 0x23D2 DUP4 CODECOPY DUP2 ADD PUSH1 0x40 DUP2 SWAP1 MSTORE PUSH2 0x2E SWAP2 PUSH2 0x219 JUMP JUMPDEST PUSH1 0x40 DUP1 MLOAD PUSH1 0x20 DUP2 ADD SWAP1 SWAP2 MSTORE PUSH0 DUP2 MSTORE DUP2 SWAP1 PUSH2 0x47 DUP2 PUSH2 0x11C JUMP JUMPDEST POP PUSH1 0x1 PUSH1 0x1 PUSH1 0xA0 SHL SUB DUP2 AND PUSH2 0x75 JUMPI PUSH1 0x40 MLOAD PUSH4 0x1E4FBDF7 PUSH1 0xE0 SHL DUP2 MSTORE PUSH0 PUSH1 0x4 DUP3 ADD MSTORE PUSH1 0x24 ADD PUSH1 0x40 MLOAD DUP1 SWAP2 SUB SWAP1 REVERT JUMPDEST PUSH2 0x7E DUP2 PUSH2 0x12C JUMP JUMPDEST POP PUSH1 0x4 DUP8 SWAP1 SSTORE PUSH1 0x5 DUP7 SWAP1 SSTORE PUSH1 0x6 DUP6 SWAP1 SSTORE PUSH2 0x98 DUP5 TIMESTAMP PUSH2 0x2BF JUMP JUMPDEST PUSH1 0x7 SSTORE PUSH1 0x9 PUSH2 0xA7 DUP5 DUP3 PUSH2 0x368 JUMP JUMPDEST POP PUSH1 0xA PUSH2 0xB4 DUP4 DUP3 PUSH2 0x368 JUMP JUMPDEST POP PUSH1 0xB DUP1 SLOAD PUSH1 0x1 PUSH1 0x1 PUSH1 0xA0 SHL SUB NOT AND PUSH1 0x1 PUSH1 0x1 PUSH1 0xA0 SHL SUB DUP4 AND OR SWAP1 SSTORE PUSH1 0x40 MLOAD PUSH32 0x2BA25040909320354099117CFE6B2B6237D005A8E33213718D3BC2784215898F SWAP1 PUSH2 0x108 SWAP1 DUP4 SWAP1 DUP11 SWAP1 DUP11 SWAP1 DUP11 SWAP1 DUP9 SWAP1 PUSH2 0x427 JUMP JUMPDEST PUSH1 0x40 MLOAD DUP1 SWAP2 SUB SWAP1 LOG1 POP POP POP POP POP POP POP PUSH2 0x480 JUMP JUMPDEST PUSH1 0x2 PUSH2 0x128 DUP3 DUP3 PUSH2 0x368 JUMP JUMPDEST POP POP JUMP JUMPDEST PUSH1 0x3 DUP1 SLOAD PUSH1 0x1 PUSH1 0x1 PUSH1 0xA0 SHL SUB DUP4 DUP2 AND PUSH1 0x1 PUSH1 0x1 PUSH1 0xA0 SHL SUB NOT DUP4 AND DUP2 OR SWAP1 SWAP4 SSTORE PUSH1 0x40 MLOAD SWAP2 AND SWAP2 SWAP1 DUP3 SWAP1 PUSH32 0x8BE0079C531659141344CD1FD0A4F28419497F9722A3DAAFE3B4186F6B6457E0 SWAP1 PUSH0 SWAP1 LOG3 POP POP JUMP JUMPDEST PUSH4 0x4E487B71 PUSH1 0xE0 SHL PUSH0 MSTORE PUSH1 0x41 PUSH1 0x4 MSTORE PUSH1 0x24 PUSH0 REVERT JUMPDEST PUSH0 DUP3 PUSH1 0x1F DUP4 ADD SLT PUSH2 0x1A0 JUMPI PUSH0 DUP1 REVERT JUMPDEST DUP2 MLOAD PUSH1 0x1 PUSH1 0x1 PUSH1 0x40 SHL SUB DUP1 DUP3 GT ISZERO PUSH2 0x1BA JUMPI PUSH2 0x1BA PUSH2 0x17D JUMP JUMPDEST PUSH1 0x40 MLOAD PUSH1 0x1F DUP4 ADD PUSH1 0x1F NOT SWAP1 DUP2 AND PUSH1 0x3F ADD AND DUP2 ADD SWAP1 DUP3 DUP3 GT DUP2 DUP4 LT OR ISZERO PUSH2 0x1E2 JUMPI PUSH2 0x1E2 PUSH2 0x17D JUMP JUMPDEST DUP2 PUSH1 0x40 MSTORE DUP4 DUP2 MSTORE DUP7 PUSH1 0x20 DUP6 DUP9 ADD ADD GT ISZERO PUSH2 0x1FA JUMPI PUSH0 DUP1 REVERT JUMPDEST DUP4 PUSH1 0x20 DUP8 ADD PUSH1 0x20 DUP4 ADD MCOPY PUSH0 PUSH1 0x20 DUP6 DUP4 ADD ADD MSTORE DUP1 SWAP5 POP POP POP POP POP SWAP3 SWAP2 POP POP JUMP JUMPDEST PUSH0 DUP1 PUSH0 DUP1 PUSH0 DUP1 PUSH0 PUSH1 0xE0 DUP9 DUP11 SUB SLT ISZERO PUSH2 0x22F JUMPI PUSH0 DUP1 REVERT JUMPDEST DUP8 MLOAD PUSH1 0x20 DUP10 ADD MLOAD PUSH1 0x40 DUP11 ADD MLOAD PUSH1 0x60 DUP12 ADD MLOAD PUSH1 0x80 DUP13 ADD MLOAD SWAP4 SWAP11 POP SWAP2 SWAP9 POP SWAP7 POP SWAP5 POP PUSH1 0x1 PUSH1 0x1 PUSH1 0x40 SHL SUB DUP1 DUP3 GT ISZERO PUSH2 0x263 JUMPI PUSH0 DUP1 REVERT JUMPDEST PUSH2 0x26F DUP12 DUP4 DUP13 ADD PUSH2 0x191 JUMP JUMPDEST SWAP5 POP PUSH1 0xA0 DUP11 ADD MLOAD SWAP2 POP DUP1 DUP3 GT ISZERO PUSH2 0x284 JUMPI PUSH0 DUP1 REVERT JUMPDEST POP PUSH2 0x291 DUP11 DUP3 DUP12 ADD PUSH2 0x191 JUMP JUMPDEST PUSH1 0xC0 DUP11 ADD MLOAD SWAP1 SWAP4 POP SWAP1 POP PUSH1 0x1 PUSH1 0x1 PUSH1 0xA0 SHL SUB DUP2 AND DUP2 EQ PUSH2 0x2AF JUMPI PUSH0 DUP1 REVERT JUMPDEST DUP1 SWAP2 POP POP SWAP3 SWAP6 SWAP9 SWAP2 SWAP5 SWAP8 POP SWAP3 SWAP6 POP JUMP JUMPDEST DUP1 DUP3 ADD DUP1 DUP3 GT ISZERO PUSH2 0x2DE JUMPI PUSH4 0x4E487B71 PUSH1 0xE0 SHL PUSH0 MSTORE PUSH1 0x11 PUSH1 0x4 MSTORE PUSH1 0x24 PUSH0 REVERT JUMPDEST SWAP3 SWAP2 POP POP JUMP JUMPDEST PUSH1 0x1 DUP2 DUP2 SHR SWAP1 DUP3 AND DUP1 PUSH2 0x2F8 JUMPI PUSH1 0x7F DUP3 AND SWAP2 POP JUMPDEST PUSH1 0x20 DUP3 LT DUP2 SUB PUSH2 0x316 JUMPI PUSH4 0x4E487B71 PUSH1 0xE0 SHL PUSH0 MSTORE PUSH1 0x22 PUSH1 0x4 MSTORE PUSH1 0x24 PUSH0 REVERT JUMPDEST POP SWAP2 SWAP1 POP JUMP JUMPDEST PUSH1 0x1F DUP3 GT ISZERO PUSH2 0x363 JUMPI DUP1 PUSH0 MSTORE PUSH1 0x20 PUSH0 KECCAK256 PUSH1 0x1F DUP5 ADD PUSH1 0x5 SHR DUP2 ADD PUSH1 0x20 DUP6 LT ISZERO PUSH2 0x341 JUMPI POP DUP1 JUMPDEST PUSH1 0x1F DUP5 ADD PUSH1 0x5 SHR DUP3 ADD SWAP2 POP JUMPDEST DUP2 DUP2 LT ISZERO PUSH2 0x360 JUMPI PUSH0 DUP2 SSTORE PUSH1 0x1 ADD PUSH2 0x34D JUMP JUMPDEST POP POP JUMPDEST POP POP POP JUMP JUMPDEST DUP2 MLOAD PUSH1 0x1 PUSH1 0x1 PUSH1 0x40 SHL SUB DUP2 GT ISZERO PUSH2 0x381 JUMPI PUSH2 0x381 PUSH2 0x17D JUMP JUMPDEST PUSH2 0x395 DUP2 PUSH2 0x38F DUP5 SLOAD PUSH2 0x2E4 JUMP JUMPDEST DUP5 PUSH2 0x31C JUMP JUMPDEST PUSH1 0x20 DUP1 PUSH1 0x1F DUP4 GT PUSH1 0x1 DUP2 EQ PUSH2 0x3C8 JUMPI PUSH0 DUP5 ISZERO PUSH2 0x3B1 JUMPI POP DUP6 DUP4 ADD MLOAD JUMPDEST PUSH0 NOT PUSH1 0x3 DUP7 SWAP1 SHL SHR NOT AND PUSH1 0x1 DUP6 SWAP1 SHL OR DUP6 SSTORE PUSH2 0x41F JUMP JUMPDEST PUSH0 DUP6 DUP2 MSTORE PUSH1 0x20 DUP2 KECCAK256 PUSH1 0x1F NOT DUP7 AND SWAP2 JUMPDEST DUP3 DUP2 LT ISZERO PUSH2 0x3F6 JUMPI DUP9 DUP7 ADD MLOAD DUP3 SSTORE SWAP5 DUP5 ADD SWAP5 PUSH1 0x1 SWAP1 SWAP2 ADD SWAP1 DUP5 ADD PUSH2 0x3D7 JUMP JUMPDEST POP DUP6 DUP3 LT ISZERO PUSH2 0x413 JUMPI DUP8 DUP6 ADD MLOAD PUSH0 NOT PUSH1 0x3 DUP9 SWAP1 SHL PUSH1 0xF8 AND SHR NOT AND DUP2 SSTORE JUMPDEST POP POP PUSH1 0x1 DUP5 PUSH1 0x1 SHL ADD DUP6 SSTORE JUMPDEST POP POP POP POP POP POP JUMP JUMPDEST PUSH1 0x1 DUP1 PUSH1 0xA0 SHL SUB DUP7 AND DUP2 MSTORE DUP5 PUSH1 0x20 DUP3 ADD MSTORE DUP4 PUSH1 0x40 DUP3 ADD MSTORE DUP3 PUSH1 0x60 DUP3 ADD MSTORE PUSH1 0xA0 PUSH1 0x80 DUP3 ADD MSTORE PUSH0 DUP3 MLOAD DUP1 PUSH1 0xA0 DUP5 ADD MSTORE DUP1 PUSH1 0x20 DUP6 ADD PUSH1 0xC0 DUP6 ADD MCOPY PUSH0 PUSH1 0xC0 DUP3 DUP6 ADD ADD MSTORE PUSH1 0xC0 PUSH1 0x1F NOT PUSH1 0x1F DUP4 ADD AND DUP5 ADD ADD SWAP2 POP POP SWAP7 SWAP6 POP POP POP POP POP POP JUMP JUMPDEST PUSH2 0x1F45 DUP1 PUSH2 0x48D PUSH0 CODECOPY PUSH0 RETURN INVALID PUSH1 0x80 PUSH1 0x40 MSTORE PUSH1 0x4 CALLDATASIZE LT PUSH2 0x1AE JUMPI PUSH0 CALLDATALOAD PUSH1 0xE0 SHR DUP1 PUSH4 0x7C3A00FD GT PUSH2 0xE7 JUMPI DUP1 PUSH4 0xA3B9E39D GT PUSH2 0x87 JUMPI DUP1 PUSH4 0xE985E9C5 GT PUSH2 0x62 JUMPI DUP1 PUSH4 0xE985E9C5 EQ PUSH2 0x46A JUMPI DUP1 PUSH4 0xF242432A EQ PUSH2 0x4B1 JUMPI DUP1 PUSH4 0xF2FDE38B EQ PUSH2 0x4D0 JUMPI DUP1 PUSH4 0xF966ADE7 EQ PUSH2 0x4EF JUMPI PUSH0 DUP1 REVERT JUMPDEST DUP1 PUSH4 0xA3B9E39D EQ PUSH2 0x415 JUMPI DUP1 PUSH4 0xAD044F49 EQ PUSH2 0x440 JUMPI DUP1 PUSH4 0xB05F04D3 EQ PUSH2 0x455 JUMPI PUSH0 DUP1 REVERT JUMPDEST DUP1 PUSH4 0x89376E40 GT PUSH2 0xC2 JUMPI DUP1 PUSH4 0x89376E40 EQ PUSH2 0x3B0 JUMPI DUP1 PUSH4 0x8DA5CB5B EQ PUSH2 0x3C4 JUMPI DUP1 PUSH4 0x9D585F7F EQ PUSH2 0x3E1 JUMPI DUP1 PUSH4 0xA22CB465 EQ PUSH2 0x3F6 JUMPI PUSH0 DUP1 REVERT JUMPDEST DUP1 PUSH4 0x7C3A00FD EQ PUSH2 0x351 JUMPI DUP1 PUSH4 0x7DF1F1B9 EQ PUSH2 0x366 JUMPI DUP1 PUSH4 0x846B909A EQ PUSH2 0x39D JUMPI PUSH0 DUP1 REVERT JUMPDEST DUP1 PUSH4 0x2CCA0CDE GT PUSH2 0x152 JUMPI DUP1 PUSH4 0x6164051A GT PUSH2 0x12D JUMPI DUP1 PUSH4 0x6164051A EQ PUSH2 0x2F6 JUMPI DUP1 PUSH4 0x715018A6 EQ PUSH2 0x314 JUMPI DUP1 PUSH4 0x7284E416 EQ PUSH2 0x328 JUMPI DUP1 PUSH4 0x796B23BB EQ PUSH2 0x33C JUMPI PUSH0 DUP1 REVERT JUMPDEST DUP1 PUSH4 0x2CCA0CDE EQ PUSH2 0x297 JUMPI DUP1 PUSH4 0x2EB2C2D6 EQ PUSH2 0x2AB JUMPI DUP1 PUSH4 0x4E1273F4 EQ PUSH2 0x2CA JUMPI PUSH0 DUP1 REVERT JUMPDEST DUP1 PUSH4 0xFB5A6B4 GT PUSH2 0x18D JUMPI DUP1 PUSH4 0xFB5A6B4 EQ PUSH2 0x23F JUMPI DUP1 PUSH4 0x135D088D EQ PUSH2 0x254 JUMPI DUP1 PUSH4 0x22F3E2D4 EQ PUSH2 0x268 JUMPI DUP1 PUSH4 0x24600FC3 EQ PUSH2 0x281 JUMPI PUSH0 DUP1 REVERT JUMPDEST DUP1 PUSH3 0xFDD58E EQ PUSH2 0x1B2 JUMPI DUP1 PUSH4 0x1FFC9A7 EQ PUSH2 0x1E4 JUMPI DUP1 PUSH4 0xE89341C EQ PUSH2 0x213 JUMPI JUMPDEST PUSH0 DUP1 REVERT JUMPDEST CALLVALUE DUP1 ISZERO PUSH2 0x1BD JUMPI PUSH0 DUP1 REVERT JUMPDEST POP PUSH2 0x1D1 PUSH2 0x1CC CALLDATASIZE PUSH1 0x4 PUSH2 0x187F JUMP JUMPDEST PUSH2 0x4F7 JUMP JUMPDEST PUSH1 0x40 MLOAD SWAP1 DUP2 MSTORE PUSH1 0x20 ADD JUMPDEST PUSH1 0x40 MLOAD DUP1 SWAP2 SUB SWAP1 RETURN JUMPDEST CALLVALUE DUP1 ISZERO PUSH2 0x1EF JUMPI PUSH0 DUP1 REVERT JUMPDEST POP PUSH2 0x203 PUSH2 0x1FE CALLDATASIZE PUSH1 0x4 PUSH2 0x18BC JUMP JUMPDEST PUSH2 0x51E JUMP JUMPDEST PUSH1 0x40 MLOAD SWAP1 ISZERO ISZERO DUP2 MSTORE PUSH1 0x20 ADD PUSH2 0x1DB JUMP JUMPDEST CALLVALUE DUP1 ISZERO PUSH2 0x21E JUMPI PUSH0 DUP1 REVERT JUMPDEST POP PUSH2 0x232 PUSH2 0x22D CALLDATASIZE PUSH1 0x4 PUSH2 0x18DE JUMP JUMPDEST PUSH2 0x56D JUMP JUMPDEST PUSH1 0x40 MLOAD PUSH2 0x1DB SWAP2 SWAP1 PUSH2 0x1923 JUMP JUMPDEST CALLVALUE DUP1 ISZERO PUSH2 0x24A JUMPI PUSH0 DUP1 REVERT JUMPDEST POP PUSH2 0x1D1 PUSH1 0x6 SLOAD DUP2 JUMP JUMPDEST CALLVALUE DUP1 ISZERO PUSH2 0x25F JUMPI PUSH0 DUP1 REVERT JUMPDEST POP PUSH2 0x232 PUSH2 0x654 JUMP JUMPDEST CALLVALUE DUP1 ISZERO PUSH2 0x273 JUMPI PUSH0 DUP1 REVERT JUMPDEST POP PUSH1 0xD SLOAD PUSH2 0x203 SWAP1 PUSH1 0xFF AND DUP2 JUMP JUMPDEST CALLVALUE DUP1 ISZERO PUSH2 0x28C JUMPI PUSH0 DUP1 REVERT JUMPDEST POP PUSH2 0x295 PUSH2 0x6E0 JUMP JUMPDEST STOP JUMPDEST CALLVALUE DUP1 ISZERO PUSH2 0x2A2 JUMPI PUSH0 DUP1 REVERT JUMPDEST POP PUSH2 0x1D1 PUSH1 0x1 DUP2 JUMP JUMPDEST CALLVALUE DUP1 ISZERO PUSH2 0x2B6 JUMPI PUSH0 DUP1 REVERT JUMPDEST POP PUSH2 0x295 PUSH2 0x2C5 CALLDATASIZE PUSH1 0x4 PUSH2 0x1A75 JUMP JUMPDEST PUSH2 0x81B JUMP JUMPDEST CALLVALUE DUP1 ISZERO PUSH2 0x2D5 JUMPI PUSH0 DUP1 REVERT JUMPDEST POP PUSH2 0x2E9 PUSH2 0x2E4 CALLDATASIZE PUSH1 0x4 PUSH2 0x1B18 JUMP JUMPDEST PUSH2 0x8A0 JUMP JUMPDEST PUSH1 0x40 MLOAD PUSH2 0x1DB SWAP2 SWAP1 PUSH2 0x1C0C JUMP JUMPDEST CALLVALUE DUP1 ISZERO PUSH2 0x301 JUMPI PUSH0 DUP1 REVERT JUMPDEST POP PUSH1 0xD SLOAD PUSH2 0x203 SWAP1 PUSH2 0x100 SWAP1 DIV PUSH1 0xFF AND DUP2 JUMP JUMPDEST CALLVALUE DUP1 ISZERO PUSH2 0x31F JUMPI PUSH0 DUP1 REVERT JUMPDEST POP PUSH2 0x295 PUSH2 0x96B JUMP JUMPDEST CALLVALUE DUP1 ISZERO PUSH2 0x333 JUMPI PUSH0 DUP1 REVERT JUMPDEST POP PUSH2 0x232 PUSH2 0x97E JUMP JUMPDEST CALLVALUE DUP1 ISZERO PUSH2 0x347 JUMPI PUSH0 DUP1 REVERT JUMPDEST POP PUSH2 0x1D1 PUSH1 0x7 SLOAD DUP2 JUMP JUMPDEST CALLVALUE DUP1 ISZERO PUSH2 0x35C JUMPI PUSH0 DUP1 REVERT JUMPDEST POP PUSH2 0x1D1 PUSH1 0x5 SLOAD DUP2 JUMP JUMPDEST CALLVALUE DUP1 ISZERO PUSH2 0x371 JUMPI PUSH0 DUP1 REVERT JUMPDEST POP PUSH1 0xB SLOAD PUSH2 0x385 SWAP1 PUSH1 0x1 PUSH1 0x1 PUSH1 0xA0 SHL SUB AND DUP2 JUMP JUMPDEST PUSH1 0x40 MLOAD PUSH1 0x1 PUSH1 0x1 PUSH1 0xA0 SHL SUB SWAP1 SWAP2 AND DUP2 MSTORE PUSH1 0x20 ADD PUSH2 0x1DB JUMP JUMPDEST PUSH2 0x295 PUSH2 0x3AB CALLDATASIZE PUSH1 0x4 PUSH2 0x18DE JUMP JUMPDEST PUSH2 0x98B JUMP JUMPDEST CALLVALUE DUP1 ISZERO PUSH2 0x3BB JUMPI PUSH0 DUP1 REVERT JUMPDEST POP PUSH2 0x295 PUSH2 0xB80 JUMP JUMPDEST CALLVALUE DUP1 ISZERO PUSH2 0x3CF JUMPI PUSH0 DUP1 REVERT JUMPDEST POP PUSH1 0x3 SLOAD PUSH1 0x1 PUSH1 0x1 PUSH1 0xA0 SHL SUB AND PUSH2 0x385 JUMP JUMPDEST CALLVALUE DUP1 ISZERO PUSH2 0x3EC JUMPI PUSH0 DUP1 REVERT JUMPDEST POP PUSH2 0x1D1 PUSH1 0x4 SLOAD DUP2 JUMP JUMPDEST CALLVALUE DUP1 ISZERO PUSH2 0x401 JUMPI PUSH0 DUP1 REVERT JUMPDEST POP PUSH2 0x295 PUSH2 0x410 CALLDATASIZE PUSH1 0x4 PUSH2 0x1C1E JUMP JUMPDEST PUSH2 0xCBA JUMP JUMPDEST CALLVALUE DUP1 ISZERO PUSH2 0x420 JUMPI PUSH0 DUP1 REVERT JUMPDEST POP PUSH2 0x429 PUSH2 0xCC5 JUMP JUMPDEST PUSH1 0x40 MLOAD PUSH2 0x1DB SWAP12 SWAP11 SWAP10 SWAP9 SWAP8 SWAP7 SWAP6 SWAP5 SWAP4 SWAP3 SWAP2 SWAP1 PUSH2 0x1C57 JUMP JUMPDEST CALLVALUE DUP1 ISZERO PUSH2 0x44B JUMPI PUSH0 DUP1 REVERT JUMPDEST POP PUSH2 0x1D1 PUSH1 0xC SLOAD DUP2 JUMP JUMPDEST CALLVALUE DUP1 ISZERO PUSH2 0x460 JUMPI PUSH0 DUP1 REVERT JUMPDEST POP PUSH2 0x1D1 PUSH1 0x8 SLOAD DUP2 JUMP JUMPDEST CALLVALUE DUP1 ISZERO PUSH2 0x475 JUMPI PUSH0 DUP1 REVERT JUMPDEST POP PUSH2 0x203 PUSH2 0x484 CALLDATASIZE PUSH1 0x4 PUSH2 0x1CD5 JUMP JUMPDEST PUSH1 0x1 PUSH1 0x1 PUSH1 0xA0 SHL SUB SWAP2 DUP3 AND PUSH0 SWAP1 DUP2 MSTORE PUSH1 0x1 PUSH1 0x20 SWAP1 DUP2 MSTORE PUSH1 0x40 DUP1 DUP4 KECCAK256 SWAP4 SWAP1 SWAP5 AND DUP3 MSTORE SWAP2 SWAP1 SWAP2 MSTORE KECCAK256 SLOAD PUSH1 0xFF AND SWAP1 JUMP JUMPDEST CALLVALUE DUP1 ISZERO PUSH2 0x4BC JUMPI PUSH0 DUP1 REVERT JUMPDEST POP PUSH2 0x295 PUSH2 0x4CB CALLDATASIZE PUSH1 0x4 PUSH2 0x1D06 JUMP JUMPDEST PUSH2 0xE52 JUMP JUMPDEST CALLVALUE DUP1 ISZERO PUSH2 0x4DB JUMPI PUSH0 DUP1 REVERT JUMPDEST POP PUSH2 0x295 PUSH2 0x4EA CALLDATASIZE PUSH1 0x4 PUSH2 0x1D66 JUMP JUMPDEST PUSH2 0xECF JUMP JUMPDEST PUSH2 0x295 PUSH2 0xF0C JUMP JUMPDEST PUSH0 DUP2 DUP2 MSTORE PUSH1 0x20 DUP2 DUP2 MSTORE PUSH1 0x40 DUP1 DUP4 KECCAK256 PUSH1 0x1 PUSH1 0x1 PUSH1 0xA0 SHL SUB DUP7 AND DUP5 MSTORE SWAP1 SWAP2 MSTORE SWAP1 KECCAK256 SLOAD JUMPDEST SWAP3 SWAP2 POP POP JUMP JUMPDEST PUSH0 PUSH1 0x1 PUSH1 0x1 PUSH1 0xE0 SHL SUB NOT DUP3 AND PUSH4 0x6CDB3D13 PUSH1 0xE1 SHL EQ DUP1 PUSH2 0x54E JUMPI POP PUSH1 0x1 PUSH1 0x1 PUSH1 0xE0 SHL SUB NOT DUP3 AND PUSH4 0x3A24D07 PUSH1 0xE2 SHL EQ JUMPDEST DUP1 PUSH2 0x518 JUMPI POP PUSH4 0x1FFC9A7 PUSH1 0xE0 SHL PUSH1 0x1 PUSH1 0x1 PUSH1 0xE0 SHL SUB NOT DUP4 AND EQ PUSH2 0x518 JUMP JUMPDEST PUSH1 0x60 PUSH1 0x1 DUP3 EQ PUSH2 0x5C4 JUMPI PUSH1 0x40 MLOAD PUSH3 0x461BCD PUSH1 0xE5 SHL DUP2 MSTORE PUSH1 0x20 PUSH1 0x4 DUP3 ADD MSTORE PUSH1 0x17 PUSH1 0x24 DUP3 ADD MSTORE PUSH32 0x546F6B656E20494420646F6573206E6F74206578697374000000000000000000 PUSH1 0x44 DUP3 ADD MSTORE PUSH1 0x64 ADD JUMPDEST PUSH1 0x40 MLOAD DUP1 SWAP2 SUB SWAP1 REVERT JUMPDEST PUSH1 0xA DUP1 SLOAD PUSH2 0x5D1 SWAP1 PUSH2 0x1D7F JUMP JUMPDEST DUP1 PUSH1 0x1F ADD PUSH1 0x20 DUP1 SWAP2 DIV MUL PUSH1 0x20 ADD PUSH1 0x40 MLOAD SWAP1 DUP2 ADD PUSH1 0x40 MSTORE DUP1 SWAP3 SWAP2 SWAP1 DUP2 DUP2 MSTORE PUSH1 0x20 ADD DUP3 DUP1 SLOAD PUSH2 0x5FD SWAP1 PUSH2 0x1D7F JUMP JUMPDEST DUP1 ISZERO PUSH2 0x648 JUMPI DUP1 PUSH1 0x1F LT PUSH2 0x61F JUMPI PUSH2 0x100 DUP1 DUP4 SLOAD DIV MUL DUP4 MSTORE SWAP2 PUSH1 0x20 ADD SWAP2 PUSH2 0x648 JUMP JUMPDEST DUP3 ADD SWAP2 SWAP1 PUSH0 MSTORE PUSH1 0x20 PUSH0 KECCAK256 SWAP1 JUMPDEST DUP2 SLOAD DUP2 MSTORE SWAP1 PUSH1 0x1 ADD SWAP1 PUSH1 0x20 ADD DUP1 DUP4 GT PUSH2 0x62B JUMPI DUP3 SWAP1 SUB PUSH1 0x1F AND DUP3 ADD SWAP2 JUMPDEST POP POP POP POP POP SWAP1 POP SWAP2 SWAP1 POP JUMP JUMPDEST PUSH1 0xA DUP1 SLOAD PUSH2 0x661 SWAP1 PUSH2 0x1D7F JUMP JUMPDEST DUP1 PUSH1 0x1F ADD PUSH1 0x20 DUP1 SWAP2 DIV MUL PUSH1 0x20 ADD PUSH1 0x40 MLOAD SWAP1 DUP2 ADD PUSH1 0x40 MSTORE DUP1 SWAP3 SWAP2 SWAP1 DUP2 DUP2 MSTORE PUSH1 0x20 ADD DUP3 DUP1 SLOAD PUSH2 0x68D SWAP1 PUSH2 0x1D7F JUMP JUMPDEST DUP1 ISZERO PUSH2 0x6D8 JUMPI DUP1 PUSH1 0x1F LT PUSH2 0x6AF JUMPI PUSH2 0x100 DUP1 DUP4 SLOAD DIV MUL DUP4 MSTORE SWAP2 PUSH1 0x20 ADD SWAP2 PUSH2 0x6D8 JUMP JUMPDEST DUP3 ADD SWAP2 SWAP1 PUSH0 MSTORE PUSH1 0x20 PUSH0 KECCAK256 SWAP1 JUMPDEST DUP2 SLOAD DUP2 MSTORE SWAP1 PUSH1 0x1 ADD SWAP1 PUSH1 0x20 ADD DUP1 DUP4 GT PUSH2 0x6BB JUMPI DUP3 SWAP1 SUB PUSH1 0x1F AND DUP3 ADD SWAP2 JUMPDEST POP POP POP POP POP DUP2 JUMP JUMPDEST PUSH1 0x7 SLOAD TIMESTAMP GT PUSH2 0x731 JUMPI PUSH1 0x40 MLOAD PUSH3 0x461BCD PUSH1 0xE5 SHL DUP2 MSTORE PUSH1 0x20 PUSH1 0x4 DUP3 ADD MSTORE PUSH1 0x1C PUSH1 0x24 DUP3 ADD MSTORE PUSH32 0x46756E64696E6720706572696F6420686173206E6F7420656E64656400000000 PUSH1 0x44 DUP3 ADD MSTORE PUSH1 0x64 ADD PUSH2 0x5BB JUMP JUMPDEST PUSH1 0xD SLOAD PUSH1 0xFF AND ISZERO PUSH2 0x784 JUMPI PUSH1 0x40 MLOAD PUSH3 0x461BCD PUSH1 0xE5 SHL DUP2 MSTORE PUSH1 0x20 PUSH1 0x4 DUP3 ADD MSTORE PUSH1 0x16 PUSH1 0x24 DUP3 ADD MSTORE PUSH32 0x4C6F616E20697320616C72656164792061637469766500000000000000000000 PUSH1 0x44 DUP3 ADD MSTORE PUSH1 0x64 ADD PUSH2 0x5BB JUMP JUMPDEST PUSH0 PUSH2 0x790 CALLER PUSH1 0x1 PUSH2 0x4F7 JUMP JUMPDEST SWAP1 POP PUSH0 DUP2 GT PUSH2 0x7E1 JUMPI PUSH1 0x40 MLOAD PUSH3 0x461BCD PUSH1 0xE5 SHL DUP2 MSTORE PUSH1 0x20 PUSH1 0x4 DUP3 ADD MSTORE PUSH1 0x14 PUSH1 0x24 DUP3 ADD MSTORE PUSH32 0x4E6F2066756E647320746F207769746864726177000000000000000000000000 PUSH1 0x44 DUP3 ADD MSTORE PUSH1 0x64 ADD PUSH2 0x5BB JUMP JUMPDEST PUSH2 0x7ED CALLER PUSH1 0x1 DUP4 PUSH2 0x107A JUMP JUMPDEST PUSH1 0x40 MLOAD CALLER SWAP1 DUP3 ISZERO PUSH2 0x8FC MUL SWAP1 DUP4 SWAP1 PUSH0 DUP2 DUP2 DUP2 DUP6 DUP9 DUP9 CALL SWAP4 POP POP POP POP ISZERO DUP1 ISZERO PUSH2 0x817 JUMPI RETURNDATASIZE PUSH0 DUP1 RETURNDATACOPY RETURNDATASIZE PUSH0 REVERT JUMPDEST POP POP JUMP JUMPDEST CALLER PUSH1 0x1 PUSH1 0x1 PUSH1 0xA0 SHL SUB DUP7 AND DUP2 EQ DUP1 ISZERO SWAP1 PUSH2 0x85A JUMPI POP PUSH1 0x1 PUSH1 0x1 PUSH1 0xA0 SHL SUB DUP1 DUP8 AND PUSH0 SWAP1 DUP2 MSTORE PUSH1 0x1 PUSH1 0x20 SWAP1 DUP2 MSTORE PUSH1 0x40 DUP1 DUP4 KECCAK256 SWAP4 DUP6 AND DUP4 MSTORE SWAP3 SWAP1 MSTORE KECCAK256 SLOAD PUSH1 0xFF AND ISZERO JUMPDEST ISZERO PUSH2 0x88B JUMPI PUSH1 0x40 MLOAD PUSH4 0x711BEC91 PUSH1 0xE1 SHL DUP2 MSTORE PUSH1 0x1 PUSH1 0x1 PUSH1 0xA0 SHL SUB DUP1 DUP4 AND PUSH1 0x4 DUP4 ADD MSTORE DUP8 AND PUSH1 0x24 DUP3 ADD MSTORE PUSH1 0x44 ADD PUSH2 0x5BB JUMP JUMPDEST PUSH2 0x898 DUP7 DUP7 DUP7 DUP7 DUP7 PUSH2 0x10E0 JUMP JUMPDEST POP POP POP POP POP POP JUMP JUMPDEST PUSH1 0x60 DUP2 MLOAD DUP4 MLOAD EQ PUSH2 0x8D1 JUMPI DUP2 MLOAD DUP4 MLOAD PUSH1 0x40 MLOAD PUSH4 0x5B059991 PUSH1 0xE0 SHL DUP2 MSTORE PUSH1 0x4 DUP2 ADD SWAP3 SWAP1 SWAP3 MSTORE PUSH1 0x24 DUP3 ADD MSTORE PUSH1 0x44 ADD PUSH2 0x5BB JUMP JUMPDEST PUSH0 DUP4 MLOAD PUSH8 0xFFFFFFFFFFFFFFFF DUP2 GT ISZERO PUSH2 0x8EC JUMPI PUSH2 0x8EC PUSH2 0x1935 JUMP JUMPDEST PUSH1 0x40 MLOAD SWAP1 DUP1 DUP3 MSTORE DUP1 PUSH1 0x20 MUL PUSH1 0x20 ADD DUP3 ADD PUSH1 0x40 MSTORE DUP1 ISZERO PUSH2 0x915 JUMPI DUP2 PUSH1 0x20 ADD PUSH1 0x20 DUP3 MUL DUP1 CALLDATASIZE DUP4 CALLDATACOPY ADD SWAP1 POP JUMPDEST POP SWAP1 POP PUSH0 JUMPDEST DUP5 MLOAD DUP2 LT ISZERO PUSH2 0x963 JUMPI PUSH1 0x20 DUP1 DUP3 MUL DUP7 ADD ADD MLOAD PUSH2 0x93E SWAP1 PUSH1 0x20 DUP1 DUP5 MUL DUP8 ADD ADD MLOAD PUSH2 0x4F7 JUMP JUMPDEST DUP3 DUP3 DUP2 MLOAD DUP2 LT PUSH2 0x950 JUMPI PUSH2 0x950 PUSH2 0x1DB7 JUMP JUMPDEST PUSH1 0x20 SWAP1 DUP2 MUL SWAP2 SWAP1 SWAP2 ADD ADD MSTORE PUSH1 0x1 ADD PUSH2 0x91A JUMP JUMPDEST POP SWAP4 SWAP3 POP POP POP JUMP JUMPDEST PUSH2 0x973 PUSH2 0x113E JUMP JUMPDEST PUSH2 0x97C PUSH0 PUSH2 0x116B JUMP JUMPDEST JUMP JUMPDEST PUSH1 0x9 DUP1 SLOAD PUSH2 0x661 SWAP1 PUSH2 0x1D7F JUMP JUMPDEST PUSH1 0x7 SLOAD TIMESTAMP LT PUSH2 0x9DC JUMPI PUSH1 0x40 MLOAD PUSH3 0x461BCD PUSH1 0xE5 SHL DUP2 MSTORE PUSH1 0x20 PUSH1 0x4 DUP3 ADD MSTORE PUSH1 0x18 PUSH1 0x24 DUP3 ADD MSTORE PUSH32 0x46756E64696E6720706572696F642068617320656E6465640000000000000000 PUSH1 0x44 DUP3 ADD MSTORE PUSH1 0x64 ADD PUSH2 0x5BB JUMP JUMPDEST PUSH1 0xD SLOAD PUSH1 0xFF AND ISZERO PUSH2 0xA2F JUMPI PUSH1 0x40 MLOAD PUSH3 0x461BCD PUSH1 0xE5 SHL DUP2 MSTORE PUSH1 0x20 PUSH1 0x4 DUP3 ADD MSTORE PUSH1 0x16 PUSH1 0x24 DUP3 ADD MSTORE PUSH32 0x4C6F616E20697320616C72656164792061637469766500000000000000000000 PUSH1 0x44 DUP3 ADD MSTORE PUSH1 0x64 ADD PUSH2 0x5BB JUMP JUMPDEST PUSH1 0x4 SLOAD DUP2 PUSH1 0xC SLOAD PUSH2 0xA40 SWAP2 SWAP1 PUSH2 0x1DDF JUMP JUMPDEST GT ISZERO PUSH2 0xAB4 JUMPI PUSH1 0x40 MLOAD PUSH3 0x461BCD PUSH1 0xE5 SHL DUP2 MSTORE PUSH1 0x20 PUSH1 0x4 DUP3 ADD MSTORE PUSH1 0x27 PUSH1 0x24 DUP3 ADD MSTORE PUSH32 0x46756E64696E6720616D6F756E742065786365656473206C6F616E2072657175 PUSH1 0x44 DUP3 ADD MSTORE PUSH32 0x6972656D656E7400000000000000000000000000000000000000000000000000 PUSH1 0x64 DUP3 ADD MSTORE PUSH1 0x84 ADD PUSH2 0x5BB JUMP JUMPDEST PUSH2 0xACF CALLER PUSH1 0x1 DUP4 PUSH1 0x40 MLOAD DUP1 PUSH1 0x20 ADD PUSH1 0x40 MSTORE DUP1 PUSH0 DUP2 MSTORE POP PUSH2 0x11D4 JUMP JUMPDEST DUP1 PUSH1 0xC PUSH0 DUP3 DUP3 SLOAD PUSH2 0xAE0 SWAP2 SWAP1 PUSH2 0x1DDF JUMP JUMPDEST SWAP1 SWAP2 SSTORE POP POP PUSH1 0x4 SLOAD PUSH1 0xC SLOAD SUB PUSH2 0xB44 JUMPI PUSH1 0xD DUP1 SLOAD PUSH1 0xFF NOT AND PUSH1 0x1 OR SWAP1 SSTORE PUSH1 0x6 SLOAD PUSH2 0xB0A SWAP1 TIMESTAMP PUSH2 0x1DDF JUMP JUMPDEST PUSH1 0x8 SSTORE PUSH1 0xC SLOAD PUSH1 0x40 MLOAD SWAP1 DUP2 MSTORE PUSH32 0xCB4C701313B0DB2ED5902D923D21B853D01E3A14CB2AF2DCE00E309EAA0E134C SWAP1 PUSH1 0x20 ADD PUSH1 0x40 MLOAD DUP1 SWAP2 SUB SWAP1 LOG1 JUMPDEST PUSH1 0x40 DUP1 MLOAD CALLER DUP2 MSTORE PUSH1 0x20 DUP2 ADD DUP4 SWAP1 MSTORE PUSH32 0x726D5F1A838FE31748F737FA3AE5539CCFF95952ADFC593A1299532B643FF7A8 SWAP2 ADD PUSH1 0x40 MLOAD DUP1 SWAP2 SUB SWAP1 LOG1 POP JUMP JUMPDEST PUSH1 0xD SLOAD PUSH2 0x100 SWAP1 DIV PUSH1 0xFF AND PUSH2 0xBD7 JUMPI PUSH1 0x40 MLOAD PUSH3 0x461BCD PUSH1 0xE5 SHL DUP2 MSTORE PUSH1 0x20 PUSH1 0x4 DUP3 ADD MSTORE PUSH1 0x16 PUSH1 0x24 DUP3 ADD MSTORE PUSH32 0x4C6F616E206973206E6F74207265706169642079657400000000000000000000 PUSH1 0x44 DUP3 ADD MSTORE PUSH1 0x64 ADD PUSH2 0x5BB JUMP JUMPDEST PUSH0 PUSH2 0xBE3 CALLER PUSH1 0x1 PUSH2 0x4F7 JUMP JUMPDEST SWAP1 POP PUSH0 DUP2 GT PUSH2 0xC34 JUMPI PUSH1 0x40 MLOAD PUSH3 0x461BCD PUSH1 0xE5 SHL DUP2 MSTORE PUSH1 0x20 PUSH1 0x4 DUP3 ADD MSTORE PUSH1 0x13 PUSH1 0x24 DUP3 ADD MSTORE PUSH32 0x4E6F2072657475726E7320746F20636C61696D00000000000000000000000000 PUSH1 0x44 DUP3 ADD MSTORE PUSH1 0x64 ADD PUSH2 0x5BB JUMP JUMPDEST PUSH0 PUSH2 0x2710 PUSH1 0x5 SLOAD PUSH1 0x4 SLOAD PUSH2 0xC48 SWAP2 SWAP1 PUSH2 0x1DF2 JUMP JUMPDEST PUSH2 0xC52 SWAP2 SWAP1 PUSH2 0x1E09 JUMP JUMPDEST SWAP1 POP PUSH0 PUSH1 0x4 SLOAD DUP3 DUP5 PUSH2 0xC64 SWAP2 SWAP1 PUSH2 0x1DF2 JUMP JUMPDEST PUSH2 0xC6E SWAP2 SWAP1 PUSH2 0x1E09 JUMP JUMPDEST SWAP1 POP PUSH0 PUSH2 0xC7B DUP3 DUP6 PUSH2 0x1DDF JUMP JUMPDEST SWAP1 POP PUSH2 0xC89 CALLER PUSH1 0x1 DUP7 PUSH2 0x107A JUMP JUMPDEST PUSH1 0x40 MLOAD CALLER SWAP1 DUP3 ISZERO PUSH2 0x8FC MUL SWAP1 DUP4 SWAP1 PUSH0 DUP2 DUP2 DUP2 DUP6 DUP9 DUP9 CALL SWAP4 POP POP POP POP ISZERO DUP1 ISZERO PUSH2 0xCB3 JUMPI RETURNDATASIZE PUSH0 DUP1 RETURNDATACOPY RETURNDATASIZE PUSH0 REVERT JUMPDEST POP POP POP POP POP JUMP JUMPDEST PUSH2 0x817 CALLER DUP4 DUP4 PUSH2 0x122F JUMP JUMPDEST PUSH0 DUP1 PUSH0 DUP1 PUSH0 PUSH1 0x60 DUP1 PUSH0 DUP1 PUSH0 DUP1 PUSH1 0x4 SLOAD PUSH1 0x5 SLOAD PUSH1 0x6 SLOAD PUSH1 0x7 SLOAD PUSH1 0x8 SLOAD PUSH1 0x9 PUSH1 0xA PUSH1 0xB PUSH0 SWAP1 SLOAD SWAP1 PUSH2 0x100 EXP SWAP1 DIV PUSH1 0x1 PUSH1 0x1 PUSH1 0xA0 SHL SUB AND PUSH1 0xC SLOAD PUSH1 0xD PUSH0 SWAP1 SLOAD SWAP1 PUSH2 0x100 EXP SWAP1 DIV PUSH1 0xFF AND PUSH1 0xD PUSH1 0x1 SWAP1 SLOAD SWAP1 PUSH2 0x100 EXP SWAP1 DIV PUSH1 0xFF AND DUP6 DUP1 SLOAD PUSH2 0xD27 SWAP1 PUSH2 0x1D7F JUMP JUMPDEST DUP1 PUSH1 0x1F ADD PUSH1 0x20 DUP1 SWAP2 DIV MUL PUSH1 0x20 ADD PUSH1 0x40 MLOAD SWAP1 DUP2 ADD PUSH1 0x40 MSTORE DUP1 SWAP3 SWAP2 SWAP1 DUP2 DUP2 MSTORE PUSH1 0x20 ADD DUP3 DUP1 SLOAD PUSH2 0xD53 SWAP1 PUSH2 0x1D7F JUMP JUMPDEST DUP1 ISZERO PUSH2 0xD9E JUMPI DUP1 PUSH1 0x1F LT PUSH2 0xD75 JUMPI PUSH2 0x100 DUP1 DUP4 SLOAD DIV MUL DUP4 MSTORE SWAP2 PUSH1 0x20 ADD SWAP2 PUSH2 0xD9E JUMP JUMPDEST DUP3 ADD SWAP2 SWAP1 PUSH0 MSTORE PUSH1 0x20 PUSH0 KECCAK256 SWAP1 JUMPDEST DUP2 SLOAD DUP2 MSTORE SWAP1 PUSH1 0x1 ADD SWAP1 PUSH1 0x20 ADD DUP1 DUP4 GT PUSH2 0xD81 JUMPI DUP3 SWAP1 SUB PUSH1 0x1F AND DUP3 ADD SWAP2 JUMPDEST POP POP POP POP POP SWAP6 POP DUP5 DUP1 SLOAD PUSH2 0xDB1 SWAP1 PUSH2 0x1D7F JUMP JUMPDEST DUP1 PUSH1 0x1F ADD PUSH1 0x20 DUP1 SWAP2 DIV MUL PUSH1 0x20 ADD PUSH1 0x40 MLOAD SWAP1 DUP2 ADD PUSH1 0x40 MSTORE DUP1 SWAP3 SWAP2 SWAP1 DUP2 DUP2 MSTORE PUSH1 0x20 ADD DUP3 DUP1 SLOAD PUSH2 0xDDD SWAP1 PUSH2 0x1D7F JUMP JUMPDEST DUP1 ISZERO PUSH2 0xE28 JUMPI DUP1 PUSH1 0x1F LT PUSH2 0xDFF JUMPI PUSH2 0x100 DUP1 DUP4 SLOAD DIV MUL DUP4 MSTORE SWAP2 PUSH1 0x20 ADD SWAP2 PUSH2 0xE28 JUMP JUMPDEST DUP3 ADD SWAP2 SWAP1 PUSH0 MSTORE PUSH1 0x20 PUSH0 KECCAK256 SWAP1 JUMPDEST DUP2 SLOAD DUP2 MSTORE SWAP1 PUSH1 0x1 ADD SWAP1 PUSH1 0x20 ADD DUP1 DUP4 GT PUSH2 0xE0B JUMPI DUP3 SWAP1 SUB PUSH1 0x1F AND DUP3 ADD SWAP2 JUMPDEST POP POP POP POP POP SWAP5 POP SWAP11 POP SWAP11 POP SWAP11 POP SWAP11 POP SWAP11 POP SWAP11 POP SWAP11 POP SWAP11 POP SWAP11 POP SWAP11 POP SWAP11 POP SWAP1 SWAP2 SWAP3 SWAP4 SWAP5 SWAP6 SWAP7 SWAP8 SWAP9 SWAP10 SWAP11 JUMP JUMPDEST CALLER PUSH1 0x1 PUSH1 0x1 PUSH1 0xA0 SHL SUB DUP7 AND DUP2 EQ DUP1 ISZERO SWAP1 PUSH2 0xE91 JUMPI POP PUSH1 0x1 PUSH1 0x1 PUSH1 0xA0 SHL SUB DUP1 DUP8 AND PUSH0 SWAP1 DUP2 MSTORE PUSH1 0x1 PUSH1 0x20 SWAP1 DUP2 MSTORE PUSH1 0x40 DUP1 DUP4 KECCAK256 SWAP4 DUP6 AND DUP4 MSTORE SWAP3 SWAP1 MSTORE KECCAK256 SLOAD PUSH1 0xFF AND ISZERO JUMPDEST ISZERO PUSH2 0xEC2 JUMPI PUSH1 0x40 MLOAD PUSH4 0x711BEC91 PUSH1 0xE1 SHL DUP2 MSTORE PUSH1 0x1 PUSH1 0x1 PUSH1 0xA0 SHL SUB DUP1 DUP4 AND PUSH1 0x4 DUP4 ADD MSTORE DUP8 AND PUSH1 0x24 DUP3 ADD MSTORE PUSH1 0x44 ADD PUSH2 0x5BB JUMP JUMPDEST PUSH2 0x898 DUP7 DUP7 DUP7 DUP7 DUP7 PUSH2 0x12C3 JUMP JUMPDEST PUSH2 0xED7 PUSH2 0x113E JUMP JUMPDEST PUSH1 0x1 PUSH1 0x1 PUSH1 0xA0 SHL SUB DUP2 AND PUSH2 0xF00 JUMPI PUSH1 0x40 MLOAD PUSH4 0x1E4FBDF7 PUSH1 0xE0 SHL DUP2 MSTORE PUSH0 PUSH1 0x4 DUP3 ADD MSTORE PUSH1 0x24 ADD PUSH2 0x5BB JUMP JUMPDEST PUSH2 0xF09 DUP2 PUSH2 0x116B JUMP JUMPDEST POP JUMP JUMPDEST PUSH2 0xF14 PUSH2 0x113E JUMP JUMPDEST PUSH1 0xD SLOAD PUSH1 0xFF AND PUSH2 0xF66 JUMPI PUSH1 0x40 MLOAD PUSH3 0x461BCD PUSH1 0xE5 SHL DUP2 MSTORE PUSH1 0x20 PUSH1 0x4 DUP3 ADD MSTORE PUSH1 0x12 PUSH1 0x24 DUP3 ADD MSTORE PUSH32 0x4C6F616E206973206E6F74206163746976650000000000000000000000000000 PUSH1 0x44 DUP3 ADD MSTORE PUSH1 0x64 ADD PUSH2 0x5BB JUMP JUMPDEST PUSH1 0xD SLOAD PUSH2 0x100 SWAP1 DIV PUSH1 0xFF AND ISZERO PUSH2 0xFBE JUMPI PUSH1 0x40 MLOAD PUSH3 0x461BCD PUSH1 0xE5 SHL DUP2 MSTORE PUSH1 0x20 PUSH1 0x4 DUP3 ADD MSTORE PUSH1 0x16 PUSH1 0x24 DUP3 ADD MSTORE PUSH32 0x4C6F616E20697320616C72656164792072657061696400000000000000000000 PUSH1 0x44 DUP3 ADD MSTORE PUSH1 0x64 ADD PUSH2 0x5BB JUMP JUMPDEST PUSH0 PUSH2 0x2710 PUSH1 0x5 SLOAD PUSH1 0x4 SLOAD PUSH2 0xFD2 SWAP2 SWAP1 PUSH2 0x1DF2 JUMP JUMPDEST PUSH2 0xFDC SWAP2 SWAP1 PUSH2 0x1E09 JUMP JUMPDEST SWAP1 POP PUSH0 DUP2 PUSH1 0x4 SLOAD PUSH2 0xFED SWAP2 SWAP1 PUSH2 0x1DDF JUMP JUMPDEST SWAP1 POP DUP1 CALLVALUE LT ISZERO PUSH2 0x103F JUMPI PUSH1 0x40 MLOAD PUSH3 0x461BCD PUSH1 0xE5 SHL DUP2 MSTORE PUSH1 0x20 PUSH1 0x4 DUP3 ADD MSTORE PUSH1 0x1D PUSH1 0x24 DUP3 ADD MSTORE PUSH32 0x496E73756666696369656E742072657061796D656E7420616D6F756E74000000 PUSH1 0x44 DUP3 ADD MSTORE PUSH1 0x64 ADD PUSH2 0x5BB JUMP JUMPDEST PUSH1 0xD DUP1 SLOAD PUSH2 0xFF00 NOT AND PUSH2 0x100 OR SWAP1 SSTORE PUSH1 0x40 MLOAD PUSH32 0x1062E18F9D21DECF38F145FC9B437CD2C70E09252A729F9830B75FFDAAF37894 SWAP1 PUSH0 SWAP1 LOG1 POP POP JUMP JUMPDEST PUSH1 0x1 PUSH1 0x1 PUSH1 0xA0 SHL SUB DUP4 AND PUSH2 0x10A2 JUMPI PUSH1 0x40 MLOAD PUSH3 0x6A0D45 PUSH1 0xE2 SHL DUP2 MSTORE PUSH0 PUSH1 0x4 DUP3 ADD MSTORE PUSH1 0x24 ADD PUSH2 0x5BB JUMP JUMPDEST PUSH1 0x40 DUP1 MLOAD PUSH1 0x1 DUP1 DUP3 MSTORE PUSH1 0x20 DUP3 ADD DUP6 SWAP1 MSTORE DUP2 DUP4 ADD SWAP1 DUP2 MSTORE PUSH1 0x60 DUP3 ADD DUP5 SWAP1 MSTORE PUSH1 0xA0 DUP3 ADD SWAP1 SWAP3 MSTORE PUSH0 PUSH1 0x80 DUP3 ADD DUP2 DUP2 MSTORE SWAP2 SWAP3 SWAP2 PUSH2 0xCB3 SWAP2 DUP8 SWAP2 DUP6 SWAP1 DUP6 SWAP1 PUSH2 0x134F JUMP JUMPDEST PUSH1 0x1 PUSH1 0x1 PUSH1 0xA0 SHL SUB DUP5 AND PUSH2 0x1109 JUMPI PUSH1 0x40 MLOAD PUSH4 0x2BFA23E7 PUSH1 0xE1 SHL DUP2 MSTORE PUSH0 PUSH1 0x4 DUP3 ADD MSTORE PUSH1 0x24 ADD PUSH2 0x5BB JUMP JUMPDEST PUSH1 0x1 PUSH1 0x1 PUSH1 0xA0 SHL SUB DUP6 AND PUSH2 0x1131 JUMPI PUSH1 0x40 MLOAD PUSH3 0x6A0D45 PUSH1 0xE2 SHL DUP2 MSTORE PUSH0 PUSH1 0x4 DUP3 ADD MSTORE PUSH1 0x24 ADD PUSH2 0x5BB JUMP JUMPDEST PUSH2 0xCB3 DUP6 DUP6 DUP6 DUP6 DUP6 PUSH2 0x134F JUMP JUMPDEST PUSH1 0x3 SLOAD PUSH1 0x1 PUSH1 0x1 PUSH1 0xA0 SHL SUB AND CALLER EQ PUSH2 0x97C JUMPI PUSH1 0x40 MLOAD PUSH4 0x118CDAA7 PUSH1 0xE0 SHL DUP2 MSTORE CALLER PUSH1 0x4 DUP3 ADD MSTORE PUSH1 0x24 ADD PUSH2 0x5BB JUMP JUMPDEST PUSH1 0x3 DUP1 SLOAD PUSH1 0x1 PUSH1 0x1 PUSH1 0xA0 SHL SUB DUP4 DUP2 AND PUSH32 0xFFFFFFFFFFFFFFFFFFFFFFFF0000000000000000000000000000000000000000 DUP4 AND DUP2 OR SWAP1 SWAP4 SSTORE PUSH1 0x40 MLOAD SWAP2 AND SWAP2 SWAP1 DUP3 SWAP1 PUSH32 0x8BE0079C531659141344CD1FD0A4F28419497F9722A3DAAFE3B4186F6B6457E0 SWAP1 PUSH0 SWAP1 LOG3 POP POP JUMP JUMPDEST PUSH1 0x1 PUSH1 0x1 PUSH1 0xA0 SHL SUB DUP5 AND PUSH2 0x11FD JUMPI PUSH1 0x40 MLOAD PUSH4 0x2BFA23E7 PUSH1 0xE1 SHL DUP2 MSTORE PUSH0 PUSH1 0x4 DUP3 ADD MSTORE PUSH1 0x24 ADD PUSH2 0x5BB JUMP JUMPDEST PUSH1 0x40 DUP1 MLOAD PUSH1 0x1 DUP1 DUP3 MSTORE PUSH1 0x20 DUP3 ADD DUP7 SWAP1 MSTORE DUP2 DUP4 ADD SWAP1 DUP2 MSTORE PUSH1 0x60 DUP3 ADD DUP6 SWAP1 MSTORE PUSH1 0x80 DUP3 ADD SWAP1 SWAP3 MSTORE SWAP1 PUSH2 0x898 PUSH0 DUP8 DUP5 DUP5 DUP8 PUSH2 0x134F JUMP JUMPDEST PUSH1 0x1 PUSH1 0x1 PUSH1 0xA0 SHL SUB DUP3 AND PUSH2 0x1257 JUMPI PUSH1 0x40 MLOAD PUSH3 0xCED3E1 PUSH1 0xE8 SHL DUP2 MSTORE PUSH0 PUSH1 0x4 DUP3 ADD MSTORE PUSH1 0x24 ADD PUSH2 0x5BB JUMP JUMPDEST PUSH1 0x1 PUSH1 0x1 PUSH1 0xA0 SHL SUB DUP4 DUP2 AND PUSH0 DUP2 DUP2 MSTORE PUSH1 0x1 PUSH1 0x20 SWAP1 DUP2 MSTORE PUSH1 0x40 DUP1 DUP4 KECCAK256 SWAP5 DUP8 AND DUP1 DUP5 MSTORE SWAP5 DUP3 MSTORE SWAP2 DUP3 SWAP1 KECCAK256 DUP1 SLOAD PUSH1 0xFF NOT AND DUP7 ISZERO ISZERO SWAP1 DUP2 OR SWAP1 SWAP2 SSTORE SWAP2 MLOAD SWAP2 DUP3 MSTORE PUSH32 0x17307EAB39AB6107E8899845AD3D59BD9653F200F220920489CA2B5937696C31 SWAP2 ADD PUSH1 0x40 MLOAD DUP1 SWAP2 SUB SWAP1 LOG3 POP POP POP JUMP JUMPDEST PUSH1 0x1 PUSH1 0x1 PUSH1 0xA0 SHL SUB DUP5 AND PUSH2 0x12EC JUMPI PUSH1 0x40 MLOAD PUSH4 0x2BFA23E7 PUSH1 0xE1 SHL DUP2 MSTORE PUSH0 PUSH1 0x4 DUP3 ADD MSTORE PUSH1 0x24 ADD PUSH2 0x5BB JUMP JUMPDEST PUSH1 0x1 PUSH1 0x1 PUSH1 0xA0 SHL SUB DUP6 AND PUSH2 0x1314 JUMPI PUSH1 0x40 MLOAD PUSH3 0x6A0D45 PUSH1 0xE2 SHL DUP2 MSTORE PUSH0 PUSH1 0x4 DUP3 ADD MSTORE PUSH1 0x24 ADD PUSH2 0x5BB JUMP JUMPDEST PUSH1 0x40 DUP1 MLOAD PUSH1 0x1 DUP1 DUP3 MSTORE PUSH1 0x20 DUP3 ADD DUP7 SWAP1 MSTORE DUP2 DUP4 ADD SWAP1 DUP2 MSTORE PUSH1 0x60 DUP3 ADD DUP6 SWAP1 MSTORE PUSH1 0x80 DUP3 ADD SWAP1 SWAP3 MSTORE SWAP1 PUSH2 0x1346 DUP8 DUP8 DUP5 DUP5 DUP8 PUSH2 0x134F JUMP JUMPDEST POP POP POP POP POP POP POP JUMP JUMPDEST PUSH2 0x135B DUP6 DUP6 DUP6 DUP6 PUSH2 0x13A2 JUMP JUMPDEST PUSH1 0x1 PUSH1 0x1 PUSH1 0xA0 SHL SUB DUP5 AND ISZERO PUSH2 0xCB3 JUMPI DUP3 MLOAD CALLER SWAP1 PUSH1 0x1 SUB PUSH2 0x1394 JUMPI PUSH1 0x20 DUP5 DUP2 ADD MLOAD SWAP1 DUP5 ADD MLOAD PUSH2 0x138D DUP4 DUP10 DUP10 DUP6 DUP6 DUP10 PUSH2 0x144D JUMP JUMPDEST POP POP PUSH2 0x898 JUMP JUMPDEST PUSH2 0x898 DUP2 DUP8 DUP8 DUP8 DUP8 DUP8 PUSH2 0x156E JUMP JUMPDEST PUSH2 0x13AE DUP5 DUP5 DUP5 DUP5 PUSH2 0x1655 JUMP JUMPDEST PUSH1 0x1 PUSH1 0x1 PUSH1 0xA0 SHL SUB DUP5 AND ISZERO DUP1 PUSH2 0x13CB JUMPI POP PUSH1 0x1 PUSH1 0x1 PUSH1 0xA0 SHL SUB DUP4 AND ISZERO JUMPDEST PUSH2 0x1447 JUMPI PUSH1 0xD SLOAD PUSH1 0xFF AND PUSH2 0x1447 JUMPI PUSH1 0x40 MLOAD PUSH3 0x461BCD PUSH1 0xE5 SHL DUP2 MSTORE PUSH1 0x20 PUSH1 0x4 DUP3 ADD MSTORE PUSH1 0x33 PUSH1 0x24 DUP3 ADD MSTORE PUSH32 0x546F6B656E7320617265206E6F74207472616E7366657261626C6520756E7469 PUSH1 0x44 DUP3 ADD MSTORE PUSH32 0x6C206C6F616E2069732061637469766174656400000000000000000000000000 PUSH1 0x64 DUP3 ADD MSTORE PUSH1 0x84 ADD PUSH2 0x5BB JUMP JUMPDEST POP POP POP POP JUMP JUMPDEST PUSH1 0x1 PUSH1 0x1 PUSH1 0xA0 SHL SUB DUP5 AND EXTCODESIZE ISZERO PUSH2 0x898 JUMPI PUSH1 0x40 MLOAD PUSH4 0xF23A6E61 PUSH1 0xE0 SHL DUP2 MSTORE PUSH1 0x1 PUSH1 0x1 PUSH1 0xA0 SHL SUB DUP6 AND SWAP1 PUSH4 0xF23A6E61 SWAP1 PUSH2 0x1491 SWAP1 DUP10 SWAP1 DUP10 SWAP1 DUP9 SWAP1 DUP9 SWAP1 DUP9 SWAP1 PUSH1 0x4 ADD PUSH2 0x1E28 JUMP JUMPDEST PUSH1 0x20 PUSH1 0x40 MLOAD DUP1 DUP4 SUB DUP2 PUSH0 DUP8 GAS CALL SWAP3 POP POP POP DUP1 ISZERO PUSH2 0x14CB JUMPI POP PUSH1 0x40 DUP1 MLOAD PUSH1 0x1F RETURNDATASIZE SWAP1 DUP2 ADD PUSH1 0x1F NOT AND DUP3 ADD SWAP1 SWAP3 MSTORE PUSH2 0x14C8 SWAP2 DUP2 ADD SWAP1 PUSH2 0x1E6A JUMP JUMPDEST PUSH1 0x1 JUMPDEST PUSH2 0x1532 JUMPI RETURNDATASIZE DUP1 DUP1 ISZERO PUSH2 0x14F8 JUMPI PUSH1 0x40 MLOAD SWAP2 POP PUSH1 0x1F NOT PUSH1 0x3F RETURNDATASIZE ADD AND DUP3 ADD PUSH1 0x40 MSTORE RETURNDATASIZE DUP3 MSTORE RETURNDATASIZE PUSH0 PUSH1 0x20 DUP5 ADD RETURNDATACOPY PUSH2 0x14FD JUMP JUMPDEST PUSH1 0x60 SWAP2 POP JUMPDEST POP DUP1 MLOAD PUSH0 SUB PUSH2 0x152A JUMPI PUSH1 0x40 MLOAD PUSH4 0x2BFA23E7 PUSH1 0xE1 SHL DUP2 MSTORE PUSH1 0x1 PUSH1 0x1 PUSH1 0xA0 SHL SUB DUP7 AND PUSH1 0x4 DUP3 ADD MSTORE PUSH1 0x24 ADD PUSH2 0x5BB JUMP JUMPDEST DUP1 MLOAD DUP2 PUSH1 0x20 ADD REVERT JUMPDEST PUSH1 0x1 PUSH1 0x1 PUSH1 0xE0 SHL SUB NOT DUP2 AND PUSH4 0xF23A6E61 PUSH1 0xE0 SHL EQ PUSH2 0x1346 JUMPI PUSH1 0x40 MLOAD PUSH4 0x2BFA23E7 PUSH1 0xE1 SHL DUP2 MSTORE PUSH1 0x1 PUSH1 0x1 PUSH1 0xA0 SHL SUB DUP7 AND PUSH1 0x4 DUP3 ADD MSTORE PUSH1 0x24 ADD PUSH2 0x5BB JUMP JUMPDEST PUSH1 0x1 PUSH1 0x1 PUSH1 0xA0 SHL SUB DUP5 AND EXTCODESIZE ISZERO PUSH2 0x898 JUMPI PUSH1 0x40 MLOAD PUSH4 0xBC197C81 PUSH1 0xE0 SHL DUP2 MSTORE PUSH1 0x1 PUSH1 0x1 PUSH1 0xA0 SHL SUB DUP6 AND SWAP1 PUSH4 0xBC197C81 SWAP1 PUSH2 0x15B2 SWAP1 DUP10 SWAP1 DUP10 SWAP1 DUP9 SWAP1 DUP9 SWAP1 DUP9 SWAP1 PUSH1 0x4 ADD PUSH2 0x1E85 JUMP JUMPDEST PUSH1 0x20 PUSH1 0x40 MLOAD DUP1 DUP4 SUB DUP2 PUSH0 DUP8 GAS CALL SWAP3 POP POP POP DUP1 ISZERO PUSH2 0x15EC JUMPI POP PUSH1 0x40 DUP1 MLOAD PUSH1 0x1F RETURNDATASIZE SWAP1 DUP2 ADD PUSH1 0x1F NOT AND DUP3 ADD SWAP1 SWAP3 MSTORE PUSH2 0x15E9 SWAP2 DUP2 ADD SWAP1 PUSH2 0x1E6A JUMP JUMPDEST PUSH1 0x1 JUMPDEST PUSH2 0x1619 JUMPI RETURNDATASIZE DUP1 DUP1 ISZERO PUSH2 0x14F8 JUMPI PUSH1 0x40 MLOAD SWAP2 POP PUSH1 0x1F NOT PUSH1 0x3F RETURNDATASIZE ADD AND DUP3 ADD PUSH1 0x40 MSTORE RETURNDATASIZE DUP3 MSTORE RETURNDATASIZE PUSH0 PUSH1 0x20 DUP5 ADD RETURNDATACOPY PUSH2 0x14FD JUMP JUMPDEST PUSH1 0x1 PUSH1 0x1 PUSH1 0xE0 SHL SUB NOT DUP2 AND PUSH4 0xBC197C81 PUSH1 0xE0 SHL EQ PUSH2 0x1346 JUMPI PUSH1 0x40 MLOAD PUSH4 0x2BFA23E7 PUSH1 0xE1 SHL DUP2 MSTORE PUSH1 0x1 PUSH1 0x1 PUSH1 0xA0 SHL SUB DUP7 AND PUSH1 0x4 DUP3 ADD MSTORE PUSH1 0x24 ADD PUSH2 0x5BB JUMP JUMPDEST DUP1 MLOAD DUP3 MLOAD EQ PUSH2 0x1684 JUMPI DUP2 MLOAD DUP2 MLOAD PUSH1 0x40 MLOAD PUSH4 0x5B059991 PUSH1 0xE0 SHL DUP2 MSTORE PUSH1 0x4 DUP2 ADD SWAP3 SWAP1 SWAP3 MSTORE PUSH1 0x24 DUP3 ADD MSTORE PUSH1 0x44 ADD PUSH2 0x5BB JUMP JUMPDEST CALLER PUSH0 JUMPDEST DUP4 MLOAD DUP2 LT ISZERO PUSH2 0x1786 JUMPI PUSH1 0x20 DUP2 DUP2 MUL DUP6 DUP2 ADD DUP3 ADD MLOAD SWAP1 DUP6 ADD SWAP1 SWAP2 ADD MLOAD PUSH1 0x1 PUSH1 0x1 PUSH1 0xA0 SHL SUB DUP9 AND ISZERO PUSH2 0x1738 JUMPI PUSH0 DUP3 DUP2 MSTORE PUSH1 0x20 DUP2 DUP2 MSTORE PUSH1 0x40 DUP1 DUP4 KECCAK256 PUSH1 0x1 PUSH1 0x1 PUSH1 0xA0 SHL SUB DUP13 AND DUP5 MSTORE SWAP1 SWAP2 MSTORE SWAP1 KECCAK256 SLOAD DUP2 DUP2 LT ISZERO PUSH2 0x1712 JUMPI PUSH1 0x40 MLOAD PUSH4 0x3DEE4C5 PUSH1 0xE0 SHL DUP2 MSTORE PUSH1 0x1 PUSH1 0x1 PUSH1 0xA0 SHL SUB DUP11 AND PUSH1 0x4 DUP3 ADD MSTORE PUSH1 0x24 DUP2 ADD DUP3 SWAP1 MSTORE PUSH1 0x44 DUP2 ADD DUP4 SWAP1 MSTORE PUSH1 0x64 DUP2 ADD DUP5 SWAP1 MSTORE PUSH1 0x84 ADD PUSH2 0x5BB JUMP JUMPDEST PUSH0 DUP4 DUP2 MSTORE PUSH1 0x20 DUP2 DUP2 MSTORE PUSH1 0x40 DUP1 DUP4 KECCAK256 PUSH1 0x1 PUSH1 0x1 PUSH1 0xA0 SHL SUB DUP14 AND DUP5 MSTORE SWAP1 SWAP2 MSTORE SWAP1 KECCAK256 SWAP1 DUP3 SWAP1 SUB SWAP1 SSTORE JUMPDEST PUSH1 0x1 PUSH1 0x1 PUSH1 0xA0 SHL SUB DUP8 AND ISZERO PUSH2 0x177C JUMPI PUSH0 DUP3 DUP2 MSTORE PUSH1 0x20 DUP2 DUP2 MSTORE PUSH1 0x40 DUP1 DUP4 KECCAK256 PUSH1 0x1 PUSH1 0x1 PUSH1 0xA0 SHL SUB DUP12 AND DUP5 MSTORE SWAP1 SWAP2 MSTORE DUP2 KECCAK256 DUP1 SLOAD DUP4 SWAP3 SWAP1 PUSH2 0x1776 SWAP1 DUP5 SWAP1 PUSH2 0x1DDF JUMP JUMPDEST SWAP1 SWAP2 SSTORE POP POP JUMPDEST POP POP PUSH1 0x1 ADD PUSH2 0x1687 JUMP JUMPDEST POP DUP3 MLOAD PUSH1 0x1 SUB PUSH2 0x1806 JUMPI PUSH1 0x20 DUP4 ADD MLOAD PUSH0 SWAP1 PUSH1 0x20 DUP5 ADD MLOAD SWAP1 SWAP2 POP DUP6 PUSH1 0x1 PUSH1 0x1 PUSH1 0xA0 SHL SUB AND DUP8 PUSH1 0x1 PUSH1 0x1 PUSH1 0xA0 SHL SUB AND DUP5 PUSH1 0x1 PUSH1 0x1 PUSH1 0xA0 SHL SUB AND PUSH32 0xC3D58168C5AE7397731D063D5BBF3D657854427343F4C083240F7AACAA2D0F62 DUP6 DUP6 PUSH1 0x40 MLOAD PUSH2 0x17F7 SWAP3 SWAP2 SWAP1 SWAP2 DUP3 MSTORE PUSH1 0x20 DUP3 ADD MSTORE PUSH1 0x40 ADD SWAP1 JUMP JUMPDEST PUSH1 0x40 MLOAD DUP1 SWAP2 SUB SWAP1 LOG4 POP POP PUSH2 0xCB3 JUMP JUMPDEST DUP4 PUSH1 0x1 PUSH1 0x1 PUSH1 0xA0 SHL SUB AND DUP6 PUSH1 0x1 PUSH1 0x1 PUSH1 0xA0 SHL SUB AND DUP3 PUSH1 0x1 PUSH1 0x1 PUSH1 0xA0 SHL SUB AND PUSH32 0x4A39DC06D4C0DBC64B70AF90FD698A233A518AA5D07E595D983B8C0526C8F7FB DUP7 DUP7 PUSH1 0x40 MLOAD PUSH2 0x1855 SWAP3 SWAP2 SWAP1 PUSH2 0x1EE2 JUMP JUMPDEST PUSH1 0x40 MLOAD DUP1 SWAP2 SUB SWAP1 LOG4 POP POP POP POP POP JUMP JUMPDEST DUP1 CALLDATALOAD PUSH1 0x1 PUSH1 0x1 PUSH1 0xA0 SHL SUB DUP2 AND DUP2 EQ PUSH2 0x187A JUMPI PUSH0 DUP1 REVERT JUMPDEST SWAP2 SWAP1 POP JUMP JUMPDEST PUSH0 DUP1 PUSH1 0x40 DUP4 DUP6 SUB SLT ISZERO PUSH2 0x1890 JUMPI PUSH0 DUP1 REVERT JUMPDEST PUSH2 0x1899 DUP4 PUSH2 0x1864 JUMP JUMPDEST SWAP5 PUSH1 0x20 SWAP4 SWAP1 SWAP4 ADD CALLDATALOAD SWAP4 POP POP POP JUMP JUMPDEST PUSH1 0x1 PUSH1 0x1 PUSH1 0xE0 SHL SUB NOT DUP2 AND DUP2 EQ PUSH2 0xF09 JUMPI PUSH0 DUP1 REVERT JUMPDEST PUSH0 PUSH1 0x20 DUP3 DUP5 SUB SLT ISZERO PUSH2 0x18CC JUMPI PUSH0 DUP1 REVERT JUMPDEST DUP2 CALLDATALOAD PUSH2 0x18D7 DUP2 PUSH2 0x18A7 JUMP JUMPDEST SWAP4 SWAP3 POP POP POP JUMP JUMPDEST PUSH0 PUSH1 0x20 DUP3 DUP5 SUB SLT ISZERO PUSH2 0x18EE JUMPI PUSH0 DUP1 REVERT JUMPDEST POP CALLDATALOAD SWAP2 SWAP1 POP JUMP JUMPDEST PUSH0 DUP2 MLOAD DUP1 DUP5 MSTORE DUP1 PUSH1 0x20 DUP5 ADD PUSH1 0x20 DUP7 ADD MCOPY PUSH0 PUSH1 0x20 DUP3 DUP7 ADD ADD MSTORE PUSH1 0x20 PUSH1 0x1F NOT PUSH1 0x1F DUP4 ADD AND DUP6 ADD ADD SWAP2 POP POP SWAP3 SWAP2 POP POP JUMP JUMPDEST PUSH1 0x20 DUP2 MSTORE PUSH0 PUSH2 0x18D7 PUSH1 0x20 DUP4 ADD DUP5 PUSH2 0x18F5 JUMP JUMPDEST PUSH4 0x4E487B71 PUSH1 0xE0 SHL PUSH0 MSTORE PUSH1 0x41 PUSH1 0x4 MSTORE PUSH1 0x24 PUSH0 REVERT JUMPDEST PUSH1 0x40 MLOAD PUSH1 0x1F DUP3 ADD PUSH1 0x1F NOT AND DUP2 ADD PUSH8 0xFFFFFFFFFFFFFFFF DUP2 GT DUP3 DUP3 LT OR ISZERO PUSH2 0x1972 JUMPI PUSH2 0x1972 PUSH2 0x1935 JUMP JUMPDEST PUSH1 0x40 MSTORE SWAP2 SWAP1 POP JUMP JUMPDEST PUSH0 PUSH8 0xFFFFFFFFFFFFFFFF DUP3 GT ISZERO PUSH2 0x1993 JUMPI PUSH2 0x1993 PUSH2 0x1935 JUMP JUMPDEST POP PUSH1 0x5 SHL PUSH1 0x20 ADD SWAP1 JUMP JUMPDEST PUSH0 DUP3 PUSH1 0x1F DUP4 ADD SLT PUSH2 0x19AC JUMPI PUSH0 DUP1 REVERT JUMPDEST DUP2 CALLDATALOAD PUSH1 0x20 PUSH2 0x19C1 PUSH2 0x19BC DUP4 PUSH2 0x197A JUMP JUMPDEST PUSH2 0x1949 JUMP JUMPDEST DUP1 DUP4 DUP3 MSTORE PUSH1 0x20 DUP3 ADD SWAP2 POP PUSH1 0x20 DUP5 PUSH1 0x5 SHL DUP8 ADD ADD SWAP4 POP DUP7 DUP5 GT ISZERO PUSH2 0x19E2 JUMPI PUSH0 DUP1 REVERT JUMPDEST PUSH1 0x20 DUP7 ADD JUMPDEST DUP5 DUP2 LT ISZERO PUSH2 0x19FE JUMPI DUP1 CALLDATALOAD DUP4 MSTORE SWAP2 DUP4 ADD SWAP2 DUP4 ADD PUSH2 0x19E7 JUMP JUMPDEST POP SWAP7 SWAP6 POP POP POP POP POP POP JUMP JUMPDEST PUSH0 DUP3 PUSH1 0x1F DUP4 ADD SLT PUSH2 0x1A18 JUMPI PUSH0 DUP1 REVERT JUMPDEST DUP2 CALLDATALOAD PUSH8 0xFFFFFFFFFFFFFFFF DUP2 GT ISZERO PUSH2 0x1A32 JUMPI PUSH2 0x1A32 PUSH2 0x1935 JUMP JUMPDEST PUSH2 0x1A45 PUSH1 0x1F DUP3 ADD PUSH1 0x1F NOT AND PUSH1 0x20 ADD PUSH2 0x1949 JUMP JUMPDEST DUP2 DUP2 MSTORE DUP5 PUSH1 0x20 DUP4 DUP7 ADD ADD GT ISZERO PUSH2 0x1A59 JUMPI PUSH0 DUP1 REVERT JUMPDEST DUP2 PUSH1 0x20 DUP6 ADD PUSH1 0x20 DUP4 ADD CALLDATACOPY PUSH0 SWAP2 DUP2 ADD PUSH1 0x20 ADD SWAP2 SWAP1 SWAP2 MSTORE SWAP4 SWAP3 POP POP POP JUMP JUMPDEST PUSH0 DUP1 PUSH0 DUP1 PUSH0 PUSH1 0xA0 DUP7 DUP9 SUB SLT ISZERO PUSH2 0x1A89 JUMPI PUSH0 DUP1 REVERT JUMPDEST PUSH2 0x1A92 DUP7 PUSH2 0x1864 JUMP JUMPDEST SWAP5 POP PUSH2 0x1AA0 PUSH1 0x20 DUP8 ADD PUSH2 0x1864 JUMP JUMPDEST SWAP4 POP PUSH1 0x40 DUP7 ADD CALLDATALOAD PUSH8 0xFFFFFFFFFFFFFFFF DUP1 DUP3 GT ISZERO PUSH2 0x1ABC JUMPI PUSH0 DUP1 REVERT JUMPDEST PUSH2 0x1AC8 DUP10 DUP4 DUP11 ADD PUSH2 0x199D JUMP JUMPDEST SWAP5 POP PUSH1 0x60 DUP9 ADD CALLDATALOAD SWAP2 POP DUP1 DUP3 GT ISZERO PUSH2 0x1ADD JUMPI PUSH0 DUP1 REVERT JUMPDEST PUSH2 0x1AE9 DUP10 DUP4 DUP11 ADD PUSH2 0x199D JUMP JUMPDEST SWAP4 POP PUSH1 0x80 DUP9 ADD CALLDATALOAD SWAP2 POP DUP1 DUP3 GT ISZERO PUSH2 0x1AFE JUMPI PUSH0 DUP1 REVERT JUMPDEST POP PUSH2 0x1B0B DUP9 DUP3 DUP10 ADD PUSH2 0x1A09 JUMP JUMPDEST SWAP2 POP POP SWAP3 SWAP6 POP SWAP3 SWAP6 SWAP1 SWAP4 POP JUMP JUMPDEST PUSH0 DUP1 PUSH1 0x40 DUP4 DUP6 SUB SLT ISZERO PUSH2 0x1B29 JUMPI PUSH0 DUP1 REVERT JUMPDEST DUP3 CALLDATALOAD PUSH8 0xFFFFFFFFFFFFFFFF DUP1 DUP3 GT ISZERO PUSH2 0x1B40 JUMPI PUSH0 DUP1 REVERT JUMPDEST DUP2 DUP6 ADD SWAP2 POP DUP6 PUSH1 0x1F DUP4 ADD SLT PUSH2 0x1B53 JUMPI PUSH0 DUP1 REVERT JUMPDEST DUP2 CALLDATALOAD PUSH1 0x20 PUSH2 0x1B63 PUSH2 0x19BC DUP4 PUSH2 0x197A JUMP JUMPDEST DUP3 DUP2 MSTORE PUSH1 0x5 SWAP3 SWAP1 SWAP3 SHL DUP5 ADD DUP2 ADD SWAP2 DUP2 DUP2 ADD SWAP1 DUP10 DUP5 GT ISZERO PUSH2 0x1B81 JUMPI PUSH0 DUP1 REVERT JUMPDEST SWAP5 DUP3 ADD SWAP5 JUMPDEST DUP4 DUP7 LT ISZERO PUSH2 0x1BA6 JUMPI PUSH2 0x1B97 DUP7 PUSH2 0x1864 JUMP JUMPDEST DUP3 MSTORE SWAP5 DUP3 ADD SWAP5 SWAP1 DUP3 ADD SWAP1 PUSH2 0x1B86 JUMP JUMPDEST SWAP7 POP POP DUP7 ADD CALLDATALOAD SWAP3 POP POP DUP1 DUP3 GT ISZERO PUSH2 0x1BBB JUMPI PUSH0 DUP1 REVERT JUMPDEST POP PUSH2 0x1BC8 DUP6 DUP3 DUP7 ADD PUSH2 0x199D JUMP JUMPDEST SWAP2 POP POP SWAP3 POP SWAP3 SWAP1 POP JUMP JUMPDEST PUSH0 DUP2 MLOAD DUP1 DUP5 MSTORE PUSH1 0x20 DUP1 DUP6 ADD SWAP5 POP PUSH1 0x20 DUP5 ADD PUSH0 JUMPDEST DUP4 DUP2 LT ISZERO PUSH2 0x1C01 JUMPI DUP2 MLOAD DUP8 MSTORE SWAP6 DUP3 ADD SWAP6 SWAP1 DUP3 ADD SWAP1 PUSH1 0x1 ADD PUSH2 0x1BE5 JUMP JUMPDEST POP SWAP5 SWAP6 SWAP5 POP POP POP POP POP JUMP JUMPDEST PUSH1 0x20 DUP2 MSTORE PUSH0 PUSH2 0x18D7 PUSH1 0x20 DUP4 ADD DUP5 PUSH2 0x1BD2 JUMP JUMPDEST PUSH0 DUP1 PUSH1 0x40 DUP4 DUP6 SUB SLT ISZERO PUSH2 0x1C2F JUMPI PUSH0 DUP1 REVERT JUMPDEST PUSH2 0x1C38 DUP4 PUSH2 0x1864 JUMP JUMPDEST SWAP2 POP PUSH1 0x20 DUP4 ADD CALLDATALOAD DUP1 ISZERO ISZERO DUP2 EQ PUSH2 0x1C4C JUMPI PUSH0 DUP1 REVERT JUMPDEST DUP1 SWAP2 POP POP SWAP3 POP SWAP3 SWAP1 POP JUMP JUMPDEST PUSH0 PUSH2 0x160 DUP14 DUP4 MSTORE DUP13 PUSH1 0x20 DUP5 ADD MSTORE DUP12 PUSH1 0x40 DUP5 ADD MSTORE DUP11 PUSH1 0x60 DUP5 ADD MSTORE DUP10 PUSH1 0x80 DUP5 ADD MSTORE DUP1 PUSH1 0xA0 DUP5 ADD MSTORE PUSH2 0x1C88 DUP2 DUP5 ADD DUP11 PUSH2 0x18F5 JUMP JUMPDEST SWAP1 POP DUP3 DUP2 SUB PUSH1 0xC0 DUP5 ADD MSTORE PUSH2 0x1C9C DUP2 DUP10 PUSH2 0x18F5 JUMP JUMPDEST PUSH1 0x1 PUSH1 0x1 PUSH1 0xA0 SHL SUB SWAP8 SWAP1 SWAP8 AND PUSH1 0xE0 DUP5 ADD MSTORE POP POP PUSH2 0x100 DUP2 ADD SWAP4 SWAP1 SWAP4 MSTORE SWAP1 ISZERO ISZERO PUSH2 0x120 DUP4 ADD MSTORE ISZERO ISZERO PUSH2 0x140 SWAP1 SWAP2 ADD MSTORE SWAP8 SWAP7 POP POP POP POP POP POP POP JUMP JUMPDEST PUSH0 DUP1 PUSH1 0x40 DUP4 DUP6 SUB SLT ISZERO PUSH2 0x1CE6 JUMPI PUSH0 DUP1 REVERT JUMPDEST PUSH2 0x1CEF DUP4 PUSH2 0x1864 JUMP JUMPDEST SWAP2 POP PUSH2 0x1CFD PUSH1 0x20 DUP5 ADD PUSH2 0x1864 JUMP JUMPDEST SWAP1 POP SWAP3 POP SWAP3 SWAP1 POP JUMP JUMPDEST PUSH0 DUP1 PUSH0 DUP1 PUSH0 PUSH1 0xA0 DUP7 DUP9 SUB SLT ISZERO PUSH2 0x1D1A JUMPI PUSH0 DUP1 REVERT JUMPDEST PUSH2 0x1D23 DUP7 PUSH2 0x1864 JUMP JUMPDEST SWAP5 POP PUSH2 0x1D31 PUSH1 0x20 DUP8 ADD PUSH2 0x1864 JUMP JUMPDEST SWAP4 POP PUSH1 0x40 DUP7 ADD CALLDATALOAD SWAP3 POP PUSH1 0x60 DUP7 ADD CALLDATALOAD SWAP2 POP PUSH1 0x80 DUP7 ADD CALLDATALOAD PUSH8 0xFFFFFFFFFFFFFFFF DUP2 GT ISZERO PUSH2 0x1D5A JUMPI PUSH0 DUP1 REVERT JUMPDEST PUSH2 0x1B0B DUP9 DUP3 DUP10 ADD PUSH2 0x1A09 JUMP JUMPDEST PUSH0 PUSH1 0x20 DUP3 DUP5 SUB SLT ISZERO PUSH2 0x1D76 JUMPI PUSH0 DUP1 REVERT JUMPDEST PUSH2 0x18D7 DUP3 PUSH2 0x1864 JUMP JUMPDEST PUSH1 0x1 DUP2 DUP2 SHR SWAP1 DUP3 AND DUP1 PUSH2 0x1D93 JUMPI PUSH1 0x7F DUP3 AND SWAP2 POP JUMPDEST PUSH1 0x20 DUP3 LT DUP2 SUB PUSH2 0x1DB1 JUMPI PUSH4 0x4E487B71 PUSH1 0xE0 SHL PUSH0 MSTORE PUSH1 0x22 PUSH1 0x4 MSTORE PUSH1 0x24 PUSH0 REVERT JUMPDEST POP SWAP2 SWAP1 POP JUMP JUMPDEST PUSH4 0x4E487B71 PUSH1 0xE0 SHL PUSH0 MSTORE PUSH1 0x32 PUSH1 0x4 MSTORE PUSH1 0x24 PUSH0 REVERT JUMPDEST PUSH4 0x4E487B71 PUSH1 0xE0 SHL PUSH0 MSTORE PUSH1 0x11 PUSH1 0x4 MSTORE PUSH1 0x24 PUSH0 REVERT JUMPDEST DUP1 DUP3 ADD DUP1 DUP3 GT ISZERO PUSH2 0x518 JUMPI PUSH2 0x518 PUSH2 0x1DCB JUMP JUMPDEST DUP1 DUP3 MUL DUP2 ISZERO DUP3 DUP3 DIV DUP5 EQ OR PUSH2 0x518 JUMPI PUSH2 0x518 PUSH2 0x1DCB JUMP JUMPDEST PUSH0 DUP3 PUSH2 0x1E23 JUMPI PUSH4 0x4E487B71 PUSH1 0xE0 SHL PUSH0 MSTORE PUSH1 0x12 PUSH1 0x4 MSTORE PUSH1 0x24 PUSH0 REVERT JUMPDEST POP DIV SWAP1 JUMP JUMPDEST PUSH0 PUSH1 0x1 PUSH1 0x1 PUSH1 0xA0 SHL SUB DUP1 DUP9 AND DUP4 MSTORE DUP1 DUP8 AND PUSH1 0x20 DUP5 ADD MSTORE POP DUP5 PUSH1 0x40 DUP4 ADD MSTORE DUP4 PUSH1 0x60 DUP4 ADD MSTORE PUSH1 0xA0 PUSH1 0x80 DUP4 ADD MSTORE PUSH2 0x1E5F PUSH1 0xA0 DUP4 ADD DUP5 PUSH2 0x18F5 JUMP JUMPDEST SWAP8 SWAP7 POP POP POP POP POP POP POP JUMP JUMPDEST PUSH0 PUSH1 0x20 DUP3 DUP5 SUB SLT ISZERO PUSH2 0x1E7A JUMPI PUSH0 DUP1 REVERT JUMPDEST DUP2 MLOAD PUSH2 0x18D7 DUP2 PUSH2 0x18A7 JUMP JUMPDEST PUSH0 PUSH1 0x1 PUSH1 0x1 PUSH1 0xA0 SHL SUB DUP1 DUP9 AND DUP4 MSTORE DUP1 DUP8 AND PUSH1 0x20 DUP5 ADD MSTORE POP PUSH1 0xA0 PUSH1 0x40 DUP4 ADD MSTORE PUSH2 0x1EB0 PUSH1 0xA0 DUP4 ADD DUP7 PUSH2 0x1BD2 JUMP JUMPDEST DUP3 DUP2 SUB PUSH1 0x60 DUP5 ADD MSTORE PUSH2 0x1EC2 DUP2 DUP7 PUSH2 0x1BD2 JUMP JUMPDEST SWAP1 POP DUP3 DUP2 SUB PUSH1 0x80 DUP5 ADD MSTORE PUSH2 0x1ED6 DUP2 DUP6 PUSH2 0x18F5 JUMP JUMPDEST SWAP9 SWAP8 POP POP POP POP POP POP POP POP JUMP JUMPDEST PUSH1 0x40 DUP2 MSTORE PUSH0 PUSH2 0x1EF4 PUSH1 0x40 DUP4 ADD DUP6 PUSH2 0x1BD2 JUMP JUMPDEST DUP3 DUP2 SUB PUSH1 0x20 DUP5 ADD MSTORE PUSH2 0x1F06 DUP2 DUP6 PUSH2 0x1BD2 JUMP JUMPDEST SWAP6 SWAP5 POP POP POP POP POP JUMP INVALID LOG2 PUSH5 0x6970667358 0x22 SLT KECCAK256 MSTORE 0xA7 0x4E PUSH4 0x487804AC 0x2C XOR PUSH3 0xFF28ED MOD 0xAF LOG4 0xF9 0xB7 0xC8 PUSH12 0x5DE6D4A1012C6A5B26FB5664 PUSH20 0x6F6C63430008190033A264697066735822122046 PUSH10 0xB2F7E98661830A93A962 0x4F PUSH5 0x1C21A6CABD MSTORE8 SWAP4 PUSH14 0xF2FF8DF6D2A5FAE0D6B864736F6C PUSH4 0x43000819 STOP CALLER "
    },
    "gasEstimates": {
      "creation": {
        "codeDepositCost": "2195000",
        "executionCost": "28198",
        "totalCost": "2223198"
      },
      "external": {
        "borrowerLoans(address,uint256)": "4823",
        "createLoan(uint256,uint256,uint256,uint256,string,string)": "infinite",
        "getAllLoans()": "infinite",
        "getLoanCount()": "2269",
        "getLoansByBorrower(address)": "infinite",
        "loans(uint256)": "4633",
        "owner()": "2385",
        "renounceOwnership()": "infinite",
        "transferOwnership(address)": "28383"
      }
    },
    "methodIdentifiers": {
      "borrowerLoans(address,uint256)": "e3ed1902",
      "createLoan(uint256,uint256,uint256,uint256,string,string)": "c828da9b",
      "getAllLoans()": "a5bfd16a",
      "getLoanCount()": "52196812",
      "getLoansByBorrower(address)": "86a2a438",
      "loans(uint256)": "e1ec3c68",
      "owner()": "8da5cb5b",
      "renounceOwnership()": "715018a6",
      "transferOwnership(address)": "f2fde38b"
    }
  },
  "storageLayout": {
    "storage": [
      {
        "astId": 599,
        "contract": "LndyLauncher.sol:LndyLauncher",
        "label": "_owner",
        "offset": 0,
        "slot": "0",
        "type": "t_address"
      },
      {
        "astId": 9,
        "contract": "LndyLauncher.sol:LndyLauncher",
        "label": "loans",
        "offset": 0,
        "slot": "1",
        "type": "t_array(t_address)dyn_storage"
      },
      {
        "astId": 14,
        "contract": "LndyLauncher.sol:LndyLauncher",
        "label": "borrowerLoans",
        "offset": 0,
        "slot": "2",
        "type": "t_mapping(t_address,t_array(t_address)dyn_storage)"
      }
    ],
    "types": {
      "t_address": {
        "encoding": "inplace",
        "label": "address",
        "numberOfBytes": "20"
      },
      "t_array(t_address)dyn_storage": {
        "base": "t_address",
        "encoding": "dynamic_array",
        "label": "address[]",
        "numberOfBytes": "32"
      },
      "t_mapping(t_address,t_array(t_address)dyn_storage)": {
        "encoding": "mapping",
        "key": "t_address",
        "label": "mapping(address => address[])",
        "numberOfBytes": "32",
        "value": "t_array(t_address)dyn_storage"
      }
    }
  },
  "userdoc": {
    "kind": "user",
    "methods": {},
    "version": 1
  }
}