{
  "abi": [
    {
      "inputs": [
        {
          "internalType": "uint256",
          "name": "_loanAmount",
          "type": "uint256"
        },
        {
          "internalType": "uint256",
          "name": "_interestRate",
          "type": "uint256"
        },
        {
          "internalType": "uint256",
          "name": "_duration",
          "type": "uint256"
        },
        {
          "internalType": "uint256",
          "name": "_fundingPeriod",
          "type": "uint256"
        },
        {
          "internalType": "string",
          "name": "_description",
          "type": "string"
        },
        {
          "internalType": "address",
          "name": "_borrower",
          "type": "address"
        }
      ],
      "stateMutability": "nonpayable",
      "type": "constructor"
    },
    {
      "inputs": [
        {
          "internalType": "address",
          "name": "sender",
          "type": "address"
        },
        {
          "internalType": "uint256",
          "name": "balance",
          "type": "uint256"
        },
        {
          "internalType": "uint256",
          "name": "needed",
          "type": "uint256"
        },
        {
          "internalType": "uint256",
          "name": "tokenId",
          "type": "uint256"
        }
      ],
      "name": "ERC1155InsufficientBalance",
      "type": "error"
    },
    {
      "inputs": [
        {
          "internalType": "address",
          "name": "approver",
          "type": "address"
        }
      ],
      "name": "ERC1155InvalidApprover",
      "type": "error"
    },
    {
      "inputs": [
        {
          "internalType": "uint256",
          "name": "idsLength",
          "type": "uint256"
        },
        {
          "internalType": "uint256",
          "name": "valuesLength",
          "type": "uint256"
        }
      ],
      "name": "ERC1155InvalidArrayLength",
      "type": "error"
    },
    {
      "inputs": [
        {
          "internalType": "address",
          "name": "operator",
          "type": "address"
        }
      ],
      "name": "ERC1155InvalidOperator",
      "type": "error"
    },
    {
      "inputs": [
        {
          "internalType": "address",
          "name": "receiver",
          "type": "address"
        }
      ],
      "name": "ERC1155InvalidReceiver",
      "type": "error"
    },
    {
      "inputs": [
        {
          "internalType": "address",
          "name": "sender",
          "type": "address"
        }
      ],
      "name": "ERC1155InvalidSender",
      "type": "error"
    },
    {
      "inputs": [
        {
          "internalType": "address",
          "name": "operator",
          "type": "address"
        },
        {
          "internalType": "address",
          "name": "owner",
          "type": "address"
        }
      ],
      "name": "ERC1155MissingApprovalForAll",
      "type": "error"
    },
    {
      "inputs": [
        {
          "internalType": "address",
          "name": "owner",
          "type": "address"
        }
      ],
      "name": "OwnableInvalidOwner",
      "type": "error"
    },
    {
      "inputs": [
        {
          "internalType": "address",
          "name": "account",
          "type": "address"
        }
      ],
      "name": "OwnableUnauthorizedAccount",
      "type": "error"
    },
    {
      "anonymous": false,
      "inputs": [
        {
          "indexed": true,
          "internalType": "address",
          "name": "account",
          "type": "address"
        },
        {
          "indexed": true,
          "internalType": "address",
          "name": "operator",
          "type": "address"
        },
        {
          "indexed": false,
          "internalType": "bool",
          "name": "approved",
          "type": "bool"
        }
      ],
      "name": "ApprovalForAll",
      "type": "event"
    },
    {
      "anonymous": false,
      "inputs": [
        {
          "indexed": false,
          "internalType": "uint256",
          "name": "totalFunded",
          "type": "uint256"
        }
      ],
      "name": "LoanActivated",
      "type": "event"
    },
    {
      "anonymous": false,
      "inputs": [
        {
          "indexed": false,
          "internalType": "address",
          "name": "borrower",
          "type": "address"
        },
        {
          "indexed": false,
          "internalType": "uint256",
          "name": "amount",
          "type": "uint256"
        },
        {
          "indexed": false,
          "internalType": "uint256",
          "name": "interestRate",
          "type": "uint256"
        },
        {
          "indexed": false,
          "internalType": "uint256",
          "name": "duration",
          "type": "uint256"
        }
      ],
      "name": "LoanCreated",
      "type": "event"
    },
    {
      "anonymous": false,
      "inputs": [
        {
          "indexed": false,
          "internalType": "address",
          "name": "funder",
          "type": "address"
        },
        {
          "indexed": false,
          "internalType": "uint256",
          "name": "amount",
          "type": "uint256"
        }
      ],
      "name": "LoanFunded",
      "type": "event"
    },
    {
      "anonymous": false,
      "inputs": [],
      "name": "LoanRepaid",
      "type": "event"
    },
    {
      "anonymous": false,
      "inputs": [
        {
          "indexed": true,
          "internalType": "address",
          "name": "previousOwner",
          "type": "address"
        },
        {
          "indexed": true,
          "internalType": "address",
          "name": "newOwner",
          "type": "address"
        }
      ],
      "name": "OwnershipTransferred",
      "type": "event"
    },
    {
      "anonymous": false,
      "inputs": [
        {
          "indexed": true,
          "internalType": "address",
          "name": "operator",
          "type": "address"
        },
        {
          "indexed": true,
          "internalType": "address",
          "name": "from",
          "type": "address"
        },
        {
          "indexed": true,
          "internalType": "address",
          "name": "to",
          "type": "address"
        },
        {
          "indexed": false,
          "internalType": "uint256[]",
          "name": "ids",
          "type": "uint256[]"
        },
        {
          "indexed": false,
          "internalType": "uint256[]",
          "name": "values",
          "type": "uint256[]"
        }
      ],
      "name": "TransferBatch",
      "type": "event"
    },
    {
      "anonymous": false,
      "inputs": [
        {
          "indexed": true,
          "internalType": "address",
          "name": "operator",
          "type": "address"
        },
        {
          "indexed": true,
          "internalType": "address",
          "name": "from",
          "type": "address"
        },
        {
          "indexed": true,
          "internalType": "address",
          "name": "to",
          "type": "address"
        },
        {
          "indexed": false,
          "internalType": "uint256",
          "name": "id",
          "type": "uint256"
        },
        {
          "indexed": false,
          "internalType": "uint256",
          "name": "value",
          "type": "uint256"
        }
      ],
      "name": "TransferSingle",
      "type": "event"
    },
    {
      "anonymous": false,
      "inputs": [
        {
          "indexed": false,
          "internalType": "string",
          "name": "value",
          "type": "string"
        },
        {
          "indexed": true,
          "internalType": "uint256",
          "name": "id",
          "type": "uint256"
        }
      ],
      "name": "URI",
      "type": "event"
    },
    {
      "inputs": [],
      "name": "LOAN_TOKEN_ID",
      "outputs": [
        {
          "internalType": "uint256",
          "name": "",
          "type": "uint256"
        }
      ],
      "stateMutability": "view",
      "type": "function"
    },
    {
      "inputs": [
        {
          "internalType": "address",
          "name": "account",
          "type": "address"
        },
        {
          "internalType": "uint256",
          "name": "id",
          "type": "uint256"
        }
      ],
      "name": "balanceOf",
      "outputs": [
        {
          "internalType": "uint256",
          "name": "",
          "type": "uint256"
        }
      ],
      "stateMutability": "view",
      "type": "function"
    },
    {
      "inputs": [
        {
          "internalType": "address[]",
          "name": "accounts",
          "type": "address[]"
        },
        {
          "internalType": "uint256[]",
          "name": "ids",
          "type": "uint256[]"
        }
      ],
      "name": "balanceOfBatch",
      "outputs": [
        {
          "internalType": "uint256[]",
          "name": "",
          "type": "uint256[]"
        }
      ],
      "stateMutability": "view",
      "type": "function"
    },
    {
      "inputs": [],
      "name": "borrower",
      "outputs": [
        {
          "internalType": "address",
          "name": "",
          "type": "address"
        }
      ],
      "stateMutability": "view",
      "type": "function"
    },
    {
      "inputs": [],
      "name": "claimReturns",
      "outputs": [],
      "stateMutability": "nonpayable",
      "type": "function"
    },
    {
      "inputs": [],
      "name": "description",
      "outputs": [
        {
          "internalType": "string",
          "name": "",
          "type": "string"
        }
      ],
      "stateMutability": "view",
      "type": "function"
    },
    {
      "inputs": [],
      "name": "duration",
      "outputs": [
        {
          "internalType": "uint256",
          "name": "",
          "type": "uint256"
        }
      ],
      "stateMutability": "view",
      "type": "function"
    },
    {
      "inputs": [
        {
          "internalType": "uint256",
          "name": "_amount",
          "type": "uint256"
        }
      ],
      "name": "fundLoan",
      "outputs": [],
      "stateMutability": "payable",
      "type": "function"
    },
    {
      "inputs": [],
      "name": "fundingDeadline",
      "outputs": [
        {
          "internalType": "uint256",
          "name": "",
          "type": "uint256"
        }
      ],
      "stateMutability": "view",
      "type": "function"
    },
    {
      "inputs": [],
      "name": "getLoanDetails",
      "outputs": [
        {
          "internalType": "uint256",
          "name": "_loanAmount",
          "type": "uint256"
        },
        {
          "internalType": "uint256",
          "name": "_interestRate",
          "type": "uint256"
        },
        {
          "internalType": "uint256",
          "name": "_duration",
          "type": "uint256"
        },
        {
          "internalType": "uint256",
          "name": "_fundingDeadline",
          "type": "uint256"
        },
        {
          "internalType": "uint256",
          "name": "_repaymentDate",
          "type": "uint256"
        },
        {
          "internalType": "string",
          "name": "_description",
          "type": "string"
        },
        {
          "internalType": "address",
          "name": "_borrower",
          "type": "address"
        },
        {
          "internalType": "uint256",
          "name": "_totalFunded",
          "type": "uint256"
        },
        {
          "internalType": "bool",
          "name": "_isActive",
          "type": "bool"
        },
        {
          "internalType": "bool",
          "name": "_isRepaid",
          "type": "bool"
        }
      ],
      "stateMutability": "view",
      "type": "function"
    },
    {
      "inputs": [],
      "name": "interestRate",
      "outputs": [
        {
          "internalType": "uint256",
          "name": "",
          "type": "uint256"
        }
      ],
      "stateMutability": "view",
      "type": "function"
    },
    {
      "inputs": [],
      "name": "isActive",
      "outputs": [
        {
          "internalType": "bool",
          "name": "",
          "type": "bool"
        }
      ],
      "stateMutability": "view",
      "type": "function"
    },
    {
      "inputs": [
        {
          "internalType": "address",
          "name": "account",
          "type": "address"
        },
        {
          "internalType": "address",
          "name": "operator",
          "type": "address"
        }
      ],
      "name": "isApprovedForAll",
      "outputs": [
        {
          "internalType": "bool",
          "name": "",
          "type": "bool"
        }
      ],
      "stateMutability": "view",
      "type": "function"
    },
    {
      "inputs": [],
      "name": "isRepaid",
      "outputs": [
        {
          "internalType": "bool",
          "name": "",
          "type": "bool"
        }
      ],
      "stateMutability": "view",
      "type": "function"
    },
    {
      "inputs": [],
      "name": "loanAmount",
      "outputs": [
        {
          "internalType": "uint256",
          "name": "",
          "type": "uint256"
        }
      ],
      "stateMutability": "view",
      "type": "function"
    },
    {
      "inputs": [],
      "name": "owner",
      "outputs": [
        {
          "internalType": "address",
          "name": "",
          "type": "address"
        }
      ],
      "stateMutability": "view",
      "type": "function"
    },
    {
      "inputs": [],
      "name": "renounceOwnership",
      "outputs": [],
      "stateMutability": "nonpayable",
      "type": "function"
    },
    {
      "inputs": [],
      "name": "repayLoan",
      "outputs": [],
      "stateMutability": "payable",
      "type": "function"
    },
    {
      "inputs": [],
      "name": "repaymentDate",
      "outputs": [
        {
          "internalType": "uint256",
          "name": "",
          "type": "uint256"
        }
      ],
      "stateMutability": "view",
      "type": "function"
    },
    {
      "inputs": [
        {
          "internalType": "address",
          "name": "from",
          "type": "address"
        },
        {
          "internalType": "address",
          "name": "to",
          "type": "address"
        },
        {
          "internalType": "uint256[]",
          "name": "ids",
          "type": "uint256[]"
        },
        {
          "internalType": "uint256[]",
          "name": "values",
          "type": "uint256[]"
        },
        {
          "internalType": "bytes",
          "name": "data",
          "type": "bytes"
        }
      ],
      "name": "safeBatchTransferFrom",
      "outputs": [],
      "stateMutability": "nonpayable",
      "type": "function"
    },
    {
      "inputs": [
        {
          "internalType": "address",
          "name": "from",
          "type": "address"
        },
        {
          "internalType": "address",
          "name": "to",
          "type": "address"
        },
        {
          "internalType": "uint256",
          "name": "id",
          "type": "uint256"
        },
        {
          "internalType": "uint256",
          "name": "value",
          "type": "uint256"
        },
        {
          "internalType": "bytes",
          "name": "data",
          "type": "bytes"
        }
      ],
      "name": "safeTransferFrom",
      "outputs": [],
      "stateMutability": "nonpayable",
      "type": "function"
    },
    {
      "inputs": [
        {
          "internalType": "address",
          "name": "operator",
          "type": "address"
        },
        {
          "internalType": "bool",
          "name": "approved",
          "type": "bool"
        }
      ],
      "name": "setApprovalForAll",
      "outputs": [],
      "stateMutability": "nonpayable",
      "type": "function"
    },
    {
      "inputs": [
        {
          "internalType": "bytes4",
          "name": "interfaceId",
          "type": "bytes4"
        }
      ],
      "name": "supportsInterface",
      "outputs": [
        {
          "internalType": "bool",
          "name": "",
          "type": "bool"
        }
      ],
      "stateMutability": "view",
      "type": "function"
    },
    {
      "inputs": [],
      "name": "totalFunded",
      "outputs": [
        {
          "internalType": "uint256",
          "name": "",
          "type": "uint256"
        }
      ],
      "stateMutability": "view",
      "type": "function"
    },
    {
      "inputs": [
        {
          "internalType": "address",
          "name": "newOwner",
          "type": "address"
        }
      ],
      "name": "transferOwnership",
      "outputs": [],
      "stateMutability": "nonpayable",
      "type": "function"
    },
    {
      "inputs": [
        {
          "internalType": "uint256",
          "name": "",
          "type": "uint256"
        }
      ],
      "name": "uri",
      "outputs": [
        {
          "internalType": "string",
          "name": "",
          "type": "string"
        }
      ],
      "stateMutability": "view",
      "type": "function"
    },
    {
      "inputs": [],
      "name": "withdrawFunds",
      "outputs": [],
      "stateMutability": "nonpayable",
      "type": "function"
    }
  ],
  "devdoc": {
    "details": "ERC1155 contract representing a loan that can be funded by multiple lenders. Each token ID represents a specific loan, and the amount of tokens represents the contribution.",
    "errors": {
      "ERC1155InsufficientBalance(address,uint256,uint256,uint256)": [
        {
          "details": "Indicates an error related to the current `balance` of a `sender`. Used in transfers.",
          "params": {
            "balance": "Current balance for the interacting account.",
            "needed": "Minimum amount required to perform a transfer.",
            "sender": "Address whose tokens are being transferred.",
            "tokenId": "Identifier number of a token."
          }
        }
      ],
      "ERC1155InvalidApprover(address)": [
        {
          "details": "Indicates a failure with the `approver` of a token to be approved. Used in approvals.",
          "params": {
            "approver": "Address initiating an approval operation."
          }
        }
      ],
      "ERC1155InvalidArrayLength(uint256,uint256)": [
        {
          "details": "Indicates an array length mismatch between ids and values in a safeBatchTransferFrom operation. Used in batch transfers.",
          "params": {
            "idsLength": "Length of the array of token identifiers",
            "valuesLength": "Length of the array of token amounts"
          }
        }
      ],
      "ERC1155InvalidOperator(address)": [
        {
          "details": "Indicates a failure with the `operator` to be approved. Used in approvals.",
          "params": {
            "operator": "Address that may be allowed to operate on tokens without being their owner."
          }
        }
      ],
      "ERC1155InvalidReceiver(address)": [
        {
          "details": "Indicates a failure with the token `receiver`. Used in transfers.",
          "params": {
            "receiver": "Address to which tokens are being transferred."
          }
        }
      ],
      "ERC1155InvalidSender(address)": [
        {
          "details": "Indicates a failure with the token `sender`. Used in transfers.",
          "params": {
            "sender": "Address whose tokens are being transferred."
          }
        }
      ],
      "ERC1155MissingApprovalForAll(address,address)": [
        {
          "details": "Indicates a failure with the `operator`’s approval. Used in transfers.",
          "params": {
            "operator": "Address that may be allowed to operate on tokens without being their owner.",
            "owner": "Address of the current owner of a token."
          }
        }
      ],
      "OwnableInvalidOwner(address)": [
        {
          "details": "The owner is not a valid owner account. (eg. `address(0)`)"
        }
      ],
      "OwnableUnauthorizedAccount(address)": [
        {
          "details": "The caller account is not authorized to perform an operation."
        }
      ]
    },
    "events": {
      "ApprovalForAll(address,address,bool)": {
        "details": "Emitted when `account` grants or revokes permission to `operator` to transfer their tokens, according to `approved`."
      },
      "TransferBatch(address,address,address,uint256[],uint256[])": {
        "details": "Equivalent to multiple {TransferSingle} events, where `operator`, `from` and `to` are the same for all transfers."
      },
      "TransferSingle(address,address,address,uint256,uint256)": {
        "details": "Emitted when `value` amount of tokens of type `id` are transferred from `from` to `to` by `operator`."
      },
      "URI(string,uint256)": {
        "details": "Emitted when the URI for token type `id` changes to `value`, if it is a non-programmatic URI. If an {URI} event was emitted for `id`, the standard https://eips.ethereum.org/EIPS/eip-1155#metadata-extensions[guarantees] that `value` will equal the value returned by {IERC1155MetadataURI-uri}."
      }
    },
    "kind": "dev",
    "methods": {
      "balanceOf(address,uint256)": {
        "details": "See {IERC1155-balanceOf}."
      },
      "balanceOfBatch(address[],uint256[])": {
        "details": "See {IERC1155-balanceOfBatch}. Requirements: - `accounts` and `ids` must have the same length."
      },
      "claimReturns()": {
        "details": "Claim returns after loan is repaid Only callable by lenders if loan is repaid"
      },
      "constructor": {
        "details": "Constructor to create a new loan",
        "params": {
          "_borrower": "Address of the borrower",
          "_description": "Description of the loan purpose",
          "_duration": "Duration of the loan in seconds",
          "_fundingPeriod": "Period in seconds during which the loan can be funded",
          "_interestRate": "Interest rate in basis points (e.g., 1000 = 10%)",
          "_loanAmount": "Total amount requested for the loan"
        }
      },
      "fundLoan(uint256)": {
        "details": "Fund the loan by contributing a specific amount",
        "params": {
          "_amount": "Amount to contribute to the loan"
        }
      },
      "getLoanDetails()": {
        "details": "Get loan details",
        "returns": {
          "_borrower": "The borrower address",
          "_description": "The loan description",
          "_duration": "The loan duration in seconds",
          "_fundingDeadline": "The funding deadline timestamp",
          "_interestRate": "The interest rate in basis points",
          "_isActive": "Whether the loan is active",
          "_isRepaid": "Whether the loan is repaid",
          "_loanAmount": "The total loan amount",
          "_repaymentDate": "The repayment date timestamp",
          "_totalFunded": "The total amount funded"
        }
      },
      "isApprovedForAll(address,address)": {
        "details": "See {IERC1155-isApprovedForAll}."
      },
      "owner()": {
        "details": "Returns the address of the current owner."
      },
      "renounceOwnership()": {
        "details": "Leaves the contract without owner. It will not be possible to call `onlyOwner` functions. Can only be called by the current owner. NOTE: Renouncing ownership will leave the contract without an owner, thereby disabling any functionality that is only available to the owner."
      },
      "repayLoan()": {
        "details": "Repay the loan (only callable by borrower)"
      },
      "safeBatchTransferFrom(address,address,uint256[],uint256[],bytes)": {
        "details": "See {IERC1155-safeBatchTransferFrom}."
      },
      "safeTransferFrom(address,address,uint256,uint256,bytes)": {
        "details": "See {IERC1155-safeTransferFrom}."
      },
      "setApprovalForAll(address,bool)": {
        "details": "See {IERC1155-setApprovalForAll}."
      },
      "supportsInterface(bytes4)": {
        "details": "See {IERC165-supportsInterface}."
      },
      "transferOwnership(address)": {
        "details": "Transfers ownership of the contract to a new account (`newOwner`). Can only be called by the current owner."
      },
      "uri(uint256)": {
        "details": "See {IERC1155MetadataURI-uri}. This implementation returns the same URI for *all* token types. It relies on the token type ID substitution mechanism https://eips.ethereum.org/EIPS/eip-1155#metadata[defined in the ERC]. Clients calling this function must replace the `\\{id\\}` substring with the actual token type ID."
      },
      "withdrawFunds()": {
        "details": "Withdraw funds if loan is not activated before deadline Only callable by lenders if funding deadline has passed and loan is not active"
      }
    },
    "title": "LndyLoan",
    "version": 1
  },
  "evm": {
    "assembly": "    /* \"LndyLoan.sol\":382:7067  contract LndyLoan is ERC1155, Ownable {... */\n  mstore(0x40, 0x80)\n    /* \"LndyLoan.sol\":1601:2152  constructor(... */\n  callvalue\n  dup1\n  iszero\n  tag_1\n  jumpi\n  0x00\n  dup1\n  revert\ntag_1:\n  pop\n  mload(0x40)\n  sub(codesize, bytecodeSize)\n  dup1\n  bytecodeSize\n  dup4\n  codecopy\n  dup2\n  add\n  0x40\n  dup2\n  swap1\n  mstore\n  tag_2\n  swap2\n  tag_3\n  jump\t// in\ntag_2:\n    /* \"@openzeppelin/contracts/token/ERC1155/ERC1155.sol\":1249:1311   */\n  0x40\n  dup1\n  mload\n  0x20\n  dup2\n  add\n  swap1\n  swap2\n  mstore\n  0x00\n  dup2\n  mstore\n    /* \"LndyLoan.sol\":1821:1830  _borrower */\n  dup2\n  swap1\n    /* \"@openzeppelin/contracts/token/ERC1155/ERC1155.sol\":1291:1304   */\n  tag_8\n    /* \"@openzeppelin/contracts/token/ERC1155/ERC1155.sol\":1249:1311   */\n  dup2\n    /* \"@openzeppelin/contracts/token/ERC1155/ERC1155.sol\":1291:1298   */\n  tag_9\n    /* \"@openzeppelin/contracts/token/ERC1155/ERC1155.sol\":1291:1304   */\n  jump\t// in\ntag_8:\n  pop\n  sub(shl(0xa0, 0x01), 0x01)\n    /* \"@openzeppelin/contracts/access/Ownable.sol\":1273:1299   */\n  dup2\n  and\n    /* \"@openzeppelin/contracts/access/Ownable.sol\":1269:1364   */\n  tag_11\n  jumpi\n    /* \"@openzeppelin/contracts/access/Ownable.sol\":1322:1353   */\n  mload(0x40)\n  shl(0xe0, 0x1e4fbdf7)\n  dup2\n  mstore\n    /* \"@openzeppelin/contracts/access/Ownable.sol\":1350:1351   */\n  0x00\n    /* \"@openzeppelin/contracts/access/Ownable.sol\":1322:1353   */\n  0x04\n  dup3\n  add\n    /* \"#utility.yul\":1723:1774   */\n  mstore\n    /* \"#utility.yul\":1696:1714   */\n  0x24\n  add\n    /* \"@openzeppelin/contracts/access/Ownable.sol\":1322:1353   */\n  mload(0x40)\n  dup1\n  swap2\n  sub\n  swap1\n  revert\n    /* \"@openzeppelin/contracts/access/Ownable.sol\":1269:1364   */\ntag_11:\n    /* \"@openzeppelin/contracts/access/Ownable.sol\":1373:1405   */\n  tag_14\n    /* \"@openzeppelin/contracts/access/Ownable.sol\":1392:1404   */\n  dup2\n    /* \"@openzeppelin/contracts/access/Ownable.sol\":1373:1391   */\n  tag_15\n    /* \"@openzeppelin/contracts/access/Ownable.sol\":1373:1405   */\n  jump\t// in\ntag_14:\n  pop\n    /* \"LndyLoan.sol\":1842:1852  loanAmount */\n  0x04\n    /* \"LndyLoan.sol\":1842:1866  loanAmount = _loanAmount */\n  dup7\n  swap1\n  sstore\n    /* \"LndyLoan.sol\":1876:1888  interestRate */\n  0x05\n    /* \"LndyLoan.sol\":1876:1904  interestRate = _interestRate */\n  dup6\n  swap1\n  sstore\n    /* \"LndyLoan.sol\":1914:1922  duration */\n  0x06\n    /* \"LndyLoan.sol\":1914:1934  duration = _duration */\n  dup5\n  swap1\n  sstore\n    /* \"LndyLoan.sol\":1962:1994  block.timestamp + _fundingPeriod */\n  tag_17\n    /* \"LndyLoan.sol\":1980:1994  _fundingPeriod */\n  dup4\n    /* \"LndyLoan.sol\":1962:1977  block.timestamp */\n  timestamp\n    /* \"LndyLoan.sol\":1962:1994  block.timestamp + _fundingPeriod */\n  tag_18\n  jump\t// in\ntag_17:\n    /* \"LndyLoan.sol\":1944:1959  fundingDeadline */\n  0x07\n    /* \"LndyLoan.sol\":1944:1994  fundingDeadline = block.timestamp + _fundingPeriod */\n  sstore\n    /* \"LndyLoan.sol\":2004:2015  description */\n  0x09\n    /* \"LndyLoan.sol\":2004:2030  description = _description */\n  tag_19\n    /* \"LndyLoan.sol\":2018:2030  _description */\n  dup4\n    /* \"LndyLoan.sol\":2004:2015  description */\n  dup3\n    /* \"LndyLoan.sol\":2004:2030  description = _description */\n  tag_20\n  jump\t// in\ntag_19:\n  pop\n    /* \"LndyLoan.sol\":2040:2048  borrower */\n  0x0a\n    /* \"LndyLoan.sol\":2040:2060  borrower = _borrower */\n  dup1\n  sload\n  not(sub(shl(0xa0, 0x01), 0x01))\n  and\n  sub(shl(0xa0, 0x01), 0x01)\n  dup4\n  and\n  swap1\n  dup2\n  or\n  swap1\n  swap2\n  sstore\n    /* \"LndyLoan.sol\":2084:2145  LoanCreated(_borrower, _loanAmount, _interestRate, _duration) */\n  0x40\n  dup1\n  mload\n    /* \"#utility.yul\":4798:4849   */\n  swap2\n  dup3\n  mstore\n    /* \"#utility.yul\":4880:4882   */\n  0x20\n    /* \"#utility.yul\":4865:4883   */\n  dup3\n  add\n    /* \"#utility.yul\":4858:4892   */\n  dup9\n  swap1\n  mstore\n    /* \"#utility.yul\":4908:4926   */\n  dup2\n  add\n    /* \"#utility.yul\":4901:4935   */\n  dup7\n  swap1\n  mstore\n    /* \"#utility.yul\":4966:4968   */\n  0x60\n    /* \"#utility.yul\":4951:4969   */\n  dup2\n  add\n    /* \"#utility.yul\":4944:4978   */\n  dup6\n  swap1\n  mstore\n    /* \"LndyLoan.sol\":2084:2145  LoanCreated(_borrower, _loanAmount, _interestRate, _duration) */\n  0x1804eb76dc9809be7ef188388aa1aeb765881fd848377be891234e5c584345fe\n  swap1\n    /* \"#utility.yul\":4785:4788   */\n  0x80\n    /* \"#utility.yul\":4770:4789   */\n  add\n    /* \"LndyLoan.sol\":2084:2145  LoanCreated(_borrower, _loanAmount, _interestRate, _duration) */\n  mload(0x40)\n  dup1\n  swap2\n  sub\n  swap1\n  log1\n    /* \"LndyLoan.sol\":1601:2152  constructor(... */\n  pop\n  pop\n  pop\n  pop\n  pop\n  pop\n    /* \"LndyLoan.sol\":382:7067  contract LndyLoan is ERC1155, Ownable {... */\n  jump(tag_33)\n    /* \"@openzeppelin/contracts/token/ERC1155/ERC1155.sol\":10290:10376   */\ntag_9:\n    /* \"@openzeppelin/contracts/token/ERC1155/ERC1155.sol\":10356:10360   */\n  0x02\n    /* \"@openzeppelin/contracts/token/ERC1155/ERC1155.sol\":10356:10369   */\n  tag_25\n    /* \"@openzeppelin/contracts/token/ERC1155/ERC1155.sol\":10363:10369   */\n  dup3\n    /* \"@openzeppelin/contracts/token/ERC1155/ERC1155.sol\":10356:10360   */\n  dup3\n    /* \"@openzeppelin/contracts/token/ERC1155/ERC1155.sol\":10356:10369   */\n  tag_20\n  jump\t// in\ntag_25:\n  pop\n    /* \"@openzeppelin/contracts/token/ERC1155/ERC1155.sol\":10290:10376   */\n  pop\n  jump\t// out\n    /* \"@openzeppelin/contracts/access/Ownable.sol\":2912:3099   */\ntag_15:\n    /* \"@openzeppelin/contracts/access/Ownable.sol\":3004:3010   */\n  0x03\n  dup1\n  sload\n  sub(shl(0xa0, 0x01), 0x01)\n    /* \"@openzeppelin/contracts/access/Ownable.sol\":3020:3037   */\n  dup4\n  dup2\n  and\n  not(sub(shl(0xa0, 0x01), 0x01))\n  dup4\n  and\n  dup2\n  or\n  swap1\n  swap4\n  sstore\n    /* \"@openzeppelin/contracts/access/Ownable.sol\":3052:3092   */\n  mload(0x40)\n    /* \"@openzeppelin/contracts/access/Ownable.sol\":3004:3010   */\n  swap2\n  and\n  swap2\n    /* \"@openzeppelin/contracts/access/Ownable.sol\":3020:3037   */\n  swap1\n    /* \"@openzeppelin/contracts/access/Ownable.sol\":3004:3010   */\n  dup3\n  swap1\n    /* \"@openzeppelin/contracts/access/Ownable.sol\":3052:3092   */\n  0x8be0079c531659141344cd1fd0a4f28419497f9722a3daafe3b4186f6b6457e0\n  swap1\n    /* \"@openzeppelin/contracts/access/Ownable.sol\":2985:3001   */\n  0x00\n  swap1\n    /* \"@openzeppelin/contracts/access/Ownable.sol\":3052:3092   */\n  log3\n    /* \"@openzeppelin/contracts/access/Ownable.sol\":2975:3099   */\n  pop\n    /* \"@openzeppelin/contracts/access/Ownable.sol\":2912:3099   */\n  pop\n  jump\t// out\n    /* \"#utility.yul\":14:141   */\ntag_27:\n    /* \"#utility.yul\":75:85   */\n  0x4e487b71\n    /* \"#utility.yul\":70:73   */\n  0xe0\n    /* \"#utility.yul\":66:86   */\n  shl\n    /* \"#utility.yul\":63:64   */\n  0x00\n    /* \"#utility.yul\":56:87   */\n  mstore\n    /* \"#utility.yul\":106:110   */\n  0x41\n    /* \"#utility.yul\":103:104   */\n  0x04\n    /* \"#utility.yul\":96:111   */\n  mstore\n    /* \"#utility.yul\":130:134   */\n  0x24\n    /* \"#utility.yul\":127:128   */\n  0x00\n    /* \"#utility.yul\":120:135   */\n  revert\n    /* \"#utility.yul\":146:323   */\ntag_28:\n    /* \"#utility.yul\":225:238   */\n  dup1\n  mload\n  sub(shl(0xa0, 0x01), 0x01)\n    /* \"#utility.yul\":267:298   */\n  dup2\n  and\n    /* \"#utility.yul\":257:299   */\n  dup2\n  eq\n    /* \"#utility.yul\":247:317   */\n  tag_36\n  jumpi\n    /* \"#utility.yul\":313:314   */\n  0x00\n    /* \"#utility.yul\":310:311   */\n  dup1\n    /* \"#utility.yul\":303:315   */\n  revert\n    /* \"#utility.yul\":247:317   */\ntag_36:\n    /* \"#utility.yul\":146:323   */\n  swap2\n  swap1\n  pop\n  jump\t// out\n    /* \"#utility.yul\":328:1572   */\ntag_3:\n    /* \"#utility.yul\":453:459   */\n  0x00\n    /* \"#utility.yul\":461:467   */\n  dup1\n    /* \"#utility.yul\":469:475   */\n  0x00\n    /* \"#utility.yul\":477:483   */\n  dup1\n    /* \"#utility.yul\":485:491   */\n  0x00\n    /* \"#utility.yul\":493:499   */\n  dup1\n    /* \"#utility.yul\":546:549   */\n  0xc0\n    /* \"#utility.yul\":534:543   */\n  dup8\n    /* \"#utility.yul\":525:532   */\n  dup10\n    /* \"#utility.yul\":521:544   */\n  sub\n    /* \"#utility.yul\":517:550   */\n  slt\n    /* \"#utility.yul\":514:567   */\n  iszero\n  tag_38\n  jumpi\n    /* \"#utility.yul\":563:564   */\n  0x00\n    /* \"#utility.yul\":560:561   */\n  dup1\n    /* \"#utility.yul\":553:565   */\n  revert\n    /* \"#utility.yul\":514:567   */\ntag_38:\n    /* \"#utility.yul\":586:602   */\n  dup7\n  mload\n    /* \"#utility.yul\":642:644   */\n  0x20\n    /* \"#utility.yul\":627:645   */\n  dup9\n  add\n    /* \"#utility.yul\":621:646   */\n  mload\n    /* \"#utility.yul\":686:688   */\n  0x40\n    /* \"#utility.yul\":671:689   */\n  dup10\n  add\n    /* \"#utility.yul\":665:690   */\n  mload\n    /* \"#utility.yul\":730:732   */\n  0x60\n    /* \"#utility.yul\":715:733   */\n  dup11\n  add\n    /* \"#utility.yul\":709:734   */\n  mload\n    /* \"#utility.yul\":778:781   */\n  0x80\n    /* \"#utility.yul\":763:782   */\n  dup12\n  add\n    /* \"#utility.yul\":757:783   */\n  mload\n    /* \"#utility.yul\":586:602   */\n  swap4\n  swap10\n  pop\n    /* \"#utility.yul\":621:646   */\n  swap2\n  swap8\n  pop\n    /* \"#utility.yul\":665:690   */\n  swap6\n  pop\n    /* \"#utility.yul\":709:734   */\n  swap4\n  pop\n  sub(shl(0x40, 0x01), 0x01)\n    /* \"#utility.yul\":832:846   */\n  dup1\n  dup3\n  gt\n    /* \"#utility.yul\":829:863   */\n  iszero\n  tag_39\n  jumpi\n    /* \"#utility.yul\":859:860   */\n  0x00\n    /* \"#utility.yul\":856:857   */\n  dup1\n    /* \"#utility.yul\":849:861   */\n  revert\n    /* \"#utility.yul\":829:863   */\ntag_39:\n    /* \"#utility.yul\":897:903   */\n  dup2\n    /* \"#utility.yul\":886:895   */\n  dup10\n    /* \"#utility.yul\":882:904   */\n  add\n    /* \"#utility.yul\":872:904   */\n  swap2\n  pop\n    /* \"#utility.yul\":942:949   */\n  dup10\n    /* \"#utility.yul\":935:939   */\n  0x1f\n    /* \"#utility.yul\":931:933   */\n  dup4\n    /* \"#utility.yul\":927:940   */\n  add\n    /* \"#utility.yul\":923:950   */\n  slt\n    /* \"#utility.yul\":913:968   */\n  tag_40\n  jumpi\n    /* \"#utility.yul\":964:965   */\n  0x00\n    /* \"#utility.yul\":961:962   */\n  dup1\n    /* \"#utility.yul\":954:966   */\n  revert\n    /* \"#utility.yul\":913:968   */\ntag_40:\n    /* \"#utility.yul\":993:995   */\n  dup2\n    /* \"#utility.yul\":987:996   */\n  mload\n    /* \"#utility.yul\":1015:1017   */\n  dup2\n    /* \"#utility.yul\":1011:1013   */\n  dup2\n    /* \"#utility.yul\":1008:1018   */\n  gt\n    /* \"#utility.yul\":1005:1041   */\n  iszero\n  tag_42\n  jumpi\n    /* \"#utility.yul\":1021:1039   */\n  tag_42\n  tag_27\n  jump\t// in\ntag_42:\n    /* \"#utility.yul\":1096:1098   */\n  0x40\n    /* \"#utility.yul\":1090:1099   */\n  mload\n    /* \"#utility.yul\":1064:1066   */\n  0x1f\n    /* \"#utility.yul\":1150:1163   */\n  dup3\n  add\n  not(0x1f)\n    /* \"#utility.yul\":1146:1168   */\n  swap1\n  dup2\n  and\n    /* \"#utility.yul\":1170:1172   */\n  0x3f\n    /* \"#utility.yul\":1142:1173   */\n  add\n    /* \"#utility.yul\":1138:1178   */\n  and\n    /* \"#utility.yul\":1126:1179   */\n  dup2\n  add\n  swap1\n    /* \"#utility.yul\":1194:1212   */\n  dup4\n  dup3\n  gt\n    /* \"#utility.yul\":1214:1236   */\n  dup2\n  dup4\n  lt\n    /* \"#utility.yul\":1191:1237   */\n  or\n    /* \"#utility.yul\":1188:1260   */\n  iszero\n  tag_44\n  jumpi\n    /* \"#utility.yul\":1240:1258   */\n  tag_44\n  tag_27\n  jump\t// in\ntag_44:\n    /* \"#utility.yul\":1280:1290   */\n  dup2\n    /* \"#utility.yul\":1276:1278   */\n  0x40\n    /* \"#utility.yul\":1269:1291   */\n  mstore\n    /* \"#utility.yul\":1315:1317   */\n  dup3\n    /* \"#utility.yul\":1307:1313   */\n  dup2\n    /* \"#utility.yul\":1300:1318   */\n  mstore\n    /* \"#utility.yul\":1355:1362   */\n  dup13\n    /* \"#utility.yul\":1350:1352   */\n  0x20\n    /* \"#utility.yul\":1345:1347   */\n  dup5\n    /* \"#utility.yul\":1341:1343   */\n  dup8\n    /* \"#utility.yul\":1337:1348   */\n  add\n    /* \"#utility.yul\":1333:1353   */\n  add\n    /* \"#utility.yul\":1330:1363   */\n  gt\n    /* \"#utility.yul\":1327:1380   */\n  iszero\n  tag_45\n  jumpi\n    /* \"#utility.yul\":1376:1377   */\n  0x00\n    /* \"#utility.yul\":1373:1374   */\n  dup1\n    /* \"#utility.yul\":1366:1378   */\n  revert\n    /* \"#utility.yul\":1327:1380   */\ntag_45:\n    /* \"#utility.yul\":1425:1427   */\n  dup3\n    /* \"#utility.yul\":1420:1422   */\n  0x20\n    /* \"#utility.yul\":1416:1418   */\n  dup7\n    /* \"#utility.yul\":1412:1423   */\n  add\n    /* \"#utility.yul\":1407:1409   */\n  0x20\n    /* \"#utility.yul\":1399:1405   */\n  dup4\n    /* \"#utility.yul\":1395:1410   */\n  add\n    /* \"#utility.yul\":1389:1428   */\n  mcopy\n    /* \"#utility.yul\":1470:1471   */\n  0x00\n    /* \"#utility.yul\":1465:1467   */\n  0x20\n    /* \"#utility.yul\":1460:1462   */\n  dup5\n    /* \"#utility.yul\":1452:1458   */\n  dup4\n    /* \"#utility.yul\":1448:1463   */\n  add\n    /* \"#utility.yul\":1444:1468   */\n  add\n    /* \"#utility.yul\":1437:1472   */\n  mstore\n    /* \"#utility.yul\":1491:1497   */\n  dup1\n    /* \"#utility.yul\":1481:1497   */\n  swap7\n  pop\n  pop\n  pop\n  pop\n  pop\n  pop\n    /* \"#utility.yul\":1516:1566   */\n  tag_46\n    /* \"#utility.yul\":1561:1564   */\n  0xa0\n    /* \"#utility.yul\":1550:1559   */\n  dup9\n    /* \"#utility.yul\":1546:1565   */\n  add\n    /* \"#utility.yul\":1516:1566   */\n  tag_28\n  jump\t// in\ntag_46:\n    /* \"#utility.yul\":1506:1566   */\n  swap1\n  pop\n    /* \"#utility.yul\":328:1572   */\n  swap3\n  swap6\n  pop\n  swap3\n  swap6\n  pop\n  swap3\n  swap6\n  jump\t// out\n    /* \"#utility.yul\":1785:2007   */\ntag_18:\n    /* \"#utility.yul\":1850:1859   */\n  dup1\n  dup3\n  add\n    /* \"#utility.yul\":1871:1881   */\n  dup1\n  dup3\n  gt\n    /* \"#utility.yul\":1868:2001   */\n  iszero\n  tag_49\n  jumpi\n    /* \"#utility.yul\":1923:1933   */\n  0x4e487b71\n    /* \"#utility.yul\":1918:1921   */\n  0xe0\n    /* \"#utility.yul\":1914:1934   */\n  shl\n    /* \"#utility.yul\":1911:1912   */\n  0x00\n    /* \"#utility.yul\":1904:1935   */\n  mstore\n    /* \"#utility.yul\":1958:1962   */\n  0x11\n    /* \"#utility.yul\":1955:1956   */\n  0x04\n    /* \"#utility.yul\":1948:1963   */\n  mstore\n    /* \"#utility.yul\":1986:1990   */\n  0x24\n    /* \"#utility.yul\":1983:1984   */\n  0x00\n    /* \"#utility.yul\":1976:1991   */\n  revert\n    /* \"#utility.yul\":1868:2001   */\ntag_49:\n    /* \"#utility.yul\":1785:2007   */\n  swap3\n  swap2\n  pop\n  pop\n  jump\t// out\n    /* \"#utility.yul\":2012:2392   */\ntag_29:\n    /* \"#utility.yul\":2091:2092   */\n  0x01\n    /* \"#utility.yul\":2087:2099   */\n  dup2\n  dup2\n  shr\n  swap1\n    /* \"#utility.yul\":2134:2146   */\n  dup3\n  and\n  dup1\n    /* \"#utility.yul\":2155:2216   */\n  tag_51\n  jumpi\n    /* \"#utility.yul\":2209:2213   */\n  0x7f\n    /* \"#utility.yul\":2201:2207   */\n  dup3\n    /* \"#utility.yul\":2197:2214   */\n  and\n    /* \"#utility.yul\":2187:2214   */\n  swap2\n  pop\n    /* \"#utility.yul\":2155:2216   */\ntag_51:\n    /* \"#utility.yul\":2262:2264   */\n  0x20\n    /* \"#utility.yul\":2254:2260   */\n  dup3\n    /* \"#utility.yul\":2251:2265   */\n  lt\n    /* \"#utility.yul\":2231:2249   */\n  dup2\n    /* \"#utility.yul\":2228:2266   */\n  sub\n    /* \"#utility.yul\":2225:2386   */\n  tag_52\n  jumpi\n    /* \"#utility.yul\":2308:2318   */\n  0x4e487b71\n    /* \"#utility.yul\":2303:2306   */\n  0xe0\n    /* \"#utility.yul\":2299:2319   */\n  shl\n    /* \"#utility.yul\":2296:2297   */\n  0x00\n    /* \"#utility.yul\":2289:2320   */\n  mstore\n    /* \"#utility.yul\":2343:2347   */\n  0x22\n    /* \"#utility.yul\":2340:2341   */\n  0x04\n    /* \"#utility.yul\":2333:2348   */\n  mstore\n    /* \"#utility.yul\":2371:2375   */\n  0x24\n    /* \"#utility.yul\":2368:2369   */\n  0x00\n    /* \"#utility.yul\":2361:2376   */\n  revert\n    /* \"#utility.yul\":2225:2386   */\ntag_52:\n  pop\n    /* \"#utility.yul\":2012:2392   */\n  swap2\n  swap1\n  pop\n  jump\t// out\n    /* \"#utility.yul\":2523:3041   */\ntag_31:\n    /* \"#utility.yul\":2625:2627   */\n  0x1f\n    /* \"#utility.yul\":2620:2623   */\n  dup3\n    /* \"#utility.yul\":2617:2628   */\n  gt\n    /* \"#utility.yul\":2614:3035   */\n  iszero\n  tag_55\n  jumpi\n    /* \"#utility.yul\":2661:2666   */\n  dup1\n    /* \"#utility.yul\":2658:2659   */\n  0x00\n    /* \"#utility.yul\":2651:2667   */\n  mstore\n    /* \"#utility.yul\":2705:2709   */\n  0x20\n    /* \"#utility.yul\":2702:2703   */\n  0x00\n    /* \"#utility.yul\":2692:2710   */\n  keccak256\n    /* \"#utility.yul\":2775:2777   */\n  0x1f\n    /* \"#utility.yul\":2763:2773   */\n  dup5\n    /* \"#utility.yul\":2759:2778   */\n  add\n    /* \"#utility.yul\":2756:2757   */\n  0x05\n    /* \"#utility.yul\":2752:2779   */\n  shr\n    /* \"#utility.yul\":2746:2750   */\n  dup2\n    /* \"#utility.yul\":2742:2780   */\n  add\n    /* \"#utility.yul\":2811:2815   */\n  0x20\n    /* \"#utility.yul\":2799:2809   */\n  dup6\n    /* \"#utility.yul\":2796:2816   */\n  lt\n    /* \"#utility.yul\":2793:2840   */\n  iszero\n  tag_56\n  jumpi\n  pop\n    /* \"#utility.yul\":2834:2838   */\n  dup1\n    /* \"#utility.yul\":2793:2840   */\ntag_56:\n    /* \"#utility.yul\":2889:2891   */\n  0x1f\n    /* \"#utility.yul\":2884:2887   */\n  dup5\n    /* \"#utility.yul\":2880:2892   */\n  add\n    /* \"#utility.yul\":2877:2878   */\n  0x05\n    /* \"#utility.yul\":2873:2893   */\n  shr\n    /* \"#utility.yul\":2867:2871   */\n  dup3\n    /* \"#utility.yul\":2863:2894   */\n  add\n    /* \"#utility.yul\":2853:2894   */\n  swap2\n  pop\n    /* \"#utility.yul\":2944:3025   */\ntag_57:\n    /* \"#utility.yul\":2962:2964   */\n  dup2\n    /* \"#utility.yul\":2955:2960   */\n  dup2\n    /* \"#utility.yul\":2952:2965   */\n  lt\n    /* \"#utility.yul\":2944:3025   */\n  iszero\n  tag_59\n  jumpi\n    /* \"#utility.yul\":3021:3022   */\n  0x00\n    /* \"#utility.yul\":3007:3023   */\n  dup2\n  sstore\n    /* \"#utility.yul\":2988:2989   */\n  0x01\n    /* \"#utility.yul\":2977:2990   */\n  add\n    /* \"#utility.yul\":2944:3025   */\n  jump(tag_57)\ntag_59:\n    /* \"#utility.yul\":2948:2951   */\n  pop\n  pop\n    /* \"#utility.yul\":2614:3035   */\ntag_55:\n    /* \"#utility.yul\":2523:3041   */\n  pop\n  pop\n  pop\n  jump\t// out\n    /* \"#utility.yul\":3217:4562   */\ntag_20:\n    /* \"#utility.yul\":3337:3347   */\n  dup2\n  mload\n  sub(shl(0x40, 0x01), 0x01)\n    /* \"#utility.yul\":3359:3389   */\n  dup2\n  gt\n    /* \"#utility.yul\":3356:3412   */\n  iszero\n  tag_63\n  jumpi\n    /* \"#utility.yul\":3392:3410   */\n  tag_63\n  tag_27\n  jump\t// in\ntag_63:\n    /* \"#utility.yul\":3421:3518   */\n  tag_64\n    /* \"#utility.yul\":3511:3517   */\n  dup2\n    /* \"#utility.yul\":3471:3509   */\n  tag_65\n    /* \"#utility.yul\":3503:3507   */\n  dup5\n    /* \"#utility.yul\":3497:3508   */\n  sload\n    /* \"#utility.yul\":3471:3509   */\n  tag_29\n  jump\t// in\ntag_65:\n    /* \"#utility.yul\":3465:3469   */\n  dup5\n    /* \"#utility.yul\":3421:3518   */\n  tag_31\n  jump\t// in\ntag_64:\n    /* \"#utility.yul\":3573:3577   */\n  0x20\n  dup1\n    /* \"#utility.yul\":3630:3632   */\n  0x1f\n    /* \"#utility.yul\":3619:3633   */\n  dup4\n  gt\n    /* \"#utility.yul\":3647:3648   */\n  0x01\n    /* \"#utility.yul\":3642:4305   */\n  dup2\n  eq\n  tag_67\n  jumpi\n    /* \"#utility.yul\":4349:4350   */\n  0x00\n    /* \"#utility.yul\":4366:4372   */\n  dup5\n    /* \"#utility.yul\":4363:4452   */\n  iszero\n  tag_68\n  jumpi\n  pop\n    /* \"#utility.yul\":4418:4437   */\n  dup6\n  dup4\n  add\n    /* \"#utility.yul\":4412:4438   */\n  mload\n    /* \"#utility.yul\":4363:4452   */\ntag_68:\n  not(0x00)\n    /* \"#utility.yul\":3174:3175   */\n  0x03\n    /* \"#utility.yul\":3170:3181   */\n  dup7\n  swap1\n  shl\n    /* \"#utility.yul\":3166:3190   */\n  shr\n    /* \"#utility.yul\":3162:3191   */\n  not\n    /* \"#utility.yul\":3152:3192   */\n  and\n    /* \"#utility.yul\":3198:3199   */\n  0x01\n    /* \"#utility.yul\":3194:3205   */\n  dup6\n  swap1\n  shl\n    /* \"#utility.yul\":3149:3206   */\n  or\n    /* \"#utility.yul\":4465:4546   */\n  dup6\n  sstore\n    /* \"#utility.yul\":3612:4556   */\n  jump(tag_66)\n    /* \"#utility.yul\":3642:4305   */\ntag_67:\n    /* \"#utility.yul\":2470:2471   */\n  0x00\n    /* \"#utility.yul\":2463:2477   */\n  dup6\n  dup2\n  mstore\n    /* \"#utility.yul\":2507:2511   */\n  0x20\n    /* \"#utility.yul\":2494:2512   */\n  dup2\n  keccak256\n  not(0x1f)\n    /* \"#utility.yul\":3678:3698   */\n  dup7\n  and\n  swap2\n    /* \"#utility.yul\":3796:4032   */\ntag_71:\n    /* \"#utility.yul\":3810:3817   */\n  dup3\n    /* \"#utility.yul\":3807:3808   */\n  dup2\n    /* \"#utility.yul\":3804:3818   */\n  lt\n    /* \"#utility.yul\":3796:4032   */\n  iszero\n  tag_73\n  jumpi\n    /* \"#utility.yul\":3899:3918   */\n  dup9\n  dup7\n  add\n    /* \"#utility.yul\":3893:3919   */\n  mload\n    /* \"#utility.yul\":3878:3920   */\n  dup3\n  sstore\n    /* \"#utility.yul\":3991:4018   */\n  swap5\n  dup5\n  add\n  swap5\n    /* \"#utility.yul\":3959:3960   */\n  0x01\n    /* \"#utility.yul\":3947:3961   */\n  swap1\n  swap2\n  add\n  swap1\n    /* \"#utility.yul\":3826:3845   */\n  dup5\n  add\n    /* \"#utility.yul\":3796:4032   */\n  jump(tag_71)\ntag_73:\n    /* \"#utility.yul\":3800:3803   */\n  pop\n    /* \"#utility.yul\":4060:4066   */\n  dup6\n    /* \"#utility.yul\":4051:4058   */\n  dup3\n    /* \"#utility.yul\":4048:4067   */\n  lt\n    /* \"#utility.yul\":4045:4246   */\n  iszero\n  tag_74\n  jumpi\n    /* \"#utility.yul\":4121:4140   */\n  dup8\n  dup6\n  add\n    /* \"#utility.yul\":4115:4141   */\n  mload\n  not(0x00)\n    /* \"#utility.yul\":4204:4205   */\n  0x03\n    /* \"#utility.yul\":4200:4214   */\n  dup9\n  swap1\n  shl\n    /* \"#utility.yul\":4216:4219   */\n  0xf8\n    /* \"#utility.yul\":4196:4220   */\n  and\n    /* \"#utility.yul\":4192:4229   */\n  shr\n    /* \"#utility.yul\":4188:4230   */\n  not\n    /* \"#utility.yul\":4173:4231   */\n  and\n    /* \"#utility.yul\":4158:4232   */\n  dup2\n  sstore\n    /* \"#utility.yul\":4045:4246   */\ntag_74:\n  pop\n  pop\n    /* \"#utility.yul\":4292:4293   */\n  0x01\n    /* \"#utility.yul\":4283:4289   */\n  dup5\n    /* \"#utility.yul\":4280:4281   */\n  0x01\n    /* \"#utility.yul\":4276:4290   */\n  shl\n    /* \"#utility.yul\":4272:4294   */\n  add\n    /* \"#utility.yul\":4266:4270   */\n  dup6\n    /* \"#utility.yul\":4259:4295   */\n  sstore\n    /* \"#utility.yul\":3612:4556   */\ntag_66:\n  pop\n  pop\n  pop\n  pop\n    /* \"#utility.yul\":3217:4562   */\n  pop\n  pop\n  jump\t// out\n    /* \"#utility.yul\":4567:4984   */\ntag_33:\n    /* \"LndyLoan.sol\":382:7067  contract LndyLoan is ERC1155, Ownable {... */\n  dataSize(sub_0)\n  dup1\n  dataOffset(sub_0)\n  0x00\n  codecopy\n  0x00\n  return\nstop\n\nsub_0: assembly {\n        /* \"LndyLoan.sol\":382:7067  contract LndyLoan is ERC1155, Ownable {... */\n      mstore(0x40, 0x80)\n      jumpi(tag_1, lt(calldatasize, 0x04))\n      shr(0xe0, calldataload(0x00))\n      dup1\n      0x7c3a00fd\n      gt\n      tag_29\n      jumpi\n      dup1\n      0xa3b9e39d\n      gt\n      tag_30\n      jumpi\n      dup1\n      0xe985e9c5\n      gt\n      tag_31\n      jumpi\n      dup1\n      0xe985e9c5\n      eq\n      tag_25\n      jumpi\n      dup1\n      0xf242432a\n      eq\n      tag_26\n      jumpi\n      dup1\n      0xf2fde38b\n      eq\n      tag_27\n      jumpi\n      dup1\n      0xf966ade7\n      eq\n      tag_28\n      jumpi\n      0x00\n      dup1\n      revert\n    tag_31:\n      dup1\n      0xa3b9e39d\n      eq\n      tag_22\n      jumpi\n      dup1\n      0xad044f49\n      eq\n      tag_23\n      jumpi\n      dup1\n      0xb05f04d3\n      eq\n      tag_24\n      jumpi\n      0x00\n      dup1\n      revert\n    tag_30:\n      dup1\n      0x89376e40\n      gt\n      tag_32\n      jumpi\n      dup1\n      0x89376e40\n      eq\n      tag_18\n      jumpi\n      dup1\n      0x8da5cb5b\n      eq\n      tag_19\n      jumpi\n      dup1\n      0x9d585f7f\n      eq\n      tag_20\n      jumpi\n      dup1\n      0xa22cb465\n      eq\n      tag_21\n      jumpi\n      0x00\n      dup1\n      revert\n    tag_32:\n      dup1\n      0x7c3a00fd\n      eq\n      tag_15\n      jumpi\n      dup1\n      0x7df1f1b9\n      eq\n      tag_16\n      jumpi\n      dup1\n      0x846b909a\n      eq\n      tag_17\n      jumpi\n      0x00\n      dup1\n      revert\n    tag_29:\n      dup1\n      0x2cca0cde\n      gt\n      tag_33\n      jumpi\n      dup1\n      0x6164051a\n      gt\n      tag_34\n      jumpi\n      dup1\n      0x6164051a\n      eq\n      tag_11\n      jumpi\n      dup1\n      0x715018a6\n      eq\n      tag_12\n      jumpi\n      dup1\n      0x7284e416\n      eq\n      tag_13\n      jumpi\n      dup1\n      0x796b23bb\n      eq\n      tag_14\n      jumpi\n      0x00\n      dup1\n      revert\n    tag_34:\n      dup1\n      0x2cca0cde\n      eq\n      tag_8\n      jumpi\n      dup1\n      0x2eb2c2d6\n      eq\n      tag_9\n      jumpi\n      dup1\n      0x4e1273f4\n      eq\n      tag_10\n      jumpi\n      0x00\n      dup1\n      revert\n    tag_33:\n      dup1\n      0x0fb5a6b4\n      gt\n      tag_35\n      jumpi\n      dup1\n      0x0fb5a6b4\n      eq\n      tag_5\n      jumpi\n      dup1\n      0x22f3e2d4\n      eq\n      tag_6\n      jumpi\n      dup1\n      0x24600fc3\n      eq\n      tag_7\n      jumpi\n      0x00\n      dup1\n      revert\n    tag_35:\n      dup1\n      0xfdd58e\n      eq\n      tag_2\n      jumpi\n      dup1\n      0x01ffc9a7\n      eq\n      tag_3\n      jumpi\n      dup1\n      0x0e89341c\n      eq\n      tag_4\n      jumpi\n    tag_1:\n      0x00\n      dup1\n      revert\n        /* \"@openzeppelin/contracts/token/ERC1155/ERC1155.sol\":2245:2377   */\n    tag_2:\n      callvalue\n      dup1\n      iszero\n      tag_36\n      jumpi\n      0x00\n      dup1\n      revert\n    tag_36:\n      pop\n      tag_37\n      tag_38\n      calldatasize\n      0x04\n      tag_39\n      jump\t// in\n    tag_38:\n      tag_40\n      jump\t// in\n    tag_37:\n      mload(0x40)\n        /* \"#utility.yul\":620:645   */\n      swap1\n      dup2\n      mstore\n        /* \"#utility.yul\":608:610   */\n      0x20\n        /* \"#utility.yul\":593:611   */\n      add\n        /* \"@openzeppelin/contracts/token/ERC1155/ERC1155.sol\":2245:2377   */\n    tag_41:\n      mload(0x40)\n      dup1\n      swap2\n      sub\n      swap1\n      return\n        /* \"@openzeppelin/contracts/token/ERC1155/ERC1155.sol\":1378:1683   */\n    tag_3:\n      callvalue\n      dup1\n      iszero\n      tag_43\n      jumpi\n      0x00\n      dup1\n      revert\n    tag_43:\n      pop\n      tag_44\n      tag_45\n      calldatasize\n      0x04\n      tag_46\n      jump\t// in\n    tag_45:\n      tag_47\n      jump\t// in\n    tag_44:\n      mload(0x40)\n        /* \"#utility.yul\":1207:1221   */\n      swap1\n      iszero\n        /* \"#utility.yul\":1200:1222   */\n      iszero\n        /* \"#utility.yul\":1182:1223   */\n      dup2\n      mstore\n        /* \"#utility.yul\":1170:1172   */\n      0x20\n        /* \"#utility.yul\":1155:1173   */\n      add\n        /* \"@openzeppelin/contracts/token/ERC1155/ERC1155.sol\":1378:1683   */\n      tag_41\n        /* \"#utility.yul\":1042:1229   */\n      jump\n        /* \"@openzeppelin/contracts/token/ERC1155/ERC1155.sol\":2082:2185   */\n    tag_4:\n      callvalue\n      dup1\n      iszero\n      tag_50\n      jumpi\n      0x00\n      dup1\n      revert\n    tag_50:\n      pop\n      tag_51\n      tag_52\n      calldatasize\n      0x04\n      tag_53\n      jump\t// in\n    tag_52:\n      tag_54\n      jump\t// in\n    tag_51:\n      mload(0x40)\n      tag_41\n      swap2\n      swap1\n      tag_56\n      jump\t// in\n        /* \"LndyLoan.sol\":548:571  uint256 public duration */\n    tag_5:\n      callvalue\n      dup1\n      iszero\n      tag_57\n      jumpi\n      0x00\n      dup1\n      revert\n    tag_57:\n      pop\n      tag_37\n      sload(0x06)\n      dup2\n      jump\n        /* \"LndyLoan.sol\":776:796  bool public isActive */\n    tag_6:\n      callvalue\n      dup1\n      iszero\n      tag_61\n      jumpi\n      0x00\n      dup1\n      revert\n    tag_61:\n      pop\n      sload(0x0c)\n      tag_44\n      swap1\n      0xff\n      and\n      dup2\n      jump\n        /* \"LndyLoan.sol\":3835:4369  function withdrawFunds() external {... */\n    tag_7:\n      callvalue\n      dup1\n      iszero\n      tag_65\n      jumpi\n      0x00\n      dup1\n      revert\n    tag_65:\n      pop\n      tag_66\n      tag_67\n      jump\t// in\n    tag_66:\n      stop\n        /* \"LndyLoan.sol\":863:904  uint256 public constant LOAN_TOKEN_ID = 1 */\n    tag_8:\n      callvalue\n      dup1\n      iszero\n      tag_68\n      jumpi\n      0x00\n      dup1\n      revert\n    tag_68:\n      pop\n      tag_37\n        /* \"LndyLoan.sol\":903:904  1 */\n      0x01\n        /* \"LndyLoan.sol\":863:904  uint256 public constant LOAN_TOKEN_ID = 1 */\n      dup2\n      jump\n        /* \"@openzeppelin/contracts/token/ERC1155/ERC1155.sol\":4012:4441   */\n    tag_9:\n      callvalue\n      dup1\n      iszero\n      tag_72\n      jumpi\n      0x00\n      dup1\n      revert\n    tag_72:\n      pop\n      tag_66\n      tag_74\n      calldatasize\n      0x04\n      tag_75\n      jump\t// in\n    tag_74:\n      tag_76\n      jump\t// in\n        /* \"@openzeppelin/contracts/token/ERC1155/ERC1155.sol\":2534:3086   */\n    tag_10:\n      callvalue\n      dup1\n      iszero\n      tag_77\n      jumpi\n      0x00\n      dup1\n      revert\n    tag_77:\n      pop\n      tag_78\n      tag_79\n      calldatasize\n      0x04\n      tag_80\n      jump\t// in\n    tag_79:\n      tag_81\n      jump\t// in\n    tag_78:\n      mload(0x40)\n      tag_41\n      swap2\n      swap1\n      tag_83\n      jump\t// in\n        /* \"LndyLoan.sol\":802:822  bool public isRepaid */\n    tag_11:\n      callvalue\n      dup1\n      iszero\n      tag_84\n      jumpi\n      0x00\n      dup1\n      revert\n    tag_84:\n      pop\n      sload(0x0c)\n      tag_44\n      swap1\n      0x0100\n      swap1\n      div\n      0xff\n      and\n      dup2\n      jump\n        /* \"@openzeppelin/contracts/access/Ownable.sol\":2293:2394   */\n    tag_12:\n      callvalue\n      dup1\n      iszero\n      tag_88\n      jumpi\n      0x00\n      dup1\n      revert\n    tag_88:\n      pop\n      tag_66\n      tag_90\n      jump\t// in\n        /* \"LndyLoan.sol\":661:686  string public description */\n    tag_13:\n      callvalue\n      dup1\n      iszero\n      tag_91\n      jumpi\n      0x00\n      dup1\n      revert\n    tag_91:\n      pop\n      tag_51\n      tag_93\n      jump\t// in\n        /* \"LndyLoan.sol\":591:621  uint256 public fundingDeadline */\n    tag_14:\n      callvalue\n      dup1\n      iszero\n      tag_95\n      jumpi\n      0x00\n      dup1\n      revert\n    tag_95:\n      pop\n      tag_37\n      sload(0x07)\n      dup2\n      jump\n        /* \"LndyLoan.sol\":477:504  uint256 public interestRate */\n    tag_15:\n      callvalue\n      dup1\n      iszero\n      tag_99\n      jumpi\n      0x00\n      dup1\n      revert\n    tag_99:\n      pop\n      tag_37\n      sload(0x05)\n      dup2\n      jump\n        /* \"LndyLoan.sol\":692:715  address public borrower */\n    tag_16:\n      callvalue\n      dup1\n      iszero\n      tag_103\n      jumpi\n      0x00\n      dup1\n      revert\n    tag_103:\n      pop\n      sload(0x0a)\n      tag_104\n      swap1\n      sub(shl(0xa0, 0x01), 0x01)\n      and\n      dup2\n      jump\n    tag_104:\n      mload(0x40)\n      sub(shl(0xa0, 0x01), 0x01)\n        /* \"#utility.yul\":6719:6774   */\n      swap1\n      swap2\n      and\n        /* \"#utility.yul\":6701:6775   */\n      dup2\n      mstore\n        /* \"#utility.yul\":6689:6691   */\n      0x20\n        /* \"#utility.yul\":6674:6692   */\n      add\n        /* \"LndyLoan.sol\":692:715  address public borrower */\n      tag_41\n        /* \"#utility.yul\":6555:6781   */\n      jump\n        /* \"LndyLoan.sol\":2293:3050  function fundLoan(uint256 _amount) external payable {... */\n    tag_17:\n      tag_66\n      tag_109\n      calldatasize\n      0x04\n      tag_53\n      jump\t// in\n    tag_109:\n      tag_110\n      jump\t// in\n        /* \"LndyLoan.sol\":4492:5214  function claimReturns() external {... */\n    tag_18:\n      callvalue\n      dup1\n      iszero\n      tag_111\n      jumpi\n      0x00\n      dup1\n      revert\n    tag_111:\n      pop\n      tag_66\n      tag_113\n      jump\t// in\n        /* \"@openzeppelin/contracts/access/Ownable.sol\":1638:1723   */\n    tag_19:\n      callvalue\n      dup1\n      iszero\n      tag_114\n      jumpi\n      0x00\n      dup1\n      revert\n    tag_114:\n      pop\n        /* \"@openzeppelin/contracts/access/Ownable.sol\":1710:1716   */\n      and(sub(shl(0xa0, 0x01), 0x01), sload(0x03))\n        /* \"@openzeppelin/contracts/access/Ownable.sol\":1638:1723   */\n      jump(tag_104)\n        /* \"LndyLoan.sol\":446:471  uint256 public loanAmount */\n    tag_20:\n      callvalue\n      dup1\n      iszero\n      tag_118\n      jumpi\n      0x00\n      dup1\n      revert\n    tag_118:\n      pop\n      tag_37\n      sload(0x04)\n      dup2\n      jump\n        /* \"@openzeppelin/contracts/token/ERC1155/ERC1155.sol\":3154:3298   */\n    tag_21:\n      callvalue\n      dup1\n      iszero\n      tag_122\n      jumpi\n      0x00\n      dup1\n      revert\n    tag_122:\n      pop\n      tag_66\n      tag_124\n      calldatasize\n      0x04\n      tag_125\n      jump\t// in\n    tag_124:\n      tag_126\n      jump\t// in\n        /* \"LndyLoan.sol\":5808:6435  function getLoanDetails() external view returns (... */\n    tag_22:\n      callvalue\n      dup1\n      iszero\n      tag_127\n      jumpi\n      0x00\n      dup1\n      revert\n    tag_127:\n      pop\n      tag_128\n      tag_129\n      jump\t// in\n    tag_128:\n      mload(0x40)\n      tag_41\n      swap11\n      swap10\n      swap9\n      swap8\n      swap7\n      swap6\n      swap5\n      swap4\n      swap3\n      swap2\n      swap1\n      tag_131\n      jump\t// in\n        /* \"LndyLoan.sol\":744:770  uint256 public totalFunded */\n    tag_23:\n      callvalue\n      dup1\n      iszero\n      tag_132\n      jumpi\n      0x00\n      dup1\n      revert\n    tag_132:\n      pop\n      tag_37\n      sload(0x0b)\n      dup2\n      jump\n        /* \"LndyLoan.sol\":627:655  uint256 public repaymentDate */\n    tag_24:\n      callvalue\n      dup1\n      iszero\n      tag_136\n      jumpi\n      0x00\n      dup1\n      revert\n    tag_136:\n      pop\n      tag_37\n      sload(0x08)\n      dup2\n      jump\n        /* \"@openzeppelin/contracts/token/ERC1155/ERC1155.sol\":3365:3522   */\n    tag_25:\n      callvalue\n      dup1\n      iszero\n      tag_140\n      jumpi\n      0x00\n      dup1\n      revert\n    tag_140:\n      pop\n      tag_44\n      tag_142\n      calldatasize\n      0x04\n      tag_143\n      jump\t// in\n    tag_142:\n      sub(shl(0xa0, 0x01), 0x01)\n        /* \"@openzeppelin/contracts/token/ERC1155/ERC1155.sol\":3478:3505   */\n      swap2\n      dup3\n      and\n        /* \"@openzeppelin/contracts/token/ERC1155/ERC1155.sol\":3455:3459   */\n      0x00\n        /* \"@openzeppelin/contracts/token/ERC1155/ERC1155.sol\":3478:3505   */\n      swap1\n      dup2\n      mstore\n        /* \"@openzeppelin/contracts/token/ERC1155/ERC1155.sol\":3478:3496   */\n      0x01\n        /* \"@openzeppelin/contracts/token/ERC1155/ERC1155.sol\":3478:3505   */\n      0x20\n      swap1\n      dup2\n      mstore\n      0x40\n      dup1\n      dup4\n      keccak256\n        /* \"@openzeppelin/contracts/token/ERC1155/ERC1155.sol\":3478:3515   */\n      swap4\n      swap1\n      swap5\n      and\n      dup3\n      mstore\n      swap2\n      swap1\n      swap2\n      mstore\n      keccak256\n      sload\n      0xff\n      and\n      swap1\n        /* \"@openzeppelin/contracts/token/ERC1155/ERC1155.sol\":3365:3522   */\n      jump\n        /* \"@openzeppelin/contracts/token/ERC1155/ERC1155.sol\":3589:3940   */\n    tag_26:\n      callvalue\n      dup1\n      iszero\n      tag_146\n      jumpi\n      0x00\n      dup1\n      revert\n    tag_146:\n      pop\n      tag_66\n      tag_148\n      calldatasize\n      0x04\n      tag_149\n      jump\t// in\n    tag_148:\n      tag_150\n      jump\t// in\n        /* \"@openzeppelin/contracts/access/Ownable.sol\":2543:2758   */\n    tag_27:\n      callvalue\n      dup1\n      iszero\n      tag_151\n      jumpi\n      0x00\n      dup1\n      revert\n    tag_151:\n      pop\n      tag_66\n      tag_153\n      calldatasize\n      0x04\n      tag_154\n      jump\t// in\n    tag_153:\n      tag_155\n      jump\t// in\n        /* \"LndyLoan.sol\":3131:3655  function repayLoan() external payable onlyOwner {... */\n    tag_28:\n      tag_66\n      tag_157\n      jump\t// in\n        /* \"@openzeppelin/contracts/token/ERC1155/ERC1155.sol\":2245:2377   */\n    tag_40:\n        /* \"@openzeppelin/contracts/token/ERC1155/ERC1155.sol\":2322:2329   */\n      0x00\n        /* \"@openzeppelin/contracts/token/ERC1155/ERC1155.sol\":2348:2361   */\n      dup2\n      dup2\n      mstore\n      0x20\n      dup2\n      dup2\n      mstore\n      0x40\n      dup1\n      dup4\n      keccak256\n      sub(shl(0xa0, 0x01), 0x01)\n        /* \"@openzeppelin/contracts/token/ERC1155/ERC1155.sol\":2348:2370   */\n      dup7\n      and\n      dup5\n      mstore\n      swap1\n      swap2\n      mstore\n      swap1\n      keccak256\n      sload\n        /* \"@openzeppelin/contracts/token/ERC1155/ERC1155.sol\":2245:2377   */\n    tag_158:\n      swap3\n      swap2\n      pop\n      pop\n      jump\t// out\n        /* \"@openzeppelin/contracts/token/ERC1155/ERC1155.sol\":1378:1683   */\n    tag_47:\n        /* \"@openzeppelin/contracts/token/ERC1155/ERC1155.sol\":1480:1484   */\n      0x00\n      not(sub(shl(0xe0, 0x01), 0x01))\n        /* \"@openzeppelin/contracts/token/ERC1155/ERC1155.sol\":1515:1556   */\n      dup3\n      and\n      shl(0xe1, 0x6cdb3d13)\n      eq\n      dup1\n        /* \"@openzeppelin/contracts/token/ERC1155/ERC1155.sol\":1515:1624   */\n      tag_160\n      jumpi\n      pop\n      not(sub(shl(0xe0, 0x01), 0x01))\n        /* \"@openzeppelin/contracts/token/ERC1155/ERC1155.sol\":1572:1624   */\n      dup3\n      and\n      shl(0xe2, 0x03a24d07)\n      eq\n        /* \"@openzeppelin/contracts/token/ERC1155/ERC1155.sol\":1515:1624   */\n    tag_160:\n        /* \"@openzeppelin/contracts/token/ERC1155/ERC1155.sol\":1515:1676   */\n      dup1\n      tag_158\n      jumpi\n      pop\n      shl(0xe0, 0x01ffc9a7)\n      not(sub(shl(0xe0, 0x01), 0x01))\n        /* \"@openzeppelin/contracts/utils/introspection/ERC165.sol\":862:902   */\n      dup4\n      and\n      eq\n        /* \"@openzeppelin/contracts/token/ERC1155/ERC1155.sol\":1640:1676   */\n      tag_158\n        /* \"@openzeppelin/contracts/utils/introspection/ERC165.sol\":763:909   */\n      jump\n        /* \"@openzeppelin/contracts/token/ERC1155/ERC1155.sol\":2082:2185   */\n    tag_54:\n        /* \"@openzeppelin/contracts/token/ERC1155/ERC1155.sol\":2142:2155   */\n      0x60\n        /* \"@openzeppelin/contracts/token/ERC1155/ERC1155.sol\":2174:2178   */\n      0x02\n        /* \"@openzeppelin/contracts/token/ERC1155/ERC1155.sol\":2167:2178   */\n      dup1\n      sload\n      tag_165\n      swap1\n      tag_166\n      jump\t// in\n    tag_165:\n      dup1\n      0x1f\n      add\n      0x20\n      dup1\n      swap2\n      div\n      mul\n      0x20\n      add\n      mload(0x40)\n      swap1\n      dup2\n      add\n      0x40\n      mstore\n      dup1\n      swap3\n      swap2\n      swap1\n      dup2\n      dup2\n      mstore\n      0x20\n      add\n      dup3\n      dup1\n      sload\n      tag_167\n      swap1\n      tag_166\n      jump\t// in\n    tag_167:\n      dup1\n      iszero\n      tag_168\n      jumpi\n      dup1\n      0x1f\n      lt\n      tag_169\n      jumpi\n      0x0100\n      dup1\n      dup4\n      sload\n      div\n      mul\n      dup4\n      mstore\n      swap2\n      0x20\n      add\n      swap2\n      jump(tag_168)\n    tag_169:\n      dup3\n      add\n      swap2\n      swap1\n      0x00\n      mstore\n      keccak256(0x00, 0x20)\n      swap1\n    tag_170:\n      dup2\n      sload\n      dup2\n      mstore\n      swap1\n      0x01\n      add\n      swap1\n      0x20\n      add\n      dup1\n      dup4\n      gt\n      tag_170\n      jumpi\n      dup3\n      swap1\n      sub\n      0x1f\n      and\n      dup3\n      add\n      swap2\n    tag_168:\n      pop\n      pop\n      pop\n      pop\n      pop\n      swap1\n      pop\n        /* \"@openzeppelin/contracts/token/ERC1155/ERC1155.sol\":2082:2185   */\n      swap2\n      swap1\n      pop\n      jump\t// out\n        /* \"LndyLoan.sol\":3835:4369  function withdrawFunds() external {... */\n    tag_67:\n        /* \"LndyLoan.sol\":3905:3920  fundingDeadline */\n      sload(0x07)\n        /* \"LndyLoan.sol\":3887:3902  block.timestamp */\n      timestamp\n        /* \"LndyLoan.sol\":3887:3920  block.timestamp > fundingDeadline */\n      gt\n        /* \"LndyLoan.sol\":3879:3953  require(block.timestamp > fundingDeadline, \"Funding period has not ended\") */\n      tag_172\n      jumpi\n      mload(0x40)\n      shl(0xe5, 0x461bcd)\n      dup2\n      mstore\n        /* \"#utility.yul\":9753:9755   */\n      0x20\n        /* \"LndyLoan.sol\":3879:3953  require(block.timestamp > fundingDeadline, \"Funding period has not ended\") */\n      0x04\n      dup3\n      add\n        /* \"#utility.yul\":9735:9756   */\n      mstore\n        /* \"#utility.yul\":9792:9794   */\n      0x1c\n        /* \"#utility.yul\":9772:9790   */\n      0x24\n      dup3\n      add\n        /* \"#utility.yul\":9765:9795   */\n      mstore\n        /* \"#utility.yul\":9831:9861   */\n      0x46756e64696e6720706572696f6420686173206e6f7420656e64656400000000\n        /* \"#utility.yul\":9811:9829   */\n      0x44\n      dup3\n      add\n        /* \"#utility.yul\":9804:9862   */\n      mstore\n        /* \"#utility.yul\":9879:9897   */\n      0x64\n      add\n        /* \"LndyLoan.sol\":3879:3953  require(block.timestamp > fundingDeadline, \"Funding period has not ended\") */\n    tag_173:\n      mload(0x40)\n      dup1\n      swap2\n      sub\n      swap1\n      revert\n    tag_172:\n        /* \"LndyLoan.sol\":3972:3980  isActive */\n      and(0xff, sload(0x0c))\n        /* \"LndyLoan.sol\":3971:3980  !isActive */\n      iszero\n        /* \"LndyLoan.sol\":3963:4007  require(!isActive, \"Loan is already active\") */\n      tag_175\n      jumpi\n      mload(0x40)\n      shl(0xe5, 0x461bcd)\n      dup2\n      mstore\n        /* \"#utility.yul\":10110:10112   */\n      0x20\n        /* \"LndyLoan.sol\":3963:4007  require(!isActive, \"Loan is already active\") */\n      0x04\n      dup3\n      add\n        /* \"#utility.yul\":10092:10113   */\n      mstore\n        /* \"#utility.yul\":10149:10151   */\n      0x16\n        /* \"#utility.yul\":10129:10147   */\n      0x24\n      dup3\n      add\n        /* \"#utility.yul\":10122:10152   */\n      mstore\n        /* \"#utility.yul\":10188:10212   */\n      0x4c6f616e20697320616c72656164792061637469766500000000000000000000\n        /* \"#utility.yul\":10168:10186   */\n      0x44\n      dup3\n      add\n        /* \"#utility.yul\":10161:10213   */\n      mstore\n        /* \"#utility.yul\":10230:10248   */\n      0x64\n      add\n        /* \"LndyLoan.sol\":3963:4007  require(!isActive, \"Loan is already active\") */\n      tag_173\n        /* \"#utility.yul\":9908:10254   */\n      jump\n        /* \"LndyLoan.sol\":3963:4007  require(!isActive, \"Loan is already active\") */\n    tag_175:\n        /* \"LndyLoan.sol\":4026:4050  uint256 userContribution */\n      0x00\n        /* \"LndyLoan.sol\":4053:4089  balanceOf(msg.sender, LOAN_TOKEN_ID) */\n      tag_178\n        /* \"LndyLoan.sol\":4063:4073  msg.sender */\n      caller\n        /* \"LndyLoan.sol\":903:904  1 */\n      0x01\n        /* \"LndyLoan.sol\":4053:4062  balanceOf */\n      tag_40\n        /* \"LndyLoan.sol\":4053:4089  balanceOf(msg.sender, LOAN_TOKEN_ID) */\n      jump\t// in\n    tag_178:\n        /* \"LndyLoan.sol\":4026:4089  uint256 userContribution = balanceOf(msg.sender, LOAN_TOKEN_ID) */\n      swap1\n      pop\n        /* \"LndyLoan.sol\":4126:4127  0 */\n      0x00\n        /* \"LndyLoan.sol\":4107:4123  userContribution */\n      dup2\n        /* \"LndyLoan.sol\":4107:4127  userContribution > 0 */\n      gt\n        /* \"LndyLoan.sol\":4099:4152  require(userContribution > 0, \"No funds to withdraw\") */\n      tag_179\n      jumpi\n      mload(0x40)\n      shl(0xe5, 0x461bcd)\n      dup2\n      mstore\n        /* \"#utility.yul\":10461:10463   */\n      0x20\n        /* \"LndyLoan.sol\":4099:4152  require(userContribution > 0, \"No funds to withdraw\") */\n      0x04\n      dup3\n      add\n        /* \"#utility.yul\":10443:10464   */\n      mstore\n        /* \"#utility.yul\":10500:10502   */\n      0x14\n        /* \"#utility.yul\":10480:10498   */\n      0x24\n      dup3\n      add\n        /* \"#utility.yul\":10473:10503   */\n      mstore\n        /* \"#utility.yul\":10539:10561   */\n      0x4e6f2066756e647320746f207769746864726177000000000000000000000000\n        /* \"#utility.yul\":10519:10537   */\n      0x44\n      dup3\n      add\n        /* \"#utility.yul\":10512:10562   */\n      mstore\n        /* \"#utility.yul\":10579:10597   */\n      0x64\n      add\n        /* \"LndyLoan.sol\":4099:4152  require(userContribution > 0, \"No funds to withdraw\") */\n      tag_173\n        /* \"#utility.yul\":10259:10603   */\n      jump\n        /* \"LndyLoan.sol\":4099:4152  require(userContribution > 0, \"No funds to withdraw\") */\n    tag_179:\n        /* \"LndyLoan.sol\":4198:4248  _burn(msg.sender, LOAN_TOKEN_ID, userContribution) */\n      tag_182\n        /* \"LndyLoan.sol\":4204:4214  msg.sender */\n      caller\n        /* \"LndyLoan.sol\":903:904  1 */\n      0x01\n        /* \"LndyLoan.sol\":4231:4247  userContribution */\n      dup4\n        /* \"LndyLoan.sol\":4198:4203  _burn */\n      tag_183\n        /* \"LndyLoan.sol\":4198:4248  _burn(msg.sender, LOAN_TOKEN_ID, userContribution) */\n      jump\t// in\n    tag_182:\n        /* \"LndyLoan.sol\":4316:4362  payable(msg.sender).transfer(userContribution) */\n      mload(0x40)\n        /* \"LndyLoan.sol\":4324:4334  msg.sender */\n      caller\n      swap1\n        /* \"LndyLoan.sol\":4316:4362  payable(msg.sender).transfer(userContribution) */\n      dup3\n      iszero\n      0x08fc\n      mul\n      swap1\n        /* \"LndyLoan.sol\":4345:4361  userContribution */\n      dup4\n      swap1\n        /* \"LndyLoan.sol\":4316:4362  payable(msg.sender).transfer(userContribution) */\n      0x00\n      dup2\n      dup2\n      dup2\n        /* \"LndyLoan.sol\":4345:4361  userContribution */\n      dup6\n        /* \"LndyLoan.sol\":4324:4334  msg.sender */\n      dup9\n        /* \"LndyLoan.sol\":4316:4362  payable(msg.sender).transfer(userContribution) */\n      dup9\n      call\n      swap4\n      pop\n      pop\n      pop\n      pop\n      iszero\n      dup1\n      iszero\n      tag_185\n      jumpi\n      returndatasize\n      0x00\n      dup1\n      returndatacopy\n      revert(0x00, returndatasize)\n    tag_185:\n      pop\n        /* \"LndyLoan.sol\":3869:4369  {... */\n      pop\n        /* \"LndyLoan.sol\":3835:4369  function withdrawFunds() external {... */\n      jump\t// out\n        /* \"@openzeppelin/contracts/token/ERC1155/ERC1155.sol\":4012:4441   */\n    tag_76:\n        /* \"@openzeppelin/contracts/utils/Context.sol\":735:745   */\n      caller\n      sub(shl(0xa0, 0x01), 0x01)\n        /* \"@openzeppelin/contracts/token/ERC1155/ERC1155.sol\":4249:4263   */\n      dup7\n      and\n      dup2\n      eq\n      dup1\n      iszero\n      swap1\n        /* \"@openzeppelin/contracts/token/ERC1155/ERC1155.sol\":4249:4298   */\n      tag_189\n      jumpi\n      pop\n      sub(shl(0xa0, 0x01), 0x01)\n        /* \"@openzeppelin/contracts/token/ERC1155/ERC1155.sol\":3478:3505   */\n      dup1\n      dup8\n      and\n        /* \"@openzeppelin/contracts/token/ERC1155/ERC1155.sol\":3455:3459   */\n      0x00\n        /* \"@openzeppelin/contracts/token/ERC1155/ERC1155.sol\":3478:3505   */\n      swap1\n      dup2\n      mstore\n        /* \"@openzeppelin/contracts/token/ERC1155/ERC1155.sol\":3478:3496   */\n      0x01\n        /* \"@openzeppelin/contracts/token/ERC1155/ERC1155.sol\":3478:3505   */\n      0x20\n      swap1\n      dup2\n      mstore\n      0x40\n      dup1\n      dup4\n      keccak256\n        /* \"@openzeppelin/contracts/token/ERC1155/ERC1155.sol\":3478:3515   */\n      swap4\n      dup6\n      and\n      dup4\n      mstore\n      swap3\n      swap1\n      mstore\n      keccak256\n      sload\n      0xff\n      and\n        /* \"@openzeppelin/contracts/token/ERC1155/ERC1155.sol\":4267:4298   */\n      iszero\n        /* \"@openzeppelin/contracts/token/ERC1155/ERC1155.sol\":4249:4298   */\n    tag_189:\n        /* \"@openzeppelin/contracts/token/ERC1155/ERC1155.sol\":4245:4374   */\n      iszero\n      tag_191\n      jumpi\n        /* \"@openzeppelin/contracts/token/ERC1155/ERC1155.sol\":4321:4363   */\n      mload(0x40)\n      shl(0xe1, 0x711bec91)\n      dup2\n      mstore\n      sub(shl(0xa0, 0x01), 0x01)\n        /* \"#utility.yul\":10861:10876   */\n      dup1\n      dup4\n      and\n        /* \"@openzeppelin/contracts/token/ERC1155/ERC1155.sol\":4321:4363   */\n      0x04\n      dup4\n      add\n        /* \"#utility.yul\":10843:10877   */\n      mstore\n        /* \"#utility.yul\":10913:10928   */\n      dup8\n      and\n        /* \"#utility.yul\":10893:10911   */\n      0x24\n      dup3\n      add\n        /* \"#utility.yul\":10886:10929   */\n      mstore\n        /* \"#utility.yul\":10755:10773   */\n      0x44\n      add\n        /* \"@openzeppelin/contracts/token/ERC1155/ERC1155.sol\":4321:4363   */\n      tag_173\n        /* \"#utility.yul\":10608:10935   */\n      jump\n        /* \"@openzeppelin/contracts/token/ERC1155/ERC1155.sol\":4245:4374   */\n    tag_191:\n        /* \"@openzeppelin/contracts/token/ERC1155/ERC1155.sol\":4383:4434   */\n      tag_194\n        /* \"@openzeppelin/contracts/token/ERC1155/ERC1155.sol\":4406:4410   */\n      dup7\n        /* \"@openzeppelin/contracts/token/ERC1155/ERC1155.sol\":4412:4414   */\n      dup7\n        /* \"@openzeppelin/contracts/token/ERC1155/ERC1155.sol\":4416:4419   */\n      dup7\n        /* \"@openzeppelin/contracts/token/ERC1155/ERC1155.sol\":4421:4427   */\n      dup7\n        /* \"@openzeppelin/contracts/token/ERC1155/ERC1155.sol\":4429:4433   */\n      dup7\n        /* \"@openzeppelin/contracts/token/ERC1155/ERC1155.sol\":4383:4405   */\n      tag_195\n        /* \"@openzeppelin/contracts/token/ERC1155/ERC1155.sol\":4383:4434   */\n      jump\t// in\n    tag_194:\n        /* \"@openzeppelin/contracts/token/ERC1155/ERC1155.sol\":4196:4441   */\n      pop\n        /* \"@openzeppelin/contracts/token/ERC1155/ERC1155.sol\":4012:4441   */\n      pop\n      pop\n      pop\n      pop\n      pop\n      jump\t// out\n        /* \"@openzeppelin/contracts/token/ERC1155/ERC1155.sol\":2534:3086   */\n    tag_81:\n        /* \"@openzeppelin/contracts/token/ERC1155/ERC1155.sol\":2658:2674   */\n      0x60\n        /* \"@openzeppelin/contracts/token/ERC1155/ERC1155.sol\":2709:2712   */\n      dup2\n        /* \"@openzeppelin/contracts/token/ERC1155/ERC1155.sol\":2709:2719   */\n      mload\n        /* \"@openzeppelin/contracts/token/ERC1155/ERC1155.sol\":2690:2698   */\n      dup4\n        /* \"@openzeppelin/contracts/token/ERC1155/ERC1155.sol\":2690:2705   */\n      mload\n        /* \"@openzeppelin/contracts/token/ERC1155/ERC1155.sol\":2690:2719   */\n      eq\n        /* \"@openzeppelin/contracts/token/ERC1155/ERC1155.sol\":2686:2807   */\n      tag_197\n      jumpi\n        /* \"@openzeppelin/contracts/token/ERC1155/ERC1155.sol\":2768:2778   */\n      dup2\n      mload\n        /* \"@openzeppelin/contracts/token/ERC1155/ERC1155.sol\":2780:2795   */\n      dup4\n      mload\n        /* \"@openzeppelin/contracts/token/ERC1155/ERC1155.sol\":2742:2796   */\n      mload(0x40)\n      shl(0xe0, 0x5b059991)\n      dup2\n      mstore\n      0x04\n      dup2\n      add\n        /* \"#utility.yul\":11114:11139   */\n      swap3\n      swap1\n      swap3\n      mstore\n        /* \"#utility.yul\":11155:11173   */\n      0x24\n      dup3\n      add\n        /* \"#utility.yul\":11148:11182   */\n      mstore\n        /* \"#utility.yul\":11087:11105   */\n      0x44\n      add\n        /* \"@openzeppelin/contracts/token/ERC1155/ERC1155.sol\":2742:2796   */\n      tag_173\n        /* \"#utility.yul\":10940:11188   */\n      jump\n        /* \"@openzeppelin/contracts/token/ERC1155/ERC1155.sol\":2686:2807   */\n    tag_197:\n        /* \"@openzeppelin/contracts/token/ERC1155/ERC1155.sol\":2817:2847   */\n      0x00\n        /* \"@openzeppelin/contracts/token/ERC1155/ERC1155.sol\":2864:2872   */\n      dup4\n        /* \"@openzeppelin/contracts/token/ERC1155/ERC1155.sol\":2864:2879   */\n      mload\n        /* \"@openzeppelin/contracts/token/ERC1155/ERC1155.sol\":2850:2880   */\n      0xffffffffffffffff\n      dup2\n      gt\n      iszero\n      tag_201\n      jumpi\n      tag_201\n      tag_202\n      jump\t// in\n    tag_201:\n      mload(0x40)\n      swap1\n      dup1\n      dup3\n      mstore\n      dup1\n      0x20\n      mul\n      0x20\n      add\n      dup3\n      add\n      0x40\n      mstore\n      dup1\n      iszero\n      tag_203\n      jumpi\n      dup2\n      0x20\n      add\n      0x20\n      dup3\n      mul\n      dup1\n      calldatasize\n      dup4\n      calldatacopy\n      add\n      swap1\n      pop\n    tag_203:\n      pop\n        /* \"@openzeppelin/contracts/token/ERC1155/ERC1155.sol\":2817:2880   */\n      swap1\n      pop\n        /* \"@openzeppelin/contracts/token/ERC1155/ERC1155.sol\":2896:2905   */\n      0x00\n        /* \"@openzeppelin/contracts/token/ERC1155/ERC1155.sol\":2891:3049   */\n    tag_204:\n        /* \"@openzeppelin/contracts/token/ERC1155/ERC1155.sol\":2915:2923   */\n      dup5\n        /* \"@openzeppelin/contracts/token/ERC1155/ERC1155.sol\":2915:2930   */\n      mload\n        /* \"@openzeppelin/contracts/token/ERC1155/ERC1155.sol\":2911:2912   */\n      dup2\n        /* \"@openzeppelin/contracts/token/ERC1155/ERC1155.sol\":2911:2930   */\n      lt\n        /* \"@openzeppelin/contracts/token/ERC1155/ERC1155.sol\":2891:3049   */\n      iszero\n      tag_205\n      jumpi\n        /* \"@openzeppelin/contracts/utils/Arrays.sol\":16302:16306   */\n      0x20\n        /* \"@openzeppelin/contracts/utils/Arrays.sol\":16293:16307   */\n      dup1\n      dup3\n      mul\n        /* \"@openzeppelin/contracts/utils/Arrays.sol\":16273:16308   */\n      dup7\n      add\n      add\n        /* \"@openzeppelin/contracts/utils/Arrays.sol\":16267:16309   */\n      mload\n        /* \"@openzeppelin/contracts/token/ERC1155/ERC1155.sol\":2970:3038   */\n      tag_207\n      swap1\n        /* \"@openzeppelin/contracts/utils/Arrays.sol\":16302:16306   */\n      0x20\n        /* \"@openzeppelin/contracts/utils/Arrays.sol\":16293:16307   */\n      dup1\n      dup5\n      mul\n        /* \"@openzeppelin/contracts/utils/Arrays.sol\":16273:16308   */\n      dup8\n      add\n      add\n        /* \"@openzeppelin/contracts/utils/Arrays.sol\":16267:16309   */\n      mload\n        /* \"@openzeppelin/contracts/token/ERC1155/ERC1155.sol\":2245:2377   */\n      tag_40\n      jump\t// in\n        /* \"@openzeppelin/contracts/token/ERC1155/ERC1155.sol\":2970:3038   */\n    tag_207:\n        /* \"@openzeppelin/contracts/token/ERC1155/ERC1155.sol\":2951:2964   */\n      dup3\n        /* \"@openzeppelin/contracts/token/ERC1155/ERC1155.sol\":2965:2966   */\n      dup3\n        /* \"@openzeppelin/contracts/token/ERC1155/ERC1155.sol\":2951:2967   */\n      dup2\n      mload\n      dup2\n      lt\n      tag_213\n      jumpi\n      tag_213\n      tag_214\n      jump\t// in\n    tag_213:\n      0x20\n      swap1\n      dup2\n      mul\n      swap2\n      swap1\n      swap2\n      add\n      add\n        /* \"@openzeppelin/contracts/token/ERC1155/ERC1155.sol\":2951:3038   */\n      mstore\n        /* \"@openzeppelin/contracts/token/ERC1155/ERC1155.sol\":2932:2935   */\n      0x01\n      add\n        /* \"@openzeppelin/contracts/token/ERC1155/ERC1155.sol\":2891:3049   */\n      jump(tag_204)\n    tag_205:\n      pop\n        /* \"@openzeppelin/contracts/token/ERC1155/ERC1155.sol\":3066:3079   */\n      swap4\n        /* \"@openzeppelin/contracts/token/ERC1155/ERC1155.sol\":2534:3086   */\n      swap3\n      pop\n      pop\n      pop\n      jump\t// out\n        /* \"@openzeppelin/contracts/access/Ownable.sol\":2293:2394   */\n    tag_90:\n        /* \"@openzeppelin/contracts/access/Ownable.sol\":1531:1544   */\n      tag_216\n        /* \"@openzeppelin/contracts/access/Ownable.sol\":1531:1542   */\n      tag_217\n        /* \"@openzeppelin/contracts/access/Ownable.sol\":1531:1544   */\n      jump\t// in\n    tag_216:\n        /* \"@openzeppelin/contracts/access/Ownable.sol\":2357:2387   */\n      tag_219\n        /* \"@openzeppelin/contracts/access/Ownable.sol\":2384:2385   */\n      0x00\n        /* \"@openzeppelin/contracts/access/Ownable.sol\":2357:2375   */\n      tag_220\n        /* \"@openzeppelin/contracts/access/Ownable.sol\":2357:2387   */\n      jump\t// in\n    tag_219:\n        /* \"@openzeppelin/contracts/access/Ownable.sol\":2293:2394   */\n      jump\t// out\n        /* \"LndyLoan.sol\":661:686  string public description */\n    tag_93:\n      0x09\n      dup1\n      sload\n      tag_221\n      swap1\n      tag_166\n      jump\t// in\n    tag_221:\n      dup1\n      0x1f\n      add\n      0x20\n      dup1\n      swap2\n      div\n      mul\n      0x20\n      add\n      mload(0x40)\n      swap1\n      dup2\n      add\n      0x40\n      mstore\n      dup1\n      swap3\n      swap2\n      swap1\n      dup2\n      dup2\n      mstore\n      0x20\n      add\n      dup3\n      dup1\n      sload\n      tag_222\n      swap1\n      tag_166\n      jump\t// in\n    tag_222:\n      dup1\n      iszero\n      tag_223\n      jumpi\n      dup1\n      0x1f\n      lt\n      tag_224\n      jumpi\n      0x0100\n      dup1\n      dup4\n      sload\n      div\n      mul\n      dup4\n      mstore\n      swap2\n      0x20\n      add\n      swap2\n      jump(tag_223)\n    tag_224:\n      dup3\n      add\n      swap2\n      swap1\n      0x00\n      mstore\n      keccak256(0x00, 0x20)\n      swap1\n    tag_225:\n      dup2\n      sload\n      dup2\n      mstore\n      swap1\n      0x01\n      add\n      swap1\n      0x20\n      add\n      dup1\n      dup4\n      gt\n      tag_225\n      jumpi\n      dup3\n      swap1\n      sub\n      0x1f\n      and\n      dup3\n      add\n      swap2\n    tag_223:\n      pop\n      pop\n      pop\n      pop\n      pop\n      dup2\n      jump\t// out\n        /* \"LndyLoan.sol\":2293:3050  function fundLoan(uint256 _amount) external payable {... */\n    tag_110:\n        /* \"LndyLoan.sol\":2381:2396  fundingDeadline */\n      sload(0x07)\n        /* \"LndyLoan.sol\":2363:2378  block.timestamp */\n      timestamp\n        /* \"LndyLoan.sol\":2363:2396  block.timestamp < fundingDeadline */\n      lt\n        /* \"LndyLoan.sol\":2355:2425  require(block.timestamp < fundingDeadline, \"Funding period has ended\") */\n      tag_227\n      jumpi\n      mload(0x40)\n      shl(0xe5, 0x461bcd)\n      dup2\n      mstore\n        /* \"#utility.yul\":11527:11529   */\n      0x20\n        /* \"LndyLoan.sol\":2355:2425  require(block.timestamp < fundingDeadline, \"Funding period has ended\") */\n      0x04\n      dup3\n      add\n        /* \"#utility.yul\":11509:11530   */\n      mstore\n        /* \"#utility.yul\":11566:11568   */\n      0x18\n        /* \"#utility.yul\":11546:11564   */\n      0x24\n      dup3\n      add\n        /* \"#utility.yul\":11539:11569   */\n      mstore\n        /* \"#utility.yul\":11605:11631   */\n      0x46756e64696e6720706572696f642068617320656e6465640000000000000000\n        /* \"#utility.yul\":11585:11603   */\n      0x44\n      dup3\n      add\n        /* \"#utility.yul\":11578:11632   */\n      mstore\n        /* \"#utility.yul\":11649:11667   */\n      0x64\n      add\n        /* \"LndyLoan.sol\":2355:2425  require(block.timestamp < fundingDeadline, \"Funding period has ended\") */\n      tag_173\n        /* \"#utility.yul\":11325:11673   */\n      jump\n        /* \"LndyLoan.sol\":2355:2425  require(block.timestamp < fundingDeadline, \"Funding period has ended\") */\n    tag_227:\n        /* \"LndyLoan.sol\":2444:2452  isActive */\n      and(0xff, sload(0x0c))\n        /* \"LndyLoan.sol\":2443:2452  !isActive */\n      iszero\n        /* \"LndyLoan.sol\":2435:2479  require(!isActive, \"Loan is already active\") */\n      tag_230\n      jumpi\n      mload(0x40)\n      shl(0xe5, 0x461bcd)\n      dup2\n      mstore\n        /* \"#utility.yul\":10110:10112   */\n      0x20\n        /* \"LndyLoan.sol\":2435:2479  require(!isActive, \"Loan is already active\") */\n      0x04\n      dup3\n      add\n        /* \"#utility.yul\":10092:10113   */\n      mstore\n        /* \"#utility.yul\":10149:10151   */\n      0x16\n        /* \"#utility.yul\":10129:10147   */\n      0x24\n      dup3\n      add\n        /* \"#utility.yul\":10122:10152   */\n      mstore\n        /* \"#utility.yul\":10188:10212   */\n      0x4c6f616e20697320616c72656164792061637469766500000000000000000000\n        /* \"#utility.yul\":10168:10186   */\n      0x44\n      dup3\n      add\n        /* \"#utility.yul\":10161:10213   */\n      mstore\n        /* \"#utility.yul\":10230:10248   */\n      0x64\n      add\n        /* \"LndyLoan.sol\":2435:2479  require(!isActive, \"Loan is already active\") */\n      tag_173\n        /* \"#utility.yul\":9908:10254   */\n      jump\n        /* \"LndyLoan.sol\":2435:2479  require(!isActive, \"Loan is already active\") */\n    tag_230:\n        /* \"LndyLoan.sol\":2522:2532  loanAmount */\n      sload(0x04)\n        /* \"LndyLoan.sol\":2511:2518  _amount */\n      dup2\n        /* \"LndyLoan.sol\":2497:2508  totalFunded */\n      sload(0x0b)\n        /* \"LndyLoan.sol\":2497:2518  totalFunded + _amount */\n      tag_232\n      swap2\n      swap1\n      tag_233\n      jump\t// in\n    tag_232:\n        /* \"LndyLoan.sol\":2497:2532  totalFunded + _amount <= loanAmount */\n      gt\n      iszero\n        /* \"LndyLoan.sol\":2489:2576  require(totalFunded + _amount <= loanAmount, \"Funding amount exceeds loan requirement\") */\n      tag_234\n      jumpi\n      mload(0x40)\n      shl(0xe5, 0x461bcd)\n      dup2\n      mstore\n        /* \"#utility.yul\":12142:12144   */\n      0x20\n        /* \"LndyLoan.sol\":2489:2576  require(totalFunded + _amount <= loanAmount, \"Funding amount exceeds loan requirement\") */\n      0x04\n      dup3\n      add\n        /* \"#utility.yul\":12124:12145   */\n      mstore\n        /* \"#utility.yul\":12181:12183   */\n      0x27\n        /* \"#utility.yul\":12161:12179   */\n      0x24\n      dup3\n      add\n        /* \"#utility.yul\":12154:12184   */\n      mstore\n        /* \"#utility.yul\":12220:12254   */\n      0x46756e64696e6720616d6f756e742065786365656473206c6f616e2072657175\n        /* \"#utility.yul\":12200:12218   */\n      0x44\n      dup3\n      add\n        /* \"#utility.yul\":12193:12255   */\n      mstore\n        /* \"#utility.yul\":12291:12300   */\n      0x6972656d656e7400000000000000000000000000000000000000000000000000\n        /* \"#utility.yul\":12271:12289   */\n      0x64\n      dup3\n      add\n        /* \"#utility.yul\":12264:12301   */\n      mstore\n        /* \"#utility.yul\":12318:12337   */\n      0x84\n      add\n        /* \"LndyLoan.sol\":2489:2576  require(totalFunded + _amount <= loanAmount, \"Funding amount exceeds loan requirement\") */\n      tag_173\n        /* \"#utility.yul\":11940:12343   */\n      jump\n        /* \"LndyLoan.sol\":2489:2576  require(totalFunded + _amount <= loanAmount, \"Funding amount exceeds loan requirement\") */\n    tag_234:\n        /* \"LndyLoan.sol\":2664:2709  _mint(msg.sender, LOAN_TOKEN_ID, _amount, \"\") */\n      tag_237\n        /* \"LndyLoan.sol\":2670:2680  msg.sender */\n      caller\n        /* \"LndyLoan.sol\":903:904  1 */\n      0x01\n        /* \"LndyLoan.sol\":2697:2704  _amount */\n      dup4\n        /* \"LndyLoan.sol\":2664:2709  _mint(msg.sender, LOAN_TOKEN_ID, _amount, \"\") */\n      mload(0x40)\n      dup1\n      0x20\n      add\n      0x40\n      mstore\n      dup1\n      0x00\n      dup2\n      mstore\n      pop\n        /* \"LndyLoan.sol\":2664:2669  _mint */\n      tag_238\n        /* \"LndyLoan.sol\":2664:2709  _mint(msg.sender, LOAN_TOKEN_ID, _amount, \"\") */\n      jump\t// in\n    tag_237:\n        /* \"LndyLoan.sol\":2743:2750  _amount */\n      dup1\n        /* \"LndyLoan.sol\":2728:2739  totalFunded */\n      0x0b\n      0x00\n        /* \"LndyLoan.sol\":2728:2750  totalFunded += _amount */\n      dup3\n      dup3\n      sload\n      tag_239\n      swap2\n      swap1\n      tag_233\n      jump\t// in\n    tag_239:\n      swap1\n      swap2\n      sstore\n      pop\n      pop\n        /* \"LndyLoan.sol\":2836:2846  loanAmount */\n      sload(0x04)\n        /* \"LndyLoan.sol\":2821:2832  totalFunded */\n      sload(0x0b)\n        /* \"LndyLoan.sol\":2821:2846  totalFunded == loanAmount */\n      sub\n        /* \"LndyLoan.sol\":2817:2989  if (totalFunded == loanAmount) {... */\n      tag_240\n      jumpi\n        /* \"LndyLoan.sol\":2862:2870  isActive */\n      0x0c\n        /* \"LndyLoan.sol\":2862:2877  isActive = true */\n      dup1\n      sload\n      not(0xff)\n      and\n        /* \"LndyLoan.sol\":2873:2877  true */\n      0x01\n        /* \"LndyLoan.sol\":2862:2877  isActive = true */\n      or\n      swap1\n      sstore\n        /* \"LndyLoan.sol\":2925:2933  duration */\n      sload(0x06)\n        /* \"LndyLoan.sol\":2907:2933  block.timestamp + duration */\n      tag_241\n      swap1\n        /* \"LndyLoan.sol\":2907:2922  block.timestamp */\n      timestamp\n        /* \"LndyLoan.sol\":2907:2933  block.timestamp + duration */\n      tag_233\n      jump\t// in\n    tag_241:\n        /* \"LndyLoan.sol\":2891:2904  repaymentDate */\n      0x08\n        /* \"LndyLoan.sol\":2891:2933  repaymentDate = block.timestamp + duration */\n      sstore\n        /* \"LndyLoan.sol\":2966:2977  totalFunded */\n      sload(0x0b)\n        /* \"LndyLoan.sol\":2952:2978  LoanActivated(totalFunded) */\n      mload(0x40)\n        /* \"#utility.yul\":620:645   */\n      swap1\n      dup2\n      mstore\n        /* \"LndyLoan.sol\":2952:2978  LoanActivated(totalFunded) */\n      0xcb4c701313b0db2ed5902d923d21b853d01e3a14cb2af2dce00e309eaa0e134c\n      swap1\n        /* \"#utility.yul\":608:610   */\n      0x20\n        /* \"#utility.yul\":593:611   */\n      add\n        /* \"LndyLoan.sol\":2952:2978  LoanActivated(totalFunded) */\n      mload(0x40)\n      dup1\n      swap2\n      sub\n      swap1\n      log1\n        /* \"LndyLoan.sol\":2817:2989  if (totalFunded == loanAmount) {... */\n    tag_240:\n        /* \"LndyLoan.sol\":3012:3043  LoanFunded(msg.sender, _amount) */\n      0x40\n      dup1\n      mload\n        /* \"LndyLoan.sol\":3023:3033  msg.sender */\n      caller\n        /* \"#utility.yul\":12522:12596   */\n      dup2\n      mstore\n        /* \"#utility.yul\":12627:12629   */\n      0x20\n        /* \"#utility.yul\":12612:12630   */\n      dup2\n      add\n        /* \"#utility.yul\":12605:12639   */\n      dup4\n      swap1\n      mstore\n        /* \"LndyLoan.sol\":3012:3043  LoanFunded(msg.sender, _amount) */\n      0x726d5f1a838fe31748f737fa3ae5539ccff95952adfc593a1299532b643ff7a8\n      swap2\n        /* \"#utility.yul\":12495:12513   */\n      add\n        /* \"LndyLoan.sol\":3012:3043  LoanFunded(msg.sender, _amount) */\n      mload(0x40)\n      dup1\n      swap2\n      sub\n      swap1\n      log1\n        /* \"LndyLoan.sol\":2293:3050  function fundLoan(uint256 _amount) external payable {... */\n      pop\n      jump\t// out\n        /* \"LndyLoan.sol\":4492:5214  function claimReturns() external {... */\n    tag_113:\n        /* \"LndyLoan.sol\":4543:4551  isRepaid */\n      sload(0x0c)\n      0x0100\n      swap1\n      div\n      0xff\n      and\n        /* \"LndyLoan.sol\":4535:4578  require(isRepaid, \"Loan is not repaid yet\") */\n      tag_246\n      jumpi\n      mload(0x40)\n      shl(0xe5, 0x461bcd)\n      dup2\n      mstore\n        /* \"#utility.yul\":12852:12854   */\n      0x20\n        /* \"LndyLoan.sol\":4535:4578  require(isRepaid, \"Loan is not repaid yet\") */\n      0x04\n      dup3\n      add\n        /* \"#utility.yul\":12834:12855   */\n      mstore\n        /* \"#utility.yul\":12891:12893   */\n      0x16\n        /* \"#utility.yul\":12871:12889   */\n      0x24\n      dup3\n      add\n        /* \"#utility.yul\":12864:12894   */\n      mstore\n        /* \"#utility.yul\":12930:12954   */\n      0x4c6f616e206973206e6f74207265706169642079657400000000000000000000\n        /* \"#utility.yul\":12910:12928   */\n      0x44\n      dup3\n      add\n        /* \"#utility.yul\":12903:12955   */\n      mstore\n        /* \"#utility.yul\":12972:12990   */\n      0x64\n      add\n        /* \"LndyLoan.sol\":4535:4578  require(isRepaid, \"Loan is not repaid yet\") */\n      tag_173\n        /* \"#utility.yul\":12650:12996   */\n      jump\n        /* \"LndyLoan.sol\":4535:4578  require(isRepaid, \"Loan is not repaid yet\") */\n    tag_246:\n        /* \"LndyLoan.sol\":4597:4621  uint256 userContribution */\n      0x00\n        /* \"LndyLoan.sol\":4624:4660  balanceOf(msg.sender, LOAN_TOKEN_ID) */\n      tag_249\n        /* \"LndyLoan.sol\":4634:4644  msg.sender */\n      caller\n        /* \"LndyLoan.sol\":903:904  1 */\n      0x01\n        /* \"LndyLoan.sol\":4624:4633  balanceOf */\n      tag_40\n        /* \"LndyLoan.sol\":4624:4660  balanceOf(msg.sender, LOAN_TOKEN_ID) */\n      jump\t// in\n    tag_249:\n        /* \"LndyLoan.sol\":4597:4660  uint256 userContribution = balanceOf(msg.sender, LOAN_TOKEN_ID) */\n      swap1\n      pop\n        /* \"LndyLoan.sol\":4697:4698  0 */\n      0x00\n        /* \"LndyLoan.sol\":4678:4694  userContribution */\n      dup2\n        /* \"LndyLoan.sol\":4678:4698  userContribution > 0 */\n      gt\n        /* \"LndyLoan.sol\":4670:4722  require(userContribution > 0, \"No returns to claim\") */\n      tag_250\n      jumpi\n      mload(0x40)\n      shl(0xe5, 0x461bcd)\n      dup2\n      mstore\n        /* \"#utility.yul\":13203:13205   */\n      0x20\n        /* \"LndyLoan.sol\":4670:4722  require(userContribution > 0, \"No returns to claim\") */\n      0x04\n      dup3\n      add\n        /* \"#utility.yul\":13185:13206   */\n      mstore\n        /* \"#utility.yul\":13242:13244   */\n      0x13\n        /* \"#utility.yul\":13222:13240   */\n      0x24\n      dup3\n      add\n        /* \"#utility.yul\":13215:13245   */\n      mstore\n        /* \"#utility.yul\":13281:13302   */\n      0x4e6f2072657475726e7320746f20636c61696d00000000000000000000000000\n        /* \"#utility.yul\":13261:13279   */\n      0x44\n      dup3\n      add\n        /* \"#utility.yul\":13254:13303   */\n      mstore\n        /* \"#utility.yul\":13320:13338   */\n      0x64\n      add\n        /* \"LndyLoan.sol\":4670:4722  require(userContribution > 0, \"No returns to claim\") */\n      tag_173\n        /* \"#utility.yul\":13001:13344   */\n      jump\n        /* \"LndyLoan.sol\":4670:4722  require(userContribution > 0, \"No returns to claim\") */\n    tag_250:\n        /* \"LndyLoan.sol\":4799:4821  uint256 interestAmount */\n      0x00\n        /* \"LndyLoan.sol\":4854:4859  10000 */\n      0x2710\n        /* \"LndyLoan.sol\":4838:4850  interestRate */\n      sload(0x05)\n        /* \"LndyLoan.sol\":4825:4835  loanAmount */\n      sload(0x04)\n        /* \"LndyLoan.sol\":4825:4850  loanAmount * interestRate */\n      tag_253\n      swap2\n      swap1\n      tag_254\n      jump\t// in\n    tag_253:\n        /* \"LndyLoan.sol\":4824:4859  (loanAmount * interestRate) / 10000 */\n      tag_255\n      swap2\n      swap1\n      tag_256\n      jump\t// in\n    tag_255:\n        /* \"LndyLoan.sol\":4799:4859  uint256 interestAmount = (loanAmount * interestRate) / 10000 */\n      swap1\n      pop\n        /* \"LndyLoan.sol\":4869:4889  uint256 userInterest */\n      0x00\n        /* \"LndyLoan.sol\":4930:4940  loanAmount */\n      sload(0x04)\n        /* \"LndyLoan.sol\":4912:4926  interestAmount */\n      dup3\n        /* \"LndyLoan.sol\":4893:4909  userContribution */\n      dup5\n        /* \"LndyLoan.sol\":4893:4926  userContribution * interestAmount */\n      tag_257\n      swap2\n      swap1\n      tag_254\n      jump\t// in\n    tag_257:\n        /* \"LndyLoan.sol\":4892:4940  (userContribution * interestAmount) / loanAmount */\n      tag_258\n      swap2\n      swap1\n      tag_256\n      jump\t// in\n    tag_258:\n        /* \"LndyLoan.sol\":4869:4940  uint256 userInterest = (userContribution * interestAmount) / loanAmount */\n      swap1\n      pop\n        /* \"LndyLoan.sol\":4950:4970  uint256 totalReturns */\n      0x00\n        /* \"LndyLoan.sol\":4973:5004  userContribution + userInterest */\n      tag_259\n        /* \"LndyLoan.sol\":4869:4940  uint256 userInterest = (userContribution * interestAmount) / loanAmount */\n      dup3\n        /* \"LndyLoan.sol\":4973:4989  userContribution */\n      dup6\n        /* \"LndyLoan.sol\":4973:5004  userContribution + userInterest */\n      tag_233\n      jump\t// in\n    tag_259:\n        /* \"LndyLoan.sol\":4950:5004  uint256 totalReturns = userContribution + userInterest */\n      swap1\n      pop\n        /* \"LndyLoan.sol\":5050:5100  _burn(msg.sender, LOAN_TOKEN_ID, userContribution) */\n      tag_260\n        /* \"LndyLoan.sol\":5056:5066  msg.sender */\n      caller\n        /* \"LndyLoan.sol\":903:904  1 */\n      0x01\n        /* \"LndyLoan.sol\":5083:5099  userContribution */\n      dup7\n        /* \"LndyLoan.sol\":5050:5055  _burn */\n      tag_183\n        /* \"LndyLoan.sol\":5050:5100  _burn(msg.sender, LOAN_TOKEN_ID, userContribution) */\n      jump\t// in\n    tag_260:\n        /* \"LndyLoan.sol\":5165:5207  payable(msg.sender).transfer(totalReturns) */\n      mload(0x40)\n        /* \"LndyLoan.sol\":5173:5183  msg.sender */\n      caller\n      swap1\n        /* \"LndyLoan.sol\":5165:5207  payable(msg.sender).transfer(totalReturns) */\n      dup3\n      iszero\n      0x08fc\n      mul\n      swap1\n        /* \"LndyLoan.sol\":5194:5206  totalReturns */\n      dup4\n      swap1\n        /* \"LndyLoan.sol\":5165:5207  payable(msg.sender).transfer(totalReturns) */\n      0x00\n      dup2\n      dup2\n      dup2\n        /* \"LndyLoan.sol\":5194:5206  totalReturns */\n      dup6\n        /* \"LndyLoan.sol\":5173:5183  msg.sender */\n      dup9\n        /* \"LndyLoan.sol\":5165:5207  payable(msg.sender).transfer(totalReturns) */\n      dup9\n      call\n      swap4\n      pop\n      pop\n      pop\n      pop\n      iszero\n      dup1\n      iszero\n      tag_262\n      jumpi\n      returndatasize\n      0x00\n      dup1\n      returndatacopy\n      revert(0x00, returndatasize)\n    tag_262:\n      pop\n        /* \"LndyLoan.sol\":4525:5214  {... */\n      pop\n      pop\n      pop\n      pop\n        /* \"LndyLoan.sol\":4492:5214  function claimReturns() external {... */\n      jump\t// out\n        /* \"@openzeppelin/contracts/token/ERC1155/ERC1155.sol\":3154:3298   */\n    tag_126:\n        /* \"@openzeppelin/contracts/token/ERC1155/ERC1155.sol\":3239:3291   */\n      tag_185\n        /* \"@openzeppelin/contracts/utils/Context.sol\":735:745   */\n      caller\n        /* \"@openzeppelin/contracts/token/ERC1155/ERC1155.sol\":3272:3280   */\n      dup4\n        /* \"@openzeppelin/contracts/token/ERC1155/ERC1155.sol\":3282:3290   */\n      dup4\n        /* \"@openzeppelin/contracts/token/ERC1155/ERC1155.sol\":3239:3257   */\n      tag_267\n        /* \"@openzeppelin/contracts/token/ERC1155/ERC1155.sol\":3239:3291   */\n      jump\t// in\n        /* \"LndyLoan.sol\":5808:6435  function getLoanDetails() external view returns (... */\n    tag_129:\n        /* \"LndyLoan.sol\":6188:6198  loanAmount */\n      sload(0x04)\n        /* \"LndyLoan.sol\":6212:6224  interestRate */\n      sload(0x05)\n        /* \"LndyLoan.sol\":6238:6246  duration */\n      sload(0x06)\n        /* \"LndyLoan.sol\":6260:6275  fundingDeadline */\n      sload(0x07)\n        /* \"LndyLoan.sol\":6289:6302  repaymentDate */\n      sload(0x08)\n        /* \"LndyLoan.sol\":6341:6349  borrower */\n      sload(0x0a)\n        /* \"LndyLoan.sol\":6363:6374  totalFunded */\n      sload(0x0b)\n        /* \"LndyLoan.sol\":6388:6396  isActive */\n      sload(0x0c)\n        /* \"LndyLoan.sol\":6316:6327  description */\n      0x09\n        /* \"LndyLoan.sol\":6167:6428  return (... */\n      dup1\n      sload\n        /* \"LndyLoan.sol\":5866:5885  uint256 _loanAmount */\n      0x00\n      swap10\n      dup11\n      swap10\n      dup11\n      swap10\n      dup11\n      swap10\n      dup11\n      swap10\n        /* \"LndyLoan.sol\":6019:6045  string memory _description */\n      0x60\n      swap10\n        /* \"LndyLoan.sol\":5866:5885  uint256 _loanAmount */\n      dup12\n      swap10\n      dup11\n      swap10\n      dup11\n      swap10\n      dup11\n      swap10\n        /* \"LndyLoan.sol\":6316:6327  description */\n      swap1\n      swap4\n      sub(shl(0xa0, 0x01), 0x01)\n        /* \"LndyLoan.sol\":6341:6349  borrower */\n      and\n      swap3\n        /* \"LndyLoan.sol\":6363:6374  totalFunded */\n      swap2\n        /* \"LndyLoan.sol\":6388:6396  isActive */\n      0xff\n      dup1\n      dup3\n      and\n      swap3\n        /* \"LndyLoan.sol\":6341:6349  borrower */\n      0x0100\n        /* \"LndyLoan.sol\":6410:6418  isRepaid */\n      swap1\n      swap3\n      div\n      and\n      swap1\n        /* \"LndyLoan.sol\":6316:6327  description */\n      dup6\n      swap1\n        /* \"LndyLoan.sol\":6167:6428  return (... */\n      tag_269\n      swap1\n      tag_166\n      jump\t// in\n    tag_269:\n      dup1\n      0x1f\n      add\n      0x20\n      dup1\n      swap2\n      div\n      mul\n      0x20\n      add\n      mload(0x40)\n      swap1\n      dup2\n      add\n      0x40\n      mstore\n      dup1\n      swap3\n      swap2\n      swap1\n      dup2\n      dup2\n      mstore\n      0x20\n      add\n      dup3\n      dup1\n      sload\n      tag_270\n      swap1\n      tag_166\n      jump\t// in\n    tag_270:\n      dup1\n      iszero\n      tag_271\n      jumpi\n      dup1\n      0x1f\n      lt\n      tag_272\n      jumpi\n      0x0100\n      dup1\n      dup4\n      sload\n      div\n      mul\n      dup4\n      mstore\n      swap2\n      0x20\n      add\n      swap2\n      jump(tag_271)\n    tag_272:\n      dup3\n      add\n      swap2\n      swap1\n      0x00\n      mstore\n      keccak256(0x00, 0x20)\n      swap1\n    tag_273:\n      dup2\n      sload\n      dup2\n      mstore\n      swap1\n      0x01\n      add\n      swap1\n      0x20\n      add\n      dup1\n      dup4\n      gt\n      tag_273\n      jumpi\n      dup3\n      swap1\n      sub\n      0x1f\n      and\n      dup3\n      add\n      swap2\n    tag_271:\n      pop\n      pop\n      pop\n      pop\n      pop\n      swap5\n      pop\n      swap10\n      pop\n      swap10\n      pop\n      swap10\n      pop\n      swap10\n      pop\n      swap10\n      pop\n      swap10\n      pop\n      swap10\n      pop\n      swap10\n      pop\n      swap10\n      pop\n      swap10\n      pop\n        /* \"LndyLoan.sol\":5808:6435  function getLoanDetails() external view returns (... */\n      swap1\n      swap2\n      swap3\n      swap4\n      swap5\n      swap6\n      swap7\n      swap8\n      swap9\n      swap10\n      jump\t// out\n        /* \"@openzeppelin/contracts/token/ERC1155/ERC1155.sol\":3589:3940   */\n    tag_150:\n        /* \"@openzeppelin/contracts/utils/Context.sol\":735:745   */\n      caller\n      sub(shl(0xa0, 0x01), 0x01)\n        /* \"@openzeppelin/contracts/token/ERC1155/ERC1155.sol\":3755:3769   */\n      dup7\n      and\n      dup2\n      eq\n      dup1\n      iszero\n      swap1\n        /* \"@openzeppelin/contracts/token/ERC1155/ERC1155.sol\":3755:3804   */\n      tag_277\n      jumpi\n      pop\n      sub(shl(0xa0, 0x01), 0x01)\n        /* \"@openzeppelin/contracts/token/ERC1155/ERC1155.sol\":3478:3505   */\n      dup1\n      dup8\n      and\n        /* \"@openzeppelin/contracts/token/ERC1155/ERC1155.sol\":3455:3459   */\n      0x00\n        /* \"@openzeppelin/contracts/token/ERC1155/ERC1155.sol\":3478:3505   */\n      swap1\n      dup2\n      mstore\n        /* \"@openzeppelin/contracts/token/ERC1155/ERC1155.sol\":3478:3496   */\n      0x01\n        /* \"@openzeppelin/contracts/token/ERC1155/ERC1155.sol\":3478:3505   */\n      0x20\n      swap1\n      dup2\n      mstore\n      0x40\n      dup1\n      dup4\n      keccak256\n        /* \"@openzeppelin/contracts/token/ERC1155/ERC1155.sol\":3478:3515   */\n      swap4\n      dup6\n      and\n      dup4\n      mstore\n      swap3\n      swap1\n      mstore\n      keccak256\n      sload\n      0xff\n      and\n        /* \"@openzeppelin/contracts/token/ERC1155/ERC1155.sol\":3773:3804   */\n      iszero\n        /* \"@openzeppelin/contracts/token/ERC1155/ERC1155.sol\":3755:3804   */\n    tag_277:\n        /* \"@openzeppelin/contracts/token/ERC1155/ERC1155.sol\":3751:3880   */\n      iszero\n      tag_279\n      jumpi\n        /* \"@openzeppelin/contracts/token/ERC1155/ERC1155.sol\":3827:3869   */\n      mload(0x40)\n      shl(0xe1, 0x711bec91)\n      dup2\n      mstore\n      sub(shl(0xa0, 0x01), 0x01)\n        /* \"#utility.yul\":10861:10876   */\n      dup1\n      dup4\n      and\n        /* \"@openzeppelin/contracts/token/ERC1155/ERC1155.sol\":3827:3869   */\n      0x04\n      dup4\n      add\n        /* \"#utility.yul\":10843:10877   */\n      mstore\n        /* \"#utility.yul\":10913:10928   */\n      dup8\n      and\n        /* \"#utility.yul\":10893:10911   */\n      0x24\n      dup3\n      add\n        /* \"#utility.yul\":10886:10929   */\n      mstore\n        /* \"#utility.yul\":10755:10773   */\n      0x44\n      add\n        /* \"@openzeppelin/contracts/token/ERC1155/ERC1155.sol\":3827:3869   */\n      tag_173\n        /* \"#utility.yul\":10608:10935   */\n      jump\n        /* \"@openzeppelin/contracts/token/ERC1155/ERC1155.sol\":3751:3880   */\n    tag_279:\n        /* \"@openzeppelin/contracts/token/ERC1155/ERC1155.sol\":3889:3933   */\n      tag_194\n        /* \"@openzeppelin/contracts/token/ERC1155/ERC1155.sol\":3907:3911   */\n      dup7\n        /* \"@openzeppelin/contracts/token/ERC1155/ERC1155.sol\":3913:3915   */\n      dup7\n        /* \"@openzeppelin/contracts/token/ERC1155/ERC1155.sol\":3917:3919   */\n      dup7\n        /* \"@openzeppelin/contracts/token/ERC1155/ERC1155.sol\":3921:3926   */\n      dup7\n        /* \"@openzeppelin/contracts/token/ERC1155/ERC1155.sol\":3928:3932   */\n      dup7\n        /* \"@openzeppelin/contracts/token/ERC1155/ERC1155.sol\":3889:3906   */\n      tag_282\n        /* \"@openzeppelin/contracts/token/ERC1155/ERC1155.sol\":3889:3933   */\n      jump\t// in\n        /* \"@openzeppelin/contracts/access/Ownable.sol\":2543:2758   */\n    tag_155:\n        /* \"@openzeppelin/contracts/access/Ownable.sol\":1531:1544   */\n      tag_284\n        /* \"@openzeppelin/contracts/access/Ownable.sol\":1531:1542   */\n      tag_217\n        /* \"@openzeppelin/contracts/access/Ownable.sol\":1531:1544   */\n      jump\t// in\n    tag_284:\n      sub(shl(0xa0, 0x01), 0x01)\n        /* \"@openzeppelin/contracts/access/Ownable.sol\":2627:2649   */\n      dup2\n      and\n        /* \"@openzeppelin/contracts/access/Ownable.sol\":2623:2714   */\n      tag_286\n      jumpi\n        /* \"@openzeppelin/contracts/access/Ownable.sol\":2672:2703   */\n      mload(0x40)\n      shl(0xe0, 0x1e4fbdf7)\n      dup2\n      mstore\n        /* \"@openzeppelin/contracts/access/Ownable.sol\":2700:2701   */\n      0x00\n        /* \"@openzeppelin/contracts/access/Ownable.sol\":2672:2703   */\n      0x04\n      dup3\n      add\n        /* \"#utility.yul\":6701:6775   */\n      mstore\n        /* \"#utility.yul\":6674:6692   */\n      0x24\n      add\n        /* \"@openzeppelin/contracts/access/Ownable.sol\":2672:2703   */\n      tag_173\n        /* \"#utility.yul\":6555:6781   */\n      jump\n        /* \"@openzeppelin/contracts/access/Ownable.sol\":2623:2714   */\n    tag_286:\n        /* \"@openzeppelin/contracts/access/Ownable.sol\":2723:2751   */\n      tag_288\n        /* \"@openzeppelin/contracts/access/Ownable.sol\":2742:2750   */\n      dup2\n        /* \"@openzeppelin/contracts/access/Ownable.sol\":2723:2741   */\n      tag_220\n        /* \"@openzeppelin/contracts/access/Ownable.sol\":2723:2751   */\n      jump\t// in\n    tag_288:\n        /* \"@openzeppelin/contracts/access/Ownable.sol\":2543:2758   */\n      pop\n      jump\t// out\n        /* \"LndyLoan.sol\":3131:3655  function repayLoan() external payable onlyOwner {... */\n    tag_157:\n        /* \"@openzeppelin/contracts/access/Ownable.sol\":1531:1544   */\n      tag_290\n        /* \"@openzeppelin/contracts/access/Ownable.sol\":1531:1542   */\n      tag_217\n        /* \"@openzeppelin/contracts/access/Ownable.sol\":1531:1544   */\n      jump\t// in\n    tag_290:\n        /* \"LndyLoan.sol\":3197:3205  isActive */\n      and(0xff, sload(0x0c))\n        /* \"LndyLoan.sol\":3189:3228  require(isActive, \"Loan is not active\") */\n      tag_292\n      jumpi\n      mload(0x40)\n      shl(0xe5, 0x461bcd)\n      dup2\n      mstore\n        /* \"#utility.yul\":13946:13948   */\n      0x20\n        /* \"LndyLoan.sol\":3189:3228  require(isActive, \"Loan is not active\") */\n      0x04\n      dup3\n      add\n        /* \"#utility.yul\":13928:13949   */\n      mstore\n        /* \"#utility.yul\":13985:13987   */\n      0x12\n        /* \"#utility.yul\":13965:13983   */\n      0x24\n      dup3\n      add\n        /* \"#utility.yul\":13958:13988   */\n      mstore\n        /* \"#utility.yul\":14024:14044   */\n      0x4c6f616e206973206e6f74206163746976650000000000000000000000000000\n        /* \"#utility.yul\":14004:14022   */\n      0x44\n      dup3\n      add\n        /* \"#utility.yul\":13997:14045   */\n      mstore\n        /* \"#utility.yul\":14062:14080   */\n      0x64\n      add\n        /* \"LndyLoan.sol\":3189:3228  require(isActive, \"Loan is not active\") */\n      tag_173\n        /* \"#utility.yul\":13744:14086   */\n      jump\n        /* \"LndyLoan.sol\":3189:3228  require(isActive, \"Loan is not active\") */\n    tag_292:\n        /* \"LndyLoan.sol\":3247:3255  isRepaid */\n      sload(0x0c)\n      0x0100\n      swap1\n      div\n      0xff\n      and\n        /* \"LndyLoan.sol\":3246:3255  !isRepaid */\n      iszero\n        /* \"LndyLoan.sol\":3238:3282  require(!isRepaid, \"Loan is already repaid\") */\n      tag_295\n      jumpi\n      mload(0x40)\n      shl(0xe5, 0x461bcd)\n      dup2\n      mstore\n        /* \"#utility.yul\":14293:14295   */\n      0x20\n        /* \"LndyLoan.sol\":3238:3282  require(!isRepaid, \"Loan is already repaid\") */\n      0x04\n      dup3\n      add\n        /* \"#utility.yul\":14275:14296   */\n      mstore\n        /* \"#utility.yul\":14332:14334   */\n      0x16\n        /* \"#utility.yul\":14312:14330   */\n      0x24\n      dup3\n      add\n        /* \"#utility.yul\":14305:14335   */\n      mstore\n        /* \"#utility.yul\":14371:14395   */\n      0x4c6f616e20697320616c72656164792072657061696400000000000000000000\n        /* \"#utility.yul\":14351:14369   */\n      0x44\n      dup3\n      add\n        /* \"#utility.yul\":14344:14396   */\n      mstore\n        /* \"#utility.yul\":14413:14431   */\n      0x64\n      add\n        /* \"LndyLoan.sol\":3238:3282  require(!isRepaid, \"Loan is already repaid\") */\n      tag_173\n        /* \"#utility.yul\":14091:14437   */\n      jump\n        /* \"LndyLoan.sol\":3238:3282  require(!isRepaid, \"Loan is already repaid\") */\n    tag_295:\n        /* \"LndyLoan.sol\":3368:3390  uint256 interestAmount */\n      0x00\n        /* \"LndyLoan.sol\":3423:3428  10000 */\n      0x2710\n        /* \"LndyLoan.sol\":3407:3419  interestRate */\n      sload(0x05)\n        /* \"LndyLoan.sol\":3394:3404  loanAmount */\n      sload(0x04)\n        /* \"LndyLoan.sol\":3394:3419  loanAmount * interestRate */\n      tag_298\n      swap2\n      swap1\n      tag_254\n      jump\t// in\n    tag_298:\n        /* \"LndyLoan.sol\":3393:3428  (loanAmount * interestRate) / 10000 */\n      tag_299\n      swap2\n      swap1\n      tag_256\n      jump\t// in\n    tag_299:\n        /* \"LndyLoan.sol\":3368:3428  uint256 interestAmount = (loanAmount * interestRate) / 10000 */\n      swap1\n      pop\n        /* \"LndyLoan.sol\":3438:3460  uint256 totalRepayment */\n      0x00\n        /* \"LndyLoan.sol\":3476:3490  interestAmount */\n      dup2\n        /* \"LndyLoan.sol\":3463:3473  loanAmount */\n      sload(0x04)\n        /* \"LndyLoan.sol\":3463:3490  loanAmount + interestAmount */\n      tag_300\n      swap2\n      swap1\n      tag_233\n      jump\t// in\n    tag_300:\n        /* \"LndyLoan.sol\":3438:3490  uint256 totalRepayment = loanAmount + interestAmount */\n      swap1\n      pop\n        /* \"LndyLoan.sol\":3530:3544  totalRepayment */\n      dup1\n        /* \"LndyLoan.sol\":3517:3526  msg.value */\n      callvalue\n        /* \"LndyLoan.sol\":3517:3544  msg.value >= totalRepayment */\n      lt\n      iszero\n        /* \"LndyLoan.sol\":3509:3578  require(msg.value >= totalRepayment, \"Insufficient repayment amount\") */\n      tag_301\n      jumpi\n      mload(0x40)\n      shl(0xe5, 0x461bcd)\n      dup2\n      mstore\n        /* \"#utility.yul\":14644:14646   */\n      0x20\n        /* \"LndyLoan.sol\":3509:3578  require(msg.value >= totalRepayment, \"Insufficient repayment amount\") */\n      0x04\n      dup3\n      add\n        /* \"#utility.yul\":14626:14647   */\n      mstore\n        /* \"#utility.yul\":14683:14685   */\n      0x1d\n        /* \"#utility.yul\":14663:14681   */\n      0x24\n      dup3\n      add\n        /* \"#utility.yul\":14656:14686   */\n      mstore\n        /* \"#utility.yul\":14722:14753   */\n      0x496e73756666696369656e742072657061796d656e7420616d6f756e74000000\n        /* \"#utility.yul\":14702:14720   */\n      0x44\n      dup3\n      add\n        /* \"#utility.yul\":14695:14754   */\n      mstore\n        /* \"#utility.yul\":14771:14789   */\n      0x64\n      add\n        /* \"LndyLoan.sol\":3509:3578  require(msg.value >= totalRepayment, \"Insufficient repayment amount\") */\n      tag_173\n        /* \"#utility.yul\":14442:14795   */\n      jump\n        /* \"LndyLoan.sol\":3509:3578  require(msg.value >= totalRepayment, \"Insufficient repayment amount\") */\n    tag_301:\n        /* \"LndyLoan.sol\":3597:3605  isRepaid */\n      0x0c\n        /* \"LndyLoan.sol\":3597:3612  isRepaid = true */\n      dup1\n      sload\n      not(0xff00)\n      and\n      0x0100\n      or\n      swap1\n      sstore\n        /* \"LndyLoan.sol\":3636:3648  LoanRepaid() */\n      mload(0x40)\n      0x1062e18f9d21decf38f145fc9b437cd2c70e09252a729f9830b75ffdaaf37894\n      swap1\n        /* \"LndyLoan.sol\":3597:3612  isRepaid = true */\n      0x00\n      swap1\n        /* \"LndyLoan.sol\":3636:3648  LoanRepaid() */\n      log1\n        /* \"LndyLoan.sol\":3179:3655  {... */\n      pop\n      pop\n        /* \"LndyLoan.sol\":3131:3655  function repayLoan() external payable onlyOwner {... */\n      jump\t// out\n        /* \"@openzeppelin/contracts/token/ERC1155/ERC1155.sol\":12107:12436   */\n    tag_183:\n      sub(shl(0xa0, 0x01), 0x01)\n        /* \"@openzeppelin/contracts/token/ERC1155/ERC1155.sol\":12186:12204   */\n      dup4\n      and\n        /* \"@openzeppelin/contracts/token/ERC1155/ERC1155.sol\":12182:12270   */\n      tag_306\n      jumpi\n        /* \"@openzeppelin/contracts/token/ERC1155/ERC1155.sol\":12227:12259   */\n      mload(0x40)\n      shl(0xe2, 0x6a0d45)\n      dup2\n      mstore\n        /* \"@openzeppelin/contracts/token/ERC1155/ERC1155.sol\":12256:12257   */\n      0x00\n        /* \"@openzeppelin/contracts/token/ERC1155/ERC1155.sol\":12227:12259   */\n      0x04\n      dup3\n      add\n        /* \"#utility.yul\":6701:6775   */\n      mstore\n        /* \"#utility.yul\":6674:6692   */\n      0x24\n      add\n        /* \"@openzeppelin/contracts/token/ERC1155/ERC1155.sol\":12227:12259   */\n      tag_173\n        /* \"#utility.yul\":6555:6781   */\n      jump\n        /* \"@openzeppelin/contracts/token/ERC1155/ERC1155.sol\":12182:12270   */\n    tag_306:\n        /* \"@openzeppelin/contracts/token/ERC1155/ERC1155.sol\":13974:13978   */\n      0x40\n        /* \"@openzeppelin/contracts/token/ERC1155/ERC1155.sol\":13968:13979   */\n      dup1\n      mload\n        /* \"@openzeppelin/contracts/token/ERC1155/ERC1155.sol\":14044:14045   */\n      0x01\n        /* \"@openzeppelin/contracts/token/ERC1155/ERC1155.sol\":14029:14046   */\n      dup1\n      dup3\n      mstore\n        /* \"@openzeppelin/contracts/token/ERC1155/ERC1155.sol\":14175:14179   */\n      0x20\n        /* \"@openzeppelin/contracts/token/ERC1155/ERC1155.sol\":14163:14180   */\n      dup3\n      add\n        /* \"@openzeppelin/contracts/token/ERC1155/ERC1155.sol\":14156:14191   */\n      dup6\n      swap1\n      mstore\n        /* \"@openzeppelin/contracts/token/ERC1155/ERC1155.sol\":14292:14309   */\n      dup2\n      dup4\n      add\n        /* \"@openzeppelin/contracts/token/ERC1155/ERC1155.sol\":14322:14339   */\n      swap1\n      dup2\n      mstore\n        /* \"@openzeppelin/contracts/token/ERC1155/ERC1155.sol\":13815:13838   */\n      0x60\n        /* \"@openzeppelin/contracts/token/ERC1155/ERC1155.sol\":14359:14376   */\n      dup3\n      add\n        /* \"@openzeppelin/contracts/token/ERC1155/ERC1155.sol\":14352:14387   */\n      dup5\n      swap1\n      mstore\n        /* \"@openzeppelin/contracts/token/ERC1155/ERC1155.sol\":12368:12429   */\n      0xa0\n      dup3\n      add\n      swap1\n      swap3\n      mstore\n      0x00\n        /* \"@openzeppelin/contracts/token/ERC1155/ERC1155.sol\":14495:14512   */\n      0x80\n      dup3\n      add\n        /* \"@openzeppelin/contracts/token/ERC1155/ERC1155.sol\":12368:12429   */\n      dup2\n      dup2\n      mstore\n        /* \"@openzeppelin/contracts/token/ERC1155/ERC1155.sol\":13968:13979   */\n      swap2\n      swap3\n        /* \"@openzeppelin/contracts/token/ERC1155/ERC1155.sol\":14292:14309   */\n      swap2\n        /* \"@openzeppelin/contracts/token/ERC1155/ERC1155.sol\":12368:12429   */\n      tag_262\n      swap2\n        /* \"@openzeppelin/contracts/token/ERC1155/ERC1155.sol\":12395:12399   */\n      dup8\n      swap2\n        /* \"@openzeppelin/contracts/token/ERC1155/ERC1155.sol\":13968:13979   */\n      dup6\n      swap1\n        /* \"@openzeppelin/contracts/token/ERC1155/ERC1155.sol\":14292:14309   */\n      dup6\n      swap1\n        /* \"@openzeppelin/contracts/token/ERC1155/ERC1155.sol\":12368:12394   */\n      tag_311\n        /* \"@openzeppelin/contracts/token/ERC1155/ERC1155.sol\":12368:12429   */\n      jump\t// in\n        /* \"@openzeppelin/contracts/token/ERC1155/ERC1155.sol\":9023:9468   */\n    tag_195:\n      sub(shl(0xa0, 0x01), 0x01)\n        /* \"@openzeppelin/contracts/token/ERC1155/ERC1155.sol\":9216:9232   */\n      dup5\n      and\n        /* \"@openzeppelin/contracts/token/ERC1155/ERC1155.sol\":9212:9300   */\n      tag_314\n      jumpi\n        /* \"@openzeppelin/contracts/token/ERC1155/ERC1155.sol\":9255:9289   */\n      mload(0x40)\n      shl(0xe1, 0x2bfa23e7)\n      dup2\n      mstore\n        /* \"@openzeppelin/contracts/token/ERC1155/ERC1155.sol\":9286:9287   */\n      0x00\n        /* \"@openzeppelin/contracts/token/ERC1155/ERC1155.sol\":9255:9289   */\n      0x04\n      dup3\n      add\n        /* \"#utility.yul\":6701:6775   */\n      mstore\n        /* \"#utility.yul\":6674:6692   */\n      0x24\n      add\n        /* \"@openzeppelin/contracts/token/ERC1155/ERC1155.sol\":9255:9289   */\n      tag_173\n        /* \"#utility.yul\":6555:6781   */\n      jump\n        /* \"@openzeppelin/contracts/token/ERC1155/ERC1155.sol\":9212:9300   */\n    tag_314:\n      sub(shl(0xa0, 0x01), 0x01)\n        /* \"@openzeppelin/contracts/token/ERC1155/ERC1155.sol\":9313:9331   */\n      dup6\n      and\n        /* \"@openzeppelin/contracts/token/ERC1155/ERC1155.sol\":9309:9397   */\n      tag_316\n      jumpi\n        /* \"@openzeppelin/contracts/token/ERC1155/ERC1155.sol\":9354:9386   */\n      mload(0x40)\n      shl(0xe2, 0x6a0d45)\n      dup2\n      mstore\n        /* \"@openzeppelin/contracts/token/ERC1155/ERC1155.sol\":9383:9384   */\n      0x00\n        /* \"@openzeppelin/contracts/token/ERC1155/ERC1155.sol\":9354:9386   */\n      0x04\n      dup3\n      add\n        /* \"#utility.yul\":6701:6775   */\n      mstore\n        /* \"#utility.yul\":6674:6692   */\n      0x24\n      add\n        /* \"@openzeppelin/contracts/token/ERC1155/ERC1155.sol\":9354:9386   */\n      tag_173\n        /* \"#utility.yul\":6555:6781   */\n      jump\n        /* \"@openzeppelin/contracts/token/ERC1155/ERC1155.sol\":9309:9397   */\n    tag_316:\n        /* \"@openzeppelin/contracts/token/ERC1155/ERC1155.sol\":9406:9461   */\n      tag_262\n        /* \"@openzeppelin/contracts/token/ERC1155/ERC1155.sol\":9433:9437   */\n      dup6\n        /* \"@openzeppelin/contracts/token/ERC1155/ERC1155.sol\":9439:9441   */\n      dup6\n        /* \"@openzeppelin/contracts/token/ERC1155/ERC1155.sol\":9443:9446   */\n      dup6\n        /* \"@openzeppelin/contracts/token/ERC1155/ERC1155.sol\":9448:9454   */\n      dup6\n        /* \"@openzeppelin/contracts/token/ERC1155/ERC1155.sol\":9456:9460   */\n      dup6\n        /* \"@openzeppelin/contracts/token/ERC1155/ERC1155.sol\":9406:9432   */\n      tag_311\n        /* \"@openzeppelin/contracts/token/ERC1155/ERC1155.sol\":9406:9461   */\n      jump\t// in\n        /* \"@openzeppelin/contracts/access/Ownable.sol\":1796:1958   */\n    tag_217:\n        /* \"@openzeppelin/contracts/access/Ownable.sol\":1710:1716   */\n      and(sub(shl(0xa0, 0x01), 0x01), sload(0x03))\n        /* \"@openzeppelin/contracts/utils/Context.sol\":735:745   */\n      caller\n        /* \"@openzeppelin/contracts/access/Ownable.sol\":1855:1878   */\n      eq\n        /* \"@openzeppelin/contracts/access/Ownable.sol\":1851:1952   */\n      tag_219\n      jumpi\n        /* \"@openzeppelin/contracts/access/Ownable.sol\":1901:1941   */\n      mload(0x40)\n      shl(0xe0, 0x118cdaa7)\n      dup2\n      mstore\n        /* \"@openzeppelin/contracts/utils/Context.sol\":735:745   */\n      caller\n        /* \"@openzeppelin/contracts/access/Ownable.sol\":1901:1941   */\n      0x04\n      dup3\n      add\n        /* \"#utility.yul\":6701:6775   */\n      mstore\n        /* \"#utility.yul\":6674:6692   */\n      0x24\n      add\n        /* \"@openzeppelin/contracts/access/Ownable.sol\":1901:1941   */\n      tag_173\n        /* \"#utility.yul\":6555:6781   */\n      jump\n        /* \"@openzeppelin/contracts/access/Ownable.sol\":2912:3099   */\n    tag_220:\n        /* \"@openzeppelin/contracts/access/Ownable.sol\":3004:3010   */\n      0x03\n      dup1\n      sload\n      sub(shl(0xa0, 0x01), 0x01)\n        /* \"@openzeppelin/contracts/access/Ownable.sol\":3020:3037   */\n      dup4\n      dup2\n      and\n      0xffffffffffffffffffffffff0000000000000000000000000000000000000000\n      dup4\n      and\n      dup2\n      or\n      swap1\n      swap4\n      sstore\n        /* \"@openzeppelin/contracts/access/Ownable.sol\":3052:3092   */\n      mload(0x40)\n        /* \"@openzeppelin/contracts/access/Ownable.sol\":3004:3010   */\n      swap2\n      and\n      swap2\n        /* \"@openzeppelin/contracts/access/Ownable.sol\":3020:3037   */\n      swap1\n        /* \"@openzeppelin/contracts/access/Ownable.sol\":3004:3010   */\n      dup3\n      swap1\n        /* \"@openzeppelin/contracts/access/Ownable.sol\":3052:3092   */\n      0x8be0079c531659141344cd1fd0a4f28419497f9722a3daafe3b4186f6b6457e0\n      swap1\n        /* \"@openzeppelin/contracts/access/Ownable.sol\":2985:3001   */\n      0x00\n      swap1\n        /* \"@openzeppelin/contracts/access/Ownable.sol\":3052:3092   */\n      log3\n        /* \"@openzeppelin/contracts/access/Ownable.sol\":2975:3099   */\n      pop\n        /* \"@openzeppelin/contracts/access/Ownable.sol\":2912:3099   */\n      pop\n      jump\t// out\n        /* \"@openzeppelin/contracts/token/ERC1155/ERC1155.sol\":10754:11100   */\n    tag_238:\n      sub(shl(0xa0, 0x01), 0x01)\n        /* \"@openzeppelin/contracts/token/ERC1155/ERC1155.sol\":10850:10866   */\n      dup5\n      and\n        /* \"@openzeppelin/contracts/token/ERC1155/ERC1155.sol\":10846:10934   */\n      tag_329\n      jumpi\n        /* \"@openzeppelin/contracts/token/ERC1155/ERC1155.sol\":10889:10923   */\n      mload(0x40)\n      shl(0xe1, 0x2bfa23e7)\n      dup2\n      mstore\n        /* \"@openzeppelin/contracts/token/ERC1155/ERC1155.sol\":10920:10921   */\n      0x00\n        /* \"@openzeppelin/contracts/token/ERC1155/ERC1155.sol\":10889:10923   */\n      0x04\n      dup3\n      add\n        /* \"#utility.yul\":6701:6775   */\n      mstore\n        /* \"#utility.yul\":6674:6692   */\n      0x24\n      add\n        /* \"@openzeppelin/contracts/token/ERC1155/ERC1155.sol\":10889:10923   */\n      tag_173\n        /* \"#utility.yul\":6555:6781   */\n      jump\n        /* \"@openzeppelin/contracts/token/ERC1155/ERC1155.sol\":10846:10934   */\n    tag_329:\n        /* \"@openzeppelin/contracts/token/ERC1155/ERC1155.sol\":13974:13978   */\n      0x40\n        /* \"@openzeppelin/contracts/token/ERC1155/ERC1155.sol\":13968:13979   */\n      dup1\n      mload\n        /* \"@openzeppelin/contracts/token/ERC1155/ERC1155.sol\":14044:14045   */\n      0x01\n        /* \"@openzeppelin/contracts/token/ERC1155/ERC1155.sol\":14029:14046   */\n      dup1\n      dup3\n      mstore\n        /* \"@openzeppelin/contracts/token/ERC1155/ERC1155.sol\":14175:14179   */\n      0x20\n        /* \"@openzeppelin/contracts/token/ERC1155/ERC1155.sol\":14163:14180   */\n      dup3\n      add\n        /* \"@openzeppelin/contracts/token/ERC1155/ERC1155.sol\":14156:14191   */\n      dup7\n      swap1\n      mstore\n        /* \"@openzeppelin/contracts/token/ERC1155/ERC1155.sol\":14292:14309   */\n      dup2\n      dup4\n      add\n        /* \"@openzeppelin/contracts/token/ERC1155/ERC1155.sol\":14322:14339   */\n      swap1\n      dup2\n      mstore\n        /* \"@openzeppelin/contracts/token/ERC1155/ERC1155.sol\":13815:13838   */\n      0x60\n        /* \"@openzeppelin/contracts/token/ERC1155/ERC1155.sol\":14359:14376   */\n      dup3\n      add\n        /* \"@openzeppelin/contracts/token/ERC1155/ERC1155.sol\":14352:14387   */\n      dup6\n      swap1\n      mstore\n        /* \"@openzeppelin/contracts/token/ERC1155/ERC1155.sol\":14495:14512   */\n      0x80\n      dup3\n      add\n        /* \"@openzeppelin/contracts/token/ERC1155/ERC1155.sol\":14482:14513   */\n      swap1\n      swap3\n      mstore\n        /* \"@openzeppelin/contracts/token/ERC1155/ERC1155.sol\":13968:13979   */\n      swap1\n        /* \"@openzeppelin/contracts/token/ERC1155/ERC1155.sol\":11032:11093   */\n      tag_194\n      0x00\n        /* \"@openzeppelin/contracts/token/ERC1155/ERC1155.sol\":11071:11073   */\n      dup8\n        /* \"@openzeppelin/contracts/token/ERC1155/ERC1155.sol\":13968:13979   */\n      dup5\n        /* \"@openzeppelin/contracts/token/ERC1155/ERC1155.sol\":14292:14309   */\n      dup5\n        /* \"@openzeppelin/contracts/token/ERC1155/ERC1155.sol\":11088:11092   */\n      dup8\n        /* \"@openzeppelin/contracts/token/ERC1155/ERC1155.sol\":11032:11058   */\n      tag_311\n        /* \"@openzeppelin/contracts/token/ERC1155/ERC1155.sol\":11032:11093   */\n      jump\t// in\n        /* \"@openzeppelin/contracts/token/ERC1155/ERC1155.sol\":13276:13591   */\n    tag_267:\n      sub(shl(0xa0, 0x01), 0x01)\n        /* \"@openzeppelin/contracts/token/ERC1155/ERC1155.sol\":13383:13405   */\n      dup3\n      and\n        /* \"@openzeppelin/contracts/token/ERC1155/ERC1155.sol\":13379:13473   */\n      tag_334\n      jumpi\n        /* \"@openzeppelin/contracts/token/ERC1155/ERC1155.sol\":13428:13462   */\n      mload(0x40)\n      shl(0xe8, 0xced3e1)\n      dup2\n      mstore\n        /* \"@openzeppelin/contracts/token/ERC1155/ERC1155.sol\":13459:13460   */\n      0x00\n        /* \"@openzeppelin/contracts/token/ERC1155/ERC1155.sol\":13428:13462   */\n      0x04\n      dup3\n      add\n        /* \"#utility.yul\":6701:6775   */\n      mstore\n        /* \"#utility.yul\":6674:6692   */\n      0x24\n      add\n        /* \"@openzeppelin/contracts/token/ERC1155/ERC1155.sol\":13428:13462   */\n      tag_173\n        /* \"#utility.yul\":6555:6781   */\n      jump\n        /* \"@openzeppelin/contracts/token/ERC1155/ERC1155.sol\":13379:13473   */\n    tag_334:\n      sub(shl(0xa0, 0x01), 0x01)\n        /* \"@openzeppelin/contracts/token/ERC1155/ERC1155.sol\":13482:13507   */\n      dup4\n      dup2\n      and\n      0x00\n      dup2\n      dup2\n      mstore\n        /* \"@openzeppelin/contracts/token/ERC1155/ERC1155.sol\":13482:13500   */\n      0x01\n        /* \"@openzeppelin/contracts/token/ERC1155/ERC1155.sol\":13482:13507   */\n      0x20\n      swap1\n      dup2\n      mstore\n      0x40\n      dup1\n      dup4\n      keccak256\n        /* \"@openzeppelin/contracts/token/ERC1155/ERC1155.sol\":13482:13517   */\n      swap5\n      dup8\n      and\n      dup1\n      dup5\n      mstore\n      swap5\n      dup3\n      mstore\n      swap2\n      dup3\n      swap1\n      keccak256\n        /* \"@openzeppelin/contracts/token/ERC1155/ERC1155.sol\":13482:13528   */\n      dup1\n      sload\n      not(0xff)\n      and\n      dup7\n      iszero\n      iszero\n      swap1\n      dup2\n      or\n      swap1\n      swap2\n      sstore\n        /* \"@openzeppelin/contracts/token/ERC1155/ERC1155.sol\":13543:13584   */\n      swap2\n      mload\n        /* \"#utility.yul\":1182:1223   */\n      swap2\n      dup3\n      mstore\n        /* \"@openzeppelin/contracts/token/ERC1155/ERC1155.sol\":13543:13584   */\n      0x17307eab39ab6107e8899845ad3d59bd9653f200f220920489ca2b5937696c31\n      swap2\n        /* \"#utility.yul\":1155:1173   */\n      add\n        /* \"@openzeppelin/contracts/token/ERC1155/ERC1155.sol\":13543:13584   */\n      mload(0x40)\n      dup1\n      swap2\n      sub\n      swap1\n      log3\n        /* \"@openzeppelin/contracts/token/ERC1155/ERC1155.sol\":13276:13591   */\n      pop\n      pop\n      pop\n      jump\t// out\n        /* \"@openzeppelin/contracts/token/ERC1155/ERC1155.sol\":8159:8622   */\n    tag_282:\n      sub(shl(0xa0, 0x01), 0x01)\n        /* \"@openzeppelin/contracts/token/ERC1155/ERC1155.sol\":8281:8297   */\n      dup5\n      and\n        /* \"@openzeppelin/contracts/token/ERC1155/ERC1155.sol\":8277:8365   */\n      tag_338\n      jumpi\n        /* \"@openzeppelin/contracts/token/ERC1155/ERC1155.sol\":8320:8354   */\n      mload(0x40)\n      shl(0xe1, 0x2bfa23e7)\n      dup2\n      mstore\n        /* \"@openzeppelin/contracts/token/ERC1155/ERC1155.sol\":8351:8352   */\n      0x00\n        /* \"@openzeppelin/contracts/token/ERC1155/ERC1155.sol\":8320:8354   */\n      0x04\n      dup3\n      add\n        /* \"#utility.yul\":6701:6775   */\n      mstore\n        /* \"#utility.yul\":6674:6692   */\n      0x24\n      add\n        /* \"@openzeppelin/contracts/token/ERC1155/ERC1155.sol\":8320:8354   */\n      tag_173\n        /* \"#utility.yul\":6555:6781   */\n      jump\n        /* \"@openzeppelin/contracts/token/ERC1155/ERC1155.sol\":8277:8365   */\n    tag_338:\n      sub(shl(0xa0, 0x01), 0x01)\n        /* \"@openzeppelin/contracts/token/ERC1155/ERC1155.sol\":8378:8396   */\n      dup6\n      and\n        /* \"@openzeppelin/contracts/token/ERC1155/ERC1155.sol\":8374:8462   */\n      tag_340\n      jumpi\n        /* \"@openzeppelin/contracts/token/ERC1155/ERC1155.sol\":8419:8451   */\n      mload(0x40)\n      shl(0xe2, 0x6a0d45)\n      dup2\n      mstore\n        /* \"@openzeppelin/contracts/token/ERC1155/ERC1155.sol\":8448:8449   */\n      0x00\n        /* \"@openzeppelin/contracts/token/ERC1155/ERC1155.sol\":8419:8451   */\n      0x04\n      dup3\n      add\n        /* \"#utility.yul\":6701:6775   */\n      mstore\n        /* \"#utility.yul\":6674:6692   */\n      0x24\n      add\n        /* \"@openzeppelin/contracts/token/ERC1155/ERC1155.sol\":8419:8451   */\n      tag_173\n        /* \"#utility.yul\":6555:6781   */\n      jump\n        /* \"@openzeppelin/contracts/token/ERC1155/ERC1155.sol\":8374:8462   */\n    tag_340:\n        /* \"@openzeppelin/contracts/token/ERC1155/ERC1155.sol\":13974:13978   */\n      0x40\n        /* \"@openzeppelin/contracts/token/ERC1155/ERC1155.sol\":13968:13979   */\n      dup1\n      mload\n        /* \"@openzeppelin/contracts/token/ERC1155/ERC1155.sol\":14044:14045   */\n      0x01\n        /* \"@openzeppelin/contracts/token/ERC1155/ERC1155.sol\":14029:14046   */\n      dup1\n      dup3\n      mstore\n        /* \"@openzeppelin/contracts/token/ERC1155/ERC1155.sol\":14175:14179   */\n      0x20\n        /* \"@openzeppelin/contracts/token/ERC1155/ERC1155.sol\":14163:14180   */\n      dup3\n      add\n        /* \"@openzeppelin/contracts/token/ERC1155/ERC1155.sol\":14156:14191   */\n      dup7\n      swap1\n      mstore\n        /* \"@openzeppelin/contracts/token/ERC1155/ERC1155.sol\":14292:14309   */\n      dup2\n      dup4\n      add\n        /* \"@openzeppelin/contracts/token/ERC1155/ERC1155.sol\":14322:14339   */\n      swap1\n      dup2\n      mstore\n        /* \"@openzeppelin/contracts/token/ERC1155/ERC1155.sol\":13815:13838   */\n      0x60\n        /* \"@openzeppelin/contracts/token/ERC1155/ERC1155.sol\":14359:14376   */\n      dup3\n      add\n        /* \"@openzeppelin/contracts/token/ERC1155/ERC1155.sol\":14352:14387   */\n      dup6\n      swap1\n      mstore\n        /* \"@openzeppelin/contracts/token/ERC1155/ERC1155.sol\":14495:14512   */\n      0x80\n      dup3\n      add\n        /* \"@openzeppelin/contracts/token/ERC1155/ERC1155.sol\":14482:14513   */\n      swap1\n      swap3\n      mstore\n        /* \"@openzeppelin/contracts/token/ERC1155/ERC1155.sol\":13968:13979   */\n      swap1\n        /* \"@openzeppelin/contracts/token/ERC1155/ERC1155.sol\":8560:8615   */\n      tag_343\n        /* \"@openzeppelin/contracts/token/ERC1155/ERC1155.sol\":8587:8591   */\n      dup8\n        /* \"@openzeppelin/contracts/token/ERC1155/ERC1155.sol\":8593:8595   */\n      dup8\n        /* \"@openzeppelin/contracts/token/ERC1155/ERC1155.sol\":13968:13979   */\n      dup5\n        /* \"@openzeppelin/contracts/token/ERC1155/ERC1155.sol\":14292:14309   */\n      dup5\n        /* \"@openzeppelin/contracts/token/ERC1155/ERC1155.sol\":8610:8614   */\n      dup8\n        /* \"@openzeppelin/contracts/token/ERC1155/ERC1155.sol\":8560:8586   */\n      tag_311\n        /* \"@openzeppelin/contracts/token/ERC1155/ERC1155.sol\":8560:8615   */\n      jump\t// in\n    tag_343:\n        /* \"@openzeppelin/contracts/token/ERC1155/ERC1155.sol\":8267:8622   */\n      pop\n      pop\n        /* \"@openzeppelin/contracts/token/ERC1155/ERC1155.sol\":8159:8622   */\n      pop\n      pop\n      pop\n      pop\n      pop\n      jump\t// out\n        /* \"@openzeppelin/contracts/token/ERC1155/ERC1155.sol\":7002:7702   */\n    tag_311:\n        /* \"@openzeppelin/contracts/token/ERC1155/ERC1155.sol\":7203:7233   */\n      tag_346\n        /* \"@openzeppelin/contracts/token/ERC1155/ERC1155.sol\":7211:7215   */\n      dup6\n        /* \"@openzeppelin/contracts/token/ERC1155/ERC1155.sol\":7217:7219   */\n      dup6\n        /* \"@openzeppelin/contracts/token/ERC1155/ERC1155.sol\":7221:7224   */\n      dup6\n        /* \"@openzeppelin/contracts/token/ERC1155/ERC1155.sol\":7226:7232   */\n      dup6\n        /* \"@openzeppelin/contracts/token/ERC1155/ERC1155.sol\":7203:7210   */\n      tag_347\n        /* \"@openzeppelin/contracts/token/ERC1155/ERC1155.sol\":7203:7233   */\n      jump\t// in\n    tag_346:\n      sub(shl(0xa0, 0x01), 0x01)\n        /* \"@openzeppelin/contracts/token/ERC1155/ERC1155.sol\":7247:7263   */\n      dup5\n      and\n      iszero\n        /* \"@openzeppelin/contracts/token/ERC1155/ERC1155.sol\":7243:7696   */\n      tag_262\n      jumpi\n        /* \"@openzeppelin/contracts/token/ERC1155/ERC1155.sol\":7328:7338   */\n      dup3\n      mload\n        /* \"@openzeppelin/contracts/utils/Context.sol\":735:745   */\n      caller\n      swap1\n        /* \"@openzeppelin/contracts/token/ERC1155/ERC1155.sol\":7342:7343   */\n      0x01\n        /* \"@openzeppelin/contracts/token/ERC1155/ERC1155.sol\":7328:7343   */\n      sub\n        /* \"@openzeppelin/contracts/token/ERC1155/ERC1155.sol\":7324:7686   */\n      tag_350\n      jumpi\n        /* \"@openzeppelin/contracts/utils/Arrays.sol\":16302:16306   */\n      0x20\n        /* \"@openzeppelin/contracts/utils/Arrays.sol\":16273:16308   */\n      dup5\n      dup2\n      add\n        /* \"@openzeppelin/contracts/utils/Arrays.sol\":16267:16309   */\n      mload\n        /* \"@openzeppelin/contracts/utils/Arrays.sol\":16273:16308   */\n      swap1\n      dup5\n      add\n        /* \"@openzeppelin/contracts/utils/Arrays.sol\":16267:16309   */\n      mload\n        /* \"@openzeppelin/contracts/token/ERC1155/ERC1155.sol\":7481:7553   */\n      tag_353\n        /* \"@openzeppelin/contracts/token/ERC1155/ERC1155.sol\":7517:7525   */\n      dup4\n        /* \"@openzeppelin/contracts/token/ERC1155/ERC1155.sol\":7527:7531   */\n      dup10\n        /* \"@openzeppelin/contracts/token/ERC1155/ERC1155.sol\":7533:7535   */\n      dup10\n        /* \"@openzeppelin/contracts/utils/Arrays.sol\":16267:16309   */\n      dup6\n      dup6\n        /* \"@openzeppelin/contracts/token/ERC1155/ERC1155.sol\":7548:7552   */\n      dup10\n        /* \"@openzeppelin/contracts/token/ERC1155/ERC1155.sol\":7481:7516   */\n      tag_354\n        /* \"@openzeppelin/contracts/token/ERC1155/ERC1155.sol\":7481:7553   */\n      jump\t// in\n    tag_353:\n        /* \"@openzeppelin/contracts/token/ERC1155/ERC1155.sol\":7345:7568   */\n      pop\n      pop\n        /* \"@openzeppelin/contracts/token/ERC1155/ERC1155.sol\":7324:7686   */\n      jump(tag_194)\n    tag_350:\n        /* \"@openzeppelin/contracts/token/ERC1155/ERC1155.sol\":7592:7671   */\n      tag_194\n        /* \"@openzeppelin/contracts/token/ERC1155/ERC1155.sol\":7633:7641   */\n      dup2\n        /* \"@openzeppelin/contracts/token/ERC1155/ERC1155.sol\":7643:7647   */\n      dup8\n        /* \"@openzeppelin/contracts/token/ERC1155/ERC1155.sol\":7649:7651   */\n      dup8\n        /* \"@openzeppelin/contracts/token/ERC1155/ERC1155.sol\":7653:7656   */\n      dup8\n        /* \"@openzeppelin/contracts/token/ERC1155/ERC1155.sol\":7658:7664   */\n      dup8\n        /* \"@openzeppelin/contracts/token/ERC1155/ERC1155.sol\":7666:7670   */\n      dup8\n        /* \"@openzeppelin/contracts/token/ERC1155/ERC1155.sol\":7592:7632   */\n      tag_357\n        /* \"@openzeppelin/contracts/token/ERC1155/ERC1155.sol\":7592:7671   */\n      jump\t// in\n        /* \"LndyLoan.sol\":6570:7065  function _update(... */\n    tag_347:\n        /* \"LndyLoan.sol\":6726:6762  super._update(from, to, ids, values) */\n      tag_359\n        /* \"LndyLoan.sol\":6740:6744  from */\n      dup5\n        /* \"LndyLoan.sol\":6746:6748  to */\n      dup5\n        /* \"LndyLoan.sol\":6750:6753  ids */\n      dup5\n        /* \"LndyLoan.sol\":6755:6761  values */\n      dup5\n        /* \"LndyLoan.sol\":6726:6739  super._update */\n      tag_360\n        /* \"LndyLoan.sol\":6726:6762  super._update(from, to, ids, values) */\n      jump\t// in\n    tag_359:\n      sub(shl(0xa0, 0x01), 0x01)\n        /* \"LndyLoan.sol\":6832:6850  from == address(0) */\n      dup5\n      and\n      iszero\n      dup1\n        /* \"LndyLoan.sol\":6832:6870  from == address(0) || to == address(0) */\n      tag_361\n      jumpi\n      pop\n      sub(shl(0xa0, 0x01), 0x01)\n        /* \"LndyLoan.sol\":6854:6870  to == address(0) */\n      dup4\n      and\n      iszero\n        /* \"LndyLoan.sol\":6832:6870  from == address(0) || to == address(0) */\n    tag_361:\n        /* \"LndyLoan.sol\":6886:6893  return; */\n      tag_363\n        /* \"LndyLoan.sol\":6828:6903  if (from == address(0) || to == address(0)) {... */\n      jumpi\n        /* \"LndyLoan.sol\":6994:7002  isActive */\n      and(0xff, sload(0x0c))\n        /* \"LndyLoan.sol\":6986:7058  require(isActive, \"Tokens are not transferable until loan is activated\") */\n      tag_363\n      jumpi\n      mload(0x40)\n      shl(0xe5, 0x461bcd)\n      dup2\n      mstore\n        /* \"#utility.yul\":15002:15004   */\n      0x20\n        /* \"LndyLoan.sol\":6986:7058  require(isActive, \"Tokens are not transferable until loan is activated\") */\n      0x04\n      dup3\n      add\n        /* \"#utility.yul\":14984:15005   */\n      mstore\n        /* \"#utility.yul\":15041:15043   */\n      0x33\n        /* \"#utility.yul\":15021:15039   */\n      0x24\n      dup3\n      add\n        /* \"#utility.yul\":15014:15044   */\n      mstore\n        /* \"#utility.yul\":15080:15114   */\n      0x546f6b656e7320617265206e6f74207472616e7366657261626c6520756e7469\n        /* \"#utility.yul\":15060:15078   */\n      0x44\n      dup3\n      add\n        /* \"#utility.yul\":15053:15115   */\n      mstore\n        /* \"#utility.yul\":15151:15172   */\n      0x6c206c6f616e2069732061637469766174656400000000000000000000000000\n        /* \"#utility.yul\":15131:15149   */\n      0x64\n      dup3\n      add\n        /* \"#utility.yul\":15124:15173   */\n      mstore\n        /* \"#utility.yul\":15190:15209   */\n      0x84\n      add\n        /* \"LndyLoan.sol\":6986:7058  require(isActive, \"Tokens are not transferable until loan is activated\") */\n      tag_173\n        /* \"#utility.yul\":14800:15215   */\n      jump\n        /* \"LndyLoan.sol\":6986:7058  require(isActive, \"Tokens are not transferable until loan is activated\") */\n    tag_363:\n        /* \"LndyLoan.sol\":6570:7065  function _update(... */\n      pop\n      pop\n      pop\n      pop\n      jump\t// out\n        /* \"@openzeppelin/contracts/token/ERC1155/utils/ERC1155Utils.sol\":1006:1965   */\n    tag_354:\n      sub(shl(0xa0, 0x01), 0x01)\n        /* \"@openzeppelin/contracts/token/ERC1155/utils/ERC1155Utils.sol\":1205:1219   */\n      dup5\n      and\n      extcodesize\n        /* \"@openzeppelin/contracts/token/ERC1155/utils/ERC1155Utils.sol\":1205:1223   */\n      iszero\n        /* \"@openzeppelin/contracts/token/ERC1155/utils/ERC1155Utils.sol\":1201:1959   */\n      tag_194\n      jumpi\n        /* \"@openzeppelin/contracts/token/ERC1155/utils/ERC1155Utils.sol\":1243:1314   */\n      mload(0x40)\n      shl(0xe0, 0xf23a6e61)\n      dup2\n      mstore\n      sub(shl(0xa0, 0x01), 0x01)\n        /* \"@openzeppelin/contracts/token/ERC1155/utils/ERC1155Utils.sol\":1243:1281   */\n      dup6\n      and\n      swap1\n      0xf23a6e61\n      swap1\n        /* \"@openzeppelin/contracts/token/ERC1155/utils/ERC1155Utils.sol\":1243:1314   */\n      tag_368\n      swap1\n        /* \"@openzeppelin/contracts/token/ERC1155/utils/ERC1155Utils.sol\":1282:1290   */\n      dup10\n      swap1\n        /* \"@openzeppelin/contracts/token/ERC1155/utils/ERC1155Utils.sol\":1292:1296   */\n      dup10\n      swap1\n        /* \"@openzeppelin/contracts/token/ERC1155/utils/ERC1155Utils.sol\":1298:1300   */\n      dup9\n      swap1\n        /* \"@openzeppelin/contracts/token/ERC1155/utils/ERC1155Utils.sol\":1302:1307   */\n      dup9\n      swap1\n        /* \"@openzeppelin/contracts/token/ERC1155/utils/ERC1155Utils.sol\":1309:1313   */\n      dup9\n      swap1\n        /* \"@openzeppelin/contracts/token/ERC1155/utils/ERC1155Utils.sol\":1243:1314   */\n      0x04\n      add\n      tag_369\n      jump\t// in\n    tag_368:\n      0x20\n      mload(0x40)\n      dup1\n      dup4\n      sub\n      dup2\n      0x00\n      dup8\n      gas\n      call\n      swap3\n      pop\n      pop\n      pop\n      dup1\n      iszero\n      tag_370\n      jumpi\n      pop\n      0x40\n      dup1\n      mload\n      0x1f\n      returndatasize\n      swap1\n      dup2\n      add\n      not(0x1f)\n      and\n      dup3\n      add\n      swap1\n      swap3\n      mstore\n      tag_371\n      swap2\n      dup2\n      add\n      swap1\n      tag_372\n      jump\t// in\n    tag_371:\n      0x01\n    tag_370:\n        /* \"@openzeppelin/contracts/token/ERC1155/utils/ERC1155Utils.sol\":1239:1949   */\n      tag_373\n      jumpi\n      returndatasize\n      dup1\n      dup1\n      iszero\n      tag_378\n      jumpi\n      mload(0x40)\n      swap2\n      pop\n      and(add(returndatasize, 0x3f), not(0x1f))\n      dup3\n      add\n      0x40\n      mstore\n      returndatasize\n      dup3\n      mstore\n      returndatasize\n      0x00\n      0x20\n      dup5\n      add\n      returndatacopy\n      jump(tag_377)\n    tag_378:\n      0x60\n      swap2\n      pop\n    tag_377:\n      pop\n        /* \"@openzeppelin/contracts/token/ERC1155/utils/ERC1155Utils.sol\":1613:1619   */\n      dup1\n        /* \"@openzeppelin/contracts/token/ERC1155/utils/ERC1155Utils.sol\":1613:1626   */\n      mload\n        /* \"@openzeppelin/contracts/token/ERC1155/utils/ERC1155Utils.sol\":1630:1631   */\n      0x00\n        /* \"@openzeppelin/contracts/token/ERC1155/utils/ERC1155Utils.sol\":1613:1631   */\n      sub\n        /* \"@openzeppelin/contracts/token/ERC1155/utils/ERC1155Utils.sol\":1609:1935   */\n      tag_379\n      jumpi\n        /* \"@openzeppelin/contracts/token/ERC1155/utils/ERC1155Utils.sol\":1718:1759   */\n      mload(0x40)\n      shl(0xe1, 0x2bfa23e7)\n      dup2\n      mstore\n      sub(shl(0xa0, 0x01), 0x01)\n        /* \"#utility.yul\":6719:6774   */\n      dup7\n      and\n        /* \"@openzeppelin/contracts/token/ERC1155/utils/ERC1155Utils.sol\":1718:1759   */\n      0x04\n      dup3\n      add\n        /* \"#utility.yul\":6701:6775   */\n      mstore\n        /* \"#utility.yul\":6674:6692   */\n      0x24\n      add\n        /* \"@openzeppelin/contracts/token/ERC1155/utils/ERC1155Utils.sol\":1718:1759   */\n      tag_173\n        /* \"#utility.yul\":6555:6781   */\n      jump\n        /* \"@openzeppelin/contracts/token/ERC1155/utils/ERC1155Utils.sol\":1609:1935   */\n    tag_379:\n        /* \"@openzeppelin/contracts/token/ERC1155/utils/ERC1155Utils.sol\":1887:1893   */\n      dup1\n        /* \"@openzeppelin/contracts/token/ERC1155/utils/ERC1155Utils.sol\":1881:1894   */\n      mload\n        /* \"@openzeppelin/contracts/token/ERC1155/utils/ERC1155Utils.sol\":1872:1878   */\n      dup2\n        /* \"@openzeppelin/contracts/token/ERC1155/utils/ERC1155Utils.sol\":1868:1870   */\n      0x20\n        /* \"@openzeppelin/contracts/token/ERC1155/utils/ERC1155Utils.sol\":1864:1879   */\n      add\n        /* \"@openzeppelin/contracts/token/ERC1155/utils/ERC1155Utils.sol\":1857:1895   */\n      revert\n        /* \"@openzeppelin/contracts/token/ERC1155/utils/ERC1155Utils.sol\":1239:1949   */\n    tag_373:\n      not(sub(shl(0xe0, 0x01), 0x01))\n        /* \"@openzeppelin/contracts/token/ERC1155/utils/ERC1155Utils.sol\":1363:1418   */\n      dup2\n      and\n      shl(0xe0, 0xf23a6e61)\n      eq\n        /* \"@openzeppelin/contracts/token/ERC1155/utils/ERC1155Utils.sol\":1359:1548   */\n      tag_343\n      jumpi\n        /* \"@openzeppelin/contracts/token/ERC1155/utils/ERC1155Utils.sol\":1488:1529   */\n      mload(0x40)\n      shl(0xe1, 0x2bfa23e7)\n      dup2\n      mstore\n      sub(shl(0xa0, 0x01), 0x01)\n        /* \"#utility.yul\":6719:6774   */\n      dup7\n      and\n        /* \"@openzeppelin/contracts/token/ERC1155/utils/ERC1155Utils.sol\":1488:1529   */\n      0x04\n      dup3\n      add\n        /* \"#utility.yul\":6701:6775   */\n      mstore\n        /* \"#utility.yul\":6674:6692   */\n      0x24\n      add\n        /* \"@openzeppelin/contracts/token/ERC1155/utils/ERC1155Utils.sol\":1488:1529   */\n      tag_173\n        /* \"#utility.yul\":6555:6781   */\n      jump\n        /* \"@openzeppelin/contracts/token/ERC1155/utils/ERC1155Utils.sol\":2521:3547   */\n    tag_357:\n      sub(shl(0xa0, 0x01), 0x01)\n        /* \"@openzeppelin/contracts/token/ERC1155/utils/ERC1155Utils.sol\":2745:2759   */\n      dup5\n      and\n      extcodesize\n        /* \"@openzeppelin/contracts/token/ERC1155/utils/ERC1155Utils.sol\":2745:2763   */\n      iszero\n        /* \"@openzeppelin/contracts/token/ERC1155/utils/ERC1155Utils.sol\":2741:3541   */\n      tag_194\n      jumpi\n        /* \"@openzeppelin/contracts/token/ERC1155/utils/ERC1155Utils.sol\":2783:2861   */\n      mload(0x40)\n      shl(0xe0, 0xbc197c81)\n      dup2\n      mstore\n      sub(shl(0xa0, 0x01), 0x01)\n        /* \"@openzeppelin/contracts/token/ERC1155/utils/ERC1155Utils.sol\":2783:2826   */\n      dup6\n      and\n      swap1\n      0xbc197c81\n      swap1\n        /* \"@openzeppelin/contracts/token/ERC1155/utils/ERC1155Utils.sol\":2783:2861   */\n      tag_387\n      swap1\n        /* \"@openzeppelin/contracts/token/ERC1155/utils/ERC1155Utils.sol\":2827:2835   */\n      dup10\n      swap1\n        /* \"@openzeppelin/contracts/token/ERC1155/utils/ERC1155Utils.sol\":2837:2841   */\n      dup10\n      swap1\n        /* \"@openzeppelin/contracts/token/ERC1155/utils/ERC1155Utils.sol\":2843:2846   */\n      dup9\n      swap1\n        /* \"@openzeppelin/contracts/token/ERC1155/utils/ERC1155Utils.sol\":2848:2854   */\n      dup9\n      swap1\n        /* \"@openzeppelin/contracts/token/ERC1155/utils/ERC1155Utils.sol\":2856:2860   */\n      dup9\n      swap1\n        /* \"@openzeppelin/contracts/token/ERC1155/utils/ERC1155Utils.sol\":2783:2861   */\n      0x04\n      add\n      tag_388\n      jump\t// in\n    tag_387:\n      0x20\n      mload(0x40)\n      dup1\n      dup4\n      sub\n      dup2\n      0x00\n      dup8\n      gas\n      call\n      swap3\n      pop\n      pop\n      pop\n      dup1\n      iszero\n      tag_389\n      jumpi\n      pop\n      0x40\n      dup1\n      mload\n      0x1f\n      returndatasize\n      swap1\n      dup2\n      add\n      not(0x1f)\n      and\n      dup3\n      add\n      swap1\n      swap3\n      mstore\n      tag_390\n      swap2\n      dup2\n      add\n      swap1\n      tag_372\n      jump\t// in\n    tag_390:\n      0x01\n    tag_389:\n        /* \"@openzeppelin/contracts/token/ERC1155/utils/ERC1155Utils.sol\":2779:3531   */\n      tag_391\n      jumpi\n      returndatasize\n      dup1\n      dup1\n      iszero\n      tag_378\n      jumpi\n      mload(0x40)\n      swap2\n      pop\n      and(add(returndatasize, 0x3f), not(0x1f))\n      dup3\n      add\n      0x40\n      mstore\n      returndatasize\n      dup3\n      mstore\n      returndatasize\n      0x00\n      0x20\n      dup5\n      add\n      returndatacopy\n      jump(tag_377)\n    tag_391:\n      not(sub(shl(0xe0, 0x01), 0x01))\n        /* \"@openzeppelin/contracts/token/ERC1155/utils/ERC1155Utils.sol\":2940:3000   */\n      dup2\n      and\n      shl(0xe0, 0xbc197c81)\n      eq\n        /* \"@openzeppelin/contracts/token/ERC1155/utils/ERC1155Utils.sol\":2936:3130   */\n      tag_343\n      jumpi\n        /* \"@openzeppelin/contracts/token/ERC1155/utils/ERC1155Utils.sol\":3070:3111   */\n      mload(0x40)\n      shl(0xe1, 0x2bfa23e7)\n      dup2\n      mstore\n      sub(shl(0xa0, 0x01), 0x01)\n        /* \"#utility.yul\":6719:6774   */\n      dup7\n      and\n        /* \"@openzeppelin/contracts/token/ERC1155/utils/ERC1155Utils.sol\":3070:3111   */\n      0x04\n      dup3\n      add\n        /* \"#utility.yul\":6701:6775   */\n      mstore\n        /* \"#utility.yul\":6674:6692   */\n      0x24\n      add\n        /* \"@openzeppelin/contracts/token/ERC1155/utils/ERC1155Utils.sol\":3070:3111   */\n      tag_173\n        /* \"#utility.yul\":6555:6781   */\n      jump\n        /* \"@openzeppelin/contracts/token/ERC1155/ERC1155.sol\":5142:6423   */\n    tag_360:\n        /* \"@openzeppelin/contracts/token/ERC1155/ERC1155.sol\":5277:5283   */\n      dup1\n        /* \"@openzeppelin/contracts/token/ERC1155/ERC1155.sol\":5277:5290   */\n      mload\n        /* \"@openzeppelin/contracts/token/ERC1155/ERC1155.sol\":5263:5266   */\n      dup3\n        /* \"@openzeppelin/contracts/token/ERC1155/ERC1155.sol\":5263:5273   */\n      mload\n        /* \"@openzeppelin/contracts/token/ERC1155/ERC1155.sol\":5263:5290   */\n      eq\n        /* \"@openzeppelin/contracts/token/ERC1155/ERC1155.sol\":5259:5376   */\n      tag_404\n      jumpi\n        /* \"@openzeppelin/contracts/token/ERC1155/ERC1155.sol\":5339:5349   */\n      dup2\n      mload\n        /* \"@openzeppelin/contracts/token/ERC1155/ERC1155.sol\":5351:5364   */\n      dup2\n      mload\n        /* \"@openzeppelin/contracts/token/ERC1155/ERC1155.sol\":5313:5365   */\n      mload(0x40)\n      shl(0xe0, 0x5b059991)\n      dup2\n      mstore\n      0x04\n      dup2\n      add\n        /* \"#utility.yul\":11114:11139   */\n      swap3\n      swap1\n      swap3\n      mstore\n        /* \"#utility.yul\":11155:11173   */\n      0x24\n      dup3\n      add\n        /* \"#utility.yul\":11148:11182   */\n      mstore\n        /* \"#utility.yul\":11087:11105   */\n      0x44\n      add\n        /* \"@openzeppelin/contracts/token/ERC1155/ERC1155.sol\":5313:5365   */\n      tag_173\n        /* \"#utility.yul\":10940:11188   */\n      jump\n        /* \"@openzeppelin/contracts/token/ERC1155/ERC1155.sol\":5259:5376   */\n    tag_404:\n        /* \"@openzeppelin/contracts/utils/Context.sol\":735:745   */\n      caller\n        /* \"@openzeppelin/contracts/token/ERC1155/ERC1155.sol\":5386:5402   */\n      0x00\n        /* \"@openzeppelin/contracts/token/ERC1155/ERC1155.sol\":5428:6119   */\n    tag_407:\n        /* \"@openzeppelin/contracts/token/ERC1155/ERC1155.sol\":5452:5455   */\n      dup4\n        /* \"@openzeppelin/contracts/token/ERC1155/ERC1155.sol\":5452:5462   */\n      mload\n        /* \"@openzeppelin/contracts/token/ERC1155/ERC1155.sol\":5448:5449   */\n      dup2\n        /* \"@openzeppelin/contracts/token/ERC1155/ERC1155.sol\":5448:5462   */\n      lt\n        /* \"@openzeppelin/contracts/token/ERC1155/ERC1155.sol\":5428:6119   */\n      iszero\n      tag_408\n      jumpi\n        /* \"@openzeppelin/contracts/utils/Arrays.sol\":16302:16306   */\n      0x20\n        /* \"@openzeppelin/contracts/utils/Arrays.sol\":16293:16307   */\n      dup2\n      dup2\n      mul\n        /* \"@openzeppelin/contracts/utils/Arrays.sol\":16273:16308   */\n      dup6\n      dup2\n      add\n      dup3\n      add\n        /* \"@openzeppelin/contracts/utils/Arrays.sol\":16267:16309   */\n      mload\n        /* \"@openzeppelin/contracts/utils/Arrays.sol\":16273:16308   */\n      swap1\n      dup6\n      add\n      swap1\n      swap2\n      add\n        /* \"@openzeppelin/contracts/utils/Arrays.sol\":16267:16309   */\n      mload\n      sub(shl(0xa0, 0x01), 0x01)\n        /* \"@openzeppelin/contracts/token/ERC1155/ERC1155.sol\":5598:5616   */\n      dup9\n      and\n      iszero\n        /* \"@openzeppelin/contracts/token/ERC1155/ERC1155.sol\":5594:6014   */\n      tag_412\n      jumpi\n        /* \"@openzeppelin/contracts/token/ERC1155/ERC1155.sol\":5636:5655   */\n      0x00\n        /* \"@openzeppelin/contracts/token/ERC1155/ERC1155.sol\":5658:5671   */\n      dup3\n      dup2\n      mstore\n      0x20\n      dup2\n      dup2\n      mstore\n      0x40\n      dup1\n      dup4\n      keccak256\n      sub(shl(0xa0, 0x01), 0x01)\n        /* \"@openzeppelin/contracts/token/ERC1155/ERC1155.sol\":5658:5677   */\n      dup13\n      and\n      dup5\n      mstore\n      swap1\n      swap2\n      mstore\n      swap1\n      keccak256\n      sload\n        /* \"@openzeppelin/contracts/token/ERC1155/ERC1155.sol\":5699:5718   */\n      dup2\n      dup2\n      lt\n        /* \"@openzeppelin/contracts/token/ERC1155/ERC1155.sol\":5695:5824   */\n      iszero\n      tag_413\n      jumpi\n        /* \"@openzeppelin/contracts/token/ERC1155/ERC1155.sol\":5749:5805   */\n      mload(0x40)\n      shl(0xe0, 0x03dee4c5)\n      dup2\n      mstore\n      sub(shl(0xa0, 0x01), 0x01)\n        /* \"#utility.yul\":17167:17222   */\n      dup11\n      and\n        /* \"@openzeppelin/contracts/token/ERC1155/ERC1155.sol\":5749:5805   */\n      0x04\n      dup3\n      add\n        /* \"#utility.yul\":17149:17223   */\n      mstore\n        /* \"#utility.yul\":17239:17257   */\n      0x24\n      dup2\n      add\n        /* \"#utility.yul\":17232:17266   */\n      dup3\n      swap1\n      mstore\n        /* \"#utility.yul\":17282:17300   */\n      0x44\n      dup2\n      add\n        /* \"#utility.yul\":17275:17309   */\n      dup4\n      swap1\n      mstore\n        /* \"#utility.yul\":17325:17343   */\n      0x64\n      dup2\n      add\n        /* \"#utility.yul\":17318:17352   */\n      dup5\n      swap1\n      mstore\n        /* \"#utility.yul\":17121:17140   */\n      0x84\n      add\n        /* \"@openzeppelin/contracts/token/ERC1155/ERC1155.sol\":5749:5805   */\n      tag_173\n        /* \"#utility.yul\":16918:17358   */\n      jump\n        /* \"@openzeppelin/contracts/token/ERC1155/ERC1155.sol\":5695:5824   */\n    tag_413:\n        /* \"@openzeppelin/contracts/token/ERC1155/ERC1155.sol\":5940:5949   */\n      0x00\n        /* \"@openzeppelin/contracts/token/ERC1155/ERC1155.sol\":5940:5953   */\n      dup4\n      dup2\n      mstore\n      0x20\n      dup2\n      dup2\n      mstore\n      0x40\n      dup1\n      dup4\n      keccak256\n      sub(shl(0xa0, 0x01), 0x01)\n        /* \"@openzeppelin/contracts/token/ERC1155/ERC1155.sol\":5940:5959   */\n      dup14\n      and\n      dup5\n      mstore\n      swap1\n      swap2\n      mstore\n      swap1\n      keccak256\n        /* \"@openzeppelin/contracts/token/ERC1155/ERC1155.sol\":5962:5981   */\n      swap1\n      dup3\n      swap1\n      sub\n        /* \"@openzeppelin/contracts/token/ERC1155/ERC1155.sol\":5940:5981   */\n      swap1\n      sstore\n        /* \"@openzeppelin/contracts/token/ERC1155/ERC1155.sol\":5594:6014   */\n    tag_412:\n      sub(shl(0xa0, 0x01), 0x01)\n        /* \"@openzeppelin/contracts/token/ERC1155/ERC1155.sol\":6032:6048   */\n      dup8\n      and\n      iszero\n        /* \"@openzeppelin/contracts/token/ERC1155/ERC1155.sol\":6028:6109   */\n      tag_416\n      jumpi\n        /* \"@openzeppelin/contracts/token/ERC1155/ERC1155.sol\":6068:6077   */\n      0x00\n        /* \"@openzeppelin/contracts/token/ERC1155/ERC1155.sol\":6068:6081   */\n      dup3\n      dup2\n      mstore\n      0x20\n      dup2\n      dup2\n      mstore\n      0x40\n      dup1\n      dup4\n      keccak256\n      sub(shl(0xa0, 0x01), 0x01)\n        /* \"@openzeppelin/contracts/token/ERC1155/ERC1155.sol\":6068:6085   */\n      dup12\n      and\n      dup5\n      mstore\n      swap1\n      swap2\n      mstore\n      dup2\n      keccak256\n        /* \"@openzeppelin/contracts/token/ERC1155/ERC1155.sol\":6068:6094   */\n      dup1\n      sload\n        /* \"@openzeppelin/contracts/token/ERC1155/ERC1155.sol\":6089:6094   */\n      dup4\n      swap3\n        /* \"@openzeppelin/contracts/token/ERC1155/ERC1155.sol\":6068:6077   */\n      swap1\n        /* \"@openzeppelin/contracts/token/ERC1155/ERC1155.sol\":6068:6094   */\n      tag_417\n      swap1\n        /* \"@openzeppelin/contracts/token/ERC1155/ERC1155.sol\":6089:6094   */\n      dup5\n      swap1\n        /* \"@openzeppelin/contracts/token/ERC1155/ERC1155.sol\":6068:6094   */\n      tag_233\n      jump\t// in\n    tag_417:\n      swap1\n      swap2\n      sstore\n      pop\n      pop\n        /* \"@openzeppelin/contracts/token/ERC1155/ERC1155.sol\":6028:6109   */\n    tag_416:\n      pop\n      pop\n        /* \"@openzeppelin/contracts/token/ERC1155/ERC1155.sol\":5464:5467   */\n      0x01\n      add\n        /* \"@openzeppelin/contracts/token/ERC1155/ERC1155.sol\":5428:6119   */\n      jump(tag_407)\n    tag_408:\n      pop\n        /* \"@openzeppelin/contracts/token/ERC1155/ERC1155.sol\":6133:6136   */\n      dup3\n        /* \"@openzeppelin/contracts/token/ERC1155/ERC1155.sol\":6133:6143   */\n      mload\n        /* \"@openzeppelin/contracts/token/ERC1155/ERC1155.sol\":6147:6148   */\n      0x01\n        /* \"@openzeppelin/contracts/token/ERC1155/ERC1155.sol\":6133:6148   */\n      sub\n        /* \"@openzeppelin/contracts/token/ERC1155/ERC1155.sol\":6129:6417   */\n      tag_418\n      jumpi\n        /* \"@openzeppelin/contracts/utils/Arrays.sol\":16302:16306   */\n      0x20\n        /* \"@openzeppelin/contracts/utils/Arrays.sol\":16273:16308   */\n      dup4\n      add\n        /* \"@openzeppelin/contracts/utils/Arrays.sol\":16267:16309   */\n      mload\n        /* \"@openzeppelin/contracts/token/ERC1155/ERC1155.sol\":6164:6174   */\n      0x00\n      swap1\n        /* \"@openzeppelin/contracts/utils/Arrays.sol\":16302:16306   */\n      0x20\n        /* \"@openzeppelin/contracts/utils/Arrays.sol\":16273:16308   */\n      dup5\n      add\n        /* \"@openzeppelin/contracts/utils/Arrays.sol\":16267:16309   */\n      mload\n        /* \"@openzeppelin/contracts/token/ERC1155/ERC1155.sol\":6164:6202   */\n      swap1\n      swap2\n      pop\n        /* \"@openzeppelin/contracts/token/ERC1155/ERC1155.sol\":6310:6312   */\n      dup6\n      sub(shl(0xa0, 0x01), 0x01)\n        /* \"@openzeppelin/contracts/token/ERC1155/ERC1155.sol\":6279:6324   */\n      and\n        /* \"@openzeppelin/contracts/token/ERC1155/ERC1155.sol\":6304:6308   */\n      dup8\n      sub(shl(0xa0, 0x01), 0x01)\n        /* \"@openzeppelin/contracts/token/ERC1155/ERC1155.sol\":6279:6324   */\n      and\n        /* \"@openzeppelin/contracts/token/ERC1155/ERC1155.sol\":6294:6302   */\n      dup5\n      sub(shl(0xa0, 0x01), 0x01)\n        /* \"@openzeppelin/contracts/token/ERC1155/ERC1155.sol\":6279:6324   */\n      and\n      0xc3d58168c5ae7397731d063d5bbf3d657854427343f4c083240f7aacaa2d0f62\n        /* \"@openzeppelin/contracts/token/ERC1155/ERC1155.sol\":6314:6316   */\n      dup6\n        /* \"@openzeppelin/contracts/token/ERC1155/ERC1155.sol\":6318:6323   */\n      dup6\n        /* \"@openzeppelin/contracts/token/ERC1155/ERC1155.sol\":6279:6324   */\n      mload(0x40)\n      tag_421\n      swap3\n      swap2\n      swap1\n        /* \"#utility.yul\":11114:11139   */\n      swap2\n      dup3\n      mstore\n        /* \"#utility.yul\":11170:11172   */\n      0x20\n        /* \"#utility.yul\":11155:11173   */\n      dup3\n      add\n        /* \"#utility.yul\":11148:11182   */\n      mstore\n        /* \"#utility.yul\":11102:11104   */\n      0x40\n        /* \"#utility.yul\":11087:11105   */\n      add\n      swap1\n        /* \"#utility.yul\":10940:11188   */\n      jump\n        /* \"@openzeppelin/contracts/token/ERC1155/ERC1155.sol\":6279:6324   */\n    tag_421:\n      mload(0x40)\n      dup1\n      swap2\n      sub\n      swap1\n      log4\n        /* \"@openzeppelin/contracts/token/ERC1155/ERC1155.sol\":6150:6335   */\n      pop\n      pop\n        /* \"@openzeppelin/contracts/token/ERC1155/ERC1155.sol\":6129:6417   */\n      jump(tag_262)\n    tag_418:\n        /* \"@openzeppelin/contracts/token/ERC1155/ERC1155.sol\":6390:6392   */\n      dup4\n      sub(shl(0xa0, 0x01), 0x01)\n        /* \"@openzeppelin/contracts/token/ERC1155/ERC1155.sol\":6360:6406   */\n      and\n        /* \"@openzeppelin/contracts/token/ERC1155/ERC1155.sol\":6384:6388   */\n      dup6\n      sub(shl(0xa0, 0x01), 0x01)\n        /* \"@openzeppelin/contracts/token/ERC1155/ERC1155.sol\":6360:6406   */\n      and\n        /* \"@openzeppelin/contracts/token/ERC1155/ERC1155.sol\":6374:6382   */\n      dup3\n      sub(shl(0xa0, 0x01), 0x01)\n        /* \"@openzeppelin/contracts/token/ERC1155/ERC1155.sol\":6360:6406   */\n      and\n      0x4a39dc06d4c0dbc64b70af90fd698a233a518aa5d07e595d983b8c0526c8f7fb\n        /* \"@openzeppelin/contracts/token/ERC1155/ERC1155.sol\":6394:6397   */\n      dup7\n        /* \"@openzeppelin/contracts/token/ERC1155/ERC1155.sol\":6399:6405   */\n      dup7\n        /* \"@openzeppelin/contracts/token/ERC1155/ERC1155.sol\":6360:6406   */\n      mload(0x40)\n      tag_423\n      swap3\n      swap2\n      swap1\n      tag_424\n      jump\t// in\n    tag_423:\n      mload(0x40)\n      dup1\n      swap2\n      sub\n      swap1\n      log4\n        /* \"@openzeppelin/contracts/token/ERC1155/ERC1155.sol\":5249:6423   */\n      pop\n        /* \"@openzeppelin/contracts/token/ERC1155/ERC1155.sol\":5142:6423   */\n      pop\n      pop\n      pop\n      pop\n      jump\t// out\n        /* \"#utility.yul\":14:210   */\n    tag_425:\n        /* \"#utility.yul\":82:102   */\n      dup1\n      calldataload\n      sub(shl(0xa0, 0x01), 0x01)\n        /* \"#utility.yul\":131:185   */\n      dup2\n      and\n        /* \"#utility.yul\":121:186   */\n      dup2\n      eq\n        /* \"#utility.yul\":111:204   */\n      tag_436\n      jumpi\n        /* \"#utility.yul\":200:201   */\n      0x00\n        /* \"#utility.yul\":197:198   */\n      dup1\n        /* \"#utility.yul\":190:202   */\n      revert\n        /* \"#utility.yul\":111:204   */\n    tag_436:\n        /* \"#utility.yul\":14:210   */\n      swap2\n      swap1\n      pop\n      jump\t// out\n        /* \"#utility.yul\":215:469   */\n    tag_39:\n        /* \"#utility.yul\":283:289   */\n      0x00\n        /* \"#utility.yul\":291:297   */\n      dup1\n        /* \"#utility.yul\":344:346   */\n      0x40\n        /* \"#utility.yul\":332:341   */\n      dup4\n        /* \"#utility.yul\":323:330   */\n      dup6\n        /* \"#utility.yul\":319:342   */\n      sub\n        /* \"#utility.yul\":315:347   */\n      slt\n        /* \"#utility.yul\":312:364   */\n      iszero\n      tag_438\n      jumpi\n        /* \"#utility.yul\":360:361   */\n      0x00\n        /* \"#utility.yul\":357:358   */\n      dup1\n        /* \"#utility.yul\":350:362   */\n      revert\n        /* \"#utility.yul\":312:364   */\n    tag_438:\n        /* \"#utility.yul\":383:412   */\n      tag_439\n        /* \"#utility.yul\":402:411   */\n      dup4\n        /* \"#utility.yul\":383:412   */\n      tag_425\n      jump\t// in\n    tag_439:\n        /* \"#utility.yul\":373:412   */\n      swap5\n        /* \"#utility.yul\":459:461   */\n      0x20\n        /* \"#utility.yul\":444:462   */\n      swap4\n      swap1\n      swap4\n      add\n        /* \"#utility.yul\":431:463   */\n      calldataload\n      swap4\n      pop\n      pop\n      pop\n        /* \"#utility.yul\":215:469   */\n      jump\t// out\n        /* \"#utility.yul\":656:787   */\n    tag_426:\n      not(sub(shl(0xe0, 0x01), 0x01))\n        /* \"#utility.yul\":730:762   */\n      dup2\n      and\n        /* \"#utility.yul\":720:763   */\n      dup2\n      eq\n        /* \"#utility.yul\":710:781   */\n      tag_288\n      jumpi\n        /* \"#utility.yul\":777:778   */\n      0x00\n        /* \"#utility.yul\":774:775   */\n      dup1\n        /* \"#utility.yul\":767:779   */\n      revert\n        /* \"#utility.yul\":792:1037   */\n    tag_46:\n        /* \"#utility.yul\":850:856   */\n      0x00\n        /* \"#utility.yul\":903:905   */\n      0x20\n        /* \"#utility.yul\":891:900   */\n      dup3\n        /* \"#utility.yul\":882:889   */\n      dup5\n        /* \"#utility.yul\":878:901   */\n      sub\n        /* \"#utility.yul\":874:906   */\n      slt\n        /* \"#utility.yul\":871:923   */\n      iszero\n      tag_444\n      jumpi\n        /* \"#utility.yul\":919:920   */\n      0x00\n        /* \"#utility.yul\":916:917   */\n      dup1\n        /* \"#utility.yul\":909:921   */\n      revert\n        /* \"#utility.yul\":871:923   */\n    tag_444:\n        /* \"#utility.yul\":958:967   */\n      dup2\n        /* \"#utility.yul\":945:968   */\n      calldataload\n        /* \"#utility.yul\":977:1007   */\n      tag_445\n        /* \"#utility.yul\":1001:1006   */\n      dup2\n        /* \"#utility.yul\":977:1007   */\n      tag_426\n      jump\t// in\n    tag_445:\n        /* \"#utility.yul\":1026:1031   */\n      swap4\n        /* \"#utility.yul\":792:1037   */\n      swap3\n      pop\n      pop\n      pop\n      jump\t// out\n        /* \"#utility.yul\":1234:1414   */\n    tag_53:\n        /* \"#utility.yul\":1293:1299   */\n      0x00\n        /* \"#utility.yul\":1346:1348   */\n      0x20\n        /* \"#utility.yul\":1334:1343   */\n      dup3\n        /* \"#utility.yul\":1325:1332   */\n      dup5\n        /* \"#utility.yul\":1321:1344   */\n      sub\n        /* \"#utility.yul\":1317:1349   */\n      slt\n        /* \"#utility.yul\":1314:1366   */\n      iszero\n      tag_448\n      jumpi\n        /* \"#utility.yul\":1362:1363   */\n      0x00\n        /* \"#utility.yul\":1359:1360   */\n      dup1\n        /* \"#utility.yul\":1352:1364   */\n      revert\n        /* \"#utility.yul\":1314:1366   */\n    tag_448:\n      pop\n        /* \"#utility.yul\":1385:1408   */\n      calldataload\n      swap2\n        /* \"#utility.yul\":1234:1414   */\n      swap1\n      pop\n      jump\t// out\n        /* \"#utility.yul\":1419:1708   */\n    tag_427:\n        /* \"#utility.yul\":1461:1464   */\n      0x00\n        /* \"#utility.yul\":1499:1504   */\n      dup2\n        /* \"#utility.yul\":1493:1505   */\n      mload\n        /* \"#utility.yul\":1526:1532   */\n      dup1\n        /* \"#utility.yul\":1521:1524   */\n      dup5\n        /* \"#utility.yul\":1514:1533   */\n      mstore\n        /* \"#utility.yul\":1582:1588   */\n      dup1\n        /* \"#utility.yul\":1575:1579   */\n      0x20\n        /* \"#utility.yul\":1568:1573   */\n      dup5\n        /* \"#utility.yul\":1564:1580   */\n      add\n        /* \"#utility.yul\":1557:1561   */\n      0x20\n        /* \"#utility.yul\":1552:1555   */\n      dup7\n        /* \"#utility.yul\":1548:1562   */\n      add\n        /* \"#utility.yul\":1542:1589   */\n      mcopy\n        /* \"#utility.yul\":1634:1635   */\n      0x00\n        /* \"#utility.yul\":1627:1631   */\n      0x20\n        /* \"#utility.yul\":1618:1624   */\n      dup3\n        /* \"#utility.yul\":1613:1616   */\n      dup7\n        /* \"#utility.yul\":1609:1625   */\n      add\n        /* \"#utility.yul\":1605:1632   */\n      add\n        /* \"#utility.yul\":1598:1636   */\n      mstore\n        /* \"#utility.yul\":1697:1701   */\n      0x20\n        /* \"#utility.yul\":1690:1692   */\n      0x1f\n        /* \"#utility.yul\":1686:1693   */\n      not\n        /* \"#utility.yul\":1681:1683   */\n      0x1f\n        /* \"#utility.yul\":1673:1679   */\n      dup4\n        /* \"#utility.yul\":1669:1684   */\n      add\n        /* \"#utility.yul\":1665:1694   */\n      and\n        /* \"#utility.yul\":1660:1663   */\n      dup6\n        /* \"#utility.yul\":1656:1695   */\n      add\n        /* \"#utility.yul\":1652:1702   */\n      add\n        /* \"#utility.yul\":1645:1702   */\n      swap2\n      pop\n      pop\n        /* \"#utility.yul\":1419:1708   */\n      swap3\n      swap2\n      pop\n      pop\n      jump\t// out\n        /* \"#utility.yul\":1713:1933   */\n    tag_56:\n        /* \"#utility.yul\":1862:1864   */\n      0x20\n        /* \"#utility.yul\":1851:1860   */\n      dup2\n        /* \"#utility.yul\":1844:1865   */\n      mstore\n        /* \"#utility.yul\":1825:1829   */\n      0x00\n        /* \"#utility.yul\":1882:1927   */\n      tag_445\n        /* \"#utility.yul\":1923:1925   */\n      0x20\n        /* \"#utility.yul\":1912:1921   */\n      dup4\n        /* \"#utility.yul\":1908:1926   */\n      add\n        /* \"#utility.yul\":1900:1906   */\n      dup5\n        /* \"#utility.yul\":1882:1927   */\n      tag_427\n      jump\t// in\n        /* \"#utility.yul\":1938:2065   */\n    tag_202:\n        /* \"#utility.yul\":1999:2009   */\n      0x4e487b71\n        /* \"#utility.yul\":1994:1997   */\n      0xe0\n        /* \"#utility.yul\":1990:2010   */\n      shl\n        /* \"#utility.yul\":1987:1988   */\n      0x00\n        /* \"#utility.yul\":1980:2011   */\n      mstore\n        /* \"#utility.yul\":2030:2034   */\n      0x41\n        /* \"#utility.yul\":2027:2028   */\n      0x04\n        /* \"#utility.yul\":2020:2035   */\n      mstore\n        /* \"#utility.yul\":2054:2058   */\n      0x24\n        /* \"#utility.yul\":2051:2052   */\n      0x00\n        /* \"#utility.yul\":2044:2059   */\n      revert\n        /* \"#utility.yul\":2070:2345   */\n    tag_428:\n        /* \"#utility.yul\":2141:2143   */\n      0x40\n        /* \"#utility.yul\":2135:2144   */\n      mload\n        /* \"#utility.yul\":2206:2208   */\n      0x1f\n        /* \"#utility.yul\":2187:2200   */\n      dup3\n      add\n      not(0x1f)\n        /* \"#utility.yul\":2183:2210   */\n      and\n        /* \"#utility.yul\":2171:2211   */\n      dup2\n      add\n        /* \"#utility.yul\":2241:2259   */\n      0xffffffffffffffff\n        /* \"#utility.yul\":2226:2260   */\n      dup2\n      gt\n        /* \"#utility.yul\":2262:2284   */\n      dup3\n      dup3\n      lt\n        /* \"#utility.yul\":2223:2285   */\n      or\n        /* \"#utility.yul\":2220:2308   */\n      iszero\n      tag_455\n      jumpi\n        /* \"#utility.yul\":2288:2306   */\n      tag_455\n      tag_202\n      jump\t// in\n    tag_455:\n        /* \"#utility.yul\":2324:2326   */\n      0x40\n        /* \"#utility.yul\":2317:2339   */\n      mstore\n        /* \"#utility.yul\":2070:2345   */\n      swap2\n      swap1\n      pop\n      jump\t// out\n        /* \"#utility.yul\":2350:2533   */\n    tag_429:\n        /* \"#utility.yul\":2410:2414   */\n      0x00\n        /* \"#utility.yul\":2443:2461   */\n      0xffffffffffffffff\n        /* \"#utility.yul\":2435:2441   */\n      dup3\n        /* \"#utility.yul\":2432:2462   */\n      gt\n        /* \"#utility.yul\":2429:2485   */\n      iszero\n      tag_458\n      jumpi\n        /* \"#utility.yul\":2465:2483   */\n      tag_458\n      tag_202\n      jump\t// in\n    tag_458:\n      pop\n        /* \"#utility.yul\":2510:2511   */\n      0x05\n        /* \"#utility.yul\":2506:2520   */\n      shl\n        /* \"#utility.yul\":2522:2526   */\n      0x20\n        /* \"#utility.yul\":2502:2527   */\n      add\n      swap1\n        /* \"#utility.yul\":2350:2533   */\n      jump\t// out\n        /* \"#utility.yul\":2538:3206   */\n    tag_430:\n        /* \"#utility.yul\":2592:2597   */\n      0x00\n        /* \"#utility.yul\":2645:2648   */\n      dup3\n        /* \"#utility.yul\":2638:2642   */\n      0x1f\n        /* \"#utility.yul\":2630:2636   */\n      dup4\n        /* \"#utility.yul\":2626:2643   */\n      add\n        /* \"#utility.yul\":2622:2649   */\n      slt\n        /* \"#utility.yul\":2612:2667   */\n      tag_460\n      jumpi\n        /* \"#utility.yul\":2663:2664   */\n      0x00\n        /* \"#utility.yul\":2660:2661   */\n      dup1\n        /* \"#utility.yul\":2653:2665   */\n      revert\n        /* \"#utility.yul\":2612:2667   */\n    tag_460:\n        /* \"#utility.yul\":2699:2705   */\n      dup2\n        /* \"#utility.yul\":2686:2706   */\n      calldataload\n        /* \"#utility.yul\":2725:2729   */\n      0x20\n        /* \"#utility.yul\":2749:2809   */\n      tag_461\n        /* \"#utility.yul\":2765:2808   */\n      tag_462\n        /* \"#utility.yul\":2805:2807   */\n      dup4\n        /* \"#utility.yul\":2765:2808   */\n      tag_429\n      jump\t// in\n    tag_462:\n        /* \"#utility.yul\":2749:2809   */\n      tag_428\n      jump\t// in\n    tag_461:\n        /* \"#utility.yul\":2831:2834   */\n      dup1\n        /* \"#utility.yul\":2855:2857   */\n      dup4\n        /* \"#utility.yul\":2850:2853   */\n      dup3\n        /* \"#utility.yul\":2843:2858   */\n      mstore\n        /* \"#utility.yul\":2883:2887   */\n      0x20\n        /* \"#utility.yul\":2878:2881   */\n      dup3\n        /* \"#utility.yul\":2874:2888   */\n      add\n        /* \"#utility.yul\":2867:2888   */\n      swap2\n      pop\n        /* \"#utility.yul\":2940:2944   */\n      0x20\n        /* \"#utility.yul\":2934:2936   */\n      dup5\n        /* \"#utility.yul\":2931:2932   */\n      0x05\n        /* \"#utility.yul\":2927:2937   */\n      shl\n        /* \"#utility.yul\":2919:2925   */\n      dup8\n        /* \"#utility.yul\":2915:2938   */\n      add\n        /* \"#utility.yul\":2911:2945   */\n      add\n        /* \"#utility.yul\":2897:2945   */\n      swap4\n      pop\n        /* \"#utility.yul\":2968:2971   */\n      dup7\n        /* \"#utility.yul\":2960:2966   */\n      dup5\n        /* \"#utility.yul\":2957:2972   */\n      gt\n        /* \"#utility.yul\":2954:2989   */\n      iszero\n      tag_463\n      jumpi\n        /* \"#utility.yul\":2985:2986   */\n      0x00\n        /* \"#utility.yul\":2982:2983   */\n      dup1\n        /* \"#utility.yul\":2975:2987   */\n      revert\n        /* \"#utility.yul\":2954:2989   */\n    tag_463:\n        /* \"#utility.yul\":3021:3025   */\n      0x20\n        /* \"#utility.yul\":3013:3019   */\n      dup7\n        /* \"#utility.yul\":3009:3026   */\n      add\n        /* \"#utility.yul\":3035:3177   */\n    tag_464:\n        /* \"#utility.yul\":3051:3057   */\n      dup5\n        /* \"#utility.yul\":3046:3049   */\n      dup2\n        /* \"#utility.yul\":3043:3058   */\n      lt\n        /* \"#utility.yul\":3035:3177   */\n      iszero\n      tag_466\n      jumpi\n        /* \"#utility.yul\":3117:3134   */\n      dup1\n      calldataload\n        /* \"#utility.yul\":3105:3135   */\n      dup4\n      mstore\n        /* \"#utility.yul\":3155:3167   */\n      swap2\n      dup4\n      add\n      swap2\n        /* \"#utility.yul\":3068:3080   */\n      dup4\n      add\n        /* \"#utility.yul\":3035:3177   */\n      jump(tag_464)\n    tag_466:\n      pop\n        /* \"#utility.yul\":3195:3200   */\n      swap7\n        /* \"#utility.yul\":2538:3206   */\n      swap6\n      pop\n      pop\n      pop\n      pop\n      pop\n      pop\n      jump\t// out\n        /* \"#utility.yul\":3211:3741   */\n    tag_431:\n        /* \"#utility.yul\":3253:3258   */\n      0x00\n        /* \"#utility.yul\":3306:3309   */\n      dup3\n        /* \"#utility.yul\":3299:3303   */\n      0x1f\n        /* \"#utility.yul\":3291:3297   */\n      dup4\n        /* \"#utility.yul\":3287:3304   */\n      add\n        /* \"#utility.yul\":3283:3310   */\n      slt\n        /* \"#utility.yul\":3273:3328   */\n      tag_468\n      jumpi\n        /* \"#utility.yul\":3324:3325   */\n      0x00\n        /* \"#utility.yul\":3321:3322   */\n      dup1\n        /* \"#utility.yul\":3314:3326   */\n      revert\n        /* \"#utility.yul\":3273:3328   */\n    tag_468:\n        /* \"#utility.yul\":3360:3366   */\n      dup2\n        /* \"#utility.yul\":3347:3367   */\n      calldataload\n        /* \"#utility.yul\":3386:3404   */\n      0xffffffffffffffff\n        /* \"#utility.yul\":3382:3384   */\n      dup2\n        /* \"#utility.yul\":3379:3405   */\n      gt\n        /* \"#utility.yul\":3376:3428   */\n      iszero\n      tag_470\n      jumpi\n        /* \"#utility.yul\":3408:3426   */\n      tag_470\n      tag_202\n      jump\t// in\n    tag_470:\n        /* \"#utility.yul\":3452:3507   */\n      tag_471\n        /* \"#utility.yul\":3495:3497   */\n      0x1f\n        /* \"#utility.yul\":3476:3489   */\n      dup3\n      add\n      not(0x1f)\n        /* \"#utility.yul\":3472:3499   */\n      and\n        /* \"#utility.yul\":3501:3505   */\n      0x20\n        /* \"#utility.yul\":3468:3506   */\n      add\n        /* \"#utility.yul\":3452:3507   */\n      tag_428\n      jump\t// in\n    tag_471:\n        /* \"#utility.yul\":3532:3534   */\n      dup2\n        /* \"#utility.yul\":3523:3530   */\n      dup2\n        /* \"#utility.yul\":3516:3535   */\n      mstore\n        /* \"#utility.yul\":3578:3581   */\n      dup5\n        /* \"#utility.yul\":3571:3575   */\n      0x20\n        /* \"#utility.yul\":3566:3568   */\n      dup4\n        /* \"#utility.yul\":3558:3564   */\n      dup7\n        /* \"#utility.yul\":3554:3569   */\n      add\n        /* \"#utility.yul\":3550:3576   */\n      add\n        /* \"#utility.yul\":3547:3582   */\n      gt\n        /* \"#utility.yul\":3544:3599   */\n      iszero\n      tag_472\n      jumpi\n        /* \"#utility.yul\":3595:3596   */\n      0x00\n        /* \"#utility.yul\":3592:3593   */\n      dup1\n        /* \"#utility.yul\":3585:3597   */\n      revert\n        /* \"#utility.yul\":3544:3599   */\n    tag_472:\n        /* \"#utility.yul\":3660:3662   */\n      dup2\n        /* \"#utility.yul\":3653:3657   */\n      0x20\n        /* \"#utility.yul\":3645:3651   */\n      dup6\n        /* \"#utility.yul\":3641:3658   */\n      add\n        /* \"#utility.yul\":3634:3638   */\n      0x20\n        /* \"#utility.yul\":3625:3632   */\n      dup4\n        /* \"#utility.yul\":3621:3639   */\n      add\n        /* \"#utility.yul\":3608:3663   */\n      calldatacopy\n        /* \"#utility.yul\":3708:3709   */\n      0x00\n        /* \"#utility.yul\":3683:3699   */\n      swap2\n      dup2\n      add\n        /* \"#utility.yul\":3701:3705   */\n      0x20\n        /* \"#utility.yul\":3679:3706   */\n      add\n        /* \"#utility.yul\":3672:3710   */\n      swap2\n      swap1\n      swap2\n      mstore\n        /* \"#utility.yul\":3687:3694   */\n      swap4\n        /* \"#utility.yul\":3211:3741   */\n      swap3\n      pop\n      pop\n      pop\n      jump\t// out\n        /* \"#utility.yul\":3746:4689   */\n    tag_75:\n        /* \"#utility.yul\":3900:3906   */\n      0x00\n        /* \"#utility.yul\":3908:3914   */\n      dup1\n        /* \"#utility.yul\":3916:3922   */\n      0x00\n        /* \"#utility.yul\":3924:3930   */\n      dup1\n        /* \"#utility.yul\":3932:3938   */\n      0x00\n        /* \"#utility.yul\":3985:3988   */\n      0xa0\n        /* \"#utility.yul\":3973:3982   */\n      dup7\n        /* \"#utility.yul\":3964:3971   */\n      dup9\n        /* \"#utility.yul\":3960:3983   */\n      sub\n        /* \"#utility.yul\":3956:3989   */\n      slt\n        /* \"#utility.yul\":3953:4006   */\n      iszero\n      tag_474\n      jumpi\n        /* \"#utility.yul\":4002:4003   */\n      0x00\n        /* \"#utility.yul\":3999:4000   */\n      dup1\n        /* \"#utility.yul\":3992:4004   */\n      revert\n        /* \"#utility.yul\":3953:4006   */\n    tag_474:\n        /* \"#utility.yul\":4025:4054   */\n      tag_475\n        /* \"#utility.yul\":4044:4053   */\n      dup7\n        /* \"#utility.yul\":4025:4054   */\n      tag_425\n      jump\t// in\n    tag_475:\n        /* \"#utility.yul\":4015:4054   */\n      swap5\n      pop\n        /* \"#utility.yul\":4073:4111   */\n      tag_476\n        /* \"#utility.yul\":4107:4109   */\n      0x20\n        /* \"#utility.yul\":4096:4105   */\n      dup8\n        /* \"#utility.yul\":4092:4110   */\n      add\n        /* \"#utility.yul\":4073:4111   */\n      tag_425\n      jump\t// in\n    tag_476:\n        /* \"#utility.yul\":4063:4111   */\n      swap4\n      pop\n        /* \"#utility.yul\":4162:4164   */\n      0x40\n        /* \"#utility.yul\":4151:4160   */\n      dup7\n        /* \"#utility.yul\":4147:4165   */\n      add\n        /* \"#utility.yul\":4134:4166   */\n      calldataload\n        /* \"#utility.yul\":4185:4203   */\n      0xffffffffffffffff\n        /* \"#utility.yul\":4226:4228   */\n      dup1\n        /* \"#utility.yul\":4218:4224   */\n      dup3\n        /* \"#utility.yul\":4215:4229   */\n      gt\n        /* \"#utility.yul\":4212:4246   */\n      iszero\n      tag_477\n      jumpi\n        /* \"#utility.yul\":4242:4243   */\n      0x00\n        /* \"#utility.yul\":4239:4240   */\n      dup1\n        /* \"#utility.yul\":4232:4244   */\n      revert\n        /* \"#utility.yul\":4212:4246   */\n    tag_477:\n        /* \"#utility.yul\":4265:4326   */\n      tag_478\n        /* \"#utility.yul\":4318:4325   */\n      dup10\n        /* \"#utility.yul\":4309:4315   */\n      dup4\n        /* \"#utility.yul\":4298:4307   */\n      dup11\n        /* \"#utility.yul\":4294:4316   */\n      add\n        /* \"#utility.yul\":4265:4326   */\n      tag_430\n      jump\t// in\n    tag_478:\n        /* \"#utility.yul\":4255:4326   */\n      swap5\n      pop\n        /* \"#utility.yul\":4379:4381   */\n      0x60\n        /* \"#utility.yul\":4368:4377   */\n      dup9\n        /* \"#utility.yul\":4364:4382   */\n      add\n        /* \"#utility.yul\":4351:4383   */\n      calldataload\n        /* \"#utility.yul\":4335:4383   */\n      swap2\n      pop\n        /* \"#utility.yul\":4408:4410   */\n      dup1\n        /* \"#utility.yul\":4398:4406   */\n      dup3\n        /* \"#utility.yul\":4395:4411   */\n      gt\n        /* \"#utility.yul\":4392:4428   */\n      iszero\n      tag_479\n      jumpi\n        /* \"#utility.yul\":4424:4425   */\n      0x00\n        /* \"#utility.yul\":4421:4422   */\n      dup1\n        /* \"#utility.yul\":4414:4426   */\n      revert\n        /* \"#utility.yul\":4392:4428   */\n    tag_479:\n        /* \"#utility.yul\":4447:4510   */\n      tag_480\n        /* \"#utility.yul\":4502:4509   */\n      dup10\n        /* \"#utility.yul\":4491:4499   */\n      dup4\n        /* \"#utility.yul\":4480:4489   */\n      dup11\n        /* \"#utility.yul\":4476:4500   */\n      add\n        /* \"#utility.yul\":4447:4510   */\n      tag_430\n      jump\t// in\n    tag_480:\n        /* \"#utility.yul\":4437:4510   */\n      swap4\n      pop\n        /* \"#utility.yul\":4563:4566   */\n      0x80\n        /* \"#utility.yul\":4552:4561   */\n      dup9\n        /* \"#utility.yul\":4548:4567   */\n      add\n        /* \"#utility.yul\":4535:4568   */\n      calldataload\n        /* \"#utility.yul\":4519:4568   */\n      swap2\n      pop\n        /* \"#utility.yul\":4593:4595   */\n      dup1\n        /* \"#utility.yul\":4583:4591   */\n      dup3\n        /* \"#utility.yul\":4580:4596   */\n      gt\n        /* \"#utility.yul\":4577:4613   */\n      iszero\n      tag_481\n      jumpi\n        /* \"#utility.yul\":4609:4610   */\n      0x00\n        /* \"#utility.yul\":4606:4607   */\n      dup1\n        /* \"#utility.yul\":4599:4611   */\n      revert\n        /* \"#utility.yul\":4577:4613   */\n    tag_481:\n      pop\n        /* \"#utility.yul\":4632:4683   */\n      tag_482\n        /* \"#utility.yul\":4675:4682   */\n      dup9\n        /* \"#utility.yul\":4664:4672   */\n      dup3\n        /* \"#utility.yul\":4653:4662   */\n      dup10\n        /* \"#utility.yul\":4649:4673   */\n      add\n        /* \"#utility.yul\":4632:4683   */\n      tag_431\n      jump\t// in\n    tag_482:\n        /* \"#utility.yul\":4622:4683   */\n      swap2\n      pop\n      pop\n        /* \"#utility.yul\":3746:4689   */\n      swap3\n      swap6\n      pop\n      swap3\n      swap6\n      swap1\n      swap4\n      pop\n      jump\t// out\n        /* \"#utility.yul\":4694:5840   */\n    tag_80:\n        /* \"#utility.yul\":4812:4818   */\n      0x00\n        /* \"#utility.yul\":4820:4826   */\n      dup1\n        /* \"#utility.yul\":4873:4875   */\n      0x40\n        /* \"#utility.yul\":4861:4870   */\n      dup4\n        /* \"#utility.yul\":4852:4859   */\n      dup6\n        /* \"#utility.yul\":4848:4871   */\n      sub\n        /* \"#utility.yul\":4844:4876   */\n      slt\n        /* \"#utility.yul\":4841:4893   */\n      iszero\n      tag_484\n      jumpi\n        /* \"#utility.yul\":4889:4890   */\n      0x00\n        /* \"#utility.yul\":4886:4887   */\n      dup1\n        /* \"#utility.yul\":4879:4891   */\n      revert\n        /* \"#utility.yul\":4841:4893   */\n    tag_484:\n        /* \"#utility.yul\":4929:4938   */\n      dup3\n        /* \"#utility.yul\":4916:4939   */\n      calldataload\n        /* \"#utility.yul\":4958:4976   */\n      0xffffffffffffffff\n        /* \"#utility.yul\":4999:5001   */\n      dup1\n        /* \"#utility.yul\":4991:4997   */\n      dup3\n        /* \"#utility.yul\":4988:5002   */\n      gt\n        /* \"#utility.yul\":4985:5019   */\n      iszero\n      tag_485\n      jumpi\n        /* \"#utility.yul\":5015:5016   */\n      0x00\n        /* \"#utility.yul\":5012:5013   */\n      dup1\n        /* \"#utility.yul\":5005:5017   */\n      revert\n        /* \"#utility.yul\":4985:5019   */\n    tag_485:\n        /* \"#utility.yul\":5053:5059   */\n      dup2\n        /* \"#utility.yul\":5042:5051   */\n      dup6\n        /* \"#utility.yul\":5038:5060   */\n      add\n        /* \"#utility.yul\":5028:5060   */\n      swap2\n      pop\n        /* \"#utility.yul\":5098:5105   */\n      dup6\n        /* \"#utility.yul\":5091:5095   */\n      0x1f\n        /* \"#utility.yul\":5087:5089   */\n      dup4\n        /* \"#utility.yul\":5083:5096   */\n      add\n        /* \"#utility.yul\":5079:5106   */\n      slt\n        /* \"#utility.yul\":5069:5124   */\n      tag_486\n      jumpi\n        /* \"#utility.yul\":5120:5121   */\n      0x00\n        /* \"#utility.yul\":5117:5118   */\n      dup1\n        /* \"#utility.yul\":5110:5122   */\n      revert\n        /* \"#utility.yul\":5069:5124   */\n    tag_486:\n        /* \"#utility.yul\":5156:5158   */\n      dup2\n        /* \"#utility.yul\":5143:5159   */\n      calldataload\n        /* \"#utility.yul\":5178:5182   */\n      0x20\n        /* \"#utility.yul\":5202:5262   */\n      tag_487\n        /* \"#utility.yul\":5218:5261   */\n      tag_462\n        /* \"#utility.yul\":5258:5260   */\n      dup4\n        /* \"#utility.yul\":5218:5261   */\n      tag_429\n      jump\t// in\n        /* \"#utility.yul\":5202:5262   */\n    tag_487:\n        /* \"#utility.yul\":5296:5311   */\n      dup3\n      dup2\n      mstore\n        /* \"#utility.yul\":5378:5379   */\n      0x05\n        /* \"#utility.yul\":5374:5384   */\n      swap3\n      swap1\n      swap3\n      shl\n        /* \"#utility.yul\":5366:5385   */\n      dup5\n      add\n        /* \"#utility.yul\":5362:5390   */\n      dup2\n      add\n      swap2\n        /* \"#utility.yul\":5327:5339   */\n      dup2\n      dup2\n      add\n      swap1\n        /* \"#utility.yul\":5402:5421   */\n      dup10\n      dup5\n      gt\n        /* \"#utility.yul\":5399:5438   */\n      iszero\n      tag_489\n      jumpi\n        /* \"#utility.yul\":5434:5435   */\n      0x00\n        /* \"#utility.yul\":5431:5432   */\n      dup1\n        /* \"#utility.yul\":5424:5436   */\n      revert\n        /* \"#utility.yul\":5399:5438   */\n    tag_489:\n        /* \"#utility.yul\":5458:5469   */\n      swap5\n      dup3\n      add\n      swap5\n        /* \"#utility.yul\":5478:5626   */\n    tag_490:\n        /* \"#utility.yul\":5494:5500   */\n      dup4\n        /* \"#utility.yul\":5489:5492   */\n      dup7\n        /* \"#utility.yul\":5486:5501   */\n      lt\n        /* \"#utility.yul\":5478:5626   */\n      iszero\n      tag_492\n      jumpi\n        /* \"#utility.yul\":5560:5583   */\n      tag_493\n        /* \"#utility.yul\":5579:5582   */\n      dup7\n        /* \"#utility.yul\":5560:5583   */\n      tag_425\n      jump\t// in\n    tag_493:\n        /* \"#utility.yul\":5548:5584   */\n      dup3\n      mstore\n        /* \"#utility.yul\":5511:5523   */\n      swap5\n      dup3\n      add\n      swap5\n        /* \"#utility.yul\":5604:5616   */\n      swap1\n      dup3\n      add\n      swap1\n        /* \"#utility.yul\":5478:5626   */\n      jump(tag_490)\n    tag_492:\n        /* \"#utility.yul\":5645:5650   */\n      swap7\n      pop\n      pop\n        /* \"#utility.yul\":5688:5706   */\n      dup7\n      add\n        /* \"#utility.yul\":5675:5707   */\n      calldataload\n      swap3\n      pop\n      pop\n        /* \"#utility.yul\":5719:5735   */\n      dup1\n      dup3\n      gt\n        /* \"#utility.yul\":5716:5752   */\n      iszero\n      tag_494\n      jumpi\n        /* \"#utility.yul\":5748:5749   */\n      0x00\n        /* \"#utility.yul\":5745:5746   */\n      dup1\n        /* \"#utility.yul\":5738:5750   */\n      revert\n        /* \"#utility.yul\":5716:5752   */\n    tag_494:\n      pop\n        /* \"#utility.yul\":5771:5834   */\n      tag_495\n        /* \"#utility.yul\":5826:5833   */\n      dup6\n        /* \"#utility.yul\":5815:5823   */\n      dup3\n        /* \"#utility.yul\":5804:5813   */\n      dup7\n        /* \"#utility.yul\":5800:5824   */\n      add\n        /* \"#utility.yul\":5771:5834   */\n      tag_430\n      jump\t// in\n    tag_495:\n        /* \"#utility.yul\":5761:5834   */\n      swap2\n      pop\n      pop\n        /* \"#utility.yul\":4694:5840   */\n      swap3\n      pop\n      swap3\n      swap1\n      pop\n      jump\t// out\n        /* \"#utility.yul\":5845:6284   */\n    tag_432:\n        /* \"#utility.yul\":5898:5901   */\n      0x00\n        /* \"#utility.yul\":5936:5941   */\n      dup2\n        /* \"#utility.yul\":5930:5942   */\n      mload\n        /* \"#utility.yul\":5963:5969   */\n      dup1\n        /* \"#utility.yul\":5958:5961   */\n      dup5\n        /* \"#utility.yul\":5951:5970   */\n      mstore\n        /* \"#utility.yul\":5989:5993   */\n      0x20\n        /* \"#utility.yul\":6018:6022   */\n      dup1\n        /* \"#utility.yul\":6013:6016   */\n      dup6\n        /* \"#utility.yul\":6009:6023   */\n      add\n        /* \"#utility.yul\":6002:6023   */\n      swap5\n      pop\n        /* \"#utility.yul\":6057:6061   */\n      0x20\n        /* \"#utility.yul\":6050:6055   */\n      dup5\n        /* \"#utility.yul\":6046:6062   */\n      add\n        /* \"#utility.yul\":6080:6081   */\n      0x00\n        /* \"#utility.yul\":6090:6259   */\n    tag_497:\n        /* \"#utility.yul\":6104:6110   */\n      dup4\n        /* \"#utility.yul\":6101:6102   */\n      dup2\n        /* \"#utility.yul\":6098:6111   */\n      lt\n        /* \"#utility.yul\":6090:6259   */\n      iszero\n      tag_499\n      jumpi\n        /* \"#utility.yul\":6165:6178   */\n      dup2\n      mload\n        /* \"#utility.yul\":6153:6179   */\n      dup8\n      mstore\n        /* \"#utility.yul\":6199:6211   */\n      swap6\n      dup3\n      add\n      swap6\n        /* \"#utility.yul\":6234:6249   */\n      swap1\n      dup3\n      add\n      swap1\n        /* \"#utility.yul\":6126:6127   */\n      0x01\n        /* \"#utility.yul\":6119:6128   */\n      add\n        /* \"#utility.yul\":6090:6259   */\n      jump(tag_497)\n    tag_499:\n      pop\n        /* \"#utility.yul\":6275:6278   */\n      swap5\n      swap6\n        /* \"#utility.yul\":5845:6284   */\n      swap5\n      pop\n      pop\n      pop\n      pop\n      pop\n      jump\t// out\n        /* \"#utility.yul\":6289:6550   */\n    tag_83:\n        /* \"#utility.yul\":6468:6470   */\n      0x20\n        /* \"#utility.yul\":6457:6466   */\n      dup2\n        /* \"#utility.yul\":6450:6471   */\n      mstore\n        /* \"#utility.yul\":6431:6435   */\n      0x00\n        /* \"#utility.yul\":6488:6544   */\n      tag_445\n        /* \"#utility.yul\":6540:6542   */\n      0x20\n        /* \"#utility.yul\":6529:6538   */\n      dup4\n        /* \"#utility.yul\":6525:6543   */\n      add\n        /* \"#utility.yul\":6517:6523   */\n      dup5\n        /* \"#utility.yul\":6488:6544   */\n      tag_432\n      jump\t// in\n        /* \"#utility.yul\":6786:7133   */\n    tag_125:\n        /* \"#utility.yul\":6851:6857   */\n      0x00\n        /* \"#utility.yul\":6859:6865   */\n      dup1\n        /* \"#utility.yul\":6912:6914   */\n      0x40\n        /* \"#utility.yul\":6900:6909   */\n      dup4\n        /* \"#utility.yul\":6891:6898   */\n      dup6\n        /* \"#utility.yul\":6887:6910   */\n      sub\n        /* \"#utility.yul\":6883:6915   */\n      slt\n        /* \"#utility.yul\":6880:6932   */\n      iszero\n      tag_504\n      jumpi\n        /* \"#utility.yul\":6928:6929   */\n      0x00\n        /* \"#utility.yul\":6925:6926   */\n      dup1\n        /* \"#utility.yul\":6918:6930   */\n      revert\n        /* \"#utility.yul\":6880:6932   */\n    tag_504:\n        /* \"#utility.yul\":6951:6980   */\n      tag_505\n        /* \"#utility.yul\":6970:6979   */\n      dup4\n        /* \"#utility.yul\":6951:6980   */\n      tag_425\n      jump\t// in\n    tag_505:\n        /* \"#utility.yul\":6941:6980   */\n      swap2\n      pop\n        /* \"#utility.yul\":7030:7032   */\n      0x20\n        /* \"#utility.yul\":7019:7028   */\n      dup4\n        /* \"#utility.yul\":7015:7033   */\n      add\n        /* \"#utility.yul\":7002:7034   */\n      calldataload\n        /* \"#utility.yul\":7077:7082   */\n      dup1\n        /* \"#utility.yul\":7070:7083   */\n      iszero\n        /* \"#utility.yul\":7063:7084   */\n      iszero\n        /* \"#utility.yul\":7056:7061   */\n      dup2\n        /* \"#utility.yul\":7053:7085   */\n      eq\n        /* \"#utility.yul\":7043:7103   */\n      tag_506\n      jumpi\n        /* \"#utility.yul\":7099:7100   */\n      0x00\n        /* \"#utility.yul\":7096:7097   */\n      dup1\n        /* \"#utility.yul\":7089:7101   */\n      revert\n        /* \"#utility.yul\":7043:7103   */\n    tag_506:\n        /* \"#utility.yul\":7122:7127   */\n      dup1\n        /* \"#utility.yul\":7112:7127   */\n      swap2\n      pop\n      pop\n        /* \"#utility.yul\":6786:7133   */\n      swap3\n      pop\n      swap3\n      swap1\n      pop\n      jump\t// out\n        /* \"#utility.yul\":7138:8094   */\n    tag_131:\n        /* \"#utility.yul\":7490:7494   */\n      0x00\n        /* \"#utility.yul\":7519:7522   */\n      0x0140\n        /* \"#utility.yul\":7549:7555   */\n      dup13\n        /* \"#utility.yul\":7538:7547   */\n      dup4\n        /* \"#utility.yul\":7531:7556   */\n      mstore\n        /* \"#utility.yul\":7592:7598   */\n      dup12\n        /* \"#utility.yul\":7587:7589   */\n      0x20\n        /* \"#utility.yul\":7576:7585   */\n      dup5\n        /* \"#utility.yul\":7572:7590   */\n      add\n        /* \"#utility.yul\":7565:7599   */\n      mstore\n        /* \"#utility.yul\":7635:7641   */\n      dup11\n        /* \"#utility.yul\":7630:7632   */\n      0x40\n        /* \"#utility.yul\":7619:7628   */\n      dup5\n        /* \"#utility.yul\":7615:7633   */\n      add\n        /* \"#utility.yul\":7608:7642   */\n      mstore\n        /* \"#utility.yul\":7678:7684   */\n      dup10\n        /* \"#utility.yul\":7673:7675   */\n      0x60\n        /* \"#utility.yul\":7662:7671   */\n      dup5\n        /* \"#utility.yul\":7658:7676   */\n      add\n        /* \"#utility.yul\":7651:7685   */\n      mstore\n        /* \"#utility.yul\":7722:7728   */\n      dup9\n        /* \"#utility.yul\":7716:7719   */\n      0x80\n        /* \"#utility.yul\":7705:7714   */\n      dup5\n        /* \"#utility.yul\":7701:7720   */\n      add\n        /* \"#utility.yul\":7694:7729   */\n      mstore\n        /* \"#utility.yul\":7766:7768   */\n      dup1\n        /* \"#utility.yul\":7760:7763   */\n      0xa0\n        /* \"#utility.yul\":7749:7758   */\n      dup5\n        /* \"#utility.yul\":7745:7764   */\n      add\n        /* \"#utility.yul\":7738:7769   */\n      mstore\n        /* \"#utility.yul\":7786:7831   */\n      tag_508\n        /* \"#utility.yul\":7827:7829   */\n      dup2\n        /* \"#utility.yul\":7816:7825   */\n      dup5\n        /* \"#utility.yul\":7812:7830   */\n      add\n        /* \"#utility.yul\":7804:7810   */\n      dup10\n        /* \"#utility.yul\":7786:7831   */\n      tag_427\n      jump\t// in\n    tag_508:\n      sub(shl(0xa0, 0x01), 0x01)\n        /* \"#utility.yul\":7868:7923   */\n      swap8\n      swap1\n      swap8\n      and\n        /* \"#utility.yul\":7862:7865   */\n      0xc0\n        /* \"#utility.yul\":7847:7866   */\n      dup5\n      add\n        /* \"#utility.yul\":7840:7924   */\n      mstore\n      pop\n      pop\n        /* \"#utility.yul\":7955:7958   */\n      0xe0\n        /* \"#utility.yul\":7940:7959   */\n      dup2\n      add\n        /* \"#utility.yul\":7933:7968   */\n      swap4\n      swap1\n      swap4\n      mstore\n        /* \"#utility.yul\":8012:8026   */\n      swap1\n      iszero\n        /* \"#utility.yul\":8005:8027   */\n      iszero\n        /* \"#utility.yul\":7999:8002   */\n      0x0100\n        /* \"#utility.yul\":7984:8003   */\n      dup4\n      add\n        /* \"#utility.yul\":7977:8028   */\n      mstore\n        /* \"#utility.yul\":8072:8086   */\n      iszero\n        /* \"#utility.yul\":8065:8087   */\n      iszero\n        /* \"#utility.yul\":8059:8062   */\n      0x0120\n        /* \"#utility.yul\":8044:8063   */\n      swap1\n      swap2\n      add\n        /* \"#utility.yul\":8037:8088   */\n      mstore\n        /* \"#utility.yul\":7778:7831   */\n      swap7\n        /* \"#utility.yul\":7138:8094   */\n      swap6\n      pop\n      pop\n      pop\n      pop\n      pop\n      pop\n      jump\t// out\n        /* \"#utility.yul\":8099:8359   */\n    tag_143:\n        /* \"#utility.yul\":8167:8173   */\n      0x00\n        /* \"#utility.yul\":8175:8181   */\n      dup1\n        /* \"#utility.yul\":8228:8230   */\n      0x40\n        /* \"#utility.yul\":8216:8225   */\n      dup4\n        /* \"#utility.yul\":8207:8214   */\n      dup6\n        /* \"#utility.yul\":8203:8226   */\n      sub\n        /* \"#utility.yul\":8199:8231   */\n      slt\n        /* \"#utility.yul\":8196:8248   */\n      iszero\n      tag_510\n      jumpi\n        /* \"#utility.yul\":8244:8245   */\n      0x00\n        /* \"#utility.yul\":8241:8242   */\n      dup1\n        /* \"#utility.yul\":8234:8246   */\n      revert\n        /* \"#utility.yul\":8196:8248   */\n    tag_510:\n        /* \"#utility.yul\":8267:8296   */\n      tag_511\n        /* \"#utility.yul\":8286:8295   */\n      dup4\n        /* \"#utility.yul\":8267:8296   */\n      tag_425\n      jump\t// in\n    tag_511:\n        /* \"#utility.yul\":8257:8296   */\n      swap2\n      pop\n        /* \"#utility.yul\":8315:8353   */\n      tag_512\n        /* \"#utility.yul\":8349:8351   */\n      0x20\n        /* \"#utility.yul\":8338:8347   */\n      dup5\n        /* \"#utility.yul\":8334:8352   */\n      add\n        /* \"#utility.yul\":8315:8353   */\n      tag_425\n      jump\t// in\n    tag_512:\n        /* \"#utility.yul\":8305:8353   */\n      swap1\n      pop\n        /* \"#utility.yul\":8099:8359   */\n      swap3\n      pop\n      swap3\n      swap1\n      pop\n      jump\t// out\n        /* \"#utility.yul\":8364:8970   */\n    tag_149:\n        /* \"#utility.yul\":8468:8474   */\n      0x00\n        /* \"#utility.yul\":8476:8482   */\n      dup1\n        /* \"#utility.yul\":8484:8490   */\n      0x00\n        /* \"#utility.yul\":8492:8498   */\n      dup1\n        /* \"#utility.yul\":8500:8506   */\n      0x00\n        /* \"#utility.yul\":8553:8556   */\n      0xa0\n        /* \"#utility.yul\":8541:8550   */\n      dup7\n        /* \"#utility.yul\":8532:8539   */\n      dup9\n        /* \"#utility.yul\":8528:8551   */\n      sub\n        /* \"#utility.yul\":8524:8557   */\n      slt\n        /* \"#utility.yul\":8521:8574   */\n      iszero\n      tag_514\n      jumpi\n        /* \"#utility.yul\":8570:8571   */\n      0x00\n        /* \"#utility.yul\":8567:8568   */\n      dup1\n        /* \"#utility.yul\":8560:8572   */\n      revert\n        /* \"#utility.yul\":8521:8574   */\n    tag_514:\n        /* \"#utility.yul\":8593:8622   */\n      tag_515\n        /* \"#utility.yul\":8612:8621   */\n      dup7\n        /* \"#utility.yul\":8593:8622   */\n      tag_425\n      jump\t// in\n    tag_515:\n        /* \"#utility.yul\":8583:8622   */\n      swap5\n      pop\n        /* \"#utility.yul\":8641:8679   */\n      tag_516\n        /* \"#utility.yul\":8675:8677   */\n      0x20\n        /* \"#utility.yul\":8664:8673   */\n      dup8\n        /* \"#utility.yul\":8660:8678   */\n      add\n        /* \"#utility.yul\":8641:8679   */\n      tag_425\n      jump\t// in\n    tag_516:\n        /* \"#utility.yul\":8631:8679   */\n      swap4\n      pop\n        /* \"#utility.yul\":8726:8728   */\n      0x40\n        /* \"#utility.yul\":8715:8724   */\n      dup7\n        /* \"#utility.yul\":8711:8729   */\n      add\n        /* \"#utility.yul\":8698:8730   */\n      calldataload\n        /* \"#utility.yul\":8688:8730   */\n      swap3\n      pop\n        /* \"#utility.yul\":8777:8779   */\n      0x60\n        /* \"#utility.yul\":8766:8775   */\n      dup7\n        /* \"#utility.yul\":8762:8780   */\n      add\n        /* \"#utility.yul\":8749:8781   */\n      calldataload\n        /* \"#utility.yul\":8739:8781   */\n      swap2\n      pop\n        /* \"#utility.yul\":8832:8835   */\n      0x80\n        /* \"#utility.yul\":8821:8830   */\n      dup7\n        /* \"#utility.yul\":8817:8836   */\n      add\n        /* \"#utility.yul\":8804:8837   */\n      calldataload\n        /* \"#utility.yul\":8860:8878   */\n      0xffffffffffffffff\n        /* \"#utility.yul\":8852:8858   */\n      dup2\n        /* \"#utility.yul\":8849:8879   */\n      gt\n        /* \"#utility.yul\":8846:8896   */\n      iszero\n      tag_517\n      jumpi\n        /* \"#utility.yul\":8892:8893   */\n      0x00\n        /* \"#utility.yul\":8889:8890   */\n      dup1\n        /* \"#utility.yul\":8882:8894   */\n      revert\n        /* \"#utility.yul\":8846:8896   */\n    tag_517:\n        /* \"#utility.yul\":8915:8964   */\n      tag_482\n        /* \"#utility.yul\":8956:8963   */\n      dup9\n        /* \"#utility.yul\":8947:8953   */\n      dup3\n        /* \"#utility.yul\":8936:8945   */\n      dup10\n        /* \"#utility.yul\":8932:8954   */\n      add\n        /* \"#utility.yul\":8915:8964   */\n      tag_431\n      jump\t// in\n        /* \"#utility.yul\":8975:9161   */\n    tag_154:\n        /* \"#utility.yul\":9034:9040   */\n      0x00\n        /* \"#utility.yul\":9087:9089   */\n      0x20\n        /* \"#utility.yul\":9075:9084   */\n      dup3\n        /* \"#utility.yul\":9066:9073   */\n      dup5\n        /* \"#utility.yul\":9062:9085   */\n      sub\n        /* \"#utility.yul\":9058:9090   */\n      slt\n        /* \"#utility.yul\":9055:9107   */\n      iszero\n      tag_520\n      jumpi\n        /* \"#utility.yul\":9103:9104   */\n      0x00\n        /* \"#utility.yul\":9100:9101   */\n      dup1\n        /* \"#utility.yul\":9093:9105   */\n      revert\n        /* \"#utility.yul\":9055:9107   */\n    tag_520:\n        /* \"#utility.yul\":9126:9155   */\n      tag_445\n        /* \"#utility.yul\":9145:9154   */\n      dup3\n        /* \"#utility.yul\":9126:9155   */\n      tag_425\n      jump\t// in\n        /* \"#utility.yul\":9166:9546   */\n    tag_166:\n        /* \"#utility.yul\":9245:9246   */\n      0x01\n        /* \"#utility.yul\":9241:9253   */\n      dup2\n      dup2\n      shr\n      swap1\n        /* \"#utility.yul\":9288:9300   */\n      dup3\n      and\n      dup1\n        /* \"#utility.yul\":9309:9370   */\n      tag_523\n      jumpi\n        /* \"#utility.yul\":9363:9367   */\n      0x7f\n        /* \"#utility.yul\":9355:9361   */\n      dup3\n        /* \"#utility.yul\":9351:9368   */\n      and\n        /* \"#utility.yul\":9341:9368   */\n      swap2\n      pop\n        /* \"#utility.yul\":9309:9370   */\n    tag_523:\n        /* \"#utility.yul\":9416:9418   */\n      0x20\n        /* \"#utility.yul\":9408:9414   */\n      dup3\n        /* \"#utility.yul\":9405:9419   */\n      lt\n        /* \"#utility.yul\":9385:9403   */\n      dup2\n        /* \"#utility.yul\":9382:9420   */\n      sub\n        /* \"#utility.yul\":9379:9540   */\n      tag_524\n      jumpi\n        /* \"#utility.yul\":9462:9472   */\n      0x4e487b71\n        /* \"#utility.yul\":9457:9460   */\n      0xe0\n        /* \"#utility.yul\":9453:9473   */\n      shl\n        /* \"#utility.yul\":9450:9451   */\n      0x00\n        /* \"#utility.yul\":9443:9474   */\n      mstore\n        /* \"#utility.yul\":9497:9501   */\n      0x22\n        /* \"#utility.yul\":9494:9495   */\n      0x04\n        /* \"#utility.yul\":9487:9502   */\n      mstore\n        /* \"#utility.yul\":9525:9529   */\n      0x24\n        /* \"#utility.yul\":9522:9523   */\n      0x00\n        /* \"#utility.yul\":9515:9530   */\n      revert\n        /* \"#utility.yul\":9379:9540   */\n    tag_524:\n      pop\n        /* \"#utility.yul\":9166:9546   */\n      swap2\n      swap1\n      pop\n      jump\t// out\n        /* \"#utility.yul\":11193:11320   */\n    tag_214:\n        /* \"#utility.yul\":11254:11264   */\n      0x4e487b71\n        /* \"#utility.yul\":11249:11252   */\n      0xe0\n        /* \"#utility.yul\":11245:11265   */\n      shl\n        /* \"#utility.yul\":11242:11243   */\n      0x00\n        /* \"#utility.yul\":11235:11266   */\n      mstore\n        /* \"#utility.yul\":11285:11289   */\n      0x32\n        /* \"#utility.yul\":11282:11283   */\n      0x04\n        /* \"#utility.yul\":11275:11290   */\n      mstore\n        /* \"#utility.yul\":11309:11313   */\n      0x24\n        /* \"#utility.yul\":11306:11307   */\n      0x00\n        /* \"#utility.yul\":11299:11314   */\n      revert\n        /* \"#utility.yul\":11678:11805   */\n    tag_433:\n        /* \"#utility.yul\":11739:11749   */\n      0x4e487b71\n        /* \"#utility.yul\":11734:11737   */\n      0xe0\n        /* \"#utility.yul\":11730:11750   */\n      shl\n        /* \"#utility.yul\":11727:11728   */\n      0x00\n        /* \"#utility.yul\":11720:11751   */\n      mstore\n        /* \"#utility.yul\":11770:11774   */\n      0x11\n        /* \"#utility.yul\":11767:11768   */\n      0x04\n        /* \"#utility.yul\":11760:11775   */\n      mstore\n        /* \"#utility.yul\":11794:11798   */\n      0x24\n        /* \"#utility.yul\":11791:11792   */\n      0x00\n        /* \"#utility.yul\":11784:11799   */\n      revert\n        /* \"#utility.yul\":11810:11935   */\n    tag_233:\n        /* \"#utility.yul\":11875:11884   */\n      dup1\n      dup3\n      add\n        /* \"#utility.yul\":11896:11906   */\n      dup1\n      dup3\n      gt\n        /* \"#utility.yul\":11893:11929   */\n      iszero\n      tag_158\n      jumpi\n        /* \"#utility.yul\":11909:11927   */\n      tag_158\n      tag_433\n      jump\t// in\n        /* \"#utility.yul\":13349:13517   */\n    tag_254:\n        /* \"#utility.yul\":13422:13431   */\n      dup1\n      dup3\n      mul\n        /* \"#utility.yul\":13453:13462   */\n      dup2\n      iszero\n        /* \"#utility.yul\":13470:13485   */\n      dup3\n      dup3\n      div\n        /* \"#utility.yul\":13464:13486   */\n      dup5\n      eq\n        /* \"#utility.yul\":13450:13487   */\n      or\n        /* \"#utility.yul\":13440:13511   */\n      tag_158\n      jumpi\n        /* \"#utility.yul\":13491:13509   */\n      tag_158\n      tag_433\n      jump\t// in\n        /* \"#utility.yul\":13522:13739   */\n    tag_256:\n        /* \"#utility.yul\":13562:13563   */\n      0x00\n        /* \"#utility.yul\":13588:13589   */\n      dup3\n        /* \"#utility.yul\":13578:13710   */\n      tag_544\n      jumpi\n        /* \"#utility.yul\":13632:13642   */\n      0x4e487b71\n        /* \"#utility.yul\":13627:13630   */\n      0xe0\n        /* \"#utility.yul\":13623:13643   */\n      shl\n        /* \"#utility.yul\":13620:13621   */\n      0x00\n        /* \"#utility.yul\":13613:13644   */\n      mstore\n        /* \"#utility.yul\":13667:13671   */\n      0x12\n        /* \"#utility.yul\":13664:13665   */\n      0x04\n        /* \"#utility.yul\":13657:13672   */\n      mstore\n        /* \"#utility.yul\":13695:13699   */\n      0x24\n        /* \"#utility.yul\":13692:13693   */\n      0x00\n        /* \"#utility.yul\":13685:13700   */\n      revert\n        /* \"#utility.yul\":13578:13710   */\n    tag_544:\n      pop\n        /* \"#utility.yul\":13724:13733   */\n      div\n      swap1\n        /* \"#utility.yul\":13522:13739   */\n      jump\t// out\n        /* \"#utility.yul\":15220:15804   */\n    tag_369:\n        /* \"#utility.yul\":15442:15446   */\n      0x00\n      sub(shl(0xa0, 0x01), 0x01)\n        /* \"#utility.yul\":15552:15554   */\n      dup1\n        /* \"#utility.yul\":15544:15550   */\n      dup9\n        /* \"#utility.yul\":15540:15555   */\n      and\n        /* \"#utility.yul\":15529:15538   */\n      dup4\n        /* \"#utility.yul\":15522:15556   */\n      mstore\n        /* \"#utility.yul\":15604:15606   */\n      dup1\n        /* \"#utility.yul\":15596:15602   */\n      dup8\n        /* \"#utility.yul\":15592:15607   */\n      and\n        /* \"#utility.yul\":15587:15589   */\n      0x20\n        /* \"#utility.yul\":15576:15585   */\n      dup5\n        /* \"#utility.yul\":15572:15590   */\n      add\n        /* \"#utility.yul\":15565:15608   */\n      mstore\n      pop\n        /* \"#utility.yul\":15644:15650   */\n      dup5\n        /* \"#utility.yul\":15639:15641   */\n      0x40\n        /* \"#utility.yul\":15628:15637   */\n      dup4\n        /* \"#utility.yul\":15624:15642   */\n      add\n        /* \"#utility.yul\":15617:15651   */\n      mstore\n        /* \"#utility.yul\":15687:15693   */\n      dup4\n        /* \"#utility.yul\":15682:15684   */\n      0x60\n        /* \"#utility.yul\":15671:15680   */\n      dup4\n        /* \"#utility.yul\":15667:15685   */\n      add\n        /* \"#utility.yul\":15660:15694   */\n      mstore\n        /* \"#utility.yul\":15731:15734   */\n      0xa0\n        /* \"#utility.yul\":15725:15728   */\n      0x80\n        /* \"#utility.yul\":15714:15723   */\n      dup4\n        /* \"#utility.yul\":15710:15729   */\n      add\n        /* \"#utility.yul\":15703:15735   */\n      mstore\n        /* \"#utility.yul\":15752:15798   */\n      tag_550\n        /* \"#utility.yul\":15793:15796   */\n      0xa0\n        /* \"#utility.yul\":15782:15791   */\n      dup4\n        /* \"#utility.yul\":15778:15797   */\n      add\n        /* \"#utility.yul\":15770:15776   */\n      dup5\n        /* \"#utility.yul\":15752:15798   */\n      tag_427\n      jump\t// in\n    tag_550:\n        /* \"#utility.yul\":15744:15798   */\n      swap8\n        /* \"#utility.yul\":15220:15804   */\n      swap7\n      pop\n      pop\n      pop\n      pop\n      pop\n      pop\n      pop\n      jump\t// out\n        /* \"#utility.yul\":15809:16058   */\n    tag_372:\n        /* \"#utility.yul\":15878:15884   */\n      0x00\n        /* \"#utility.yul\":15931:15933   */\n      0x20\n        /* \"#utility.yul\":15919:15928   */\n      dup3\n        /* \"#utility.yul\":15910:15917   */\n      dup5\n        /* \"#utility.yul\":15906:15929   */\n      sub\n        /* \"#utility.yul\":15902:15934   */\n      slt\n        /* \"#utility.yul\":15899:15951   */\n      iszero\n      tag_552\n      jumpi\n        /* \"#utility.yul\":15947:15948   */\n      0x00\n        /* \"#utility.yul\":15944:15945   */\n      dup1\n        /* \"#utility.yul\":15937:15949   */\n      revert\n        /* \"#utility.yul\":15899:15951   */\n    tag_552:\n        /* \"#utility.yul\":15979:15988   */\n      dup2\n        /* \"#utility.yul\":15973:15989   */\n      mload\n        /* \"#utility.yul\":15998:16028   */\n      tag_445\n        /* \"#utility.yul\":16022:16027   */\n      dup2\n        /* \"#utility.yul\":15998:16028   */\n      tag_426\n      jump\t// in\n        /* \"#utility.yul\":16063:16913   */\n    tag_388:\n        /* \"#utility.yul\":16385:16389   */\n      0x00\n      sub(shl(0xa0, 0x01), 0x01)\n        /* \"#utility.yul\":16495:16497   */\n      dup1\n        /* \"#utility.yul\":16487:16493   */\n      dup9\n        /* \"#utility.yul\":16483:16498   */\n      and\n        /* \"#utility.yul\":16472:16481   */\n      dup4\n        /* \"#utility.yul\":16465:16499   */\n      mstore\n        /* \"#utility.yul\":16547:16549   */\n      dup1\n        /* \"#utility.yul\":16539:16545   */\n      dup8\n        /* \"#utility.yul\":16535:16550   */\n      and\n        /* \"#utility.yul\":16530:16532   */\n      0x20\n        /* \"#utility.yul\":16519:16528   */\n      dup5\n        /* \"#utility.yul\":16515:16533   */\n      add\n        /* \"#utility.yul\":16508:16551   */\n      mstore\n      pop\n        /* \"#utility.yul\":16587:16590   */\n      0xa0\n        /* \"#utility.yul\":16582:16584   */\n      0x40\n        /* \"#utility.yul\":16571:16580   */\n      dup4\n        /* \"#utility.yul\":16567:16585   */\n      add\n        /* \"#utility.yul\":16560:16591   */\n      mstore\n        /* \"#utility.yul\":16614:16671   */\n      tag_555\n        /* \"#utility.yul\":16666:16669   */\n      0xa0\n        /* \"#utility.yul\":16655:16664   */\n      dup4\n        /* \"#utility.yul\":16651:16670   */\n      add\n        /* \"#utility.yul\":16643:16649   */\n      dup7\n        /* \"#utility.yul\":16614:16671   */\n      tag_432\n      jump\t// in\n    tag_555:\n        /* \"#utility.yul\":16719:16728   */\n      dup3\n        /* \"#utility.yul\":16711:16717   */\n      dup2\n        /* \"#utility.yul\":16707:16729   */\n      sub\n        /* \"#utility.yul\":16702:16704   */\n      0x60\n        /* \"#utility.yul\":16691:16700   */\n      dup5\n        /* \"#utility.yul\":16687:16705   */\n      add\n        /* \"#utility.yul\":16680:16730   */\n      mstore\n        /* \"#utility.yul\":16753:16797   */\n      tag_556\n        /* \"#utility.yul\":16790:16796   */\n      dup2\n        /* \"#utility.yul\":16782:16788   */\n      dup7\n        /* \"#utility.yul\":16753:16797   */\n      tag_432\n      jump\t// in\n    tag_556:\n        /* \"#utility.yul\":16739:16797   */\n      swap1\n      pop\n        /* \"#utility.yul\":16846:16855   */\n      dup3\n        /* \"#utility.yul\":16838:16844   */\n      dup2\n        /* \"#utility.yul\":16834:16856   */\n      sub\n        /* \"#utility.yul\":16828:16831   */\n      0x80\n        /* \"#utility.yul\":16817:16826   */\n      dup5\n        /* \"#utility.yul\":16813:16832   */\n      add\n        /* \"#utility.yul\":16806:16857   */\n      mstore\n        /* \"#utility.yul\":16874:16907   */\n      tag_557\n        /* \"#utility.yul\":16900:16906   */\n      dup2\n        /* \"#utility.yul\":16892:16898   */\n      dup6\n        /* \"#utility.yul\":16874:16907   */\n      tag_427\n      jump\t// in\n    tag_557:\n        /* \"#utility.yul\":16866:16907   */\n      swap9\n        /* \"#utility.yul\":16063:16913   */\n      swap8\n      pop\n      pop\n      pop\n      pop\n      pop\n      pop\n      pop\n      pop\n      jump\t// out\n        /* \"#utility.yul\":17363:17828   */\n    tag_424:\n        /* \"#utility.yul\":17620:17622   */\n      0x40\n        /* \"#utility.yul\":17609:17618   */\n      dup2\n        /* \"#utility.yul\":17602:17623   */\n      mstore\n        /* \"#utility.yul\":17583:17587   */\n      0x00\n        /* \"#utility.yul\":17646:17702   */\n      tag_560\n        /* \"#utility.yul\":17698:17700   */\n      0x40\n        /* \"#utility.yul\":17687:17696   */\n      dup4\n        /* \"#utility.yul\":17683:17701   */\n      add\n        /* \"#utility.yul\":17675:17681   */\n      dup6\n        /* \"#utility.yul\":17646:17702   */\n      tag_432\n      jump\t// in\n    tag_560:\n        /* \"#utility.yul\":17750:17759   */\n      dup3\n        /* \"#utility.yul\":17742:17748   */\n      dup2\n        /* \"#utility.yul\":17738:17760   */\n      sub\n        /* \"#utility.yul\":17733:17735   */\n      0x20\n        /* \"#utility.yul\":17722:17731   */\n      dup5\n        /* \"#utility.yul\":17718:17736   */\n      add\n        /* \"#utility.yul\":17711:17761   */\n      mstore\n        /* \"#utility.yul\":17778:17822   */\n      tag_561\n        /* \"#utility.yul\":17815:17821   */\n      dup2\n        /* \"#utility.yul\":17807:17813   */\n      dup6\n        /* \"#utility.yul\":17778:17822   */\n      tag_432\n      jump\t// in\n    tag_561:\n        /* \"#utility.yul\":17770:17822   */\n      swap6\n        /* \"#utility.yul\":17363:17828   */\n      swap5\n      pop\n      pop\n      pop\n      pop\n      pop\n      jump\t// out\n\n    auxdata: 0xa2646970667358221220fe867b3bc162c4ea0ff6812bdd180df1923f8231a2bea31e90bf7610fc46e7ea64736f6c63430008190033\n}\n",
    "bytecode": {
      "linkReferences": {},
      "object": "608060405234801561000f575f80fd5b5060405161221738038061221783398101604081905261002e916101a8565b60408051602081019091525f8152819061004781610118565b506001600160a01b03811661007557604051631e4fbdf760e01b81525f600482015260240160405180910390fd5b61007e81610128565b506004869055600585905560068490556100988342610288565b60075560096100a78382610331565b50600a80546001600160a01b0319166001600160a01b03831690811790915560408051918252602082018890528101869052606081018590527f1804eb76dc9809be7ef188388aa1aeb765881fd848377be891234e5c584345fe9060800160405180910390a15050505050506103f0565b60026101248282610331565b5050565b600380546001600160a01b038381166001600160a01b0319831681179093556040519116919082907f8be0079c531659141344cd1fd0a4f28419497f9722a3daafe3b4186f6b6457e0905f90a35050565b634e487b7160e01b5f52604160045260245ffd5b80516001600160a01b03811681146101a3575f80fd5b919050565b5f805f805f8060c087890312156101bd575f80fd5b86516020880151604089015160608a015160808b0151939950919750955093506001600160401b03808211156101f1575f80fd5b818901915089601f830112610204575f80fd5b81518181111561021657610216610179565b604051601f8201601f19908116603f0116810190838211818310171561023e5761023e610179565b816040528281528c6020848701011115610256575f80fd5b8260208601602083015e5f60208483010152809650505050505061027c60a0880161018d565b90509295509295509295565b808201808211156102a757634e487b7160e01b5f52601160045260245ffd5b92915050565b600181811c908216806102c157607f821691505b6020821081036102df57634e487b7160e01b5f52602260045260245ffd5b50919050565b601f82111561032c57805f5260205f20601f840160051c8101602085101561030a5750805b601f840160051c820191505b81811015610329575f8155600101610316565b50505b505050565b81516001600160401b0381111561034a5761034a610179565b61035e8161035884546102ad565b846102e5565b602080601f831160018114610391575f841561037a5750858301515b5f19600386901b1c1916600185901b1785556103e8565b5f85815260208120601f198616915b828110156103bf578886015182559484019460019091019084016103a0565b50858210156103dc57878501515f19600388901b60f8161c191681555b505060018460011b0185555b505050505050565b611e1a806103fd5f395ff3fe6080604052600436106101a3575f3560e01c80637c3a00fd116100e7578063a3b9e39d11610087578063e985e9c511610062578063e985e9c51461044a578063f242432a14610491578063f2fde38b146104b0578063f966ade7146104cf575f80fd5b8063a3b9e39d146103f6578063ad044f4914610420578063b05f04d314610435575f80fd5b806389376e40116100c257806389376e40146103915780638da5cb5b146103a55780639d585f7f146103c2578063a22cb465146103d7575f80fd5b80637c3a00fd146103325780637df1f1b914610347578063846b909a1461037e575f80fd5b80632cca0cde116101525780636164051a1161012d5780636164051a146102d7578063715018a6146102f55780637284e41614610309578063796b23bb1461031d575f80fd5b80632cca0cde146102785780632eb2c2d61461028c5780634e1273f4146102ab575f80fd5b80630fb5a6b4116101825780630fb5a6b41461023457806322f3e2d41461024957806324600fc314610262575f80fd5b8062fdd58e146101a757806301ffc9a7146101d95780630e89341c14610208575b5f80fd5b3480156101b2575f80fd5b506101c66101c136600461176a565b6104d7565b6040519081526020015b60405180910390f35b3480156101e4575f80fd5b506101f86101f33660046117a7565b6104fe565b60405190151581526020016101d0565b348015610213575f80fd5b506102276102223660046117c9565b61054d565b6040516101d0919061180e565b34801561023f575f80fd5b506101c660065481565b348015610254575f80fd5b50600c546101f89060ff1681565b34801561026d575f80fd5b506102766105df565b005b348015610283575f80fd5b506101c6600181565b348015610297575f80fd5b506102766102a6366004611960565b61071f565b3480156102b6575f80fd5b506102ca6102c5366004611a03565b6107a4565b6040516101d09190611af7565b3480156102e2575f80fd5b50600c546101f890610100900460ff1681565b348015610300575f80fd5b5061027661086f565b348015610314575f80fd5b50610227610882565b348015610328575f80fd5b506101c660075481565b34801561033d575f80fd5b506101c660055481565b348015610352575f80fd5b50600a54610366906001600160a01b031681565b6040516001600160a01b0390911681526020016101d0565b61027661038c3660046117c9565b61090e565b34801561039c575f80fd5b50610276610b03565b3480156103b0575f80fd5b506003546001600160a01b0316610366565b3480156103cd575f80fd5b506101c660045481565b3480156103e2575f80fd5b506102766103f1366004611b09565b610c3d565b348015610401575f80fd5b5061040a610c48565b6040516101d09a99989796959493929190611b42565b34801561042b575f80fd5b506101c6600b5481565b348015610440575f80fd5b506101c660085481565b348015610455575f80fd5b506101f8610464366004611baa565b6001600160a01b039182165f90815260016020908152604080832093909416825291909152205460ff1690565b34801561049c575f80fd5b506102766104ab366004611bdb565b610d3d565b3480156104bb575f80fd5b506102766104ca366004611c3b565b610dba565b610276610df7565b5f818152602081815260408083206001600160a01b03861684529091529020545b92915050565b5f6001600160e01b03198216636cdb3d1360e11b148061052e57506001600160e01b031982166303a24d0760e21b145b806104f857506301ffc9a760e01b6001600160e01b03198316146104f8565b60606002805461055c90611c54565b80601f016020809104026020016040519081016040528092919081815260200182805461058890611c54565b80156105d35780601f106105aa576101008083540402835291602001916105d3565b820191905f5260205f20905b8154815290600101906020018083116105b657829003601f168201915b50505050509050919050565b60075442116106355760405162461bcd60e51b815260206004820152601c60248201527f46756e64696e6720706572696f6420686173206e6f7420656e6465640000000060448201526064015b60405180910390fd5b600c5460ff16156106885760405162461bcd60e51b815260206004820152601660248201527f4c6f616e20697320616c72656164792061637469766500000000000000000000604482015260640161062c565b5f6106943360016104d7565b90505f81116106e55760405162461bcd60e51b815260206004820152601460248201527f4e6f2066756e647320746f207769746864726177000000000000000000000000604482015260640161062c565b6106f133600183610f65565b604051339082156108fc029083905f818181858888f1935050505015801561071b573d5f803e3d5ffd5b5050565b336001600160a01b038616811480159061075e57506001600160a01b038087165f9081526001602090815260408083209385168352929052205460ff16155b1561078f5760405163711bec9160e11b81526001600160a01b0380831660048301528716602482015260440161062c565b61079c8686868686610fcb565b505050505050565b606081518351146107d55781518351604051635b05999160e01b81526004810192909252602482015260440161062c565b5f835167ffffffffffffffff8111156107f0576107f0611820565b604051908082528060200260200182016040528015610819578160200160208202803683370190505b5090505f5b845181101561086757602080820286010151610842906020808402870101516104d7565b82828151811061085457610854611c8c565b602090810291909101015260010161081e565b509392505050565b610877611029565b6108805f611056565b565b6009805461088f90611c54565b80601f01602080910402602001604051908101604052809291908181526020018280546108bb90611c54565b80156109065780601f106108dd57610100808354040283529160200191610906565b820191905f5260205f20905b8154815290600101906020018083116108e957829003601f168201915b505050505081565b600754421061095f5760405162461bcd60e51b815260206004820152601860248201527f46756e64696e6720706572696f642068617320656e6465640000000000000000604482015260640161062c565b600c5460ff16156109b25760405162461bcd60e51b815260206004820152601660248201527f4c6f616e20697320616c72656164792061637469766500000000000000000000604482015260640161062c565b60045481600b546109c39190611cb4565b1115610a375760405162461bcd60e51b815260206004820152602760248201527f46756e64696e6720616d6f756e742065786365656473206c6f616e207265717560448201527f6972656d656e7400000000000000000000000000000000000000000000000000606482015260840161062c565b610a523360018360405180602001604052805f8152506110bf565b80600b5f828254610a639190611cb4565b9091555050600454600b5403610ac757600c805460ff19166001179055600654610a8d9042611cb4565b600855600b546040519081527fcb4c701313b0db2ed5902d923d21b853d01e3a14cb2af2dce00e309eaa0e134c9060200160405180910390a15b60408051338152602081018390527f726d5f1a838fe31748f737fa3ae5539ccff95952adfc593a1299532b643ff7a8910160405180910390a150565b600c54610100900460ff16610b5a5760405162461bcd60e51b815260206004820152601660248201527f4c6f616e206973206e6f74207265706169642079657400000000000000000000604482015260640161062c565b5f610b663360016104d7565b90505f8111610bb75760405162461bcd60e51b815260206004820152601360248201527f4e6f2072657475726e7320746f20636c61696d00000000000000000000000000604482015260640161062c565b5f612710600554600454610bcb9190611cc7565b610bd59190611cde565b90505f6004548284610be79190611cc7565b610bf19190611cde565b90505f610bfe8285611cb4565b9050610c0c33600186610f65565b604051339082156108fc029083905f818181858888f19350505050158015610c36573d5f803e3d5ffd5b5050505050565b61071b33838361111a565b600454600554600654600754600854600a54600b54600c54600980545f998a998a998a998a996060998b998a998a998a9990936001600160a01b0316929160ff8082169261010090920416908590610c9f90611c54565b80601f0160208091040260200160405190810160405280929190818152602001828054610ccb90611c54565b8015610d165780601f10610ced57610100808354040283529160200191610d16565b820191905f5260205f20905b815481529060010190602001808311610cf957829003601f168201915b50505050509450995099509950995099509950995099509950995090919293949596979899565b336001600160a01b0386168114801590610d7c57506001600160a01b038087165f9081526001602090815260408083209385168352929052205460ff16155b15610dad5760405163711bec9160e11b81526001600160a01b0380831660048301528716602482015260440161062c565b61079c86868686866111ae565b610dc2611029565b6001600160a01b038116610deb57604051631e4fbdf760e01b81525f600482015260240161062c565b610df481611056565b50565b610dff611029565b600c5460ff16610e515760405162461bcd60e51b815260206004820152601260248201527f4c6f616e206973206e6f74206163746976650000000000000000000000000000604482015260640161062c565b600c54610100900460ff1615610ea95760405162461bcd60e51b815260206004820152601660248201527f4c6f616e20697320616c72656164792072657061696400000000000000000000604482015260640161062c565b5f612710600554600454610ebd9190611cc7565b610ec79190611cde565b90505f81600454610ed89190611cb4565b905080341015610f2a5760405162461bcd60e51b815260206004820152601d60248201527f496e73756666696369656e742072657061796d656e7420616d6f756e74000000604482015260640161062c565b600c805461ff0019166101001790556040517f1062e18f9d21decf38f145fc9b437cd2c70e09252a729f9830b75ffdaaf37894905f90a15050565b6001600160a01b038316610f8d57604051626a0d4560e21b81525f600482015260240161062c565b604080516001808252602082018590528183019081526060820184905260a082019092525f60808201818152919291610c369187918590859061123a565b6001600160a01b038416610ff457604051632bfa23e760e11b81525f600482015260240161062c565b6001600160a01b03851661101c57604051626a0d4560e21b81525f600482015260240161062c565b610c36858585858561123a565b6003546001600160a01b031633146108805760405163118cdaa760e01b815233600482015260240161062c565b600380546001600160a01b038381167fffffffffffffffffffffffff0000000000000000000000000000000000000000831681179093556040519116919082907f8be0079c531659141344cd1fd0a4f28419497f9722a3daafe3b4186f6b6457e0905f90a35050565b6001600160a01b0384166110e857604051632bfa23e760e11b81525f600482015260240161062c565b6040805160018082526020820186905281830190815260608201859052608082019092529061079c5f8784848761123a565b6001600160a01b0382166111425760405162ced3e160e81b81525f600482015260240161062c565b6001600160a01b038381165f81815260016020908152604080832094871680845294825291829020805460ff191686151590811790915591519182527f17307eab39ab6107e8899845ad3d59bd9653f200f220920489ca2b5937696c31910160405180910390a3505050565b6001600160a01b0384166111d757604051632bfa23e760e11b81525f600482015260240161062c565b6001600160a01b0385166111ff57604051626a0d4560e21b81525f600482015260240161062c565b60408051600180825260208201869052818301908152606082018590526080820190925290611231878784848761123a565b50505050505050565b6112468585858561128d565b6001600160a01b03841615610c36578251339060010361127f5760208481015190840151611278838989858589611338565b505061079c565b61079c818787878787611459565b61129984848484611540565b6001600160a01b03841615806112b657506001600160a01b038316155b61133257600c5460ff166113325760405162461bcd60e51b815260206004820152603360248201527f546f6b656e7320617265206e6f74207472616e7366657261626c6520756e746960448201527f6c206c6f616e2069732061637469766174656400000000000000000000000000606482015260840161062c565b50505050565b6001600160a01b0384163b1561079c5760405163f23a6e6160e01b81526001600160a01b0385169063f23a6e619061137c9089908990889088908890600401611cfd565b6020604051808303815f875af19250505080156113b6575060408051601f3d908101601f191682019092526113b391810190611d3f565b60015b61141d573d8080156113e3576040519150601f19603f3d011682016040523d82523d5f602084013e6113e8565b606091505b5080515f0361141557604051632bfa23e760e11b81526001600160a01b038616600482015260240161062c565b805181602001fd5b6001600160e01b0319811663f23a6e6160e01b1461123157604051632bfa23e760e11b81526001600160a01b038616600482015260240161062c565b6001600160a01b0384163b1561079c5760405163bc197c8160e01b81526001600160a01b0385169063bc197c819061149d9089908990889088908890600401611d5a565b6020604051808303815f875af19250505080156114d7575060408051601f3d908101601f191682019092526114d491810190611d3f565b60015b611504573d8080156113e3576040519150601f19603f3d011682016040523d82523d5f602084013e6113e8565b6001600160e01b0319811663bc197c8160e01b1461123157604051632bfa23e760e11b81526001600160a01b038616600482015260240161062c565b805182511461156f5781518151604051635b05999160e01b81526004810192909252602482015260440161062c565b335f5b8351811015611671576020818102858101820151908501909101516001600160a01b03881615611623575f828152602081815260408083206001600160a01b038c168452909152902054818110156115fd576040516303dee4c560e01b81526001600160a01b038a16600482015260248101829052604481018390526064810184905260840161062c565b5f838152602081815260408083206001600160a01b038d16845290915290209082900390555b6001600160a01b03871615611667575f828152602081815260408083206001600160a01b038b16845290915281208054839290611661908490611cb4565b90915550505b5050600101611572565b5082516001036116f15760208301515f906020840151909150856001600160a01b0316876001600160a01b0316846001600160a01b03167fc3d58168c5ae7397731d063d5bbf3d657854427343f4c083240f7aacaa2d0f6285856040516116e2929190918252602082015260400190565b60405180910390a45050610c36565b836001600160a01b0316856001600160a01b0316826001600160a01b03167f4a39dc06d4c0dbc64b70af90fd698a233a518aa5d07e595d983b8c0526c8f7fb8686604051611740929190611db7565b60405180910390a45050505050565b80356001600160a01b0381168114611765575f80fd5b919050565b5f806040838503121561177b575f80fd5b6117848361174f565b946020939093013593505050565b6001600160e01b031981168114610df4575f80fd5b5f602082840312156117b7575f80fd5b81356117c281611792565b9392505050565b5f602082840312156117d9575f80fd5b5035919050565b5f81518084528060208401602086015e5f602082860101526020601f19601f83011685010191505092915050565b602081525f6117c260208301846117e0565b634e487b7160e01b5f52604160045260245ffd5b604051601f8201601f1916810167ffffffffffffffff8111828210171561185d5761185d611820565b604052919050565b5f67ffffffffffffffff82111561187e5761187e611820565b5060051b60200190565b5f82601f830112611897575f80fd5b813560206118ac6118a783611865565b611834565b8083825260208201915060208460051b8701019350868411156118cd575f80fd5b602086015b848110156118e957803583529183019183016118d2565b509695505050505050565b5f82601f830112611903575f80fd5b813567ffffffffffffffff81111561191d5761191d611820565b611930601f8201601f1916602001611834565b818152846020838601011115611944575f80fd5b816020850160208301375f918101602001919091529392505050565b5f805f805f60a08688031215611974575f80fd5b61197d8661174f565b945061198b6020870161174f565b9350604086013567ffffffffffffffff808211156119a7575f80fd5b6119b389838a01611888565b945060608801359150808211156119c8575f80fd5b6119d489838a01611888565b935060808801359150808211156119e9575f80fd5b506119f6888289016118f4565b9150509295509295909350565b5f8060408385031215611a14575f80fd5b823567ffffffffffffffff80821115611a2b575f80fd5b818501915085601f830112611a3e575f80fd5b81356020611a4e6118a783611865565b82815260059290921b84018101918181019089841115611a6c575f80fd5b948201945b83861015611a9157611a828661174f565b82529482019490820190611a71565b96505086013592505080821115611aa6575f80fd5b50611ab385828601611888565b9150509250929050565b5f815180845260208085019450602084015f5b83811015611aec57815187529582019590820190600101611ad0565b509495945050505050565b602081525f6117c26020830184611abd565b5f8060408385031215611b1a575f80fd5b611b238361174f565b915060208301358015158114611b37575f80fd5b809150509250929050565b5f6101408c83528b60208401528a60408401528960608401528860808401528060a0840152611b73818401896117e0565b6001600160a01b039790971660c0840152505060e08101939093529015156101008301521515610120909101529695505050505050565b5f8060408385031215611bbb575f80fd5b611bc48361174f565b9150611bd26020840161174f565b90509250929050565b5f805f805f60a08688031215611bef575f80fd5b611bf88661174f565b9450611c066020870161174f565b93506040860135925060608601359150608086013567ffffffffffffffff811115611c2f575f80fd5b6119f6888289016118f4565b5f60208284031215611c4b575f80fd5b6117c28261174f565b600181811c90821680611c6857607f821691505b602082108103611c8657634e487b7160e01b5f52602260045260245ffd5b50919050565b634e487b7160e01b5f52603260045260245ffd5b634e487b7160e01b5f52601160045260245ffd5b808201808211156104f8576104f8611ca0565b80820281158282048414176104f8576104f8611ca0565b5f82611cf857634e487b7160e01b5f52601260045260245ffd5b500490565b5f6001600160a01b03808816835280871660208401525084604083015283606083015260a06080830152611d3460a08301846117e0565b979650505050505050565b5f60208284031215611d4f575f80fd5b81516117c281611792565b5f6001600160a01b03808816835280871660208401525060a06040830152611d8560a0830186611abd565b8281036060840152611d978186611abd565b90508281036080840152611dab81856117e0565b98975050505050505050565b604081525f611dc96040830185611abd565b8281036020840152611ddb8185611abd565b9594505050505056fea2646970667358221220fe867b3bc162c4ea0ff6812bdd180df1923f8231a2bea31e90bf7610fc46e7ea64736f6c63430008190033",
      "opcodes": "PUSH1 0x80 PUSH1 0x40 MSTORE CALLVALUE DUP1 ISZERO PUSH2 0xF JUMPI PUSH0 DUP1 REVERT JUMPDEST POP PUSH1 0x40 MLOAD PUSH2 0x2217 CODESIZE SUB DUP1 PUSH2 0x2217 DUP4 CODECOPY DUP2 ADD PUSH1 0x40 DUP2 SWAP1 MSTORE PUSH2 0x2E SWAP2 PUSH2 0x1A8 JUMP JUMPDEST PUSH1 0x40 DUP1 MLOAD PUSH1 0x20 DUP2 ADD SWAP1 SWAP2 MSTORE PUSH0 DUP2 MSTORE DUP2 SWAP1 PUSH2 0x47 DUP2 PUSH2 0x118 JUMP JUMPDEST POP PUSH1 0x1 PUSH1 0x1 PUSH1 0xA0 SHL SUB DUP2 AND PUSH2 0x75 JUMPI PUSH1 0x40 MLOAD PUSH4 0x1E4FBDF7 PUSH1 0xE0 SHL DUP2 MSTORE PUSH0 PUSH1 0x4 DUP3 ADD MSTORE PUSH1 0x24 ADD PUSH1 0x40 MLOAD DUP1 SWAP2 SUB SWAP1 REVERT JUMPDEST PUSH2 0x7E DUP2 PUSH2 0x128 JUMP JUMPDEST POP PUSH1 0x4 DUP7 SWAP1 SSTORE PUSH1 0x5 DUP6 SWAP1 SSTORE PUSH1 0x6 DUP5 SWAP1 SSTORE PUSH2 0x98 DUP4 TIMESTAMP PUSH2 0x288 JUMP JUMPDEST PUSH1 0x7 SSTORE PUSH1 0x9 PUSH2 0xA7 DUP4 DUP3 PUSH2 0x331 JUMP JUMPDEST POP PUSH1 0xA DUP1 SLOAD PUSH1 0x1 PUSH1 0x1 PUSH1 0xA0 SHL SUB NOT AND PUSH1 0x1 PUSH1 0x1 PUSH1 0xA0 SHL SUB DUP4 AND SWAP1 DUP2 OR SWAP1 SWAP2 SSTORE PUSH1 0x40 DUP1 MLOAD SWAP2 DUP3 MSTORE PUSH1 0x20 DUP3 ADD DUP9 SWAP1 MSTORE DUP2 ADD DUP7 SWAP1 MSTORE PUSH1 0x60 DUP2 ADD DUP6 SWAP1 MSTORE PUSH32 0x1804EB76DC9809BE7EF188388AA1AEB765881FD848377BE891234E5C584345FE SWAP1 PUSH1 0x80 ADD PUSH1 0x40 MLOAD DUP1 SWAP2 SUB SWAP1 LOG1 POP POP POP POP POP POP PUSH2 0x3F0 JUMP JUMPDEST PUSH1 0x2 PUSH2 0x124 DUP3 DUP3 PUSH2 0x331 JUMP JUMPDEST POP POP JUMP JUMPDEST PUSH1 0x3 DUP1 SLOAD PUSH1 0x1 PUSH1 0x1 PUSH1 0xA0 SHL SUB DUP4 DUP2 AND PUSH1 0x1 PUSH1 0x1 PUSH1 0xA0 SHL SUB NOT DUP4 AND DUP2 OR SWAP1 SWAP4 SSTORE PUSH1 0x40 MLOAD SWAP2 AND SWAP2 SWAP1 DUP3 SWAP1 PUSH32 0x8BE0079C531659141344CD1FD0A4F28419497F9722A3DAAFE3B4186F6B6457E0 SWAP1 PUSH0 SWAP1 LOG3 POP POP JUMP JUMPDEST PUSH4 0x4E487B71 PUSH1 0xE0 SHL PUSH0 MSTORE PUSH1 0x41 PUSH1 0x4 MSTORE PUSH1 0x24 PUSH0 REVERT JUMPDEST DUP1 MLOAD PUSH1 0x1 PUSH1 0x1 PUSH1 0xA0 SHL SUB DUP2 AND DUP2 EQ PUSH2 0x1A3 JUMPI PUSH0 DUP1 REVERT JUMPDEST SWAP2 SWAP1 POP JUMP JUMPDEST PUSH0 DUP1 PUSH0 DUP1 PUSH0 DUP1 PUSH1 0xC0 DUP8 DUP10 SUB SLT ISZERO PUSH2 0x1BD JUMPI PUSH0 DUP1 REVERT JUMPDEST DUP7 MLOAD PUSH1 0x20 DUP9 ADD MLOAD PUSH1 0x40 DUP10 ADD MLOAD PUSH1 0x60 DUP11 ADD MLOAD PUSH1 0x80 DUP12 ADD MLOAD SWAP4 SWAP10 POP SWAP2 SWAP8 POP SWAP6 POP SWAP4 POP PUSH1 0x1 PUSH1 0x1 PUSH1 0x40 SHL SUB DUP1 DUP3 GT ISZERO PUSH2 0x1F1 JUMPI PUSH0 DUP1 REVERT JUMPDEST DUP2 DUP10 ADD SWAP2 POP DUP10 PUSH1 0x1F DUP4 ADD SLT PUSH2 0x204 JUMPI PUSH0 DUP1 REVERT JUMPDEST DUP2 MLOAD DUP2 DUP2 GT ISZERO PUSH2 0x216 JUMPI PUSH2 0x216 PUSH2 0x179 JUMP JUMPDEST PUSH1 0x40 MLOAD PUSH1 0x1F DUP3 ADD PUSH1 0x1F NOT SWAP1 DUP2 AND PUSH1 0x3F ADD AND DUP2 ADD SWAP1 DUP4 DUP3 GT DUP2 DUP4 LT OR ISZERO PUSH2 0x23E JUMPI PUSH2 0x23E PUSH2 0x179 JUMP JUMPDEST DUP2 PUSH1 0x40 MSTORE DUP3 DUP2 MSTORE DUP13 PUSH1 0x20 DUP5 DUP8 ADD ADD GT ISZERO PUSH2 0x256 JUMPI PUSH0 DUP1 REVERT JUMPDEST DUP3 PUSH1 0x20 DUP7 ADD PUSH1 0x20 DUP4 ADD MCOPY PUSH0 PUSH1 0x20 DUP5 DUP4 ADD ADD MSTORE DUP1 SWAP7 POP POP POP POP POP POP PUSH2 0x27C PUSH1 0xA0 DUP9 ADD PUSH2 0x18D JUMP JUMPDEST SWAP1 POP SWAP3 SWAP6 POP SWAP3 SWAP6 POP SWAP3 SWAP6 JUMP JUMPDEST DUP1 DUP3 ADD DUP1 DUP3 GT ISZERO PUSH2 0x2A7 JUMPI PUSH4 0x4E487B71 PUSH1 0xE0 SHL PUSH0 MSTORE PUSH1 0x11 PUSH1 0x4 MSTORE PUSH1 0x24 PUSH0 REVERT JUMPDEST SWAP3 SWAP2 POP POP JUMP JUMPDEST PUSH1 0x1 DUP2 DUP2 SHR SWAP1 DUP3 AND DUP1 PUSH2 0x2C1 JUMPI PUSH1 0x7F DUP3 AND SWAP2 POP JUMPDEST PUSH1 0x20 DUP3 LT DUP2 SUB PUSH2 0x2DF JUMPI PUSH4 0x4E487B71 PUSH1 0xE0 SHL PUSH0 MSTORE PUSH1 0x22 PUSH1 0x4 MSTORE PUSH1 0x24 PUSH0 REVERT JUMPDEST POP SWAP2 SWAP1 POP JUMP JUMPDEST PUSH1 0x1F DUP3 GT ISZERO PUSH2 0x32C JUMPI DUP1 PUSH0 MSTORE PUSH1 0x20 PUSH0 KECCAK256 PUSH1 0x1F DUP5 ADD PUSH1 0x5 SHR DUP2 ADD PUSH1 0x20 DUP6 LT ISZERO PUSH2 0x30A JUMPI POP DUP1 JUMPDEST PUSH1 0x1F DUP5 ADD PUSH1 0x5 SHR DUP3 ADD SWAP2 POP JUMPDEST DUP2 DUP2 LT ISZERO PUSH2 0x329 JUMPI PUSH0 DUP2 SSTORE PUSH1 0x1 ADD PUSH2 0x316 JUMP JUMPDEST POP POP JUMPDEST POP POP POP JUMP JUMPDEST DUP2 MLOAD PUSH1 0x1 PUSH1 0x1 PUSH1 0x40 SHL SUB DUP2 GT ISZERO PUSH2 0x34A JUMPI PUSH2 0x34A PUSH2 0x179 JUMP JUMPDEST PUSH2 0x35E DUP2 PUSH2 0x358 DUP5 SLOAD PUSH2 0x2AD JUMP JUMPDEST DUP5 PUSH2 0x2E5 JUMP JUMPDEST PUSH1 0x20 DUP1 PUSH1 0x1F DUP4 GT PUSH1 0x1 DUP2 EQ PUSH2 0x391 JUMPI PUSH0 DUP5 ISZERO PUSH2 0x37A JUMPI POP DUP6 DUP4 ADD MLOAD JUMPDEST PUSH0 NOT PUSH1 0x3 DUP7 SWAP1 SHL SHR NOT AND PUSH1 0x1 DUP6 SWAP1 SHL OR DUP6 SSTORE PUSH2 0x3E8 JUMP JUMPDEST PUSH0 DUP6 DUP2 MSTORE PUSH1 0x20 DUP2 KECCAK256 PUSH1 0x1F NOT DUP7 AND SWAP2 JUMPDEST DUP3 DUP2 LT ISZERO PUSH2 0x3BF JUMPI DUP9 DUP7 ADD MLOAD DUP3 SSTORE SWAP5 DUP5 ADD SWAP5 PUSH1 0x1 SWAP1 SWAP2 ADD SWAP1 DUP5 ADD PUSH2 0x3A0 JUMP JUMPDEST POP DUP6 DUP3 LT ISZERO PUSH2 0x3DC JUMPI DUP8 DUP6 ADD MLOAD PUSH0 NOT PUSH1 0x3 DUP9 SWAP1 SHL PUSH1 0xF8 AND SHR NOT AND DUP2 SSTORE JUMPDEST POP POP PUSH1 0x1 DUP5 PUSH1 0x1 SHL ADD DUP6 SSTORE JUMPDEST POP POP POP POP POP POP JUMP JUMPDEST PUSH2 0x1E1A DUP1 PUSH2 0x3FD PUSH0 CODECOPY PUSH0 RETURN INVALID PUSH1 0x80 PUSH1 0x40 MSTORE PUSH1 0x4 CALLDATASIZE LT PUSH2 0x1A3 JUMPI PUSH0 CALLDATALOAD PUSH1 0xE0 SHR DUP1 PUSH4 0x7C3A00FD GT PUSH2 0xE7 JUMPI DUP1 PUSH4 0xA3B9E39D GT PUSH2 0x87 JUMPI DUP1 PUSH4 0xE985E9C5 GT PUSH2 0x62 JUMPI DUP1 PUSH4 0xE985E9C5 EQ PUSH2 0x44A JUMPI DUP1 PUSH4 0xF242432A EQ PUSH2 0x491 JUMPI DUP1 PUSH4 0xF2FDE38B EQ PUSH2 0x4B0 JUMPI DUP1 PUSH4 0xF966ADE7 EQ PUSH2 0x4CF JUMPI PUSH0 DUP1 REVERT JUMPDEST DUP1 PUSH4 0xA3B9E39D EQ PUSH2 0x3F6 JUMPI DUP1 PUSH4 0xAD044F49 EQ PUSH2 0x420 JUMPI DUP1 PUSH4 0xB05F04D3 EQ PUSH2 0x435 JUMPI PUSH0 DUP1 REVERT JUMPDEST DUP1 PUSH4 0x89376E40 GT PUSH2 0xC2 JUMPI DUP1 PUSH4 0x89376E40 EQ PUSH2 0x391 JUMPI DUP1 PUSH4 0x8DA5CB5B EQ PUSH2 0x3A5 JUMPI DUP1 PUSH4 0x9D585F7F EQ PUSH2 0x3C2 JUMPI DUP1 PUSH4 0xA22CB465 EQ PUSH2 0x3D7 JUMPI PUSH0 DUP1 REVERT JUMPDEST DUP1 PUSH4 0x7C3A00FD EQ PUSH2 0x332 JUMPI DUP1 PUSH4 0x7DF1F1B9 EQ PUSH2 0x347 JUMPI DUP1 PUSH4 0x846B909A EQ PUSH2 0x37E JUMPI PUSH0 DUP1 REVERT JUMPDEST DUP1 PUSH4 0x2CCA0CDE GT PUSH2 0x152 JUMPI DUP1 PUSH4 0x6164051A GT PUSH2 0x12D JUMPI DUP1 PUSH4 0x6164051A EQ PUSH2 0x2D7 JUMPI DUP1 PUSH4 0x715018A6 EQ PUSH2 0x2F5 JUMPI DUP1 PUSH4 0x7284E416 EQ PUSH2 0x309 JUMPI DUP1 PUSH4 0x796B23BB EQ PUSH2 0x31D JUMPI PUSH0 DUP1 REVERT JUMPDEST DUP1 PUSH4 0x2CCA0CDE EQ PUSH2 0x278 JUMPI DUP1 PUSH4 0x2EB2C2D6 EQ PUSH2 0x28C JUMPI DUP1 PUSH4 0x4E1273F4 EQ PUSH2 0x2AB JUMPI PUSH0 DUP1 REVERT JUMPDEST DUP1 PUSH4 0xFB5A6B4 GT PUSH2 0x182 JUMPI DUP1 PUSH4 0xFB5A6B4 EQ PUSH2 0x234 JUMPI DUP1 PUSH4 0x22F3E2D4 EQ PUSH2 0x249 JUMPI DUP1 PUSH4 0x24600FC3 EQ PUSH2 0x262 JUMPI PUSH0 DUP1 REVERT JUMPDEST DUP1 PUSH3 0xFDD58E EQ PUSH2 0x1A7 JUMPI DUP1 PUSH4 0x1FFC9A7 EQ PUSH2 0x1D9 JUMPI DUP1 PUSH4 0xE89341C EQ PUSH2 0x208 JUMPI JUMPDEST PUSH0 DUP1 REVERT JUMPDEST CALLVALUE DUP1 ISZERO PUSH2 0x1B2 JUMPI PUSH0 DUP1 REVERT JUMPDEST POP PUSH2 0x1C6 PUSH2 0x1C1 CALLDATASIZE PUSH1 0x4 PUSH2 0x176A JUMP JUMPDEST PUSH2 0x4D7 JUMP JUMPDEST PUSH1 0x40 MLOAD SWAP1 DUP2 MSTORE PUSH1 0x20 ADD JUMPDEST PUSH1 0x40 MLOAD DUP1 SWAP2 SUB SWAP1 RETURN JUMPDEST CALLVALUE DUP1 ISZERO PUSH2 0x1E4 JUMPI PUSH0 DUP1 REVERT JUMPDEST POP PUSH2 0x1F8 PUSH2 0x1F3 CALLDATASIZE PUSH1 0x4 PUSH2 0x17A7 JUMP JUMPDEST PUSH2 0x4FE JUMP JUMPDEST PUSH1 0x40 MLOAD SWAP1 ISZERO ISZERO DUP2 MSTORE PUSH1 0x20 ADD PUSH2 0x1D0 JUMP JUMPDEST CALLVALUE DUP1 ISZERO PUSH2 0x213 JUMPI PUSH0 DUP1 REVERT JUMPDEST POP PUSH2 0x227 PUSH2 0x222 CALLDATASIZE PUSH1 0x4 PUSH2 0x17C9 JUMP JUMPDEST PUSH2 0x54D JUMP JUMPDEST PUSH1 0x40 MLOAD PUSH2 0x1D0 SWAP2 SWAP1 PUSH2 0x180E JUMP JUMPDEST CALLVALUE DUP1 ISZERO PUSH2 0x23F JUMPI PUSH0 DUP1 REVERT JUMPDEST POP PUSH2 0x1C6 PUSH1 0x6 SLOAD DUP2 JUMP JUMPDEST CALLVALUE DUP1 ISZERO PUSH2 0x254 JUMPI PUSH0 DUP1 REVERT JUMPDEST POP PUSH1 0xC SLOAD PUSH2 0x1F8 SWAP1 PUSH1 0xFF AND DUP2 JUMP JUMPDEST CALLVALUE DUP1 ISZERO PUSH2 0x26D JUMPI PUSH0 DUP1 REVERT JUMPDEST POP PUSH2 0x276 PUSH2 0x5DF JUMP JUMPDEST STOP JUMPDEST CALLVALUE DUP1 ISZERO PUSH2 0x283 JUMPI PUSH0 DUP1 REVERT JUMPDEST POP PUSH2 0x1C6 PUSH1 0x1 DUP2 JUMP JUMPDEST CALLVALUE DUP1 ISZERO PUSH2 0x297 JUMPI PUSH0 DUP1 REVERT JUMPDEST POP PUSH2 0x276 PUSH2 0x2A6 CALLDATASIZE PUSH1 0x4 PUSH2 0x1960 JUMP JUMPDEST PUSH2 0x71F JUMP JUMPDEST CALLVALUE DUP1 ISZERO PUSH2 0x2B6 JUMPI PUSH0 DUP1 REVERT JUMPDEST POP PUSH2 0x2CA PUSH2 0x2C5 CALLDATASIZE PUSH1 0x4 PUSH2 0x1A03 JUMP JUMPDEST PUSH2 0x7A4 JUMP JUMPDEST PUSH1 0x40 MLOAD PUSH2 0x1D0 SWAP2 SWAP1 PUSH2 0x1AF7 JUMP JUMPDEST CALLVALUE DUP1 ISZERO PUSH2 0x2E2 JUMPI PUSH0 DUP1 REVERT JUMPDEST POP PUSH1 0xC SLOAD PUSH2 0x1F8 SWAP1 PUSH2 0x100 SWAP1 DIV PUSH1 0xFF AND DUP2 JUMP JUMPDEST CALLVALUE DUP1 ISZERO PUSH2 0x300 JUMPI PUSH0 DUP1 REVERT JUMPDEST POP PUSH2 0x276 PUSH2 0x86F JUMP JUMPDEST CALLVALUE DUP1 ISZERO PUSH2 0x314 JUMPI PUSH0 DUP1 REVERT JUMPDEST POP PUSH2 0x227 PUSH2 0x882 JUMP JUMPDEST CALLVALUE DUP1 ISZERO PUSH2 0x328 JUMPI PUSH0 DUP1 REVERT JUMPDEST POP PUSH2 0x1C6 PUSH1 0x7 SLOAD DUP2 JUMP JUMPDEST CALLVALUE DUP1 ISZERO PUSH2 0x33D JUMPI PUSH0 DUP1 REVERT JUMPDEST POP PUSH2 0x1C6 PUSH1 0x5 SLOAD DUP2 JUMP JUMPDEST CALLVALUE DUP1 ISZERO PUSH2 0x352 JUMPI PUSH0 DUP1 REVERT JUMPDEST POP PUSH1 0xA SLOAD PUSH2 0x366 SWAP1 PUSH1 0x1 PUSH1 0x1 PUSH1 0xA0 SHL SUB AND DUP2 JUMP JUMPDEST PUSH1 0x40 MLOAD PUSH1 0x1 PUSH1 0x1 PUSH1 0xA0 SHL SUB SWAP1 SWAP2 AND DUP2 MSTORE PUSH1 0x20 ADD PUSH2 0x1D0 JUMP JUMPDEST PUSH2 0x276 PUSH2 0x38C CALLDATASIZE PUSH1 0x4 PUSH2 0x17C9 JUMP JUMPDEST PUSH2 0x90E JUMP JUMPDEST CALLVALUE DUP1 ISZERO PUSH2 0x39C JUMPI PUSH0 DUP1 REVERT JUMPDEST POP PUSH2 0x276 PUSH2 0xB03 JUMP JUMPDEST CALLVALUE DUP1 ISZERO PUSH2 0x3B0 JUMPI PUSH0 DUP1 REVERT JUMPDEST POP PUSH1 0x3 SLOAD PUSH1 0x1 PUSH1 0x1 PUSH1 0xA0 SHL SUB AND PUSH2 0x366 JUMP JUMPDEST CALLVALUE DUP1 ISZERO PUSH2 0x3CD JUMPI PUSH0 DUP1 REVERT JUMPDEST POP PUSH2 0x1C6 PUSH1 0x4 SLOAD DUP2 JUMP JUMPDEST CALLVALUE DUP1 ISZERO PUSH2 0x3E2 JUMPI PUSH0 DUP1 REVERT JUMPDEST POP PUSH2 0x276 PUSH2 0x3F1 CALLDATASIZE PUSH1 0x4 PUSH2 0x1B09 JUMP JUMPDEST PUSH2 0xC3D JUMP JUMPDEST CALLVALUE DUP1 ISZERO PUSH2 0x401 JUMPI PUSH0 DUP1 REVERT JUMPDEST POP PUSH2 0x40A PUSH2 0xC48 JUMP JUMPDEST PUSH1 0x40 MLOAD PUSH2 0x1D0 SWAP11 SWAP10 SWAP9 SWAP8 SWAP7 SWAP6 SWAP5 SWAP4 SWAP3 SWAP2 SWAP1 PUSH2 0x1B42 JUMP JUMPDEST CALLVALUE DUP1 ISZERO PUSH2 0x42B JUMPI PUSH0 DUP1 REVERT JUMPDEST POP PUSH2 0x1C6 PUSH1 0xB SLOAD DUP2 JUMP JUMPDEST CALLVALUE DUP1 ISZERO PUSH2 0x440 JUMPI PUSH0 DUP1 REVERT JUMPDEST POP PUSH2 0x1C6 PUSH1 0x8 SLOAD DUP2 JUMP JUMPDEST CALLVALUE DUP1 ISZERO PUSH2 0x455 JUMPI PUSH0 DUP1 REVERT JUMPDEST POP PUSH2 0x1F8 PUSH2 0x464 CALLDATASIZE PUSH1 0x4 PUSH2 0x1BAA JUMP JUMPDEST PUSH1 0x1 PUSH1 0x1 PUSH1 0xA0 SHL SUB SWAP2 DUP3 AND PUSH0 SWAP1 DUP2 MSTORE PUSH1 0x1 PUSH1 0x20 SWAP1 DUP2 MSTORE PUSH1 0x40 DUP1 DUP4 KECCAK256 SWAP4 SWAP1 SWAP5 AND DUP3 MSTORE SWAP2 SWAP1 SWAP2 MSTORE KECCAK256 SLOAD PUSH1 0xFF AND SWAP1 JUMP JUMPDEST CALLVALUE DUP1 ISZERO PUSH2 0x49C JUMPI PUSH0 DUP1 REVERT JUMPDEST POP PUSH2 0x276 PUSH2 0x4AB CALLDATASIZE PUSH1 0x4 PUSH2 0x1BDB JUMP JUMPDEST PUSH2 0xD3D JUMP JUMPDEST CALLVALUE DUP1 ISZERO PUSH2 0x4BB JUMPI PUSH0 DUP1 REVERT JUMPDEST POP PUSH2 0x276 PUSH2 0x4CA CALLDATASIZE PUSH1 0x4 PUSH2 0x1C3B JUMP JUMPDEST PUSH2 0xDBA JUMP JUMPDEST PUSH2 0x276 PUSH2 0xDF7 JUMP JUMPDEST PUSH0 DUP2 DUP2 MSTORE PUSH1 0x20 DUP2 DUP2 MSTORE PUSH1 0x40 DUP1 DUP4 KECCAK256 PUSH1 0x1 PUSH1 0x1 PUSH1 0xA0 SHL SUB DUP7 AND DUP5 MSTORE SWAP1 SWAP2 MSTORE SWAP1 KECCAK256 SLOAD JUMPDEST SWAP3 SWAP2 POP POP JUMP JUMPDEST PUSH0 PUSH1 0x1 PUSH1 0x1 PUSH1 0xE0 SHL SUB NOT DUP3 AND PUSH4 0x6CDB3D13 PUSH1 0xE1 SHL EQ DUP1 PUSH2 0x52E JUMPI POP PUSH1 0x1 PUSH1 0x1 PUSH1 0xE0 SHL SUB NOT DUP3 AND PUSH4 0x3A24D07 PUSH1 0xE2 SHL EQ JUMPDEST DUP1 PUSH2 0x4F8 JUMPI POP PUSH4 0x1FFC9A7 PUSH1 0xE0 SHL PUSH1 0x1 PUSH1 0x1 PUSH1 0xE0 SHL SUB NOT DUP4 AND EQ PUSH2 0x4F8 JUMP JUMPDEST PUSH1 0x60 PUSH1 0x2 DUP1 SLOAD PUSH2 0x55C SWAP1 PUSH2 0x1C54 JUMP JUMPDEST DUP1 PUSH1 0x1F ADD PUSH1 0x20 DUP1 SWAP2 DIV MUL PUSH1 0x20 ADD PUSH1 0x40 MLOAD SWAP1 DUP2 ADD PUSH1 0x40 MSTORE DUP1 SWAP3 SWAP2 SWAP1 DUP2 DUP2 MSTORE PUSH1 0x20 ADD DUP3 DUP1 SLOAD PUSH2 0x588 SWAP1 PUSH2 0x1C54 JUMP JUMPDEST DUP1 ISZERO PUSH2 0x5D3 JUMPI DUP1 PUSH1 0x1F LT PUSH2 0x5AA JUMPI PUSH2 0x100 DUP1 DUP4 SLOAD DIV MUL DUP4 MSTORE SWAP2 PUSH1 0x20 ADD SWAP2 PUSH2 0x5D3 JUMP JUMPDEST DUP3 ADD SWAP2 SWAP1 PUSH0 MSTORE PUSH1 0x20 PUSH0 KECCAK256 SWAP1 JUMPDEST DUP2 SLOAD DUP2 MSTORE SWAP1 PUSH1 0x1 ADD SWAP1 PUSH1 0x20 ADD DUP1 DUP4 GT PUSH2 0x5B6 JUMPI DUP3 SWAP1 SUB PUSH1 0x1F AND DUP3 ADD SWAP2 JUMPDEST POP POP POP POP POP SWAP1 POP SWAP2 SWAP1 POP JUMP JUMPDEST PUSH1 0x7 SLOAD TIMESTAMP GT PUSH2 0x635 JUMPI PUSH1 0x40 MLOAD PUSH3 0x461BCD PUSH1 0xE5 SHL DUP2 MSTORE PUSH1 0x20 PUSH1 0x4 DUP3 ADD MSTORE PUSH1 0x1C PUSH1 0x24 DUP3 ADD MSTORE PUSH32 0x46756E64696E6720706572696F6420686173206E6F7420656E64656400000000 PUSH1 0x44 DUP3 ADD MSTORE PUSH1 0x64 ADD JUMPDEST PUSH1 0x40 MLOAD DUP1 SWAP2 SUB SWAP1 REVERT JUMPDEST PUSH1 0xC SLOAD PUSH1 0xFF AND ISZERO PUSH2 0x688 JUMPI PUSH1 0x40 MLOAD PUSH3 0x461BCD PUSH1 0xE5 SHL DUP2 MSTORE PUSH1 0x20 PUSH1 0x4 DUP3 ADD MSTORE PUSH1 0x16 PUSH1 0x24 DUP3 ADD MSTORE PUSH32 0x4C6F616E20697320616C72656164792061637469766500000000000000000000 PUSH1 0x44 DUP3 ADD MSTORE PUSH1 0x64 ADD PUSH2 0x62C JUMP JUMPDEST PUSH0 PUSH2 0x694 CALLER PUSH1 0x1 PUSH2 0x4D7 JUMP JUMPDEST SWAP1 POP PUSH0 DUP2 GT PUSH2 0x6E5 JUMPI PUSH1 0x40 MLOAD PUSH3 0x461BCD PUSH1 0xE5 SHL DUP2 MSTORE PUSH1 0x20 PUSH1 0x4 DUP3 ADD MSTORE PUSH1 0x14 PUSH1 0x24 DUP3 ADD MSTORE PUSH32 0x4E6F2066756E647320746F207769746864726177000000000000000000000000 PUSH1 0x44 DUP3 ADD MSTORE PUSH1 0x64 ADD PUSH2 0x62C JUMP JUMPDEST PUSH2 0x6F1 CALLER PUSH1 0x1 DUP4 PUSH2 0xF65 JUMP JUMPDEST PUSH1 0x40 MLOAD CALLER SWAP1 DUP3 ISZERO PUSH2 0x8FC MUL SWAP1 DUP4 SWAP1 PUSH0 DUP2 DUP2 DUP2 DUP6 DUP9 DUP9 CALL SWAP4 POP POP POP POP ISZERO DUP1 ISZERO PUSH2 0x71B JUMPI RETURNDATASIZE PUSH0 DUP1 RETURNDATACOPY RETURNDATASIZE PUSH0 REVERT JUMPDEST POP POP JUMP JUMPDEST CALLER PUSH1 0x1 PUSH1 0x1 PUSH1 0xA0 SHL SUB DUP7 AND DUP2 EQ DUP1 ISZERO SWAP1 PUSH2 0x75E JUMPI POP PUSH1 0x1 PUSH1 0x1 PUSH1 0xA0 SHL SUB DUP1 DUP8 AND PUSH0 SWAP1 DUP2 MSTORE PUSH1 0x1 PUSH1 0x20 SWAP1 DUP2 MSTORE PUSH1 0x40 DUP1 DUP4 KECCAK256 SWAP4 DUP6 AND DUP4 MSTORE SWAP3 SWAP1 MSTORE KECCAK256 SLOAD PUSH1 0xFF AND ISZERO JUMPDEST ISZERO PUSH2 0x78F JUMPI PUSH1 0x40 MLOAD PUSH4 0x711BEC91 PUSH1 0xE1 SHL DUP2 MSTORE PUSH1 0x1 PUSH1 0x1 PUSH1 0xA0 SHL SUB DUP1 DUP4 AND PUSH1 0x4 DUP4 ADD MSTORE DUP8 AND PUSH1 0x24 DUP3 ADD MSTORE PUSH1 0x44 ADD PUSH2 0x62C JUMP JUMPDEST PUSH2 0x79C DUP7 DUP7 DUP7 DUP7 DUP7 PUSH2 0xFCB JUMP JUMPDEST POP POP POP POP POP POP JUMP JUMPDEST PUSH1 0x60 DUP2 MLOAD DUP4 MLOAD EQ PUSH2 0x7D5 JUMPI DUP2 MLOAD DUP4 MLOAD PUSH1 0x40 MLOAD PUSH4 0x5B059991 PUSH1 0xE0 SHL DUP2 MSTORE PUSH1 0x4 DUP2 ADD SWAP3 SWAP1 SWAP3 MSTORE PUSH1 0x24 DUP3 ADD MSTORE PUSH1 0x44 ADD PUSH2 0x62C JUMP JUMPDEST PUSH0 DUP4 MLOAD PUSH8 0xFFFFFFFFFFFFFFFF DUP2 GT ISZERO PUSH2 0x7F0 JUMPI PUSH2 0x7F0 PUSH2 0x1820 JUMP JUMPDEST PUSH1 0x40 MLOAD SWAP1 DUP1 DUP3 MSTORE DUP1 PUSH1 0x20 MUL PUSH1 0x20 ADD DUP3 ADD PUSH1 0x40 MSTORE DUP1 ISZERO PUSH2 0x819 JUMPI DUP2 PUSH1 0x20 ADD PUSH1 0x20 DUP3 MUL DUP1 CALLDATASIZE DUP4 CALLDATACOPY ADD SWAP1 POP JUMPDEST POP SWAP1 POP PUSH0 JUMPDEST DUP5 MLOAD DUP2 LT ISZERO PUSH2 0x867 JUMPI PUSH1 0x20 DUP1 DUP3 MUL DUP7 ADD ADD MLOAD PUSH2 0x842 SWAP1 PUSH1 0x20 DUP1 DUP5 MUL DUP8 ADD ADD MLOAD PUSH2 0x4D7 JUMP JUMPDEST DUP3 DUP3 DUP2 MLOAD DUP2 LT PUSH2 0x854 JUMPI PUSH2 0x854 PUSH2 0x1C8C JUMP JUMPDEST PUSH1 0x20 SWAP1 DUP2 MUL SWAP2 SWAP1 SWAP2 ADD ADD MSTORE PUSH1 0x1 ADD PUSH2 0x81E JUMP JUMPDEST POP SWAP4 SWAP3 POP POP POP JUMP JUMPDEST PUSH2 0x877 PUSH2 0x1029 JUMP JUMPDEST PUSH2 0x880 PUSH0 PUSH2 0x1056 JUMP JUMPDEST JUMP JUMPDEST PUSH1 0x9 DUP1 SLOAD PUSH2 0x88F SWAP1 PUSH2 0x1C54 JUMP JUMPDEST DUP1 PUSH1 0x1F ADD PUSH1 0x20 DUP1 SWAP2 DIV MUL PUSH1 0x20 ADD PUSH1 0x40 MLOAD SWAP1 DUP2 ADD PUSH1 0x40 MSTORE DUP1 SWAP3 SWAP2 SWAP1 DUP2 DUP2 MSTORE PUSH1 0x20 ADD DUP3 DUP1 SLOAD PUSH2 0x8BB SWAP1 PUSH2 0x1C54 JUMP JUMPDEST DUP1 ISZERO PUSH2 0x906 JUMPI DUP1 PUSH1 0x1F LT PUSH2 0x8DD JUMPI PUSH2 0x100 DUP1 DUP4 SLOAD DIV MUL DUP4 MSTORE SWAP2 PUSH1 0x20 ADD SWAP2 PUSH2 0x906 JUMP JUMPDEST DUP3 ADD SWAP2 SWAP1 PUSH0 MSTORE PUSH1 0x20 PUSH0 KECCAK256 SWAP1 JUMPDEST DUP2 SLOAD DUP2 MSTORE SWAP1 PUSH1 0x1 ADD SWAP1 PUSH1 0x20 ADD DUP1 DUP4 GT PUSH2 0x8E9 JUMPI DUP3 SWAP1 SUB PUSH1 0x1F AND DUP3 ADD SWAP2 JUMPDEST POP POP POP POP POP DUP2 JUMP JUMPDEST PUSH1 0x7 SLOAD TIMESTAMP LT PUSH2 0x95F JUMPI PUSH1 0x40 MLOAD PUSH3 0x461BCD PUSH1 0xE5 SHL DUP2 MSTORE PUSH1 0x20 PUSH1 0x4 DUP3 ADD MSTORE PUSH1 0x18 PUSH1 0x24 DUP3 ADD MSTORE PUSH32 0x46756E64696E6720706572696F642068617320656E6465640000000000000000 PUSH1 0x44 DUP3 ADD MSTORE PUSH1 0x64 ADD PUSH2 0x62C JUMP JUMPDEST PUSH1 0xC SLOAD PUSH1 0xFF AND ISZERO PUSH2 0x9B2 JUMPI PUSH1 0x40 MLOAD PUSH3 0x461BCD PUSH1 0xE5 SHL DUP2 MSTORE PUSH1 0x20 PUSH1 0x4 DUP3 ADD MSTORE PUSH1 0x16 PUSH1 0x24 DUP3 ADD MSTORE PUSH32 0x4C6F616E20697320616C72656164792061637469766500000000000000000000 PUSH1 0x44 DUP3 ADD MSTORE PUSH1 0x64 ADD PUSH2 0x62C JUMP JUMPDEST PUSH1 0x4 SLOAD DUP2 PUSH1 0xB SLOAD PUSH2 0x9C3 SWAP2 SWAP1 PUSH2 0x1CB4 JUMP JUMPDEST GT ISZERO PUSH2 0xA37 JUMPI PUSH1 0x40 MLOAD PUSH3 0x461BCD PUSH1 0xE5 SHL DUP2 MSTORE PUSH1 0x20 PUSH1 0x4 DUP3 ADD MSTORE PUSH1 0x27 PUSH1 0x24 DUP3 ADD MSTORE PUSH32 0x46756E64696E6720616D6F756E742065786365656473206C6F616E2072657175 PUSH1 0x44 DUP3 ADD MSTORE PUSH32 0x6972656D656E7400000000000000000000000000000000000000000000000000 PUSH1 0x64 DUP3 ADD MSTORE PUSH1 0x84 ADD PUSH2 0x62C JUMP JUMPDEST PUSH2 0xA52 CALLER PUSH1 0x1 DUP4 PUSH1 0x40 MLOAD DUP1 PUSH1 0x20 ADD PUSH1 0x40 MSTORE DUP1 PUSH0 DUP2 MSTORE POP PUSH2 0x10BF JUMP JUMPDEST DUP1 PUSH1 0xB PUSH0 DUP3 DUP3 SLOAD PUSH2 0xA63 SWAP2 SWAP1 PUSH2 0x1CB4 JUMP JUMPDEST SWAP1 SWAP2 SSTORE POP POP PUSH1 0x4 SLOAD PUSH1 0xB SLOAD SUB PUSH2 0xAC7 JUMPI PUSH1 0xC DUP1 SLOAD PUSH1 0xFF NOT AND PUSH1 0x1 OR SWAP1 SSTORE PUSH1 0x6 SLOAD PUSH2 0xA8D SWAP1 TIMESTAMP PUSH2 0x1CB4 JUMP JUMPDEST PUSH1 0x8 SSTORE PUSH1 0xB SLOAD PUSH1 0x40 MLOAD SWAP1 DUP2 MSTORE PUSH32 0xCB4C701313B0DB2ED5902D923D21B853D01E3A14CB2AF2DCE00E309EAA0E134C SWAP1 PUSH1 0x20 ADD PUSH1 0x40 MLOAD DUP1 SWAP2 SUB SWAP1 LOG1 JUMPDEST PUSH1 0x40 DUP1 MLOAD CALLER DUP2 MSTORE PUSH1 0x20 DUP2 ADD DUP4 SWAP1 MSTORE PUSH32 0x726D5F1A838FE31748F737FA3AE5539CCFF95952ADFC593A1299532B643FF7A8 SWAP2 ADD PUSH1 0x40 MLOAD DUP1 SWAP2 SUB SWAP1 LOG1 POP JUMP JUMPDEST PUSH1 0xC SLOAD PUSH2 0x100 SWAP1 DIV PUSH1 0xFF AND PUSH2 0xB5A JUMPI PUSH1 0x40 MLOAD PUSH3 0x461BCD PUSH1 0xE5 SHL DUP2 MSTORE PUSH1 0x20 PUSH1 0x4 DUP3 ADD MSTORE PUSH1 0x16 PUSH1 0x24 DUP3 ADD MSTORE PUSH32 0x4C6F616E206973206E6F74207265706169642079657400000000000000000000 PUSH1 0x44 DUP3 ADD MSTORE PUSH1 0x64 ADD PUSH2 0x62C JUMP JUMPDEST PUSH0 PUSH2 0xB66 CALLER PUSH1 0x1 PUSH2 0x4D7 JUMP JUMPDEST SWAP1 POP PUSH0 DUP2 GT PUSH2 0xBB7 JUMPI PUSH1 0x40 MLOAD PUSH3 0x461BCD PUSH1 0xE5 SHL DUP2 MSTORE PUSH1 0x20 PUSH1 0x4 DUP3 ADD MSTORE PUSH1 0x13 PUSH1 0x24 DUP3 ADD MSTORE PUSH32 0x4E6F2072657475726E7320746F20636C61696D00000000000000000000000000 PUSH1 0x44 DUP3 ADD MSTORE PUSH1 0x64 ADD PUSH2 0x62C JUMP JUMPDEST PUSH0 PUSH2 0x2710 PUSH1 0x5 SLOAD PUSH1 0x4 SLOAD PUSH2 0xBCB SWAP2 SWAP1 PUSH2 0x1CC7 JUMP JUMPDEST PUSH2 0xBD5 SWAP2 SWAP1 PUSH2 0x1CDE JUMP JUMPDEST SWAP1 POP PUSH0 PUSH1 0x4 SLOAD DUP3 DUP5 PUSH2 0xBE7 SWAP2 SWAP1 PUSH2 0x1CC7 JUMP JUMPDEST PUSH2 0xBF1 SWAP2 SWAP1 PUSH2 0x1CDE JUMP JUMPDEST SWAP1 POP PUSH0 PUSH2 0xBFE DUP3 DUP6 PUSH2 0x1CB4 JUMP JUMPDEST SWAP1 POP PUSH2 0xC0C CALLER PUSH1 0x1 DUP7 PUSH2 0xF65 JUMP JUMPDEST PUSH1 0x40 MLOAD CALLER SWAP1 DUP3 ISZERO PUSH2 0x8FC MUL SWAP1 DUP4 SWAP1 PUSH0 DUP2 DUP2 DUP2 DUP6 DUP9 DUP9 CALL SWAP4 POP POP POP POP ISZERO DUP1 ISZERO PUSH2 0xC36 JUMPI RETURNDATASIZE PUSH0 DUP1 RETURNDATACOPY RETURNDATASIZE PUSH0 REVERT JUMPDEST POP POP POP POP POP JUMP JUMPDEST PUSH2 0x71B CALLER DUP4 DUP4 PUSH2 0x111A JUMP JUMPDEST PUSH1 0x4 SLOAD PUSH1 0x5 SLOAD PUSH1 0x6 SLOAD PUSH1 0x7 SLOAD PUSH1 0x8 SLOAD PUSH1 0xA SLOAD PUSH1 0xB SLOAD PUSH1 0xC SLOAD PUSH1 0x9 DUP1 SLOAD PUSH0 SWAP10 DUP11 SWAP10 DUP11 SWAP10 DUP11 SWAP10 DUP11 SWAP10 PUSH1 0x60 SWAP10 DUP12 SWAP10 DUP11 SWAP10 DUP11 SWAP10 DUP11 SWAP10 SWAP1 SWAP4 PUSH1 0x1 PUSH1 0x1 PUSH1 0xA0 SHL SUB AND SWAP3 SWAP2 PUSH1 0xFF DUP1 DUP3 AND SWAP3 PUSH2 0x100 SWAP1 SWAP3 DIV AND SWAP1 DUP6 SWAP1 PUSH2 0xC9F SWAP1 PUSH2 0x1C54 JUMP JUMPDEST DUP1 PUSH1 0x1F ADD PUSH1 0x20 DUP1 SWAP2 DIV MUL PUSH1 0x20 ADD PUSH1 0x40 MLOAD SWAP1 DUP2 ADD PUSH1 0x40 MSTORE DUP1 SWAP3 SWAP2 SWAP1 DUP2 DUP2 MSTORE PUSH1 0x20 ADD DUP3 DUP1 SLOAD PUSH2 0xCCB SWAP1 PUSH2 0x1C54 JUMP JUMPDEST DUP1 ISZERO PUSH2 0xD16 JUMPI DUP1 PUSH1 0x1F LT PUSH2 0xCED JUMPI PUSH2 0x100 DUP1 DUP4 SLOAD DIV MUL DUP4 MSTORE SWAP2 PUSH1 0x20 ADD SWAP2 PUSH2 0xD16 JUMP JUMPDEST DUP3 ADD SWAP2 SWAP1 PUSH0 MSTORE PUSH1 0x20 PUSH0 KECCAK256 SWAP1 JUMPDEST DUP2 SLOAD DUP2 MSTORE SWAP1 PUSH1 0x1 ADD SWAP1 PUSH1 0x20 ADD DUP1 DUP4 GT PUSH2 0xCF9 JUMPI DUP3 SWAP1 SUB PUSH1 0x1F AND DUP3 ADD SWAP2 JUMPDEST POP POP POP POP POP SWAP5 POP SWAP10 POP SWAP10 POP SWAP10 POP SWAP10 POP SWAP10 POP SWAP10 POP SWAP10 POP SWAP10 POP SWAP10 POP SWAP10 POP SWAP1 SWAP2 SWAP3 SWAP4 SWAP5 SWAP6 SWAP7 SWAP8 SWAP9 SWAP10 JUMP JUMPDEST CALLER PUSH1 0x1 PUSH1 0x1 PUSH1 0xA0 SHL SUB DUP7 AND DUP2 EQ DUP1 ISZERO SWAP1 PUSH2 0xD7C JUMPI POP PUSH1 0x1 PUSH1 0x1 PUSH1 0xA0 SHL SUB DUP1 DUP8 AND PUSH0 SWAP1 DUP2 MSTORE PUSH1 0x1 PUSH1 0x20 SWAP1 DUP2 MSTORE PUSH1 0x40 DUP1 DUP4 KECCAK256 SWAP4 DUP6 AND DUP4 MSTORE SWAP3 SWAP1 MSTORE KECCAK256 SLOAD PUSH1 0xFF AND ISZERO JUMPDEST ISZERO PUSH2 0xDAD JUMPI PUSH1 0x40 MLOAD PUSH4 0x711BEC91 PUSH1 0xE1 SHL DUP2 MSTORE PUSH1 0x1 PUSH1 0x1 PUSH1 0xA0 SHL SUB DUP1 DUP4 AND PUSH1 0x4 DUP4 ADD MSTORE DUP8 AND PUSH1 0x24 DUP3 ADD MSTORE PUSH1 0x44 ADD PUSH2 0x62C JUMP JUMPDEST PUSH2 0x79C DUP7 DUP7 DUP7 DUP7 DUP7 PUSH2 0x11AE JUMP JUMPDEST PUSH2 0xDC2 PUSH2 0x1029 JUMP JUMPDEST PUSH1 0x1 PUSH1 0x1 PUSH1 0xA0 SHL SUB DUP2 AND PUSH2 0xDEB JUMPI PUSH1 0x40 MLOAD PUSH4 0x1E4FBDF7 PUSH1 0xE0 SHL DUP2 MSTORE PUSH0 PUSH1 0x4 DUP3 ADD MSTORE PUSH1 0x24 ADD PUSH2 0x62C JUMP JUMPDEST PUSH2 0xDF4 DUP2 PUSH2 0x1056 JUMP JUMPDEST POP JUMP JUMPDEST PUSH2 0xDFF PUSH2 0x1029 JUMP JUMPDEST PUSH1 0xC SLOAD PUSH1 0xFF AND PUSH2 0xE51 JUMPI PUSH1 0x40 MLOAD PUSH3 0x461BCD PUSH1 0xE5 SHL DUP2 MSTORE PUSH1 0x20 PUSH1 0x4 DUP3 ADD MSTORE PUSH1 0x12 PUSH1 0x24 DUP3 ADD MSTORE PUSH32 0x4C6F616E206973206E6F74206163746976650000000000000000000000000000 PUSH1 0x44 DUP3 ADD MSTORE PUSH1 0x64 ADD PUSH2 0x62C JUMP JUMPDEST PUSH1 0xC SLOAD PUSH2 0x100 SWAP1 DIV PUSH1 0xFF AND ISZERO PUSH2 0xEA9 JUMPI PUSH1 0x40 MLOAD PUSH3 0x461BCD PUSH1 0xE5 SHL DUP2 MSTORE PUSH1 0x20 PUSH1 0x4 DUP3 ADD MSTORE PUSH1 0x16 PUSH1 0x24 DUP3 ADD MSTORE PUSH32 0x4C6F616E20697320616C72656164792072657061696400000000000000000000 PUSH1 0x44 DUP3 ADD MSTORE PUSH1 0x64 ADD PUSH2 0x62C JUMP JUMPDEST PUSH0 PUSH2 0x2710 PUSH1 0x5 SLOAD PUSH1 0x4 SLOAD PUSH2 0xEBD SWAP2 SWAP1 PUSH2 0x1CC7 JUMP JUMPDEST PUSH2 0xEC7 SWAP2 SWAP1 PUSH2 0x1CDE JUMP JUMPDEST SWAP1 POP PUSH0 DUP2 PUSH1 0x4 SLOAD PUSH2 0xED8 SWAP2 SWAP1 PUSH2 0x1CB4 JUMP JUMPDEST SWAP1 POP DUP1 CALLVALUE LT ISZERO PUSH2 0xF2A JUMPI PUSH1 0x40 MLOAD PUSH3 0x461BCD PUSH1 0xE5 SHL DUP2 MSTORE PUSH1 0x20 PUSH1 0x4 DUP3 ADD MSTORE PUSH1 0x1D PUSH1 0x24 DUP3 ADD MSTORE PUSH32 0x496E73756666696369656E742072657061796D656E7420616D6F756E74000000 PUSH1 0x44 DUP3 ADD MSTORE PUSH1 0x64 ADD PUSH2 0x62C JUMP JUMPDEST PUSH1 0xC DUP1 SLOAD PUSH2 0xFF00 NOT AND PUSH2 0x100 OR SWAP1 SSTORE PUSH1 0x40 MLOAD PUSH32 0x1062E18F9D21DECF38F145FC9B437CD2C70E09252A729F9830B75FFDAAF37894 SWAP1 PUSH0 SWAP1 LOG1 POP POP JUMP JUMPDEST PUSH1 0x1 PUSH1 0x1 PUSH1 0xA0 SHL SUB DUP4 AND PUSH2 0xF8D JUMPI PUSH1 0x40 MLOAD PUSH3 0x6A0D45 PUSH1 0xE2 SHL DUP2 MSTORE PUSH0 PUSH1 0x4 DUP3 ADD MSTORE PUSH1 0x24 ADD PUSH2 0x62C JUMP JUMPDEST PUSH1 0x40 DUP1 MLOAD PUSH1 0x1 DUP1 DUP3 MSTORE PUSH1 0x20 DUP3 ADD DUP6 SWAP1 MSTORE DUP2 DUP4 ADD SWAP1 DUP2 MSTORE PUSH1 0x60 DUP3 ADD DUP5 SWAP1 MSTORE PUSH1 0xA0 DUP3 ADD SWAP1 SWAP3 MSTORE PUSH0 PUSH1 0x80 DUP3 ADD DUP2 DUP2 MSTORE SWAP2 SWAP3 SWAP2 PUSH2 0xC36 SWAP2 DUP8 SWAP2 DUP6 SWAP1 DUP6 SWAP1 PUSH2 0x123A JUMP JUMPDEST PUSH1 0x1 PUSH1 0x1 PUSH1 0xA0 SHL SUB DUP5 AND PUSH2 0xFF4 JUMPI PUSH1 0x40 MLOAD PUSH4 0x2BFA23E7 PUSH1 0xE1 SHL DUP2 MSTORE PUSH0 PUSH1 0x4 DUP3 ADD MSTORE PUSH1 0x24 ADD PUSH2 0x62C JUMP JUMPDEST PUSH1 0x1 PUSH1 0x1 PUSH1 0xA0 SHL SUB DUP6 AND PUSH2 0x101C JUMPI PUSH1 0x40 MLOAD PUSH3 0x6A0D45 PUSH1 0xE2 SHL DUP2 MSTORE PUSH0 PUSH1 0x4 DUP3 ADD MSTORE PUSH1 0x24 ADD PUSH2 0x62C JUMP JUMPDEST PUSH2 0xC36 DUP6 DUP6 DUP6 DUP6 DUP6 PUSH2 0x123A JUMP JUMPDEST PUSH1 0x3 SLOAD PUSH1 0x1 PUSH1 0x1 PUSH1 0xA0 SHL SUB AND CALLER EQ PUSH2 0x880 JUMPI PUSH1 0x40 MLOAD PUSH4 0x118CDAA7 PUSH1 0xE0 SHL DUP2 MSTORE CALLER PUSH1 0x4 DUP3 ADD MSTORE PUSH1 0x24 ADD PUSH2 0x62C JUMP JUMPDEST PUSH1 0x3 DUP1 SLOAD PUSH1 0x1 PUSH1 0x1 PUSH1 0xA0 SHL SUB DUP4 DUP2 AND PUSH32 0xFFFFFFFFFFFFFFFFFFFFFFFF0000000000000000000000000000000000000000 DUP4 AND DUP2 OR SWAP1 SWAP4 SSTORE PUSH1 0x40 MLOAD SWAP2 AND SWAP2 SWAP1 DUP3 SWAP1 PUSH32 0x8BE0079C531659141344CD1FD0A4F28419497F9722A3DAAFE3B4186F6B6457E0 SWAP1 PUSH0 SWAP1 LOG3 POP POP JUMP JUMPDEST PUSH1 0x1 PUSH1 0x1 PUSH1 0xA0 SHL SUB DUP5 AND PUSH2 0x10E8 JUMPI PUSH1 0x40 MLOAD PUSH4 0x2BFA23E7 PUSH1 0xE1 SHL DUP2 MSTORE PUSH0 PUSH1 0x4 DUP3 ADD MSTORE PUSH1 0x24 ADD PUSH2 0x62C JUMP JUMPDEST PUSH1 0x40 DUP1 MLOAD PUSH1 0x1 DUP1 DUP3 MSTORE PUSH1 0x20 DUP3 ADD DUP7 SWAP1 MSTORE DUP2 DUP4 ADD SWAP1 DUP2 MSTORE PUSH1 0x60 DUP3 ADD DUP6 SWAP1 MSTORE PUSH1 0x80 DUP3 ADD SWAP1 SWAP3 MSTORE SWAP1 PUSH2 0x79C PUSH0 DUP8 DUP5 DUP5 DUP8 PUSH2 0x123A JUMP JUMPDEST PUSH1 0x1 PUSH1 0x1 PUSH1 0xA0 SHL SUB DUP3 AND PUSH2 0x1142 JUMPI PUSH1 0x40 MLOAD PUSH3 0xCED3E1 PUSH1 0xE8 SHL DUP2 MSTORE PUSH0 PUSH1 0x4 DUP3 ADD MSTORE PUSH1 0x24 ADD PUSH2 0x62C JUMP JUMPDEST PUSH1 0x1 PUSH1 0x1 PUSH1 0xA0 SHL SUB DUP4 DUP2 AND PUSH0 DUP2 DUP2 MSTORE PUSH1 0x1 PUSH1 0x20 SWAP1 DUP2 MSTORE PUSH1 0x40 DUP1 DUP4 KECCAK256 SWAP5 DUP8 AND DUP1 DUP5 MSTORE SWAP5 DUP3 MSTORE SWAP2 DUP3 SWAP1 KECCAK256 DUP1 SLOAD PUSH1 0xFF NOT AND DUP7 ISZERO ISZERO SWAP1 DUP2 OR SWAP1 SWAP2 SSTORE SWAP2 MLOAD SWAP2 DUP3 MSTORE PUSH32 0x17307EAB39AB6107E8899845AD3D59BD9653F200F220920489CA2B5937696C31 SWAP2 ADD PUSH1 0x40 MLOAD DUP1 SWAP2 SUB SWAP1 LOG3 POP POP POP JUMP JUMPDEST PUSH1 0x1 PUSH1 0x1 PUSH1 0xA0 SHL SUB DUP5 AND PUSH2 0x11D7 JUMPI PUSH1 0x40 MLOAD PUSH4 0x2BFA23E7 PUSH1 0xE1 SHL DUP2 MSTORE PUSH0 PUSH1 0x4 DUP3 ADD MSTORE PUSH1 0x24 ADD PUSH2 0x62C JUMP JUMPDEST PUSH1 0x1 PUSH1 0x1 PUSH1 0xA0 SHL SUB DUP6 AND PUSH2 0x11FF JUMPI PUSH1 0x40 MLOAD PUSH3 0x6A0D45 PUSH1 0xE2 SHL DUP2 MSTORE PUSH0 PUSH1 0x4 DUP3 ADD MSTORE PUSH1 0x24 ADD PUSH2 0x62C JUMP JUMPDEST PUSH1 0x40 DUP1 MLOAD PUSH1 0x1 DUP1 DUP3 MSTORE PUSH1 0x20 DUP3 ADD DUP7 SWAP1 MSTORE DUP2 DUP4 ADD SWAP1 DUP2 MSTORE PUSH1 0x60 DUP3 ADD DUP6 SWAP1 MSTORE PUSH1 0x80 DUP3 ADD SWAP1 SWAP3 MSTORE SWAP1 PUSH2 0x1231 DUP8 DUP8 DUP5 DUP5 DUP8 PUSH2 0x123A JUMP JUMPDEST POP POP POP POP POP POP POP JUMP JUMPDEST PUSH2 0x1246 DUP6 DUP6 DUP6 DUP6 PUSH2 0x128D JUMP JUMPDEST PUSH1 0x1 PUSH1 0x1 PUSH1 0xA0 SHL SUB DUP5 AND ISZERO PUSH2 0xC36 JUMPI DUP3 MLOAD CALLER SWAP1 PUSH1 0x1 SUB PUSH2 0x127F JUMPI PUSH1 0x20 DUP5 DUP2 ADD MLOAD SWAP1 DUP5 ADD MLOAD PUSH2 0x1278 DUP4 DUP10 DUP10 DUP6 DUP6 DUP10 PUSH2 0x1338 JUMP JUMPDEST POP POP PUSH2 0x79C JUMP JUMPDEST PUSH2 0x79C DUP2 DUP8 DUP8 DUP8 DUP8 DUP8 PUSH2 0x1459 JUMP JUMPDEST PUSH2 0x1299 DUP5 DUP5 DUP5 DUP5 PUSH2 0x1540 JUMP JUMPDEST PUSH1 0x1 PUSH1 0x1 PUSH1 0xA0 SHL SUB DUP5 AND ISZERO DUP1 PUSH2 0x12B6 JUMPI POP PUSH1 0x1 PUSH1 0x1 PUSH1 0xA0 SHL SUB DUP4 AND ISZERO JUMPDEST PUSH2 0x1332 JUMPI PUSH1 0xC SLOAD PUSH1 0xFF AND PUSH2 0x1332 JUMPI PUSH1 0x40 MLOAD PUSH3 0x461BCD PUSH1 0xE5 SHL DUP2 MSTORE PUSH1 0x20 PUSH1 0x4 DUP3 ADD MSTORE PUSH1 0x33 PUSH1 0x24 DUP3 ADD MSTORE PUSH32 0x546F6B656E7320617265206E6F74207472616E7366657261626C6520756E7469 PUSH1 0x44 DUP3 ADD MSTORE PUSH32 0x6C206C6F616E2069732061637469766174656400000000000000000000000000 PUSH1 0x64 DUP3 ADD MSTORE PUSH1 0x84 ADD PUSH2 0x62C JUMP JUMPDEST POP POP POP POP JUMP JUMPDEST PUSH1 0x1 PUSH1 0x1 PUSH1 0xA0 SHL SUB DUP5 AND EXTCODESIZE ISZERO PUSH2 0x79C JUMPI PUSH1 0x40 MLOAD PUSH4 0xF23A6E61 PUSH1 0xE0 SHL DUP2 MSTORE PUSH1 0x1 PUSH1 0x1 PUSH1 0xA0 SHL SUB DUP6 AND SWAP1 PUSH4 0xF23A6E61 SWAP1 PUSH2 0x137C SWAP1 DUP10 SWAP1 DUP10 SWAP1 DUP9 SWAP1 DUP9 SWAP1 DUP9 SWAP1 PUSH1 0x4 ADD PUSH2 0x1CFD JUMP JUMPDEST PUSH1 0x20 PUSH1 0x40 MLOAD DUP1 DUP4 SUB DUP2 PUSH0 DUP8 GAS CALL SWAP3 POP POP POP DUP1 ISZERO PUSH2 0x13B6 JUMPI POP PUSH1 0x40 DUP1 MLOAD PUSH1 0x1F RETURNDATASIZE SWAP1 DUP2 ADD PUSH1 0x1F NOT AND DUP3 ADD SWAP1 SWAP3 MSTORE PUSH2 0x13B3 SWAP2 DUP2 ADD SWAP1 PUSH2 0x1D3F JUMP JUMPDEST PUSH1 0x1 JUMPDEST PUSH2 0x141D JUMPI RETURNDATASIZE DUP1 DUP1 ISZERO PUSH2 0x13E3 JUMPI PUSH1 0x40 MLOAD SWAP2 POP PUSH1 0x1F NOT PUSH1 0x3F RETURNDATASIZE ADD AND DUP3 ADD PUSH1 0x40 MSTORE RETURNDATASIZE DUP3 MSTORE RETURNDATASIZE PUSH0 PUSH1 0x20 DUP5 ADD RETURNDATACOPY PUSH2 0x13E8 JUMP JUMPDEST PUSH1 0x60 SWAP2 POP JUMPDEST POP DUP1 MLOAD PUSH0 SUB PUSH2 0x1415 JUMPI PUSH1 0x40 MLOAD PUSH4 0x2BFA23E7 PUSH1 0xE1 SHL DUP2 MSTORE PUSH1 0x1 PUSH1 0x1 PUSH1 0xA0 SHL SUB DUP7 AND PUSH1 0x4 DUP3 ADD MSTORE PUSH1 0x24 ADD PUSH2 0x62C JUMP JUMPDEST DUP1 MLOAD DUP2 PUSH1 0x20 ADD REVERT JUMPDEST PUSH1 0x1 PUSH1 0x1 PUSH1 0xE0 SHL SUB NOT DUP2 AND PUSH4 0xF23A6E61 PUSH1 0xE0 SHL EQ PUSH2 0x1231 JUMPI PUSH1 0x40 MLOAD PUSH4 0x2BFA23E7 PUSH1 0xE1 SHL DUP2 MSTORE PUSH1 0x1 PUSH1 0x1 PUSH1 0xA0 SHL SUB DUP7 AND PUSH1 0x4 DUP3 ADD MSTORE PUSH1 0x24 ADD PUSH2 0x62C JUMP JUMPDEST PUSH1 0x1 PUSH1 0x1 PUSH1 0xA0 SHL SUB DUP5 AND EXTCODESIZE ISZERO PUSH2 0x79C JUMPI PUSH1 0x40 MLOAD PUSH4 0xBC197C81 PUSH1 0xE0 SHL DUP2 MSTORE PUSH1 0x1 PUSH1 0x1 PUSH1 0xA0 SHL SUB DUP6 AND SWAP1 PUSH4 0xBC197C81 SWAP1 PUSH2 0x149D SWAP1 DUP10 SWAP1 DUP10 SWAP1 DUP9 SWAP1 DUP9 SWAP1 DUP9 SWAP1 PUSH1 0x4 ADD PUSH2 0x1D5A JUMP JUMPDEST PUSH1 0x20 PUSH1 0x40 MLOAD DUP1 DUP4 SUB DUP2 PUSH0 DUP8 GAS CALL SWAP3 POP POP POP DUP1 ISZERO PUSH2 0x14D7 JUMPI POP PUSH1 0x40 DUP1 MLOAD PUSH1 0x1F RETURNDATASIZE SWAP1 DUP2 ADD PUSH1 0x1F NOT AND DUP3 ADD SWAP1 SWAP3 MSTORE PUSH2 0x14D4 SWAP2 DUP2 ADD SWAP1 PUSH2 0x1D3F JUMP JUMPDEST PUSH1 0x1 JUMPDEST PUSH2 0x1504 JUMPI RETURNDATASIZE DUP1 DUP1 ISZERO PUSH2 0x13E3 JUMPI PUSH1 0x40 MLOAD SWAP2 POP PUSH1 0x1F NOT PUSH1 0x3F RETURNDATASIZE ADD AND DUP3 ADD PUSH1 0x40 MSTORE RETURNDATASIZE DUP3 MSTORE RETURNDATASIZE PUSH0 PUSH1 0x20 DUP5 ADD RETURNDATACOPY PUSH2 0x13E8 JUMP JUMPDEST PUSH1 0x1 PUSH1 0x1 PUSH1 0xE0 SHL SUB NOT DUP2 AND PUSH4 0xBC197C81 PUSH1 0xE0 SHL EQ PUSH2 0x1231 JUMPI PUSH1 0x40 MLOAD PUSH4 0x2BFA23E7 PUSH1 0xE1 SHL DUP2 MSTORE PUSH1 0x1 PUSH1 0x1 PUSH1 0xA0 SHL SUB DUP7 AND PUSH1 0x4 DUP3 ADD MSTORE PUSH1 0x24 ADD PUSH2 0x62C JUMP JUMPDEST DUP1 MLOAD DUP3 MLOAD EQ PUSH2 0x156F JUMPI DUP2 MLOAD DUP2 MLOAD PUSH1 0x40 MLOAD PUSH4 0x5B059991 PUSH1 0xE0 SHL DUP2 MSTORE PUSH1 0x4 DUP2 ADD SWAP3 SWAP1 SWAP3 MSTORE PUSH1 0x24 DUP3 ADD MSTORE PUSH1 0x44 ADD PUSH2 0x62C JUMP JUMPDEST CALLER PUSH0 JUMPDEST DUP4 MLOAD DUP2 LT ISZERO PUSH2 0x1671 JUMPI PUSH1 0x20 DUP2 DUP2 MUL DUP6 DUP2 ADD DUP3 ADD MLOAD SWAP1 DUP6 ADD SWAP1 SWAP2 ADD MLOAD PUSH1 0x1 PUSH1 0x1 PUSH1 0xA0 SHL SUB DUP9 AND ISZERO PUSH2 0x1623 JUMPI PUSH0 DUP3 DUP2 MSTORE PUSH1 0x20 DUP2 DUP2 MSTORE PUSH1 0x40 DUP1 DUP4 KECCAK256 PUSH1 0x1 PUSH1 0x1 PUSH1 0xA0 SHL SUB DUP13 AND DUP5 MSTORE SWAP1 SWAP2 MSTORE SWAP1 KECCAK256 SLOAD DUP2 DUP2 LT ISZERO PUSH2 0x15FD JUMPI PUSH1 0x40 MLOAD PUSH4 0x3DEE4C5 PUSH1 0xE0 SHL DUP2 MSTORE PUSH1 0x1 PUSH1 0x1 PUSH1 0xA0 SHL SUB DUP11 AND PUSH1 0x4 DUP3 ADD MSTORE PUSH1 0x24 DUP2 ADD DUP3 SWAP1 MSTORE PUSH1 0x44 DUP2 ADD DUP4 SWAP1 MSTORE PUSH1 0x64 DUP2 ADD DUP5 SWAP1 MSTORE PUSH1 0x84 ADD PUSH2 0x62C JUMP JUMPDEST PUSH0 DUP4 DUP2 MSTORE PUSH1 0x20 DUP2 DUP2 MSTORE PUSH1 0x40 DUP1 DUP4 KECCAK256 PUSH1 0x1 PUSH1 0x1 PUSH1 0xA0 SHL SUB DUP14 AND DUP5 MSTORE SWAP1 SWAP2 MSTORE SWAP1 KECCAK256 SWAP1 DUP3 SWAP1 SUB SWAP1 SSTORE JUMPDEST PUSH1 0x1 PUSH1 0x1 PUSH1 0xA0 SHL SUB DUP8 AND ISZERO PUSH2 0x1667 JUMPI PUSH0 DUP3 DUP2 MSTORE PUSH1 0x20 DUP2 DUP2 MSTORE PUSH1 0x40 DUP1 DUP4 KECCAK256 PUSH1 0x1 PUSH1 0x1 PUSH1 0xA0 SHL SUB DUP12 AND DUP5 MSTORE SWAP1 SWAP2 MSTORE DUP2 KECCAK256 DUP1 SLOAD DUP4 SWAP3 SWAP1 PUSH2 0x1661 SWAP1 DUP5 SWAP1 PUSH2 0x1CB4 JUMP JUMPDEST SWAP1 SWAP2 SSTORE POP POP JUMPDEST POP POP PUSH1 0x1 ADD PUSH2 0x1572 JUMP JUMPDEST POP DUP3 MLOAD PUSH1 0x1 SUB PUSH2 0x16F1 JUMPI PUSH1 0x20 DUP4 ADD MLOAD PUSH0 SWAP1 PUSH1 0x20 DUP5 ADD MLOAD SWAP1 SWAP2 POP DUP6 PUSH1 0x1 PUSH1 0x1 PUSH1 0xA0 SHL SUB AND DUP8 PUSH1 0x1 PUSH1 0x1 PUSH1 0xA0 SHL SUB AND DUP5 PUSH1 0x1 PUSH1 0x1 PUSH1 0xA0 SHL SUB AND PUSH32 0xC3D58168C5AE7397731D063D5BBF3D657854427343F4C083240F7AACAA2D0F62 DUP6 DUP6 PUSH1 0x40 MLOAD PUSH2 0x16E2 SWAP3 SWAP2 SWAP1 SWAP2 DUP3 MSTORE PUSH1 0x20 DUP3 ADD MSTORE PUSH1 0x40 ADD SWAP1 JUMP JUMPDEST PUSH1 0x40 MLOAD DUP1 SWAP2 SUB SWAP1 LOG4 POP POP PUSH2 0xC36 JUMP JUMPDEST DUP4 PUSH1 0x1 PUSH1 0x1 PUSH1 0xA0 SHL SUB AND DUP6 PUSH1 0x1 PUSH1 0x1 PUSH1 0xA0 SHL SUB AND DUP3 PUSH1 0x1 PUSH1 0x1 PUSH1 0xA0 SHL SUB AND PUSH32 0x4A39DC06D4C0DBC64B70AF90FD698A233A518AA5D07E595D983B8C0526C8F7FB DUP7 DUP7 PUSH1 0x40 MLOAD PUSH2 0x1740 SWAP3 SWAP2 SWAP1 PUSH2 0x1DB7 JUMP JUMPDEST PUSH1 0x40 MLOAD DUP1 SWAP2 SUB SWAP1 LOG4 POP POP POP POP POP JUMP JUMPDEST DUP1 CALLDATALOAD PUSH1 0x1 PUSH1 0x1 PUSH1 0xA0 SHL SUB DUP2 AND DUP2 EQ PUSH2 0x1765 JUMPI PUSH0 DUP1 REVERT JUMPDEST SWAP2 SWAP1 POP JUMP JUMPDEST PUSH0 DUP1 PUSH1 0x40 DUP4 DUP6 SUB SLT ISZERO PUSH2 0x177B JUMPI PUSH0 DUP1 REVERT JUMPDEST PUSH2 0x1784 DUP4 PUSH2 0x174F JUMP JUMPDEST SWAP5 PUSH1 0x20 SWAP4 SWAP1 SWAP4 ADD CALLDATALOAD SWAP4 POP POP POP JUMP JUMPDEST PUSH1 0x1 PUSH1 0x1 PUSH1 0xE0 SHL SUB NOT DUP2 AND DUP2 EQ PUSH2 0xDF4 JUMPI PUSH0 DUP1 REVERT JUMPDEST PUSH0 PUSH1 0x20 DUP3 DUP5 SUB SLT ISZERO PUSH2 0x17B7 JUMPI PUSH0 DUP1 REVERT JUMPDEST DUP2 CALLDATALOAD PUSH2 0x17C2 DUP2 PUSH2 0x1792 JUMP JUMPDEST SWAP4 SWAP3 POP POP POP JUMP JUMPDEST PUSH0 PUSH1 0x20 DUP3 DUP5 SUB SLT ISZERO PUSH2 0x17D9 JUMPI PUSH0 DUP1 REVERT JUMPDEST POP CALLDATALOAD SWAP2 SWAP1 POP JUMP JUMPDEST PUSH0 DUP2 MLOAD DUP1 DUP5 MSTORE DUP1 PUSH1 0x20 DUP5 ADD PUSH1 0x20 DUP7 ADD MCOPY PUSH0 PUSH1 0x20 DUP3 DUP7 ADD ADD MSTORE PUSH1 0x20 PUSH1 0x1F NOT PUSH1 0x1F DUP4 ADD AND DUP6 ADD ADD SWAP2 POP POP SWAP3 SWAP2 POP POP JUMP JUMPDEST PUSH1 0x20 DUP2 MSTORE PUSH0 PUSH2 0x17C2 PUSH1 0x20 DUP4 ADD DUP5 PUSH2 0x17E0 JUMP JUMPDEST PUSH4 0x4E487B71 PUSH1 0xE0 SHL PUSH0 MSTORE PUSH1 0x41 PUSH1 0x4 MSTORE PUSH1 0x24 PUSH0 REVERT JUMPDEST PUSH1 0x40 MLOAD PUSH1 0x1F DUP3 ADD PUSH1 0x1F NOT AND DUP2 ADD PUSH8 0xFFFFFFFFFFFFFFFF DUP2 GT DUP3 DUP3 LT OR ISZERO PUSH2 0x185D JUMPI PUSH2 0x185D PUSH2 0x1820 JUMP JUMPDEST PUSH1 0x40 MSTORE SWAP2 SWAP1 POP JUMP JUMPDEST PUSH0 PUSH8 0xFFFFFFFFFFFFFFFF DUP3 GT ISZERO PUSH2 0x187E JUMPI PUSH2 0x187E PUSH2 0x1820 JUMP JUMPDEST POP PUSH1 0x5 SHL PUSH1 0x20 ADD SWAP1 JUMP JUMPDEST PUSH0 DUP3 PUSH1 0x1F DUP4 ADD SLT PUSH2 0x1897 JUMPI PUSH0 DUP1 REVERT JUMPDEST DUP2 CALLDATALOAD PUSH1 0x20 PUSH2 0x18AC PUSH2 0x18A7 DUP4 PUSH2 0x1865 JUMP JUMPDEST PUSH2 0x1834 JUMP JUMPDEST DUP1 DUP4 DUP3 MSTORE PUSH1 0x20 DUP3 ADD SWAP2 POP PUSH1 0x20 DUP5 PUSH1 0x5 SHL DUP8 ADD ADD SWAP4 POP DUP7 DUP5 GT ISZERO PUSH2 0x18CD JUMPI PUSH0 DUP1 REVERT JUMPDEST PUSH1 0x20 DUP7 ADD JUMPDEST DUP5 DUP2 LT ISZERO PUSH2 0x18E9 JUMPI DUP1 CALLDATALOAD DUP4 MSTORE SWAP2 DUP4 ADD SWAP2 DUP4 ADD PUSH2 0x18D2 JUMP JUMPDEST POP SWAP7 SWAP6 POP POP POP POP POP POP JUMP JUMPDEST PUSH0 DUP3 PUSH1 0x1F DUP4 ADD SLT PUSH2 0x1903 JUMPI PUSH0 DUP1 REVERT JUMPDEST DUP2 CALLDATALOAD PUSH8 0xFFFFFFFFFFFFFFFF DUP2 GT ISZERO PUSH2 0x191D JUMPI PUSH2 0x191D PUSH2 0x1820 JUMP JUMPDEST PUSH2 0x1930 PUSH1 0x1F DUP3 ADD PUSH1 0x1F NOT AND PUSH1 0x20 ADD PUSH2 0x1834 JUMP JUMPDEST DUP2 DUP2 MSTORE DUP5 PUSH1 0x20 DUP4 DUP7 ADD ADD GT ISZERO PUSH2 0x1944 JUMPI PUSH0 DUP1 REVERT JUMPDEST DUP2 PUSH1 0x20 DUP6 ADD PUSH1 0x20 DUP4 ADD CALLDATACOPY PUSH0 SWAP2 DUP2 ADD PUSH1 0x20 ADD SWAP2 SWAP1 SWAP2 MSTORE SWAP4 SWAP3 POP POP POP JUMP JUMPDEST PUSH0 DUP1 PUSH0 DUP1 PUSH0 PUSH1 0xA0 DUP7 DUP9 SUB SLT ISZERO PUSH2 0x1974 JUMPI PUSH0 DUP1 REVERT JUMPDEST PUSH2 0x197D DUP7 PUSH2 0x174F JUMP JUMPDEST SWAP5 POP PUSH2 0x198B PUSH1 0x20 DUP8 ADD PUSH2 0x174F JUMP JUMPDEST SWAP4 POP PUSH1 0x40 DUP7 ADD CALLDATALOAD PUSH8 0xFFFFFFFFFFFFFFFF DUP1 DUP3 GT ISZERO PUSH2 0x19A7 JUMPI PUSH0 DUP1 REVERT JUMPDEST PUSH2 0x19B3 DUP10 DUP4 DUP11 ADD PUSH2 0x1888 JUMP JUMPDEST SWAP5 POP PUSH1 0x60 DUP9 ADD CALLDATALOAD SWAP2 POP DUP1 DUP3 GT ISZERO PUSH2 0x19C8 JUMPI PUSH0 DUP1 REVERT JUMPDEST PUSH2 0x19D4 DUP10 DUP4 DUP11 ADD PUSH2 0x1888 JUMP JUMPDEST SWAP4 POP PUSH1 0x80 DUP9 ADD CALLDATALOAD SWAP2 POP DUP1 DUP3 GT ISZERO PUSH2 0x19E9 JUMPI PUSH0 DUP1 REVERT JUMPDEST POP PUSH2 0x19F6 DUP9 DUP3 DUP10 ADD PUSH2 0x18F4 JUMP JUMPDEST SWAP2 POP POP SWAP3 SWAP6 POP SWAP3 SWAP6 SWAP1 SWAP4 POP JUMP JUMPDEST PUSH0 DUP1 PUSH1 0x40 DUP4 DUP6 SUB SLT ISZERO PUSH2 0x1A14 JUMPI PUSH0 DUP1 REVERT JUMPDEST DUP3 CALLDATALOAD PUSH8 0xFFFFFFFFFFFFFFFF DUP1 DUP3 GT ISZERO PUSH2 0x1A2B JUMPI PUSH0 DUP1 REVERT JUMPDEST DUP2 DUP6 ADD SWAP2 POP DUP6 PUSH1 0x1F DUP4 ADD SLT PUSH2 0x1A3E JUMPI PUSH0 DUP1 REVERT JUMPDEST DUP2 CALLDATALOAD PUSH1 0x20 PUSH2 0x1A4E PUSH2 0x18A7 DUP4 PUSH2 0x1865 JUMP JUMPDEST DUP3 DUP2 MSTORE PUSH1 0x5 SWAP3 SWAP1 SWAP3 SHL DUP5 ADD DUP2 ADD SWAP2 DUP2 DUP2 ADD SWAP1 DUP10 DUP5 GT ISZERO PUSH2 0x1A6C JUMPI PUSH0 DUP1 REVERT JUMPDEST SWAP5 DUP3 ADD SWAP5 JUMPDEST DUP4 DUP7 LT ISZERO PUSH2 0x1A91 JUMPI PUSH2 0x1A82 DUP7 PUSH2 0x174F JUMP JUMPDEST DUP3 MSTORE SWAP5 DUP3 ADD SWAP5 SWAP1 DUP3 ADD SWAP1 PUSH2 0x1A71 JUMP JUMPDEST SWAP7 POP POP DUP7 ADD CALLDATALOAD SWAP3 POP POP DUP1 DUP3 GT ISZERO PUSH2 0x1AA6 JUMPI PUSH0 DUP1 REVERT JUMPDEST POP PUSH2 0x1AB3 DUP6 DUP3 DUP7 ADD PUSH2 0x1888 JUMP JUMPDEST SWAP2 POP POP SWAP3 POP SWAP3 SWAP1 POP JUMP JUMPDEST PUSH0 DUP2 MLOAD DUP1 DUP5 MSTORE PUSH1 0x20 DUP1 DUP6 ADD SWAP5 POP PUSH1 0x20 DUP5 ADD PUSH0 JUMPDEST DUP4 DUP2 LT ISZERO PUSH2 0x1AEC JUMPI DUP2 MLOAD DUP8 MSTORE SWAP6 DUP3 ADD SWAP6 SWAP1 DUP3 ADD SWAP1 PUSH1 0x1 ADD PUSH2 0x1AD0 JUMP JUMPDEST POP SWAP5 SWAP6 SWAP5 POP POP POP POP POP JUMP JUMPDEST PUSH1 0x20 DUP2 MSTORE PUSH0 PUSH2 0x17C2 PUSH1 0x20 DUP4 ADD DUP5 PUSH2 0x1ABD JUMP JUMPDEST PUSH0 DUP1 PUSH1 0x40 DUP4 DUP6 SUB SLT ISZERO PUSH2 0x1B1A JUMPI PUSH0 DUP1 REVERT JUMPDEST PUSH2 0x1B23 DUP4 PUSH2 0x174F JUMP JUMPDEST SWAP2 POP PUSH1 0x20 DUP4 ADD CALLDATALOAD DUP1 ISZERO ISZERO DUP2 EQ PUSH2 0x1B37 JUMPI PUSH0 DUP1 REVERT JUMPDEST DUP1 SWAP2 POP POP SWAP3 POP SWAP3 SWAP1 POP JUMP JUMPDEST PUSH0 PUSH2 0x140 DUP13 DUP4 MSTORE DUP12 PUSH1 0x20 DUP5 ADD MSTORE DUP11 PUSH1 0x40 DUP5 ADD MSTORE DUP10 PUSH1 0x60 DUP5 ADD MSTORE DUP9 PUSH1 0x80 DUP5 ADD MSTORE DUP1 PUSH1 0xA0 DUP5 ADD MSTORE PUSH2 0x1B73 DUP2 DUP5 ADD DUP10 PUSH2 0x17E0 JUMP JUMPDEST PUSH1 0x1 PUSH1 0x1 PUSH1 0xA0 SHL SUB SWAP8 SWAP1 SWAP8 AND PUSH1 0xC0 DUP5 ADD MSTORE POP POP PUSH1 0xE0 DUP2 ADD SWAP4 SWAP1 SWAP4 MSTORE SWAP1 ISZERO ISZERO PUSH2 0x100 DUP4 ADD MSTORE ISZERO ISZERO PUSH2 0x120 SWAP1 SWAP2 ADD MSTORE SWAP7 SWAP6 POP POP POP POP POP POP JUMP JUMPDEST PUSH0 DUP1 PUSH1 0x40 DUP4 DUP6 SUB SLT ISZERO PUSH2 0x1BBB JUMPI PUSH0 DUP1 REVERT JUMPDEST PUSH2 0x1BC4 DUP4 PUSH2 0x174F JUMP JUMPDEST SWAP2 POP PUSH2 0x1BD2 PUSH1 0x20 DUP5 ADD PUSH2 0x174F JUMP JUMPDEST SWAP1 POP SWAP3 POP SWAP3 SWAP1 POP JUMP JUMPDEST PUSH0 DUP1 PUSH0 DUP1 PUSH0 PUSH1 0xA0 DUP7 DUP9 SUB SLT ISZERO PUSH2 0x1BEF JUMPI PUSH0 DUP1 REVERT JUMPDEST PUSH2 0x1BF8 DUP7 PUSH2 0x174F JUMP JUMPDEST SWAP5 POP PUSH2 0x1C06 PUSH1 0x20 DUP8 ADD PUSH2 0x174F JUMP JUMPDEST SWAP4 POP PUSH1 0x40 DUP7 ADD CALLDATALOAD SWAP3 POP PUSH1 0x60 DUP7 ADD CALLDATALOAD SWAP2 POP PUSH1 0x80 DUP7 ADD CALLDATALOAD PUSH8 0xFFFFFFFFFFFFFFFF DUP2 GT ISZERO PUSH2 0x1C2F JUMPI PUSH0 DUP1 REVERT JUMPDEST PUSH2 0x19F6 DUP9 DUP3 DUP10 ADD PUSH2 0x18F4 JUMP JUMPDEST PUSH0 PUSH1 0x20 DUP3 DUP5 SUB SLT ISZERO PUSH2 0x1C4B JUMPI PUSH0 DUP1 REVERT JUMPDEST PUSH2 0x17C2 DUP3 PUSH2 0x174F JUMP JUMPDEST PUSH1 0x1 DUP2 DUP2 SHR SWAP1 DUP3 AND DUP1 PUSH2 0x1C68 JUMPI PUSH1 0x7F DUP3 AND SWAP2 POP JUMPDEST PUSH1 0x20 DUP3 LT DUP2 SUB PUSH2 0x1C86 JUMPI PUSH4 0x4E487B71 PUSH1 0xE0 SHL PUSH0 MSTORE PUSH1 0x22 PUSH1 0x4 MSTORE PUSH1 0x24 PUSH0 REVERT JUMPDEST POP SWAP2 SWAP1 POP JUMP JUMPDEST PUSH4 0x4E487B71 PUSH1 0xE0 SHL PUSH0 MSTORE PUSH1 0x32 PUSH1 0x4 MSTORE PUSH1 0x24 PUSH0 REVERT JUMPDEST PUSH4 0x4E487B71 PUSH1 0xE0 SHL PUSH0 MSTORE PUSH1 0x11 PUSH1 0x4 MSTORE PUSH1 0x24 PUSH0 REVERT JUMPDEST DUP1 DUP3 ADD DUP1 DUP3 GT ISZERO PUSH2 0x4F8 JUMPI PUSH2 0x4F8 PUSH2 0x1CA0 JUMP JUMPDEST DUP1 DUP3 MUL DUP2 ISZERO DUP3 DUP3 DIV DUP5 EQ OR PUSH2 0x4F8 JUMPI PUSH2 0x4F8 PUSH2 0x1CA0 JUMP JUMPDEST PUSH0 DUP3 PUSH2 0x1CF8 JUMPI PUSH4 0x4E487B71 PUSH1 0xE0 SHL PUSH0 MSTORE PUSH1 0x12 PUSH1 0x4 MSTORE PUSH1 0x24 PUSH0 REVERT JUMPDEST POP DIV SWAP1 JUMP JUMPDEST PUSH0 PUSH1 0x1 PUSH1 0x1 PUSH1 0xA0 SHL SUB DUP1 DUP9 AND DUP4 MSTORE DUP1 DUP8 AND PUSH1 0x20 DUP5 ADD MSTORE POP DUP5 PUSH1 0x40 DUP4 ADD MSTORE DUP4 PUSH1 0x60 DUP4 ADD MSTORE PUSH1 0xA0 PUSH1 0x80 DUP4 ADD MSTORE PUSH2 0x1D34 PUSH1 0xA0 DUP4 ADD DUP5 PUSH2 0x17E0 JUMP JUMPDEST SWAP8 SWAP7 POP POP POP POP POP POP POP JUMP JUMPDEST PUSH0 PUSH1 0x20 DUP3 DUP5 SUB SLT ISZERO PUSH2 0x1D4F JUMPI PUSH0 DUP1 REVERT JUMPDEST DUP2 MLOAD PUSH2 0x17C2 DUP2 PUSH2 0x1792 JUMP JUMPDEST PUSH0 PUSH1 0x1 PUSH1 0x1 PUSH1 0xA0 SHL SUB DUP1 DUP9 AND DUP4 MSTORE DUP1 DUP8 AND PUSH1 0x20 DUP5 ADD MSTORE POP PUSH1 0xA0 PUSH1 0x40 DUP4 ADD MSTORE PUSH2 0x1D85 PUSH1 0xA0 DUP4 ADD DUP7 PUSH2 0x1ABD JUMP JUMPDEST DUP3 DUP2 SUB PUSH1 0x60 DUP5 ADD MSTORE PUSH2 0x1D97 DUP2 DUP7 PUSH2 0x1ABD JUMP JUMPDEST SWAP1 POP DUP3 DUP2 SUB PUSH1 0x80 DUP5 ADD MSTORE PUSH2 0x1DAB DUP2 DUP6 PUSH2 0x17E0 JUMP JUMPDEST SWAP9 SWAP8 POP POP POP POP POP POP POP POP JUMP JUMPDEST PUSH1 0x40 DUP2 MSTORE PUSH0 PUSH2 0x1DC9 PUSH1 0x40 DUP4 ADD DUP6 PUSH2 0x1ABD JUMP JUMPDEST DUP3 DUP2 SUB PUSH1 0x20 DUP5 ADD MSTORE PUSH2 0x1DDB DUP2 DUP6 PUSH2 0x1ABD JUMP JUMPDEST SWAP6 SWAP5 POP POP POP POP POP JUMP INVALID LOG2 PUSH5 0x6970667358 0x22 SLT KECCAK256 INVALID DUP7 PUSH28 0x3BC162C4EA0FF6812BDD180DF1923F8231A2BEA31E90BF7610FC46E7 0xEA PUSH5 0x736F6C6343 STOP ADDMOD NOT STOP CALLER "
    },
    "gasEstimates": {
      "creation": {
        "codeDepositCost": "1541200",
        "executionCost": "infinite",
        "totalCost": "infinite"
      },
      "external": {
        "LOAN_TOKEN_ID()": "229",
        "balanceOf(address,uint256)": "2680",
        "balanceOfBatch(address[],uint256[])": "infinite",
        "borrower()": "2404",
        "claimReturns()": "infinite",
        "description()": "infinite",
        "duration()": "2329",
        "fundLoan(uint256)": "infinite",
        "fundingDeadline()": "2394",
        "getLoanDetails()": "infinite",
        "interestRate()": "2329",
        "isActive()": "2377",
        "isApprovedForAll(address,address)": "infinite",
        "isRepaid()": "2365",
        "loanAmount()": "2372",
        "owner()": "2397",
        "renounceOwnership()": "infinite",
        "repayLoan()": "infinite",
        "repaymentDate()": "2372",
        "safeBatchTransferFrom(address,address,uint256[],uint256[],bytes)": "infinite",
        "safeTransferFrom(address,address,uint256,uint256,bytes)": "infinite",
        "setApprovalForAll(address,bool)": "26767",
        "supportsInterface(bytes4)": "598",
        "totalFunded()": "2350",
        "transferOwnership(address)": "28406",
        "uri(uint256)": "infinite",
        "withdrawFunds()": "infinite"
      },
      "internal": {
        "_update(address,address,uint256[] memory,uint256[] memory)": "infinite"
      }
    },
    "methodIdentifiers": {
      "LOAN_TOKEN_ID()": "2cca0cde",
      "balanceOf(address,uint256)": "00fdd58e",
      "balanceOfBatch(address[],uint256[])": "4e1273f4",
      "borrower()": "7df1f1b9",
      "claimReturns()": "89376e40",
      "description()": "7284e416",
      "duration()": "0fb5a6b4",
      "fundLoan(uint256)": "846b909a",
      "fundingDeadline()": "796b23bb",
      "getLoanDetails()": "a3b9e39d",
      "interestRate()": "7c3a00fd",
      "isActive()": "22f3e2d4",
      "isApprovedForAll(address,address)": "e985e9c5",
      "isRepaid()": "6164051a",
      "loanAmount()": "9d585f7f",
      "owner()": "8da5cb5b",
      "renounceOwnership()": "715018a6",
      "repayLoan()": "f966ade7",
      "repaymentDate()": "b05f04d3",
      "safeBatchTransferFrom(address,address,uint256[],uint256[],bytes)": "2eb2c2d6",
      "safeTransferFrom(address,address,uint256,uint256,bytes)": "f242432a",
      "setApprovalForAll(address,bool)": "a22cb465",
      "supportsInterface(bytes4)": "01ffc9a7",
      "totalFunded()": "ad044f49",
      "transferOwnership(address)": "f2fde38b",
      "uri(uint256)": "0e89341c",
      "withdrawFunds()": "24600fc3"
    }
  },
  "storageLayout": {
    "storage": [
      {
        "astId": 740,
        "contract": "LndyLoan.sol:LndyLoan",
        "label": "_balances",
        "offset": 0,
        "slot": "0",
        "type": "t_mapping(t_uint256,t_mapping(t_address,t_uint256))"
      },
      {
        "astId": 746,
        "contract": "LndyLoan.sol:LndyLoan",
        "label": "_operatorApprovals",
        "offset": 0,
        "slot": "1",
        "type": "t_mapping(t_address,t_mapping(t_address,t_bool))"
      },
      {
        "astId": 748,
        "contract": "LndyLoan.sol:LndyLoan",
        "label": "_uri",
        "offset": 0,
        "slot": "2",
        "type": "t_string_storage"
      },
      {
        "astId": 559,
        "contract": "LndyLoan.sol:LndyLoan",
        "label": "_owner",
        "offset": 0,
        "slot": "3",
        "type": "t_address"
      },
      {
        "astId": 135,
        "contract": "LndyLoan.sol:LndyLoan",
        "label": "loanAmount",
        "offset": 0,
        "slot": "4",
        "type": "t_uint256"
      },
      {
        "astId": 137,
        "contract": "LndyLoan.sol:LndyLoan",
        "label": "interestRate",
        "offset": 0,
        "slot": "5",
        "type": "t_uint256"
      },
      {
        "astId": 139,
        "contract": "LndyLoan.sol:LndyLoan",
        "label": "duration",
        "offset": 0,
        "slot": "6",
        "type": "t_uint256"
      },
      {
        "astId": 141,
        "contract": "LndyLoan.sol:LndyLoan",
        "label": "fundingDeadline",
        "offset": 0,
        "slot": "7",
        "type": "t_uint256"
      },
      {
        "astId": 143,
        "contract": "LndyLoan.sol:LndyLoan",
        "label": "repaymentDate",
        "offset": 0,
        "slot": "8",
        "type": "t_uint256"
      },
      {
        "astId": 145,
        "contract": "LndyLoan.sol:LndyLoan",
        "label": "description",
        "offset": 0,
        "slot": "9",
        "type": "t_string_storage"
      },
      {
        "astId": 147,
        "contract": "LndyLoan.sol:LndyLoan",
        "label": "borrower",
        "offset": 0,
        "slot": "10",
        "type": "t_address"
      },
      {
        "astId": 149,
        "contract": "LndyLoan.sol:LndyLoan",
        "label": "totalFunded",
        "offset": 0,
        "slot": "11",
        "type": "t_uint256"
      },
      {
        "astId": 151,
        "contract": "LndyLoan.sol:LndyLoan",
        "label": "isActive",
        "offset": 0,
        "slot": "12",
        "type": "t_bool"
      },
      {
        "astId": 153,
        "contract": "LndyLoan.sol:LndyLoan",
        "label": "isRepaid",
        "offset": 1,
        "slot": "12",
        "type": "t_bool"
      }
    ],
    "types": {
      "t_address": {
        "encoding": "inplace",
        "label": "address",
        "numberOfBytes": "20"
      },
      "t_bool": {
        "encoding": "inplace",
        "label": "bool",
        "numberOfBytes": "1"
      },
      "t_mapping(t_address,t_bool)": {
        "encoding": "mapping",
        "key": "t_address",
        "label": "mapping(address => bool)",
        "numberOfBytes": "32",
        "value": "t_bool"
      },
      "t_mapping(t_address,t_mapping(t_address,t_bool))": {
        "encoding": "mapping",
        "key": "t_address",
        "label": "mapping(address => mapping(address => bool))",
        "numberOfBytes": "32",
        "value": "t_mapping(t_address,t_bool)"
      },
      "t_mapping(t_address,t_uint256)": {
        "encoding": "mapping",
        "key": "t_address",
        "label": "mapping(address => uint256)",
        "numberOfBytes": "32",
        "value": "t_uint256"
      },
      "t_mapping(t_uint256,t_mapping(t_address,t_uint256))": {
        "encoding": "mapping",
        "key": "t_uint256",
        "label": "mapping(uint256 => mapping(address => uint256))",
        "numberOfBytes": "32",
        "value": "t_mapping(t_address,t_uint256)"
      },
      "t_string_storage": {
        "encoding": "bytes",
        "label": "string",
        "numberOfBytes": "32"
      },
      "t_uint256": {
        "encoding": "inplace",
        "label": "uint256",
        "numberOfBytes": "32"
      }
    }
  },
  "userdoc": {
    "kind": "user",
    "methods": {},
    "version": 1
  }
}